{
  "contractName": "MemeSaleV2",
  "abi": [
    {
      "anonymous": false,
      "inputs": [
        {
          "indexed": false,
          "internalType": "uint256",
          "name": "creatorFee",
          "type": "uint256"
        }
      ],
      "name": "CreatorFee",
      "type": "event"
    },
    {
      "anonymous": false,
      "inputs": [
        {
          "indexed": false,
          "internalType": "uint256",
          "name": "ownerFee",
          "type": "uint256"
        }
      ],
      "name": "OwnerFee",
      "type": "event"
    },
    {
      "anonymous": false,
      "inputs": [
        {
          "indexed": false,
          "internalType": "uint256",
          "name": "platformFee",
          "type": "uint256"
        }
      ],
      "name": "PlatformFee",
      "type": "event"
    },
    {
      "anonymous": false,
      "inputs": [
        {
          "indexed": false,
          "internalType": "uint256",
          "name": "votersFee",
          "type": "uint256"
        }
      ],
      "name": "VotersFee",
      "type": "event"
    },
    {
      "inputs": [],
      "name": "DOMAIN_SEPARATOR",
      "outputs": [
        {
          "internalType": "bytes32",
          "name": "",
          "type": "bytes32"
        }
      ],
      "stateMutability": "view",
      "type": "function"
    },
    {
      "inputs": [],
      "name": "VERIFY_PRICE_TYPEHASH",
      "outputs": [
        {
          "internalType": "bytes32",
          "name": "",
          "type": "bytes32"
        }
      ],
      "stateMutability": "view",
      "type": "function"
    },
    {
      "inputs": [
        {
          "internalType": "uint256",
          "name": "",
          "type": "uint256"
        }
      ],
      "name": "isOnSale",
      "outputs": [
        {
          "internalType": "bool",
          "name": "",
          "type": "bool"
        }
      ],
      "stateMutability": "view",
      "type": "function"
    },
    {
      "inputs": [],
      "name": "memeOfTheDay",
      "outputs": [
        {
          "internalType": "contract MemeOfTheDayV2",
          "name": "",
          "type": "address"
        }
      ],
      "stateMutability": "view",
      "type": "function"
    },
    {
      "inputs": [],
      "name": "memeOfTheDayTreasury",
      "outputs": [
        {
          "internalType": "contract MOTDTreasuryV2",
          "name": "",
          "type": "address"
        }
      ],
      "stateMutability": "view",
      "type": "function"
    },
    {
      "inputs": [
        {
          "internalType": "address",
          "name": "memeOfTheDayAddress",
          "type": "address"
        },
        {
          "internalType": "address payable",
          "name": "motdTreasuryAddress",
          "type": "address"
        },
        {
          "internalType": "address",
          "name": "memeOfTheDaySaleParametersProviderAddress",
          "type": "address"
        },
        {
          "internalType": "string",
          "name": "version",
          "type": "string"
        }
      ],
      "name": "initialize",
      "outputs": [],
      "stateMutability": "nonpayable",
      "type": "function"
    },
    {
      "inputs": [
        {
          "internalType": "uint256",
          "name": "tokenId",
          "type": "uint256"
        }
      ],
      "name": "putOnSale",
      "outputs": [],
      "stateMutability": "nonpayable",
      "type": "function"
    },
    {
      "inputs": [
        {
          "internalType": "uint256",
          "name": "tokenId",
          "type": "uint256"
        }
      ],
      "name": "removeFromSale",
      "outputs": [],
      "stateMutability": "nonpayable",
      "type": "function"
    },
    {
      "inputs": [
        {
          "internalType": "uint256",
          "name": "tokenId",
          "type": "uint256"
        },
        {
          "internalType": "uint256",
          "name": "price",
          "type": "uint256"
        },
        {
          "internalType": "address payable[]",
          "name": "voters",
          "type": "address[]"
        },
        {
          "internalType": "uint256[]",
          "name": "votes",
          "type": "uint256[]"
        },
        {
          "internalType": "bool",
          "name": "payCreator",
          "type": "bool"
        },
        {
          "internalType": "uint8",
          "name": "v",
          "type": "uint8"
        },
        {
          "internalType": "bytes32",
          "name": "r",
          "type": "bytes32"
        },
        {
          "internalType": "bytes32",
          "name": "s",
          "type": "bytes32"
        }
      ],
      "name": "buy",
      "outputs": [],
      "stateMutability": "payable",
      "type": "function"
    },
    {
      "inputs": [],
      "name": "sayHello",
      "outputs": [
        {
          "internalType": "string",
          "name": "",
          "type": "string"
        }
      ],
      "stateMutability": "pure",
      "type": "function"
    }
  ],
  "bytecode": "0x608060405234801561001057600080fd5b50612b86806100206000396000f3fe6080604052600436106100915760003560e01c80639d6e60e3116100595780639d6e60e31461015a5780639dbcfd6f14610185578063e523bb42146101ae578063ef5fb05b146101d9578063f0f2805f1461020457610091565b80630483877d146100965780631361a3b6146100b25780633644e515146100db57806365e8e4f4146101065780638a728dc41461012f575b600080fd5b6100b060048036038101906100ab9190611e2d565b610241565b005b3480156100be57600080fd5b506100d960048036038101906100d49190611ddb565b610467565b005b3480156100e757600080fd5b506100f061060e565b6040516100fd9190612451565b60405180910390f35b34801561011257600080fd5b5061012d60048036038101906101289190611d37565b610614565b005b34801561013b57600080fd5b506101446107f7565b604051610151919061253b565b60405180910390f35b34801561016657600080fd5b5061016f61081d565b60405161017c9190612451565b60405180910390f35b34801561019157600080fd5b506101ac60048036038101906101a79190611ddb565b610844565b005b3480156101ba57600080fd5b506101c36109ec565b6040516101d09190612556565b60405180910390f35b3480156101e557600080fd5b506101ee610a12565b6040516101fb9190612571565b60405180910390f35b34801561021057600080fd5b5061022b60048036038101906102269190611ddb565b610a4f565b6040516102389190612436565b60405180910390f35b600460008b815260200190815260200160002060009054906101000a900460ff166102a1576040517f08c379a000000000000000000000000000000000000000000000000000000000815260040161029890612633565b60405180910390fd5b60007f01b2ca8b9a0a07d70c188f51d5d3ea9d76d3a4722a62ba8b3b3f9bbe316ca84460001b8b8b6040516020016102db939291906124bf565b6040516020818303038152906040529050600160029054906101000a900473ffffffffffffffffffffffffffffffffffffffff1673ffffffffffffffffffffffffffffffffffffffff16636352211e8c6040518263ffffffff1660e01b815260040161034791906126d3565b60206040518083038186803b15801561035f57600080fd5b505afa158015610373573d6000803e3d6000fd5b505050506040513d601f19601f820116820180604052508101906103979190611ce5565b73ffffffffffffffffffffffffffffffffffffffff166103bc60005486868686610a6f565b73ffffffffffffffffffffffffffffffffffffffff16146040518060400160405280601b81526020017f4d656d6553616c653a20696e76616c6964207369676e617475726500000000008152509061044a576040517f08c379a00000000000000000000000000000000000000000000000000000000081526004016104419190612571565b60405180910390fd5b5061045a8b8b8b8b8b8b8b610abc565b5050505050505050505050565b3373ffffffffffffffffffffffffffffffffffffffff16600160029054906101000a900473ffffffffffffffffffffffffffffffffffffffff1673ffffffffffffffffffffffffffffffffffffffff16636352211e836040518263ffffffff1660e01b81526004016104d991906126d3565b60206040518083038186803b1580156104f157600080fd5b505afa158015610505573d6000803e3d6000fd5b505050506040513d601f19601f820116820180604052508101906105299190611ce5565b73ffffffffffffffffffffffffffffffffffffffff161461057f576040517f08c379a000000000000000000000000000000000000000000000000000000000815260040161057690612653565b60405180910390fd5b6004600082815260200190815260200160002060009054906101000a900460ff166105df576040517f08c379a00000000000000000000000000000000000000000000000000000000081526004016105d690612613565b60405180910390fd5b60006004600083815260200190815260200160002060006101000a81548160ff02191690831515021790555050565b60005481565b60018054906101000a900460ff168061063a5750600160009054906101000a900460ff16155b610679576040517f08c379a0000000000000000000000000000000000000000000000000000000008152600401610670906125f3565b60405180910390fd5b600060018054906101000a900460ff1615905080156106c75760018060016101000a81548160ff02191690831515021790555060018060006101000a81548160ff0219169083151502179055505b84600160026101000a81548173ffffffffffffffffffffffffffffffffffffffff021916908373ffffffffffffffffffffffffffffffffffffffff16021790555083600260006101000a81548173ffffffffffffffffffffffffffffffffffffffff021916908373ffffffffffffffffffffffffffffffffffffffff16021790555082600360006101000a81548173ffffffffffffffffffffffffffffffffffffffff021916908373ffffffffffffffffffffffffffffffffffffffff1602179055506107c96040518060400160405280600881526020017f4d656d6553616c6500000000000000000000000000000000000000000000000081525083611294565b60008190555080156107f05760006001806101000a81548160ff0219169083151502179055505b5050505050565b600260009054906101000a900473ffffffffffffffffffffffffffffffffffffffff1681565b7f01b2ca8b9a0a07d70c188f51d5d3ea9d76d3a4722a62ba8b3b3f9bbe316ca84460001b81565b3373ffffffffffffffffffffffffffffffffffffffff16600160029054906101000a900473ffffffffffffffffffffffffffffffffffffffff1673ffffffffffffffffffffffffffffffffffffffff16636352211e836040518263ffffffff1660e01b81526004016108b691906126d3565b60206040518083038186803b1580156108ce57600080fd5b505afa1580156108e2573d6000803e3d6000fd5b505050506040513d601f19601f820116820180604052508101906109069190611ce5565b73ffffffffffffffffffffffffffffffffffffffff161461095c576040517f08c379a000000000000000000000000000000000000000000000000000000000815260040161095390612593565b60405180910390fd5b6004600082815260200190815260200160002060009054906101000a900460ff16156109bd576040517f08c379a00000000000000000000000000000000000000000000000000000000081526004016109b490612673565b60405180910390fd5b60016004600083815260200190815260200160002060006101000a81548160ff02191690831515021790555050565b600160029054906101000a900473ffffffffffffffffffffffffffffffffffffffff1681565b60606040518060400160405280601d81526020017f48656c6c6f2066726f6d20616674657220746865207570677261646521000000815250905090565b60046020528060005260406000206000915054906101000a900460ff1681565b600080868380519060200120604051602001610a8c929190612392565b604051602081830303815290604052805190602001209050610ab081878787611306565b91505095945050505050565b600080600080610acd8a8c87611495565b93509350935093507f2aad9e33ce58271cb1401a4211b102aad5eed0b41fcd4221b3b8f5977583371484604051610b0491906126d3565b60405180910390a17fce38999dded47da0afaf5ed4186a2b50ab40367c7b0abc2ba7e2ee3db0d1a28183604051610b3b91906126d3565b60405180910390a17f6f9983488bd1500c372d1f10befe9e7790d764b18c848cfa10872f4e248ded9282604051610b7291906126d3565b60405180910390a17fd0d39a845ce9a85c506556420bacf3313b17c54cb854655b4c3b5284ffe4365281604051610ba991906126d3565b60405180910390a16000805b88889050811015610c2057888882818110610bf9577f4e487b7100000000000000000000000000000000000000000000000000000000600052603260045260246000fd5b9050602002013582610c0b9190612792565b91508080610c18906129be565b915050610bb5565b5060005b8a8a9050811015610d97576000828a8a84818110610c6b577f4e487b7100000000000000000000000000000000000000000000000000000000600052603260045260246000fd5b90506020020135610c7c91906127e8565b87610c879190612819565b905060008c8c84818110610cc4577f4e487b7100000000000000000000000000000000000000000000000000000000600052603260045260246000fd5b9050602002016020810190610cd99190611d0e565b73ffffffffffffffffffffffffffffffffffffffff1682604051610cfc906123c9565b60006040518083038185875af1925050503d8060008114610d39576040519150601f19603f3d011682016040523d82523d6000602084013e610d3e565b606091505b5050905080610d82576040517f08c379a0000000000000000000000000000000000000000000000000000000008152600401610d7990612693565b60405180910390fd5b50508080610d8f906129be565b915050610c24565b508515610ef6576000600160029054906101000a900473ffffffffffffffffffffffffffffffffffffffff1673ffffffffffffffffffffffffffffffffffffffff1663589a17438e6040518263ffffffff1660e01b8152600401610dfb91906126d3565b60206040518083038186803b158015610e1357600080fd5b505afa158015610e27573d6000803e3d6000fd5b505050506040513d601f19601f82011682018060405250810190610e4b9190611ce5565b73ffffffffffffffffffffffffffffffffffffffff1685604051610e6e906123c9565b60006040518083038185875af1925050503d8060008114610eab576040519150601f19603f3d011682016040523d82523d6000602084013e610eb0565b606091505b5050905080610ef4576040517f08c379a0000000000000000000000000000000000000000000000000000000008152600401610eeb90612693565b60405180910390fd5b505b6000600260009054906101000a900473ffffffffffffffffffffffffffffffffffffffff1673ffffffffffffffffffffffffffffffffffffffff1684604051610f3e906123c9565b60006040518083038185875af1925050503d8060008114610f7b576040519150601f19603f3d011682016040523d82523d6000602084013e610f80565b606091505b5050905080610fc4576040517f08c379a0000000000000000000000000000000000000000000000000000000008152600401610fbb90612693565b60405180910390fd5b6000600160029054906101000a900473ffffffffffffffffffffffffffffffffffffffff1673ffffffffffffffffffffffffffffffffffffffff16636352211e8f6040518263ffffffff1660e01b815260040161102191906126d3565b60206040518083038186803b15801561103957600080fd5b505afa15801561104d573d6000803e3d6000fd5b505050506040513d601f19601f820116820180604052508101906110719190611ce5565b73ffffffffffffffffffffffffffffffffffffffff1684604051611094906123c9565b60006040518083038185875af1925050503d80600081146110d1576040519150601f19603f3d011682016040523d82523d6000602084013e6110d6565b606091505b505090508061111a576040517f08c379a000000000000000000000000000000000000000000000000000000000815260040161111190612693565b60405180910390fd5b5050600160029054906101000a900473ffffffffffffffffffffffffffffffffffffffff1673ffffffffffffffffffffffffffffffffffffffff1663f242432a600160029054906101000a900473ffffffffffffffffffffffffffffffffffffffff1673ffffffffffffffffffffffffffffffffffffffff16636352211e8f6040518263ffffffff1660e01b81526004016111b591906126d3565b60206040518083038186803b1580156111cd57600080fd5b505afa1580156111e1573d6000803e3d6000fd5b505050506040513d601f19601f820116820180604052508101906112059190611ce5565b338f60016040518563ffffffff1660e01b815260040161122894939291906123de565b600060405180830381600087803b15801561124257600080fd5b505af1158015611256573d6000803e3d6000fd5b505050506000600460008e815260200190815260200160002060006101000a81548160ff021916908315150217905550505050505050505050505050565b6000804690507f8b73c3c69bb8fe3d512ecc4cf759cc79239f7b179b0ffacaa9a75d522b39400f60001b848051906020012084805190602001208360001b306040516020016112e795949392919061246c565b6040516020818303038152906040528051906020012091505092915050565b60007f7fffffffffffffffffffffffffffffff5d576e7357a4501ddfe92f46681b20a08260001c111561136e576040517f08c379a0000000000000000000000000000000000000000000000000000000008152600401611365906126b3565b60405180910390fd5b601b8460ff16141580156113865750601c8460ff1614155b156113c6576040517f08c379a00000000000000000000000000000000000000000000000000000000081526004016113bd906125b3565b60405180910390fd5b6000600186868686604051600081526020016040526040516113eb94939291906124f6565b6020604051602081039080840390855afa15801561140d573d6000803e3d6000fd5b505050602060405103519050600073ffffffffffffffffffffffffffffffffffffffff168173ffffffffffffffffffffffffffffffffffffffff161415611489576040517f08c379a0000000000000000000000000000000000000000000000000000000008152600401611480906125d3565b60405180910390fd5b80915050949350505050565b60008060008060006114a68861150f565b905060006114b589898961167a565b905060006114c28a611994565b905080838b6114d19190612792565b6114db9190612792565b3410156114e757600080fd5b60006114f4848484611aff565b90508383838397509750975097505050505093509350935093565b6000600360009054906101000a900473ffffffffffffffffffffffffffffffffffffffff1673ffffffffffffffffffffffffffffffffffffffff16632a4a9dd1600360009054906101000a900473ffffffffffffffffffffffffffffffffffffffff1673ffffffffffffffffffffffffffffffffffffffff16633e2dce1e6040518163ffffffff1660e01b815260040160206040518083038186803b1580156115b757600080fd5b505afa1580156115cb573d6000803e3d6000fd5b505050506040513d601f19601f820116820180604052508101906115ef9190611e04565b6040518263ffffffff1660e01b815260040161160b91906126d3565b60206040518083038186803b15801561162357600080fd5b505afa158015611637573d6000803e3d6000fd5b505050506040513d601f19601f8201168201806040525081019061165b9190611e04565b6103e88361166991906127e8565b6116739190612819565b9050919050565b600080600090508215611989577fffffffffffffffffffffffffffffffffffffffffffffffffffffffffffffffff600160029054906101000a900473ffffffffffffffffffffffffffffffffffffffff1673ffffffffffffffffffffffffffffffffffffffff166378c3829b866040518263ffffffff1660e01b815260040161170391906126d3565b60206040518083038186803b15801561171b57600080fd5b505afa15801561172f573d6000803e3d6000fd5b505050506040513d601f19601f820116820180604052508101906117539190611db2565b131561182357600160029054906101000a900473ffffffffffffffffffffffffffffffffffffffff1673ffffffffffffffffffffffffffffffffffffffff166378c3829b856040518263ffffffff1660e01b81526004016117b491906126d3565b60206040518083038186803b1580156117cc57600080fd5b505afa1580156117e0573d6000803e3d6000fd5b505050506040513d601f19601f820116820180604052508101906118049190611db2565b6103e88661181291906127e8565b61181c9190612819565b9050611988565b600360009054906101000a900473ffffffffffffffffffffffffffffffffffffffff1673ffffffffffffffffffffffffffffffffffffffff16632a4a9dd1600360009054906101000a900473ffffffffffffffffffffffffffffffffffffffff1673ffffffffffffffffffffffffffffffffffffffff1663443139f16040518163ffffffff1660e01b815260040160206040518083038186803b1580156118c957600080fd5b505afa1580156118dd573d6000803e3d6000fd5b505050506040513d601f19601f820116820180604052508101906119019190611e04565b6040518263ffffffff1660e01b815260040161191d91906126d3565b60206040518083038186803b15801561193557600080fd5b505afa158015611949573d6000803e3d6000fd5b505050506040513d601f19601f8201168201806040525081019061196d9190611e04565b6103e88661197b91906127e8565b6119859190612819565b90505b5b809150509392505050565b6000600360009054906101000a900473ffffffffffffffffffffffffffffffffffffffff1673ffffffffffffffffffffffffffffffffffffffff16632a4a9dd1600360009054906101000a900473ffffffffffffffffffffffffffffffffffffffff1673ffffffffffffffffffffffffffffffffffffffff16632648cd806040518163ffffffff1660e01b815260040160206040518083038186803b158015611a3c57600080fd5b505afa158015611a50573d6000803e3d6000fd5b505050506040513d601f19601f82011682018060405250810190611a749190611e04565b6040518263ffffffff1660e01b8152600401611a9091906126d3565b60206040518083038186803b158015611aa857600080fd5b505afa158015611abc573d6000803e3d6000fd5b505050506040513d601f19601f82011682018060405250810190611ae09190611e04565b6103e883611aee91906127e8565b611af89190612819565b9050919050565b600081838534611b0f9190612873565b611b199190612873565b611b239190612873565b90509392505050565b6000611b3f611b3a8461271f565b6126ee565b905082815260208101848484011115611b5757600080fd5b611b6284828561297c565b509392505050565b600081359050611b7981612aaf565b92915050565b600081519050611b8e81612aaf565b92915050565b600081359050611ba381612ac6565b92915050565b60008083601f840112611bbb57600080fd5b8235905067ffffffffffffffff811115611bd457600080fd5b602083019150836020820283011115611bec57600080fd5b9250929050565b60008083601f840112611c0557600080fd5b8235905067ffffffffffffffff811115611c1e57600080fd5b602083019150836020820283011115611c3657600080fd5b9250929050565b600081359050611c4c81612add565b92915050565b600081359050611c6181612af4565b92915050565b600081519050611c7681612b0b565b92915050565b600082601f830112611c8d57600080fd5b8135611c9d848260208601611b2c565b91505092915050565b600081359050611cb581612b22565b92915050565b600081519050611cca81612b22565b92915050565b600081359050611cdf81612b39565b92915050565b600060208284031215611cf757600080fd5b6000611d0584828501611b7f565b91505092915050565b600060208284031215611d2057600080fd5b6000611d2e84828501611b94565b91505092915050565b60008060008060808587031215611d4d57600080fd5b6000611d5b87828801611b6a565b9450506020611d6c87828801611b94565b9350506040611d7d87828801611b6a565b925050606085013567ffffffffffffffff811115611d9a57600080fd5b611da687828801611c7c565b91505092959194509250565b600060208284031215611dc457600080fd5b6000611dd284828501611c67565b91505092915050565b600060208284031215611ded57600080fd5b6000611dfb84828501611ca6565b91505092915050565b600060208284031215611e1657600080fd5b6000611e2484828501611cbb565b91505092915050565b6000806000806000806000806000806101008b8d031215611e4d57600080fd5b6000611e5b8d828e01611ca6565b9a50506020611e6c8d828e01611ca6565b99505060408b013567ffffffffffffffff811115611e8957600080fd5b611e958d828e01611ba9565b985098505060608b013567ffffffffffffffff811115611eb457600080fd5b611ec08d828e01611bf3565b96509650506080611ed38d828e01611c3d565b94505060a0611ee48d828e01611cd0565b93505060c0611ef58d828e01611c52565b92505060e0611f068d828e01611c52565b9150509295989b9194979a5092959850565b611f21816128a7565b82525050565b611f30816128cb565b82525050565b611f3f816128d7565b82525050565b611f56611f51826128d7565b612a07565b82525050565b611f6581612922565b82525050565b611f7481612946565b82525050565b611f838161296a565b82525050565b6000611f948261274f565b611f9e8185612776565b9350611fae81856020860161298b565b611fb781612a9e565b840191505092915050565b6000611fcf602383612776565b91507f4f6e6c79206f776e6572206f6620746f6b656e2063616e20707574206f6e207360008301527f616c6500000000000000000000000000000000000000000000000000000000006020830152604082019050919050565b6000612035602683612776565b91507f45435265636f7665723a20696e76616c6964207369676e61747572652027762760008301527f2076616c756500000000000000000000000000000000000000000000000000006020830152604082019050919050565b600061209b600283612787565b91507f19010000000000000000000000000000000000000000000000000000000000006000830152600282019050919050565b60006120db601c83612776565b91507f45435265636f7665723a20696e76616c6964207369676e6174757265000000006000830152602082019050919050565b600061211b602e83612776565b91507f496e697469616c697a61626c653a20636f6e747261637420697320616c72656160008301527f647920696e697469616c697a65640000000000000000000000000000000000006020830152604082019050919050565b6000612181601d83612776565b91507f546f6b656e206973206e6f74206f6e2073616c6520616c7265616479210000006000830152602082019050919050565b60006121c1601a83612776565b91507f476976656e20746f6b656e206973206e6f74206f6e2073616c650000000000006000830152602082019050919050565b6000612201603283612776565b91507f4f6e6c79206f776e6572206f6620746f6b656e2063616e2072656d6f7665207460008301527f686520746f6b656e2066726f6d2073616c6500000000000000000000000000006020830152604082019050919050565b600061226760008361275a565b9150600082019050919050565b600061228160008361276b565b9150600082019050919050565b600061229b601983612776565b91507f546f6b656e20697320616c7265616479206f6e2073616c6521000000000000006000830152602082019050919050565b60006122db601083612776565b91507f5472616e73666572206661696c65642e000000000000000000000000000000006000830152602082019050919050565b600061231b602683612776565b91507f45435265636f7665723a20696e76616c6964207369676e61747572652027732760008301527f2076616c756500000000000000000000000000000000000000000000000000006020830152604082019050919050565b61237d8161290b565b82525050565b61238c81612915565b82525050565b600061239d8261208e565b91506123a98285611f45565b6020820191506123b98284611f45565b6020820191508190509392505050565b60006123d482612274565b9150819050919050565b600060a0820190506123f36000830187611f18565b6124006020830186611f18565b61240d6040830185612374565b61241a6060830184611f7a565b818103608083015261242b8161225a565b905095945050505050565b600060208201905061244b6000830184611f27565b92915050565b60006020820190506124666000830184611f36565b92915050565b600060a0820190506124816000830188611f36565b61248e6020830187611f36565b61249b6040830186611f36565b6124a86060830185611f36565b6124b56080830184611f18565b9695505050505050565b60006060820190506124d46000830186611f36565b6124e16020830185612374565b6124ee6040830184612374565b949350505050565b600060808201905061250b6000830187611f36565b6125186020830186612383565b6125256040830185611f36565b6125326060830184611f36565b95945050505050565b60006020820190506125506000830184611f5c565b92915050565b600060208201905061256b6000830184611f6b565b92915050565b6000602082019050818103600083015261258b8184611f89565b905092915050565b600060208201905081810360008301526125ac81611fc2565b9050919050565b600060208201905081810360008301526125cc81612028565b9050919050565b600060208201905081810360008301526125ec816120ce565b9050919050565b6000602082019050818103600083015261260c8161210e565b9050919050565b6000602082019050818103600083015261262c81612174565b9050919050565b6000602082019050818103600083015261264c816121b4565b9050919050565b6000602082019050818103600083015261266c816121f4565b9050919050565b6000602082019050818103600083015261268c8161228e565b9050919050565b600060208201905081810360008301526126ac816122ce565b9050919050565b600060208201905081810360008301526126cc8161230e565b9050919050565b60006020820190506126e86000830184612374565b92915050565b6000604051905081810181811067ffffffffffffffff8211171561271557612714612a6f565b5b8060405250919050565b600067ffffffffffffffff82111561273a57612739612a6f565b5b601f19601f8301169050602081019050919050565b600081519050919050565b600082825260208201905092915050565b600081905092915050565b600082825260208201905092915050565b600081905092915050565b600061279d8261290b565b91506127a88361290b565b9250827fffffffffffffffffffffffffffffffffffffffffffffffffffffffffffffffff038211156127dd576127dc612a11565b5b828201905092915050565b60006127f38261290b565b91506127fe8361290b565b92508261280e5761280d612a40565b5b828204905092915050565b60006128248261290b565b915061282f8361290b565b9250817fffffffffffffffffffffffffffffffffffffffffffffffffffffffffffffffff048311821515161561286857612867612a11565b5b828202905092915050565b600061287e8261290b565b91506128898361290b565b92508282101561289c5761289b612a11565b5b828203905092915050565b60006128b2826128eb565b9050919050565b60006128c4826128eb565b9050919050565b60008115159050919050565b6000819050919050565b6000819050919050565b600073ffffffffffffffffffffffffffffffffffffffff82169050919050565b6000819050919050565b600060ff82169050919050565b600061292d82612934565b9050919050565b600061293f826128eb565b9050919050565b600061295182612958565b9050919050565b6000612963826128eb565b9050919050565b60006129758261290b565b9050919050565b82818337600083830152505050565b60005b838110156129a957808201518184015260208101905061298e565b838111156129b8576000848401525b50505050565b60006129c98261290b565b91507fffffffffffffffffffffffffffffffffffffffffffffffffffffffffffffffff8214156129fc576129fb612a11565b5b600182019050919050565b6000819050919050565b7f4e487b7100000000000000000000000000000000000000000000000000000000600052601160045260246000fd5b7f4e487b7100000000000000000000000000000000000000000000000000000000600052601260045260246000fd5b7f4e487b7100000000000000000000000000000000000000000000000000000000600052604160045260246000fd5b6000601f19601f8301169050919050565b612ab8816128a7565b8114612ac357600080fd5b50565b612acf816128b9565b8114612ada57600080fd5b50565b612ae6816128cb565b8114612af157600080fd5b50565b612afd816128d7565b8114612b0857600080fd5b50565b612b14816128e1565b8114612b1f57600080fd5b50565b612b2b8161290b565b8114612b3657600080fd5b50565b612b4281612915565b8114612b4d57600080fd5b5056fea2646970667358221220fe06e0c56f37e7f80f4e09a1772e27dc9300f6c6245b40a5145a0c76ca9e985d64736f6c63430008000033",
  "immutableReferences": {},
  "source": "// SPDX-License-Identifier: MIT\r\npragma solidity ^0.8.0;\r\n\r\n//Removed because sol 0.8.0 already checks for over and underflow\r\n//import \"@openzeppelin/contracts/math/SafeMath.sol\";\r\n\r\nimport {EIP712Domain} from \"./EIP712Domain.sol\";\r\nimport {EIP712} from \"./EIP712.sol\";\r\nimport \"../../../node_modules/@openzeppelin/contracts-upgradeable/proxy/utils/Initializable.sol\";\r\n\r\n//IN CASE OF UPGRADE THESE IMPORTS NEED TO BE UPDATED AS WELL\r\nimport \"./MemeOfTheDayV2.sol\";\r\nimport \"./MOTDTreasuryV2.sol\";\r\nimport \"./MOTDSaleParametersProviderV2.sol\";\r\n\r\n/**\r\n * @title MemeSale\r\n * @notice contract that handles sales of memes\r\n * @author MemeOfTheDay\r\n */\r\ncontract MemeSaleV2 is EIP712Domain, Initializable{\r\n    //Removed because sol 0.8.0 already checks for over and underflow\r\n    //using SafeMath for uint256;\r\n\r\n    string internal constant VERIFYING_CONTRACT_NAME = \"MemeSale\";\r\n\r\n    // keccak256(VerifyPrice(uint256 tokenId,uint256 price)\")\r\n    bytes32\r\n        public constant VERIFY_PRICE_TYPEHASH = 0x01b2ca8b9a0a07d70c188f51d5d3ea9d76d3a4722a62ba8b3b3f9bbe316ca844;\r\n\r\n    string\r\n        internal constant _INVALID_SIGNATURE_ERROR = \"MemeSale: invalid signature\";\r\n\r\n    MemeOfTheDayV2 public memeOfTheDay;\r\n    MOTDTreasuryV2 public memeOfTheDayTreasury;\r\n    MOTDSaleParametersProviderV2 memeOfTheDaySaleParametersProvider;\r\n\r\n    mapping(uint256 => bool) public isOnSale;\r\n\r\n    event VotersFee(uint256 votersFee);\r\n    event CreatorFee(uint256 creatorFee);\r\n    event PlatformFee(uint256 platformFee);\r\n    event OwnerFee(uint256 ownerFee);\r\n\r\n    function initialize(\r\n        address memeOfTheDayAddress,\r\n        address payable motdTreasuryAddress,\r\n        address memeOfTheDaySaleParametersProviderAddress,\r\n        string memory version\r\n        ) public initializer {\r\n         memeOfTheDay = MemeOfTheDayV2(memeOfTheDayAddress);\r\n\r\n        memeOfTheDayTreasury = MOTDTreasuryV2(motdTreasuryAddress);\r\n\r\n        memeOfTheDaySaleParametersProvider = MOTDSaleParametersProviderV2(memeOfTheDaySaleParametersProviderAddress);\r\n        \r\n        DOMAIN_SEPARATOR = EIP712.makeDomainSeparator(\r\n            VERIFYING_CONTRACT_NAME,\r\n            version\r\n        );\r\n    }\r\n   \r\n\r\n    //REPLACED BY INITIALIZER DUE TO UPGRADEABLE DESIGN\r\n    // constructor(\r\n    //     address memeOfTheDayAddress,\r\n    //     address payable motdTreasuryAddress,\r\n    //     address memeOfTheDaySaleParametersProviderAddress,\r\n    //     string memory version\r\n    // ) public {\r\n    //     memeOfTheDay = MemeOfTheDay(memeOfTheDayAddress);\r\n    //     memeOfTheDayTreasury = MOTDTreasury(motdTreasuryAddress);\r\n    //     memeOfTheDaySaleParametersProvider = MOTDSaleParametersProvider(\r\n    //         memeOfTheDaySaleParametersProviderAddress\r\n    //     );\r\n\r\n    //     DOMAIN_SEPARATOR = EIP712.makeDomainSeparator(\r\n    //         VERIFYING_CONTRACT_NAME,\r\n    //         version\r\n    //     );\r\n    // }\r\n\r\n    /**\r\n     * @notice Puts on sale a token\r\n     * @param tokenId the id of the token to put to sale\r\n     */\r\n    function putOnSale(uint256 tokenId) external {\r\n        require(\r\n            memeOfTheDay.ownerOf(tokenId) == msg.sender,\r\n            \"Only owner of token can put on sale\"\r\n        );\r\n        require(!isOnSale[tokenId], \"Token is already on sale!\");\r\n\r\n        isOnSale[tokenId] = true;\r\n    }\r\n\r\n    /**\r\n     * @notice Removes from sale a token\r\n     * @param tokenId the id of the token to remove from sale\r\n     */\r\n    function removeFromSale(uint256 tokenId) external {\r\n        require(\r\n            memeOfTheDay.ownerOf(tokenId) == msg.sender,\r\n            \"Only owner of token can remove the token from sale\"\r\n        );\r\n        require(isOnSale[tokenId], \"Token is not on sale already!\");\r\n\r\n        isOnSale[tokenId] = false;\r\n    }\r\n\r\n    /**\r\n     * @notice Buys token\r\n     * @param tokenId       the id of the token to buy\r\n     * @param price         the price of the token on sale\r\n     * @param voters        array of voters on the meme\r\n     * @param votes         array of votes of the voters\r\n     * @param payCreator    defines if creator has to be paid or not\r\n     * @param v             v part of the seller's signature\r\n     * @param r             r part of the seller's signature\r\n     * @param s             s part of the seller's signature\r\n     */\r\n    function buy(\r\n        uint256 tokenId,\r\n        uint256 price,\r\n        address payable[] calldata voters,\r\n        uint256[] calldata votes,\r\n        bool payCreator,\r\n        uint8 v,\r\n        bytes32 r,\r\n        bytes32 s\r\n    ) external payable {\r\n        require(isOnSale[tokenId], \"Given token is not on sale\");\r\n\r\n        bytes memory data = abi.encode(VERIFY_PRICE_TYPEHASH, tokenId, price);\r\n\r\n        require(\r\n            EIP712.recover(DOMAIN_SEPARATOR, v, r, s, data) ==\r\n                memeOfTheDay.ownerOf(tokenId),\r\n            _INVALID_SIGNATURE_ERROR\r\n        );\r\n\r\n        _buy(tokenId, price, voters, votes, payCreator);\r\n    }\r\n\r\n    function _buy(\r\n        uint256 tokenId,\r\n        uint256 price,\r\n        address payable[] calldata voters,\r\n        uint256[] calldata votes,\r\n        bool payCreator\r\n    ) internal {\r\n        (\r\n            uint256 votersFee,\r\n            uint256 creatorFee,\r\n            uint256 platformFee,\r\n            uint256 ownerFee\r\n        ) = _getFeesAmounts(price, tokenId, payCreator);\r\n\r\n        emit VotersFee(votersFee);\r\n        emit CreatorFee(creatorFee);\r\n        emit PlatformFee(platformFee);\r\n        emit OwnerFee(ownerFee);\r\n\r\n\r\n        //BLOCK SCOPING DUE TO STACK TOO DEEP ERROR !!!\r\n\r\n\r\n    //    { //BLOCK SCOPE 1 START\r\n\r\n            \r\n        uint256 totVotes = 0;\r\n        for (uint256 i = 0; i < votes.length; i++) {\r\n            totVotes += votes[i];\r\n        }\r\n\r\n        for (uint256 i = 0; i < voters.length; i++) {\r\n            uint256 voterFee = votersFee * (votes[i]/totVotes); //No more div or mul becasue SafeMath checks are native to sol 0.8.0\r\n            (bool success, ) = voters[i].call{value: voterFee}(\"\"); //use call{value: }(\"\") instead of Transfer since Istanbul fork! EIP 1884\r\n            require(success, \"Transfer failed.\");\r\n        }\r\n\r\n\r\n    //    }  //BLOCK SCOPE 1 END\r\n\r\n    //    {  //BLOCK SCOPE 2 START\r\n\r\n              if (payCreator) {\r\n           (bool success1, ) = memeOfTheDay.creatorOf(tokenId).call{value: creatorFee}(\"\");  //use call{value: }(\"\") instead of Transfer since Istanbul fork! EIP 1884\r\n           require(success1, \"Transfer failed.\");\r\n        }\r\n\r\n    //    }  //BLOCK SCOPE 2 END\r\n\r\n        {  //BLOCK SCOPE 3 Start\r\n\r\n        (bool success2, ) = address(memeOfTheDayTreasury).call{value: platformFee}(\"\"); //use call{value: }(\"\") instead of Transfer since Istanbul fork! EIP 1884\r\n         require(success2, \"Transfer failed.\");\r\n        (bool success3, ) = memeOfTheDay.ownerOf(tokenId).call{value: ownerFee}(\"\");  //use call{value: }(\"\") instead of Transfer since Istanbul fork! EIP 1884\r\n         require(success3, \"Transfer failed.\");\r\n\r\n        }  //BLOCK SCOPE 3 END\r\n\r\n        {  //BLOCK SCOPE 4 START\r\n\r\n        memeOfTheDay.safeTransferFrom(\r\n            memeOfTheDay.ownerOf(tokenId),\r\n            msg.sender,\r\n            tokenId,\r\n            1,\r\n            \"\"\r\n        );\r\n\r\n        isOnSale[tokenId] = false;\r\n\r\n        }  //BLOCK SCOPE 4 END\r\n\r\n        //LOOKS LIKE OWNLY BLOCK SCOPE 3 AND 4 ARE NEEDED TO SOLVE STACK TOO DEEP ISSUE\r\n    }\r\n\r\n    function _getVotersFee(uint256 tokenPrice) internal view returns (uint256) {\r\n        return\r\n            tokenPrice / (1000) * (                                //No more div or mul because SafeMath checks are native since sol 0.8.0\r\n                memeOfTheDaySaleParametersProvider.parameters(\r\n                    memeOfTheDaySaleParametersProvider\r\n                        .VOTERS_FEE_PERCENT_INDEX()\r\n                )\r\n            );\r\n    }\r\n\r\n    function _getCreatorFee(\r\n        uint256 tokenPrice,\r\n        uint256 tokenId,\r\n        bool payCreator\r\n    ) internal view returns (uint256) {\r\n        uint256 creatorFee = 0;\r\n        if (payCreator) {\r\n            if (memeOfTheDay.creatorFee(tokenId) > -1) {\r\n                creatorFee = tokenPrice / (1000) * (            //No more div or mul becasue SafeMath checks are native to sol 0.8.0\r\n                    uint256(memeOfTheDay.creatorFee(tokenId))\r\n                );\r\n            } else {\r\n                creatorFee = tokenPrice / (1000) * (                //No more div or mul becasue SafeMath checks are native to sol 0.8.0\r\n                    memeOfTheDaySaleParametersProvider.parameters(\r\n                        memeOfTheDaySaleParametersProvider\r\n                            .DEFAULT_CREATOR_FEE_PERCENT_INDEX()\r\n                    )\r\n                );\r\n            }\r\n        }\r\n\r\n        return creatorFee;\r\n    }\r\n\r\n    function _getPlatformFee(uint256 tokenPrice)\r\n        internal\r\n        view\r\n        returns (uint256)\r\n    {\r\n        return\r\n            tokenPrice / (1000) * (                             //No more div or mul becasue SafeMath checks are native to sol 0.8.0\r\n                memeOfTheDaySaleParametersProvider.parameters(\r\n                    memeOfTheDaySaleParametersProvider\r\n                        .PLATFORM_FEE_PERCENT_INDEX()\r\n                )\r\n            );\r\n    }\r\n\r\n    function _getOwnerFee(\r\n        uint256 votersFee,\r\n        uint256 creatorFee,\r\n        uint256 platformFee\r\n    ) internal view returns (uint256) {\r\n\r\n        //economic model \"buyer pay fee\", buyer needs to send to contract\r\n        //token price including voters fee and platform fee\r\n        return msg.value - (votersFee) - (creatorFee) - (platformFee);    //No more sub, add, div or mul becasue SafeMath checks are native to sol 0.8.0\r\n    }\r\n\r\n    function _getFeesAmounts(\r\n        uint256 tokenPrice,\r\n        uint256 tokenId,\r\n        bool payCreator\r\n    )\r\n        internal\r\n        view\r\n        returns (\r\n            uint256,\r\n            uint256,\r\n            uint256,\r\n            uint256\r\n        )\r\n    {\r\n        uint256 votersFee = _getVotersFee(tokenPrice);\r\n        uint256 creatorFee = _getCreatorFee(tokenPrice, tokenId, payCreator);\r\n        uint256 platformFee = _getPlatformFee(tokenPrice);\r\n        //buyer pays fees economic model check\r\n        require(msg.value >= tokenPrice+votersFee+platformFee);\r\n        uint256 ownerFee = _getOwnerFee(\r\n            votersFee,\r\n            creatorFee,\r\n            platformFee\r\n        );\r\n\r\n        return (votersFee, creatorFee, platformFee, ownerFee);\r\n    }\r\n\r\n    \r\n    function sayHello() public pure returns(string memory){\r\n        return \"Hello from after the upgrade!\";\r\n    }\r\n}",
  "sourcePath": "C:/Users/sound/Desktop/MOTD/meme-repo-copy/src/contracts/src/MemeSaleV2.sol",
  "compiler": {
    "name": "solc",
    "version": "0.8.0+commit.c7dfd78e.Emscripten.clang"
  },
  "schemaVersion": "3.3.4",
  "updatedAt": "2021-05-01T15:31:21.069Z",
  "devdoc": {
    "author": "MemeOfTheDay",
    "kind": "dev",
    "methods": {
      "buy(uint256,uint256,address[],uint256[],bool,uint8,bytes32,bytes32)": {
        "params": {
          "payCreator": "defines if creator has to be paid or not",
          "price": "the price of the token on sale",
          "r": "r part of the seller's signature",
          "s": "s part of the seller's signature",
          "tokenId": "the id of the token to buy",
          "v": "v part of the seller's signature",
          "voters": "array of voters on the meme",
          "votes": "array of votes of the voters"
        }
      },
      "putOnSale(uint256)": {
        "params": {
          "tokenId": "the id of the token to put to sale"
        }
      },
      "removeFromSale(uint256)": {
        "params": {
          "tokenId": "the id of the token to remove from sale"
        }
      }
    },
    "title": "MemeSale",
    "version": 1
  },
  "userdoc": {
    "kind": "user",
    "methods": {
      "buy(uint256,uint256,address[],uint256[],bool,uint8,bytes32,bytes32)": {
        "notice": "Buys token"
      },
      "putOnSale(uint256)": {
        "notice": "Puts on sale a token"
      },
      "removeFromSale(uint256)": {
        "notice": "Removes from sale a token"
      }
    },
    "notice": "contract that handles sales of memes",
    "version": 1
  }
}