{
  "contractName": "MemeOfTheDayV2",
  "abi": [
    {
      "anonymous": false,
      "inputs": [
        {
          "indexed": true,
          "internalType": "address",
          "name": "account",
          "type": "address"
        },
        {
          "indexed": true,
          "internalType": "address",
          "name": "operator",
          "type": "address"
        },
        {
          "indexed": false,
          "internalType": "bool",
          "name": "approved",
          "type": "bool"
        }
      ],
      "name": "ApprovalForAll",
      "type": "event"
    },
    {
      "anonymous": false,
      "inputs": [
        {
          "indexed": false,
          "internalType": "address",
          "name": "creator",
          "type": "address"
        },
        {
          "indexed": false,
          "internalType": "uint256",
          "name": "tokenId",
          "type": "uint256"
        }
      ],
      "name": "MemeMinted",
      "type": "event"
    },
    {
      "anonymous": false,
      "inputs": [
        {
          "indexed": true,
          "internalType": "address",
          "name": "previousOwner",
          "type": "address"
        },
        {
          "indexed": true,
          "internalType": "address",
          "name": "newOwner",
          "type": "address"
        }
      ],
      "name": "OwnershipTransferred",
      "type": "event"
    },
    {
      "anonymous": false,
      "inputs": [
        {
          "indexed": true,
          "internalType": "address",
          "name": "operator",
          "type": "address"
        },
        {
          "indexed": true,
          "internalType": "address",
          "name": "from",
          "type": "address"
        },
        {
          "indexed": true,
          "internalType": "address",
          "name": "to",
          "type": "address"
        },
        {
          "indexed": false,
          "internalType": "uint256[]",
          "name": "ids",
          "type": "uint256[]"
        },
        {
          "indexed": false,
          "internalType": "uint256[]",
          "name": "values",
          "type": "uint256[]"
        }
      ],
      "name": "TransferBatch",
      "type": "event"
    },
    {
      "anonymous": false,
      "inputs": [
        {
          "indexed": true,
          "internalType": "address",
          "name": "operator",
          "type": "address"
        },
        {
          "indexed": true,
          "internalType": "address",
          "name": "from",
          "type": "address"
        },
        {
          "indexed": true,
          "internalType": "address",
          "name": "to",
          "type": "address"
        },
        {
          "indexed": false,
          "internalType": "uint256",
          "name": "id",
          "type": "uint256"
        },
        {
          "indexed": false,
          "internalType": "uint256",
          "name": "value",
          "type": "uint256"
        }
      ],
      "name": "TransferSingle",
      "type": "event"
    },
    {
      "anonymous": false,
      "inputs": [
        {
          "indexed": false,
          "internalType": "string",
          "name": "value",
          "type": "string"
        },
        {
          "indexed": true,
          "internalType": "uint256",
          "name": "id",
          "type": "uint256"
        }
      ],
      "name": "URI",
      "type": "event"
    },
    {
      "inputs": [
        {
          "internalType": "address",
          "name": "account",
          "type": "address"
        },
        {
          "internalType": "uint256",
          "name": "id",
          "type": "uint256"
        }
      ],
      "name": "balanceOf",
      "outputs": [
        {
          "internalType": "uint256",
          "name": "",
          "type": "uint256"
        }
      ],
      "stateMutability": "view",
      "type": "function"
    },
    {
      "inputs": [
        {
          "internalType": "address[]",
          "name": "accounts",
          "type": "address[]"
        },
        {
          "internalType": "uint256[]",
          "name": "ids",
          "type": "uint256[]"
        }
      ],
      "name": "balanceOfBatch",
      "outputs": [
        {
          "internalType": "uint256[]",
          "name": "",
          "type": "uint256[]"
        }
      ],
      "stateMutability": "view",
      "type": "function"
    },
    {
      "inputs": [
        {
          "internalType": "uint256",
          "name": "",
          "type": "uint256"
        }
      ],
      "name": "creatorFee",
      "outputs": [
        {
          "internalType": "int256",
          "name": "",
          "type": "int256"
        }
      ],
      "stateMutability": "view",
      "type": "function"
    },
    {
      "inputs": [
        {
          "internalType": "uint256",
          "name": "",
          "type": "uint256"
        }
      ],
      "name": "creatorOf",
      "outputs": [
        {
          "internalType": "address",
          "name": "",
          "type": "address"
        }
      ],
      "stateMutability": "view",
      "type": "function"
    },
    {
      "inputs": [
        {
          "internalType": "uint256",
          "name": "",
          "type": "uint256"
        }
      ],
      "name": "hashes",
      "outputs": [
        {
          "internalType": "string",
          "name": "",
          "type": "string"
        }
      ],
      "stateMutability": "view",
      "type": "function"
    },
    {
      "inputs": [
        {
          "internalType": "address",
          "name": "account",
          "type": "address"
        },
        {
          "internalType": "address",
          "name": "operator",
          "type": "address"
        }
      ],
      "name": "isApprovedForAll",
      "outputs": [
        {
          "internalType": "bool",
          "name": "",
          "type": "bool"
        }
      ],
      "stateMutability": "view",
      "type": "function"
    },
    {
      "inputs": [],
      "name": "owner",
      "outputs": [
        {
          "internalType": "address",
          "name": "",
          "type": "address"
        }
      ],
      "stateMutability": "view",
      "type": "function"
    },
    {
      "inputs": [
        {
          "internalType": "uint256",
          "name": "",
          "type": "uint256"
        }
      ],
      "name": "ownerOf",
      "outputs": [
        {
          "internalType": "address",
          "name": "",
          "type": "address"
        }
      ],
      "stateMutability": "view",
      "type": "function"
    },
    {
      "inputs": [],
      "name": "renounceOwnership",
      "outputs": [],
      "stateMutability": "nonpayable",
      "type": "function"
    },
    {
      "inputs": [
        {
          "internalType": "address",
          "name": "from",
          "type": "address"
        },
        {
          "internalType": "address",
          "name": "to",
          "type": "address"
        },
        {
          "internalType": "uint256[]",
          "name": "ids",
          "type": "uint256[]"
        },
        {
          "internalType": "uint256[]",
          "name": "amounts",
          "type": "uint256[]"
        },
        {
          "internalType": "bytes",
          "name": "data",
          "type": "bytes"
        }
      ],
      "name": "safeBatchTransferFrom",
      "outputs": [],
      "stateMutability": "nonpayable",
      "type": "function"
    },
    {
      "inputs": [
        {
          "internalType": "address",
          "name": "from",
          "type": "address"
        },
        {
          "internalType": "address",
          "name": "to",
          "type": "address"
        },
        {
          "internalType": "uint256",
          "name": "id",
          "type": "uint256"
        },
        {
          "internalType": "uint256",
          "name": "amount",
          "type": "uint256"
        },
        {
          "internalType": "bytes",
          "name": "data",
          "type": "bytes"
        }
      ],
      "name": "safeTransferFrom",
      "outputs": [],
      "stateMutability": "nonpayable",
      "type": "function"
    },
    {
      "inputs": [
        {
          "internalType": "address",
          "name": "operator",
          "type": "address"
        },
        {
          "internalType": "bool",
          "name": "approved",
          "type": "bool"
        }
      ],
      "name": "setApprovalForAll",
      "outputs": [],
      "stateMutability": "nonpayable",
      "type": "function"
    },
    {
      "inputs": [
        {
          "internalType": "bytes4",
          "name": "interfaceId",
          "type": "bytes4"
        }
      ],
      "name": "supportsInterface",
      "outputs": [
        {
          "internalType": "bool",
          "name": "",
          "type": "bool"
        }
      ],
      "stateMutability": "view",
      "type": "function"
    },
    {
      "inputs": [
        {
          "internalType": "address",
          "name": "newOwner",
          "type": "address"
        }
      ],
      "name": "transferOwnership",
      "outputs": [],
      "stateMutability": "nonpayable",
      "type": "function"
    },
    {
      "inputs": [
        {
          "internalType": "uint256",
          "name": "",
          "type": "uint256"
        }
      ],
      "name": "uri",
      "outputs": [
        {
          "internalType": "string",
          "name": "",
          "type": "string"
        }
      ],
      "stateMutability": "view",
      "type": "function"
    },
    {
      "inputs": [],
      "name": "initialize",
      "outputs": [],
      "stateMutability": "nonpayable",
      "type": "function"
    },
    {
      "inputs": [
        {
          "internalType": "string",
          "name": "_newUri",
          "type": "string"
        }
      ],
      "name": "setUri",
      "outputs": [],
      "stateMutability": "nonpayable",
      "type": "function"
    },
    {
      "inputs": [
        {
          "internalType": "string",
          "name": "_hash",
          "type": "string"
        },
        {
          "internalType": "int256",
          "name": "_creatorFee",
          "type": "int256"
        }
      ],
      "name": "mint",
      "outputs": [],
      "stateMutability": "nonpayable",
      "type": "function"
    },
    {
      "inputs": [
        {
          "internalType": "string",
          "name": "_hash",
          "type": "string"
        }
      ],
      "name": "getTokenID",
      "outputs": [
        {
          "internalType": "uint256",
          "name": "tokenID",
          "type": "uint256"
        }
      ],
      "stateMutability": "view",
      "type": "function"
    },
    {
      "inputs": [],
      "name": "getMemesCount",
      "outputs": [
        {
          "internalType": "uint256",
          "name": "count",
          "type": "uint256"
        }
      ],
      "stateMutability": "view",
      "type": "function"
    },
    {
      "inputs": [],
      "name": "sayHello",
      "outputs": [
        {
          "internalType": "string",
          "name": "",
          "type": "string"
        }
      ],
      "stateMutability": "pure",
      "type": "function"
    }
  ],
  "bytecode": "0x608060405234801561001057600080fd5b50613ec3806100206000396000f3fe608060405234801561001057600080fd5b50600436106101365760003560e01c806378c3829b116100b8578063e5f6e2611161007c578063e5f6e2611461035d578063e706a6391461037b578063e985e9c5146103ab578063ef5fb05b146103db578063f242432a146103f9578063f2fde38b1461041557610136565b806378c3829b146102cd5780638129fc1c146102fd5780638da5cb5b146103075780639b642de114610325578063a22cb4651461034157610136565b80634e1273f4116100ff5780634e1273f414610203578063501895ae14610233578063589a1743146102635780636352211e14610293578063715018a6146102c357610136565b8062fdd58e1461013b57806301ffc9a71461016b5780630e89341c1461019b5780632d5497cd146101cb5780632eb2c2d6146101e7575b600080fd5b61015560048036038101906101509190612c3e565b610431565b60405161016291906138dc565b60405180910390f35b61018560048036038101906101809190612ce6565b6104fb565b60405161019291906136a4565b60405180910390f35b6101b560048036038101906101b09190612dcd565b6105dd565b6040516101c291906136da565b60405180910390f35b6101e560048036038101906101e09190612d79565b610671565b005b61020160048036038101906101fc9190612ab4565b61089f565b005b61021d60048036038101906102189190612c7a565b610c98565b60405161022a919061364b565b60405180910390f35b61024d60048036038101906102489190612dcd565b610e49565b60405161025a91906136da565b60405180910390f35b61027d60048036038101906102789190612dcd565b610ef5565b60405161028a9190613545565b60405180910390f35b6102ad60048036038101906102a89190612dcd565b610f28565b6040516102ba9190613545565b60405180910390f35b6102cb610f5b565b005b6102e760048036038101906102e29190612dcd565b611098565b6040516102f491906136bf565b60405180910390f35b6103056110b0565b005b61030f6111ba565b60405161031c9190613545565b60405180910390f35b61033f600480360381019061033a9190612d38565b6111e4565b005b61035b60048036038101906103569190612c02565b61126c565b005b6103656113ed565b60405161037291906138dc565b60405180910390f35b61039560048036038101906103909190612d38565b6113fa565b6040516103a291906138dc565b60405180910390f35b6103c560048036038101906103c09190612a78565b611422565b6040516103d291906136a4565b60405180910390f35b6103e36114b6565b6040516103f091906136da565b60405180910390f35b610413600480360381019061040e9190612b73565b6114f3565b005b61042f600480360381019061042a9190612a4f565b61180e565b005b60008073ffffffffffffffffffffffffffffffffffffffff168373ffffffffffffffffffffffffffffffffffffffff1614156104a2576040517f08c379a00000000000000000000000000000000000000000000000000000000081526004016104999061373c565b60405180910390fd5b6065600083815260200190815260200160002060008473ffffffffffffffffffffffffffffffffffffffff1673ffffffffffffffffffffffffffffffffffffffff16815260200190815260200160002054905092915050565b60007fd9b67a26000000000000000000000000000000000000000000000000000000007bffffffffffffffffffffffffffffffffffffffffffffffffffffffff1916827bffffffffffffffffffffffffffffffffffffffffffffffffffffffff191614806105c657507f0e89341c000000000000000000000000000000000000000000000000000000007bffffffffffffffffffffffffffffffffffffffffffffffffffffffff1916827bffffffffffffffffffffffffffffffffffffffffffffffffffffffff1916145b806105d657506105d5826119ba565b5b9050919050565b6060606780546105ec90613bcf565b80601f016020809104026020016040519081016040528092919081815260200182805461061890613bcf565b80156106655780601f1061063a57610100808354040283529160200191610665565b820191906000526020600020905b81548152906001019060200180831161064857829003601f168201915b50505050509050919050565b60ca82604051610681919061352e565b908152602001604051809103902060009054906101000a900460ff16156106dd576040517f08c379a00000000000000000000000000000000000000000000000000000000081526004016106d49061379c565b60405180910390fd5b60c982908060018154018082558091505060019003906000526020600020016000909190919091509080519060200190610718929190612732565b506000600160c98054905061072d9190613adb565b905061074b3382600160405180602001604052806000815250611a24565b600160ca8460405161075d919061352e565b908152602001604051809103902060006101000a81548160ff0219169083151502179055508060cb84604051610793919061352e565b9081526020016040518091039020819055503360cc600083815260200190815260200160002060006101000a81548173ffffffffffffffffffffffffffffffffffffffff021916908373ffffffffffffffffffffffffffffffffffffffff1602179055503360cd600083815260200190815260200160002060006101000a81548173ffffffffffffffffffffffffffffffffffffffff021916908373ffffffffffffffffffffffffffffffffffffffff1602179055508160ce6000838152602001908152602001600020819055507f48dc2aeea2a01c56706a90dc93cbd9fe7e1783b9c475708d49ea0b7c579ddc9d3382604051610892929190613622565b60405180910390a1505050565b81518351146108e3576040517f08c379a00000000000000000000000000000000000000000000000000000000081526004016108da9061389c565b60405180910390fd5b600073ffffffffffffffffffffffffffffffffffffffff168473ffffffffffffffffffffffffffffffffffffffff161415610953576040517f08c379a000000000000000000000000000000000000000000000000000000000815260040161094a906137bc565b60405180910390fd5b61095b611bbb565b73ffffffffffffffffffffffffffffffffffffffff168573ffffffffffffffffffffffffffffffffffffffff1614806109a157506109a08561099b611bbb565b611422565b5b6109e0576040517f08c379a00000000000000000000000000000000000000000000000000000000081526004016109d7906137dc565b60405180910390fd5b60006109ea611bbb565b90506109fa818787878787611bc3565b60005b8451811015610c03576000858281518110610a41577f4e487b7100000000000000000000000000000000000000000000000000000000600052603260045260246000fd5b602002602001015190506000858381518110610a86577f4e487b7100000000000000000000000000000000000000000000000000000000600052603260045260246000fd5b6020026020010151905060006065600084815260200190815260200160002060008b73ffffffffffffffffffffffffffffffffffffffff1673ffffffffffffffffffffffffffffffffffffffff16815260200190815260200160002054905081811015610b28576040517f08c379a0000000000000000000000000000000000000000000000000000000008152600401610b1f9061381c565b60405180910390fd5b8181610b349190613adb565b6065600085815260200190815260200160002060008c73ffffffffffffffffffffffffffffffffffffffff1673ffffffffffffffffffffffffffffffffffffffff16815260200190815260200160002081905550816065600085815260200190815260200160002060008b73ffffffffffffffffffffffffffffffffffffffff1673ffffffffffffffffffffffffffffffffffffffff1681526020019081526020016000206000828254610be89190613a85565b9250508190555050505080610bfc90613c01565b90506109fd565b508473ffffffffffffffffffffffffffffffffffffffff168673ffffffffffffffffffffffffffffffffffffffff168273ffffffffffffffffffffffffffffffffffffffff167f4a39dc06d4c0dbc64b70af90fd698a233a518aa5d07e595d983b8c0526c8f7fb8787604051610c7a92919061366d565b60405180910390a4610c90818787878787611bcb565b505050505050565b60608151835114610cde576040517f08c379a0000000000000000000000000000000000000000000000000000000008152600401610cd59061387c565b60405180910390fd5b6000835167ffffffffffffffff811115610d21577f4e487b7100000000000000000000000000000000000000000000000000000000600052604160045260246000fd5b604051908082528060200260200182016040528015610d4f5781602001602082028036833780820191505090505b50905060005b8451811015610e3e57610de8858281518110610d9a577f4e487b7100000000000000000000000000000000000000000000000000000000600052603260045260246000fd5b6020026020010151858381518110610ddb577f4e487b7100000000000000000000000000000000000000000000000000000000600052603260045260246000fd5b6020026020010151610431565b828281518110610e21577f4e487b7100000000000000000000000000000000000000000000000000000000600052603260045260246000fd5b60200260200101818152505080610e3790613c01565b9050610d55565b508091505092915050565b60c98181548110610e5957600080fd5b906000526020600020016000915090508054610e7490613bcf565b80601f0160208091040260200160405190810160405280929190818152602001828054610ea090613bcf565b8015610eed5780601f10610ec257610100808354040283529160200191610eed565b820191906000526020600020905b815481529060010190602001808311610ed057829003601f168201915b505050505081565b60cc6020528060005260406000206000915054906101000a900473ffffffffffffffffffffffffffffffffffffffff1681565b60cd6020528060005260406000206000915054906101000a900473ffffffffffffffffffffffffffffffffffffffff1681565b610f63611bbb565b73ffffffffffffffffffffffffffffffffffffffff16610f816111ba565b73ffffffffffffffffffffffffffffffffffffffff1614610fd7576040517f08c379a0000000000000000000000000000000000000000000000000000000008152600401610fce9061383c565b60405180910390fd5b600073ffffffffffffffffffffffffffffffffffffffff16609760009054906101000a900473ffffffffffffffffffffffffffffffffffffffff1673ffffffffffffffffffffffffffffffffffffffff167f8be0079c531659141344cd1fd0a4f28419497f9722a3daafe3b4186f6b6457e060405160405180910390a36000609760006101000a81548173ffffffffffffffffffffffffffffffffffffffff021916908373ffffffffffffffffffffffffffffffffffffffff160217905550565b60ce6020528060005260406000206000915090505481565b600060019054906101000a900460ff16806110d6575060008054906101000a900460ff16155b611115576040517f08c379a000000000000000000000000000000000000000000000000000000000815260040161110c906137fc565b60405180910390fd5b60008060019054906101000a900460ff161590508015611165576001600060016101000a81548160ff02191690831515021790555060016000806101000a81548160ff0219169083151502179055505b6111866040518060a00160405280606f8152602001613e1f606f9139611d9b565b61118e611e8e565b611196611f6f565b80156111b75760008060016101000a81548160ff0219169083151502179055505b50565b6000609760009054906101000a900473ffffffffffffffffffffffffffffffffffffffff16905090565b6111ec611bbb565b73ffffffffffffffffffffffffffffffffffffffff1661120a6111ba565b73ffffffffffffffffffffffffffffffffffffffff1614611260576040517f08c379a00000000000000000000000000000000000000000000000000000000081526004016112579061383c565b60405180910390fd5b61126981612058565b50565b8173ffffffffffffffffffffffffffffffffffffffff1661128b611bbb565b73ffffffffffffffffffffffffffffffffffffffff1614156112e2576040517f08c379a00000000000000000000000000000000000000000000000000000000081526004016112d99061385c565b60405180910390fd5b80606660006112ef611bbb565b73ffffffffffffffffffffffffffffffffffffffff1673ffffffffffffffffffffffffffffffffffffffff16815260200190815260200160002060008473ffffffffffffffffffffffffffffffffffffffff1673ffffffffffffffffffffffffffffffffffffffff16815260200190815260200160002060006101000a81548160ff0219169083151502179055508173ffffffffffffffffffffffffffffffffffffffff1661139c611bbb565b73ffffffffffffffffffffffffffffffffffffffff167f17307eab39ab6107e8899845ad3d59bd9653f200f220920489ca2b5937696c31836040516113e191906136a4565b60405180910390a35050565b600060c980549050905090565b600060cb8260405161140c919061352e565b9081526020016040518091039020549050919050565b6000606660008473ffffffffffffffffffffffffffffffffffffffff1673ffffffffffffffffffffffffffffffffffffffff16815260200190815260200160002060008373ffffffffffffffffffffffffffffffffffffffff1673ffffffffffffffffffffffffffffffffffffffff16815260200190815260200160002060009054906101000a900460ff16905092915050565b60606040518060400160405280600681526020017f48656c6c6f210000000000000000000000000000000000000000000000000000815250905090565b600073ffffffffffffffffffffffffffffffffffffffff168473ffffffffffffffffffffffffffffffffffffffff161415611563576040517f08c379a000000000000000000000000000000000000000000000000000000000815260040161155a906137bc565b60405180910390fd5b61156b611bbb565b73ffffffffffffffffffffffffffffffffffffffff168573ffffffffffffffffffffffffffffffffffffffff1614806115b157506115b0856115ab611bbb565b611422565b5b6115f0576040517f08c379a00000000000000000000000000000000000000000000000000000000081526004016115e79061377c565b60405180910390fd5b60006115fa611bbb565b905061161a81878761160b88612072565b61161488612072565b87611bc3565b60006065600086815260200190815260200160002060008873ffffffffffffffffffffffffffffffffffffffff1673ffffffffffffffffffffffffffffffffffffffff168152602001908152602001600020549050838110156116b2576040517f08c379a00000000000000000000000000000000000000000000000000000000081526004016116a99061381c565b60405180910390fd5b83816116be9190613adb565b6065600087815260200190815260200160002060008973ffffffffffffffffffffffffffffffffffffffff1673ffffffffffffffffffffffffffffffffffffffff16815260200190815260200160002081905550836065600087815260200190815260200160002060008873ffffffffffffffffffffffffffffffffffffffff1673ffffffffffffffffffffffffffffffffffffffff16815260200190815260200160002060008282546117729190613a85565b925050819055508573ffffffffffffffffffffffffffffffffffffffff168773ffffffffffffffffffffffffffffffffffffffff168373ffffffffffffffffffffffffffffffffffffffff167fc3d58168c5ae7397731d063d5bbf3d657854427343f4c083240f7aacaa2d0f6288886040516117ef9291906138f7565b60405180910390a4611805828888888888612138565b50505050505050565b611816611bbb565b73ffffffffffffffffffffffffffffffffffffffff166118346111ba565b73ffffffffffffffffffffffffffffffffffffffff161461188a576040517f08c379a00000000000000000000000000000000000000000000000000000000081526004016118819061383c565b60405180910390fd5b600073ffffffffffffffffffffffffffffffffffffffff168173ffffffffffffffffffffffffffffffffffffffff1614156118fa576040517f08c379a00000000000000000000000000000000000000000000000000000000081526004016118f19061375c565b60405180910390fd5b8073ffffffffffffffffffffffffffffffffffffffff16609760009054906101000a900473ffffffffffffffffffffffffffffffffffffffff1673ffffffffffffffffffffffffffffffffffffffff167f8be0079c531659141344cd1fd0a4f28419497f9722a3daafe3b4186f6b6457e060405160405180910390a380609760006101000a81548173ffffffffffffffffffffffffffffffffffffffff021916908373ffffffffffffffffffffffffffffffffffffffff16021790555050565b60007f01ffc9a7000000000000000000000000000000000000000000000000000000007bffffffffffffffffffffffffffffffffffffffffffffffffffffffff1916827bffffffffffffffffffffffffffffffffffffffffffffffffffffffff1916149050919050565b600073ffffffffffffffffffffffffffffffffffffffff168473ffffffffffffffffffffffffffffffffffffffff161415611a94576040517f08c379a0000000000000000000000000000000000000000000000000000000008152600401611a8b906138bc565b60405180910390fd5b6000611a9e611bbb565b9050611abf81600087611ab088612072565b611ab988612072565b87611bc3565b826065600086815260200190815260200160002060008773ffffffffffffffffffffffffffffffffffffffff1673ffffffffffffffffffffffffffffffffffffffff1681526020019081526020016000206000828254611b1f9190613a85565b925050819055508473ffffffffffffffffffffffffffffffffffffffff16600073ffffffffffffffffffffffffffffffffffffffff168273ffffffffffffffffffffffffffffffffffffffff167fc3d58168c5ae7397731d063d5bbf3d657854427343f4c083240f7aacaa2d0f628787604051611b9d9291906138f7565b60405180910390a4611bb481600087878787612138565b5050505050565b600033905090565b505050505050565b611bea8473ffffffffffffffffffffffffffffffffffffffff16612308565b15611d93578373ffffffffffffffffffffffffffffffffffffffff1663bc197c8187878686866040518663ffffffff1660e01b8152600401611c30959493929190613560565b602060405180830381600087803b158015611c4a57600080fd5b505af1925050508015611c7b57506040513d601f19601f82011682018060405250810190611c789190612d0f565b60015b611d0a57611c87613cf5565b80611c925750611ccf565b806040517f08c379a0000000000000000000000000000000000000000000000000000000008152600401611cc691906136da565b60405180910390fd5b6040517f08c379a0000000000000000000000000000000000000000000000000000000008152600401611d01906136fc565b60405180910390fd5b63bc197c8160e01b7bffffffffffffffffffffffffffffffffffffffffffffffffffffffff1916817bffffffffffffffffffffffffffffffffffffffffffffffffffffffff191614611d91576040517f08c379a0000000000000000000000000000000000000000000000000000000008152600401611d889061371c565b60405180910390fd5b505b505050505050565b600060019054906101000a900460ff1680611dc1575060008054906101000a900460ff16155b611e00576040517f08c379a0000000000000000000000000000000000000000000000000000000008152600401611df7906137fc565b60405180910390fd5b60008060019054906101000a900460ff161590508015611e50576001600060016101000a81548160ff02191690831515021790555060016000806101000a81548160ff0219169083151502179055505b611e5861231b565b611e606123f4565b611e69826124cd565b8015611e8a5760008060016101000a81548160ff0219169083151502179055505b5050565b600060019054906101000a900460ff1680611eb4575060008054906101000a900460ff16155b611ef3576040517f08c379a0000000000000000000000000000000000000000000000000000000008152600401611eea906137fc565b60405180910390fd5b60008060019054906101000a900460ff161590508015611f43576001600060016101000a81548160ff02191690831515021790555060016000806101000a81548160ff0219169083151502179055505b611f4b6123f4565b8015611f6c5760008060016101000a81548160ff0219169083151502179055505b50565b600060019054906101000a900460ff1680611f95575060008054906101000a900460ff16155b611fd4576040517f08c379a0000000000000000000000000000000000000000000000000000000008152600401611fcb906137fc565b60405180910390fd5b60008060019054906101000a900460ff161590508015612024576001600060016101000a81548160ff02191690831515021790555060016000806101000a81548160ff0219169083151502179055505b61202c61231b565b6120346125b0565b80156120555760008060016101000a81548160ff0219169083151502179055505b50565b806067908051906020019061206e929190612732565b5050565b60606000600167ffffffffffffffff8111156120b7577f4e487b7100000000000000000000000000000000000000000000000000000000600052604160045260246000fd5b6040519080825280602002602001820160405280156120e55781602001602082028036833780820191505090505b5090508281600081518110612123577f4e487b7100000000000000000000000000000000000000000000000000000000600052603260045260246000fd5b60200260200101818152505080915050919050565b6121578473ffffffffffffffffffffffffffffffffffffffff16612308565b15612300578373ffffffffffffffffffffffffffffffffffffffff1663f23a6e6187878686866040518663ffffffff1660e01b815260040161219d9594939291906135c8565b602060405180830381600087803b1580156121b757600080fd5b505af19250505080156121e857506040513d601f19601f820116820180604052508101906121e59190612d0f565b60015b612277576121f4613cf5565b806121ff575061223c565b806040517f08c379a000000000000000000000000000000000000000000000000000000000815260040161223391906136da565b60405180910390fd5b6040517f08c379a000000000000000000000000000000000000000000000000000000000815260040161226e906136fc565b60405180910390fd5b63f23a6e6160e01b7bffffffffffffffffffffffffffffffffffffffffffffffffffffffff1916817bffffffffffffffffffffffffffffffffffffffffffffffffffffffff1916146122fe576040517f08c379a00000000000000000000000000000000000000000000000000000000081526004016122f59061371c565b60405180910390fd5b505b505050505050565b600080823b905060008111915050919050565b600060019054906101000a900460ff1680612341575060008054906101000a900460ff16155b612380576040517f08c379a0000000000000000000000000000000000000000000000000000000008152600401612377906137fc565b60405180910390fd5b60008060019054906101000a900460ff1615905080156123d0576001600060016101000a81548160ff02191690831515021790555060016000806101000a81548160ff0219169083151502179055505b80156123f15760008060016101000a81548160ff0219169083151502179055505b50565b600060019054906101000a900460ff168061241a575060008054906101000a900460ff16155b612459576040517f08c379a0000000000000000000000000000000000000000000000000000000008152600401612450906137fc565b60405180910390fd5b60008060019054906101000a900460ff1615905080156124a9576001600060016101000a81548160ff02191690831515021790555060016000806101000a81548160ff0219169083151502179055505b80156124ca5760008060016101000a81548160ff0219169083151502179055505b50565b600060019054906101000a900460ff16806124f3575060008054906101000a900460ff16155b612532576040517f08c379a0000000000000000000000000000000000000000000000000000000008152600401612529906137fc565b60405180910390fd5b60008060019054906101000a900460ff161590508015612582576001600060016101000a81548160ff02191690831515021790555060016000806101000a81548160ff0219169083151502179055505b61258b82612058565b80156125ac5760008060016101000a81548160ff0219169083151502179055505b5050565b600060019054906101000a900460ff16806125d6575060008054906101000a900460ff16155b612615576040517f08c379a000000000000000000000000000000000000000000000000000000000815260040161260c906137fc565b60405180910390fd5b60008060019054906101000a900460ff161590508015612665576001600060016101000a81548160ff02191690831515021790555060016000806101000a81548160ff0219169083151502179055505b600061266f611bbb565b905080609760006101000a81548173ffffffffffffffffffffffffffffffffffffffff021916908373ffffffffffffffffffffffffffffffffffffffff1602179055508073ffffffffffffffffffffffffffffffffffffffff16600073ffffffffffffffffffffffffffffffffffffffff167f8be0079c531659141344cd1fd0a4f28419497f9722a3daafe3b4186f6b6457e060405160405180910390a350801561272f5760008060016101000a81548160ff0219169083151502179055505b50565b82805461273e90613bcf565b90600052602060002090601f01602090048101928261276057600085556127a7565b82601f1061277957805160ff19168380011785556127a7565b828001600101855582156127a7579182015b828111156127a657825182559160200191906001019061278b565b5b5090506127b491906127b8565b5090565b5b808211156127d15760008160009055506001016127b9565b5090565b60006127e86127e384613951565b613920565b9050808382526020820190508285602086028201111561280757600080fd5b60005b85811015612837578161281d8882612929565b84526020840193506020830192505060018101905061280a565b5050509392505050565b600061285461284f8461397d565b613920565b9050808382526020820190508285602086028201111561287357600080fd5b60005b858110156128a357816128898882612a3a565b845260208401935060208301925050600181019050612876565b5050509392505050565b60006128c06128bb846139a9565b613920565b9050828152602081018484840111156128d857600080fd5b6128e3848285613b8d565b509392505050565b60006128fe6128f9846139d9565b613920565b90508281526020810184848401111561291657600080fd5b612921848285613b8d565b509392505050565b60008135905061293881613dab565b92915050565b600082601f83011261294f57600080fd5b813561295f8482602086016127d5565b91505092915050565b600082601f83011261297957600080fd5b8135612989848260208601612841565b91505092915050565b6000813590506129a181613dc2565b92915050565b6000813590506129b681613dd9565b92915050565b6000815190506129cb81613dd9565b92915050565b600082601f8301126129e257600080fd5b81356129f28482602086016128ad565b91505092915050565b600081359050612a0a81613df0565b92915050565b600082601f830112612a2157600080fd5b8135612a318482602086016128eb565b91505092915050565b600081359050612a4981613e07565b92915050565b600060208284031215612a6157600080fd5b6000612a6f84828501612929565b91505092915050565b60008060408385031215612a8b57600080fd5b6000612a9985828601612929565b9250506020612aaa85828601612929565b9150509250929050565b600080600080600060a08688031215612acc57600080fd5b6000612ada88828901612929565b9550506020612aeb88828901612929565b945050604086013567ffffffffffffffff811115612b0857600080fd5b612b1488828901612968565b935050606086013567ffffffffffffffff811115612b3157600080fd5b612b3d88828901612968565b925050608086013567ffffffffffffffff811115612b5a57600080fd5b612b66888289016129d1565b9150509295509295909350565b600080600080600060a08688031215612b8b57600080fd5b6000612b9988828901612929565b9550506020612baa88828901612929565b9450506040612bbb88828901612a3a565b9350506060612bcc88828901612a3a565b925050608086013567ffffffffffffffff811115612be957600080fd5b612bf5888289016129d1565b9150509295509295909350565b60008060408385031215612c1557600080fd5b6000612c2385828601612929565b9250506020612c3485828601612992565b9150509250929050565b60008060408385031215612c5157600080fd5b6000612c5f85828601612929565b9250506020612c7085828601612a3a565b9150509250929050565b60008060408385031215612c8d57600080fd5b600083013567ffffffffffffffff811115612ca757600080fd5b612cb38582860161293e565b925050602083013567ffffffffffffffff811115612cd057600080fd5b612cdc85828601612968565b9150509250929050565b600060208284031215612cf857600080fd5b6000612d06848285016129a7565b91505092915050565b600060208284031215612d2157600080fd5b6000612d2f848285016129bc565b91505092915050565b600060208284031215612d4a57600080fd5b600082013567ffffffffffffffff811115612d6457600080fd5b612d7084828501612a10565b91505092915050565b60008060408385031215612d8c57600080fd5b600083013567ffffffffffffffff811115612da657600080fd5b612db285828601612a10565b9250506020612dc3858286016129fb565b9150509250929050565b600060208284031215612ddf57600080fd5b6000612ded84828501612a3a565b91505092915050565b6000612e028383613510565b60208301905092915050565b612e1781613b0f565b82525050565b6000612e2882613a19565b612e328185613a47565b9350612e3d83613a09565b8060005b83811015612e6e578151612e558882612df6565b9750612e6083613a3a565b925050600181019050612e41565b5085935050505092915050565b612e8481613b21565b82525050565b6000612e9582613a24565b612e9f8185613a58565b9350612eaf818560208601613b9c565b612eb881613cd7565b840191505092915050565b612ecc81613b59565b82525050565b6000612edd82613a2f565b612ee78185613a69565b9350612ef7818560208601613b9c565b612f0081613cd7565b840191505092915050565b6000612f1682613a2f565b612f208185613a7a565b9350612f30818560208601613b9c565b80840191505092915050565b6000612f49603483613a69565b91507f455243313135353a207472616e7366657220746f206e6f6e204552433131353560008301527f526563656976657220696d706c656d656e7465720000000000000000000000006020830152604082019050919050565b6000612faf602883613a69565b91507f455243313135353a204552433131353552656365697665722072656a6563746560008301527f6420746f6b656e730000000000000000000000000000000000000000000000006020830152604082019050919050565b6000613015602b83613a69565b91507f455243313135353a2062616c616e636520717565727920666f7220746865207a60008301527f65726f20616464726573730000000000000000000000000000000000000000006020830152604082019050919050565b600061307b602683613a69565b91507f4f776e61626c653a206e6577206f776e657220697320746865207a65726f206160008301527f64647265737300000000000000000000000000000000000000000000000000006020830152604082019050919050565b60006130e1602983613a69565b91507f455243313135353a2063616c6c6572206973206e6f74206f776e6572206e6f7260008301527f20617070726f76656400000000000000000000000000000000000000000000006020830152604082019050919050565b6000613147602683613a69565b91507f546f6b656e20776974682074686973206861736820697320616c72656164792060008301527f6d696e74656400000000000000000000000000000000000000000000000000006020830152604082019050919050565b60006131ad602583613a69565b91507f455243313135353a207472616e7366657220746f20746865207a65726f20616460008301527f64726573730000000000000000000000000000000000000000000000000000006020830152604082019050919050565b6000613213603283613a69565b91507f455243313135353a207472616e736665722063616c6c6572206973206e6f742060008301527f6f776e6572206e6f7220617070726f76656400000000000000000000000000006020830152604082019050919050565b6000613279602e83613a69565b91507f496e697469616c697a61626c653a20636f6e747261637420697320616c72656160008301527f647920696e697469616c697a65640000000000000000000000000000000000006020830152604082019050919050565b60006132df602a83613a69565b91507f455243313135353a20696e73756666696369656e742062616c616e636520666f60008301527f72207472616e73666572000000000000000000000000000000000000000000006020830152604082019050919050565b6000613345602083613a69565b91507f4f776e61626c653a2063616c6c6572206973206e6f7420746865206f776e65726000830152602082019050919050565b6000613385602983613a69565b91507f455243313135353a2073657474696e6720617070726f76616c2073746174757360008301527f20666f722073656c6600000000000000000000000000000000000000000000006020830152604082019050919050565b60006133eb602983613a69565b91507f455243313135353a206163636f756e747320616e6420696473206c656e67746860008301527f206d69736d6174636800000000000000000000000000000000000000000000006020830152604082019050919050565b6000613451602883613a69565b91507f455243313135353a2069647320616e6420616d6f756e7473206c656e6774682060008301527f6d69736d617463680000000000000000000000000000000000000000000000006020830152604082019050919050565b60006134b7602183613a69565b91507f455243313135353a206d696e7420746f20746865207a65726f2061646472657360008301527f73000000000000000000000000000000000000000000000000000000000000006020830152604082019050919050565b61351981613b83565b82525050565b61352881613b83565b82525050565b600061353a8284612f0b565b915081905092915050565b600060208201905061355a6000830184612e0e565b92915050565b600060a0820190506135756000830188612e0e565b6135826020830187612e0e565b81810360408301526135948186612e1d565b905081810360608301526135a88185612e1d565b905081810360808301526135bc8184612e8a565b90509695505050505050565b600060a0820190506135dd6000830188612e0e565b6135ea6020830187612e0e565b6135f7604083018661351f565b613604606083018561351f565b81810360808301526136168184612e8a565b90509695505050505050565b60006040820190506136376000830185612e0e565b613644602083018461351f565b9392505050565b600060208201905081810360008301526136658184612e1d565b905092915050565b600060408201905081810360008301526136878185612e1d565b9050818103602083015261369b8184612e1d565b90509392505050565b60006020820190506136b96000830184612e7b565b92915050565b60006020820190506136d46000830184612ec3565b92915050565b600060208201905081810360008301526136f48184612ed2565b905092915050565b6000602082019050818103600083015261371581612f3c565b9050919050565b6000602082019050818103600083015261373581612fa2565b9050919050565b6000602082019050818103600083015261375581613008565b9050919050565b600060208201905081810360008301526137758161306e565b9050919050565b60006020820190508181036000830152613795816130d4565b9050919050565b600060208201905081810360008301526137b58161313a565b9050919050565b600060208201905081810360008301526137d5816131a0565b9050919050565b600060208201905081810360008301526137f581613206565b9050919050565b600060208201905081810360008301526138158161326c565b9050919050565b60006020820190508181036000830152613835816132d2565b9050919050565b6000602082019050818103600083015261385581613338565b9050919050565b6000602082019050818103600083015261387581613378565b9050919050565b60006020820190508181036000830152613895816133de565b9050919050565b600060208201905081810360008301526138b581613444565b9050919050565b600060208201905081810360008301526138d5816134aa565b9050919050565b60006020820190506138f1600083018461351f565b92915050565b600060408201905061390c600083018561351f565b613919602083018461351f565b9392505050565b6000604051905081810181811067ffffffffffffffff8211171561394757613946613ca8565b5b8060405250919050565b600067ffffffffffffffff82111561396c5761396b613ca8565b5b602082029050602081019050919050565b600067ffffffffffffffff82111561399857613997613ca8565b5b602082029050602081019050919050565b600067ffffffffffffffff8211156139c4576139c3613ca8565b5b601f19601f8301169050602081019050919050565b600067ffffffffffffffff8211156139f4576139f3613ca8565b5b601f19601f8301169050602081019050919050565b6000819050602082019050919050565b600081519050919050565b600081519050919050565b600081519050919050565b6000602082019050919050565b600082825260208201905092915050565b600082825260208201905092915050565b600082825260208201905092915050565b600081905092915050565b6000613a9082613b83565b9150613a9b83613b83565b9250827fffffffffffffffffffffffffffffffffffffffffffffffffffffffffffffffff03821115613ad057613acf613c4a565b5b828201905092915050565b6000613ae682613b83565b9150613af183613b83565b925082821015613b0457613b03613c4a565b5b828203905092915050565b6000613b1a82613b63565b9050919050565b60008115159050919050565b60007fffffffff0000000000000000000000000000000000000000000000000000000082169050919050565b6000819050919050565b600073ffffffffffffffffffffffffffffffffffffffff82169050919050565b6000819050919050565b82818337600083830152505050565b60005b83811015613bba578082015181840152602081019050613b9f565b83811115613bc9576000848401525b50505050565b60006002820490506001821680613be757607f821691505b60208210811415613bfb57613bfa613c79565b5b50919050565b6000613c0c82613b83565b91507fffffffffffffffffffffffffffffffffffffffffffffffffffffffffffffffff821415613c3f57613c3e613c4a565b5b600182019050919050565b7f4e487b7100000000000000000000000000000000000000000000000000000000600052601160045260246000fd5b7f4e487b7100000000000000000000000000000000000000000000000000000000600052602260045260246000fd5b7f4e487b7100000000000000000000000000000000000000000000000000000000600052604160045260246000fd5b6000601f19601f8301169050919050565b60008160e01c9050919050565b600060443d1015613d0557613da8565b60046000803e613d16600051613ce8565b6308c379a08114613d275750613da8565b60405160043d036004823e80513d602482011167ffffffffffffffff82111715613d5357505050613da8565b808201805167ffffffffffffffff811115613d72575050505050613da8565b8060208301013d8501811115613d8d57505050505050613da8565b613d9682613cd7565b60208401016040528296505050505050505b90565b613db481613b0f565b8114613dbf57600080fd5b50565b613dcb81613b21565b8114613dd657600080fd5b50565b613de281613b2d565b8114613ded57600080fd5b50565b613df981613b59565b8114613e0457600080fd5b50565b613e1081613b83565b8114613e1b57600080fd5b5056fe68747470733a2f2f6875622e74657874696c652e696f2f697066732f62616679626569617a347371777261637967737578376d6f616d33746364377a6e67353366366768346b687a6873726c686b746f343733633572712f746f6b656e6d657461646174612f7b69647d2e6a736f6ea2646970667358221220aabfbe2da6830959a1c56aaad02bde034ddd6e5b568a7815e6f0a4d49eaf579264736f6c63430008000033",
  "immutableReferences": {},
  "source": "// SPDX-License-Identifier: MIT\r\n\r\npragma solidity 0.8.0;\r\n\r\nimport \"../../../node_modules/@openzeppelin/contracts-upgradeable/token/ERC1155/ERC1155Upgradeable.sol\";\r\nimport \"../../../node_modules/@openzeppelin/contracts-upgradeable/access/OwnableUpgradeable.sol\";\r\nimport \"../../../node_modules/@openzeppelin/contracts-upgradeable/proxy/utils/Initializable.sol\";\r\n\r\ncontract MemeOfTheDayV2 is ERC1155Upgradeable, OwnableUpgradeable {\r\n\r\nstring[] public hashes;\r\n\r\n    // Mapping for enforcing unique hashes\r\n    mapping(string => bool) _hashExists; \r\n\r\n    // Mapping from ipfs picture hash to NFT tokenID\r\n    mapping (string => uint256) private _hashToken;  \r\n\r\n    mapping(uint256 => address) public creatorOf;\r\n    mapping(uint256 => address) public ownerOf;\r\n    mapping(uint256 => int256) public creatorFee;\r\n\r\n    event MemeMinted(address creator, uint256 tokenId);\r\n\r\n    function initialize() public initializer {\r\n        __ERC1155_init(\"https://hub.textile.io/ipfs/bafybeiaz4sqwracygsux7moam3tcd7zng53f6gh4khzhsrlhkto473c5rq/tokenmetadata/{id}.json\");\r\n        __ERC165_init();\r\n        __Ownable_init();\r\n    }\r\n    /**\r\n     * @notice Changes the URI to fetch NFTs info from\r\n     * @param _newUri   the new URI to fetch NFTs info from\r\n     */\r\n    function setUri(string memory _newUri) external onlyOwner {\r\n        _setURI(_newUri);\r\n    }\r\n\r\n    /**\r\n     * @notice Mints a new meme NFT\r\n     * @param _hash IPFS hash of the NFT\r\n     * @param _creatorFee custom fee to send to the creator, if is -1 it uses the default one set in the MOTDSaleParametersProviderContract\r\n     */\r\n    function mint(string memory _hash, int256 _creatorFee) public {\r\n        require(!_hashExists[_hash], \"Token with this hash is already minted\");\r\n\r\n        hashes.push(_hash);\r\n        uint256 _id = hashes.length - 1;\r\n        _mint(msg.sender, _id, 1, \"\");\r\n\r\n        _hashExists[_hash] = true;\r\n        _hashToken[_hash] = _id;\r\n\r\n        creatorOf[_id] = msg.sender;\r\n        ownerOf[_id] = msg.sender;\r\n        creatorFee[_id] = _creatorFee;\r\n\r\n        emit MemeMinted(msg.sender, _id);\r\n    }\r\n\r\n    /**\r\n     * @notice Returns the TokenID of meme\r\n     * @return tokenID of the meme\r\n     */\r\n    function getTokenID(string memory _hash) public view returns (uint256 tokenID) {\r\n        return _hashToken[_hash];\r\n    }\r\n\r\n    /**\r\n     * @notice Returns the number of minted memes\r\n     * @return count the number of memes\r\n     */\r\n    function getMemesCount() public view returns (uint256 count) {\r\n        return hashes.length;\r\n    }\r\n\r\n\r\n    function sayHello()public pure returns (string memory) {\r\n        return \"Hello!\";\r\n    }\r\n\r\n}",
  "sourcePath": "C:\\Users\\sound\\Desktop\\MOTD\\meme-repo-copy\\src\\contracts\\src\\MemeOfTheDayV2.sol",
  "compiler": {
    "name": "solc",
    "version": "0.8.0+commit.c7dfd78e.Emscripten.clang"
  },
  "schemaVersion": "3.3.4",
  "updatedAt": "2021-05-01T15:31:20.947Z",
  "devdoc": {
    "kind": "dev",
    "methods": {
      "balanceOf(address,uint256)": {
        "details": "See {IERC1155-balanceOf}. Requirements: - `account` cannot be the zero address."
      },
      "balanceOfBatch(address[],uint256[])": {
        "details": "See {IERC1155-balanceOfBatch}. Requirements: - `accounts` and `ids` must have the same length."
      },
      "getMemesCount()": {
        "returns": {
          "count": "the number of memes"
        }
      },
      "getTokenID(string)": {
        "returns": {
          "tokenID": "of the meme"
        }
      },
      "isApprovedForAll(address,address)": {
        "details": "See {IERC1155-isApprovedForAll}."
      },
      "mint(string,int256)": {
        "params": {
          "_creatorFee": "custom fee to send to the creator, if is -1 it uses the default one set in the MOTDSaleParametersProviderContract",
          "_hash": "IPFS hash of the NFT"
        }
      },
      "owner()": {
        "details": "Returns the address of the current owner."
      },
      "renounceOwnership()": {
        "details": "Leaves the contract without owner. It will not be possible to call `onlyOwner` functions anymore. Can only be called by the current owner. NOTE: Renouncing ownership will leave the contract without an owner, thereby removing any functionality that is only available to the owner."
      },
      "safeBatchTransferFrom(address,address,uint256[],uint256[],bytes)": {
        "details": "See {IERC1155-safeBatchTransferFrom}."
      },
      "safeTransferFrom(address,address,uint256,uint256,bytes)": {
        "details": "See {IERC1155-safeTransferFrom}."
      },
      "setApprovalForAll(address,bool)": {
        "details": "See {IERC1155-setApprovalForAll}."
      },
      "setUri(string)": {
        "params": {
          "_newUri": "the new URI to fetch NFTs info from"
        }
      },
      "supportsInterface(bytes4)": {
        "details": "See {IERC165-supportsInterface}."
      },
      "transferOwnership(address)": {
        "details": "Transfers ownership of the contract to a new account (`newOwner`). Can only be called by the current owner."
      },
      "uri(uint256)": {
        "details": "See {IERC1155MetadataURI-uri}. This implementation returns the same URI for *all* token types. It relies on the token type ID substitution mechanism https://eips.ethereum.org/EIPS/eip-1155#metadata[defined in the EIP]. Clients calling this function must replace the `\\{id\\}` substring with the actual token type ID."
      }
    },
    "version": 1
  },
  "userdoc": {
    "kind": "user",
    "methods": {
      "getMemesCount()": {
        "notice": "Returns the number of minted memes"
      },
      "getTokenID(string)": {
        "notice": "Returns the TokenID of meme"
      },
      "mint(string,int256)": {
        "notice": "Mints a new meme NFT"
      },
      "setUri(string)": {
        "notice": "Changes the URI to fetch NFTs info from"
      }
    },
    "version": 1
  }
}