{
  "contractName": "MemeSale",
  "abi": [
    {
      "inputs": [
        {
          "internalType": "address",
          "name": "memeOfTheDayAddress",
          "type": "address"
        },
        {
          "internalType": "address payable",
          "name": "motdTreasuryAddress",
          "type": "address"
        },
        {
          "internalType": "string",
          "name": "version",
          "type": "string"
        }
      ],
      "stateMutability": "nonpayable",
      "type": "constructor"
    },
    {
      "inputs": [],
      "name": "DOMAIN_SEPARATOR",
      "outputs": [
        {
          "internalType": "bytes32",
          "name": "",
          "type": "bytes32"
        }
      ],
      "stateMutability": "view",
      "type": "function"
    },
    {
      "inputs": [],
      "name": "VERIFY_PRICE_TYPEHASH",
      "outputs": [
        {
          "internalType": "bytes32",
          "name": "",
          "type": "bytes32"
        }
      ],
      "stateMutability": "view",
      "type": "function"
    },
    {
      "inputs": [
        {
          "internalType": "uint256",
          "name": "",
          "type": "uint256"
        }
      ],
      "name": "isOnSale",
      "outputs": [
        {
          "internalType": "bool",
          "name": "",
          "type": "bool"
        }
      ],
      "stateMutability": "view",
      "type": "function"
    },
    {
      "inputs": [],
      "name": "memeOfTheDay",
      "outputs": [
        {
          "internalType": "contract MemeOfTheDay",
          "name": "",
          "type": "address"
        }
      ],
      "stateMutability": "view",
      "type": "function"
    },
    {
      "inputs": [],
      "name": "memeOfTheDayTreasury",
      "outputs": [
        {
          "internalType": "contract MOTDTreasury",
          "name": "",
          "type": "address"
        }
      ],
      "stateMutability": "view",
      "type": "function"
    },
    {
      "inputs": [
        {
          "internalType": "uint256",
          "name": "tokenId",
          "type": "uint256"
        }
      ],
      "name": "putOnSale",
      "outputs": [],
      "stateMutability": "nonpayable",
      "type": "function"
    },
    {
      "inputs": [
        {
          "internalType": "uint256",
          "name": "tokenId",
          "type": "uint256"
        },
        {
          "internalType": "uint256",
          "name": "price",
          "type": "uint256"
        },
        {
          "internalType": "address payable[]",
          "name": "voters",
          "type": "address[]"
        },
        {
          "internalType": "bool",
          "name": "payCreator",
          "type": "bool"
        },
        {
          "internalType": "uint8",
          "name": "v",
          "type": "uint8"
        },
        {
          "internalType": "bytes32",
          "name": "r",
          "type": "bytes32"
        },
        {
          "internalType": "bytes32",
          "name": "s",
          "type": "bytes32"
        }
      ],
      "name": "buy",
      "outputs": [],
      "stateMutability": "payable",
      "type": "function"
    }
  ],
  "bytecode": "0x608060405234801561001057600080fd5b506040516111c53803806111c58339818101604052606081101561003357600080fd5b8101908080519060200190929190805190602001909291908051604051939291908464010000000082111561006757600080fd5b8382019150602082018581111561007d57600080fd5b825186600182028301116401000000008211171561009a57600080fd5b8083526020830192505050908051906020019080838360005b838110156100ce5780820151818401526020810190506100b3565b50505050905090810190601f1680156100fb5780820380516001836020036101000a031916815260200191505b5060405250505082600160006101000a81548173ffffffffffffffffffffffffffffffffffffffff021916908373ffffffffffffffffffffffffffffffffffffffff16021790555081600260006101000a81548173ffffffffffffffffffffffffffffffffffffffff021916908373ffffffffffffffffffffffffffffffffffffffff1602179055506101cd6040518060400160405280600881526020017f4d656d6553616c65000000000000000000000000000000000000000000000000815250826101db60201b610b511760201c565b60008190555050505061027b565b6000804690507f8b73c3c69bb8fe3d512ecc4cf759cc79239f7b179b0ffacaa9a75d522b39400f60001b84805190602001208480519060200120308460001b604051602001808681526020018581526020018481526020018373ffffffffffffffffffffffffffffffffffffffff168152602001828152602001955050505050506040516020818303038152906040528051906020012091505092915050565b610f3b8061028a6000396000f3fe6080604052600436106100705760003560e01c80639d6e60e31161004e5780639d6e60e31461019b5780639dbcfd6f146101c6578063e523bb4214610201578063f0f2805f1461024257610070565b80633615f3e2146100755780633644e5151461012f5780638a728dc41461015a575b600080fd5b61012d600480360360e081101561008b57600080fd5b810190808035906020019092919080359060200190929190803590602001906401000000008111156100bc57600080fd5b8201836020820111156100ce57600080fd5b803590602001918460208302840111640100000000831117156100f057600080fd5b9091929391929390803515159060200190929190803560ff1690602001909291908035906020019092919080359060200190929190505050610293565b005b34801561013b57600080fd5b50610144610958565b6040518082815260200191505060405180910390f35b34801561016657600080fd5b5061016f61095e565b604051808273ffffffffffffffffffffffffffffffffffffffff16815260200191505060405180910390f35b3480156101a757600080fd5b506101b0610984565b6040518082815260200191505060405180910390f35b3480156101d257600080fd5b506101ff600480360360208110156101e957600080fd5b81019080803590602001909291905050506109ab565b005b34801561020d57600080fd5b50610216610b0b565b604051808273ffffffffffffffffffffffffffffffffffffffff16815260200191505060405180910390f35b34801561024e57600080fd5b5061027b6004803603602081101561026557600080fd5b8101908080359060200190929190505050610b31565b60405180821515815260200191505060405180910390f35b6003600089815260200190815260200160002060009054906101000a900460ff16610326576040517f08c379a000000000000000000000000000000000000000000000000000000000815260040180806020018281038252601a8152602001807f476976656e20746f6b656e206973206e6f74206f6e2073616c6500000000000081525060200191505060405180910390fd5b86341461037e576040517f08c379a0000000000000000000000000000000000000000000000000000000008152600401808060200182810382526027815260200180610e936027913960400191505060405180910390fd5b60607f01b2ca8b9a0a07d70c188f51d5d3ea9d76d3a4722a62ba8b3b3f9bbe316ca84460001b89896040516020018084815260200183815260200182815260200193505050506040516020818303038152906040529050600160009054906101000a900473ffffffffffffffffffffffffffffffffffffffff1673ffffffffffffffffffffffffffffffffffffffff16636352211e8a6040518263ffffffff1660e01b81526004018082815260200191505060206040518083038186803b15801561044857600080fd5b505afa15801561045c573d6000803e3d6000fd5b505050506040513d602081101561047257600080fd5b810190808051906020019092919050505073ffffffffffffffffffffffffffffffffffffffff166104a860005486868686610bf1565b73ffffffffffffffffffffffffffffffffffffffff16146040518060400160405280601b81526020017f4d656d6553616c653a20696e76616c6964207369676e617475726500000000008152509061059b576040517f08c379a00000000000000000000000000000000000000000000000000000000081526004018080602001828103825283818151815260200191508051906020019080838360005b83811015610560578082015181840152602081019050610545565b50505050905090810190601f16801561058d5780820380516001836020036101000a031916815260200191505b509250505060405180910390fd5b5060005b87879050811015610627578787828181106105b657fe5b9050602002013573ffffffffffffffffffffffffffffffffffffffff1673ffffffffffffffffffffffffffffffffffffffff166108fc60019081150290604051600060405180830381858888f19350505050158015610619573d6000803e3d6000fd5b50808060010191505061059f565b50841561072457600160009054906101000a900473ffffffffffffffffffffffffffffffffffffffff1673ffffffffffffffffffffffffffffffffffffffff1663589a17438a6040518263ffffffff1660e01b81526004018082815260200191505060206040518083038186803b1580156106a157600080fd5b505afa1580156106b5573d6000803e3d6000fd5b505050506040513d60208110156106cb57600080fd5b810190808051906020019092919050505073ffffffffffffffffffffffffffffffffffffffff166108fc600a9081150290604051600060405180830381858888f19350505050158015610722573d6000803e3d6000fd5b505b600260009054906101000a900473ffffffffffffffffffffffffffffffffffffffff1673ffffffffffffffffffffffffffffffffffffffff166108fc60649081150290604051600060405180830381858888f1935050505015801561078d573d6000803e3d6000fd5b50600160009054906101000a900473ffffffffffffffffffffffffffffffffffffffff1673ffffffffffffffffffffffffffffffffffffffff1663f242432a600160009054906101000a900473ffffffffffffffffffffffffffffffffffffffff1673ffffffffffffffffffffffffffffffffffffffff16636352211e8c6040518263ffffffff1660e01b81526004018082815260200191505060206040518083038186803b15801561083f57600080fd5b505afa158015610853573d6000803e3d6000fd5b505050506040513d602081101561086957600080fd5b8101908080519060200190929190505050338c60016040518563ffffffff1660e01b8152600401808573ffffffffffffffffffffffffffffffffffffffff1681526020018473ffffffffffffffffffffffffffffffffffffffff1681526020018381526020018281526020018060200182810382526000815260200160200195505050505050600060405180830381600087803b15801561090957600080fd5b505af115801561091d573d6000803e3d6000fd5b505050506000600360008b815260200190815260200160002060006101000a81548160ff021916908315150217905550505050505050505050565b60005481565b600260009054906101000a900473ffffffffffffffffffffffffffffffffffffffff1681565b7f01b2ca8b9a0a07d70c188f51d5d3ea9d76d3a4722a62ba8b3b3f9bbe316ca84460001b81565b3373ffffffffffffffffffffffffffffffffffffffff16600160009054906101000a900473ffffffffffffffffffffffffffffffffffffffff1673ffffffffffffffffffffffffffffffffffffffff16636352211e836040518263ffffffff1660e01b81526004018082815260200191505060206040518083038186803b158015610a3557600080fd5b505afa158015610a49573d6000803e3d6000fd5b505050506040513d6020811015610a5f57600080fd5b810190808051906020019092919050505073ffffffffffffffffffffffffffffffffffffffff1614610adc576040517f08c379a0000000000000000000000000000000000000000000000000000000008152600401808060200182810382526023815260200180610e706023913960400191505060405180910390fd5b60016003600083815260200190815260200160002060006101000a81548160ff02191690831515021790555050565b600160009054906101000a900473ffffffffffffffffffffffffffffffffffffffff1681565b60036020528060005260406000206000915054906101000a900460ff1681565b6000804690507f8b73c3c69bb8fe3d512ecc4cf759cc79239f7b179b0ffacaa9a75d522b39400f60001b84805190602001208480519060200120308460001b604051602001808681526020018581526020018481526020018373ffffffffffffffffffffffffffffffffffffffff168152602001828152602001955050505050506040516020818303038152906040528051906020012091505092915050565b60008086838051906020012060405160200180807f190100000000000000000000000000000000000000000000000000000000000081525060020183815260200182815260200192505050604051602081830303815290604052805190602001209050610c6081878787610c6c565b91505095945050505050565b60007f7fffffffffffffffffffffffffffffff5d576e7357a4501ddfe92f46681b20a08260001c1115610cea576040517f08c379a0000000000000000000000000000000000000000000000000000000008152600401808060200182810382526026815260200180610ee06026913960400191505060405180910390fd5b601b8460ff1614158015610d025750601c8460ff1614155b15610d58576040517f08c379a0000000000000000000000000000000000000000000000000000000008152600401808060200182810382526026815260200180610eba6026913960400191505060405180910390fd5b600060018686868660405160008152602001604052604051808581526020018460ff1681526020018381526020018281526020019450505050506020604051602081039080840390855afa158015610db4573d6000803e3d6000fd5b505050602060405103519050600073ffffffffffffffffffffffffffffffffffffffff168173ffffffffffffffffffffffffffffffffffffffff161415610e63576040517f08c379a000000000000000000000000000000000000000000000000000000000815260040180806020018281038252601c8152602001807f45435265636f7665723a20696e76616c6964207369676e61747572650000000081525060200191505060405180910390fd5b8091505094935050505056fe4f6e6c79206f776e6572206f6620746f6b656e2063616e20707574206f6e2073616c6553656e742076616c75652073686f756c6420626520657175616c20746f2073657420707269636545435265636f7665723a20696e76616c6964207369676e6174757265202776272076616c756545435265636f7665723a20696e76616c6964207369676e6174757265202773272076616c7565a2646970667358221220ce113ff54d001302217fccc2867fe09a1c6d9581934c6417a0cc4b6c3ecd3d9064736f6c634300060c0033",
  "immutableReferences": {},
  "source": "// SPDX-License-Identifier: MIT\r\npragma solidity ^0.6.12;\r\n\r\nimport {EIP712Domain} from \"./EIP712Domain.sol\";\r\nimport {EIP712} from \"./EIP712.sol\";\r\n\r\nimport \"./MemeOfTheDay.sol\";\r\nimport \"./MOTDTreasury.sol\";\r\n\r\ncontract MemeSale is EIP712Domain {\r\n    string internal constant VERIFYING_CONTRACT_NAME = \"MemeSale\";\r\n\r\n    // keccak256(VerifyPrice(uint256 tokenId,uint256 price)\")\r\n    bytes32\r\n        public constant VERIFY_PRICE_TYPEHASH = 0x01b2ca8b9a0a07d70c188f51d5d3ea9d76d3a4722a62ba8b3b3f9bbe316ca844;\r\n\r\n    string\r\n        internal constant _INVALID_SIGNATURE_ERROR = \"MemeSale: invalid signature\";\r\n\r\n    MemeOfTheDay public memeOfTheDay;\r\n    MOTDTreasury public memeOfTheDayTreasury;\r\n\r\n    mapping(uint256 => bool) public isOnSale;\r\n\r\n    constructor(\r\n        address memeOfTheDayAddress,\r\n        address payable motdTreasuryAddress,\r\n        string memory version\r\n    ) public {\r\n        memeOfTheDay = MemeOfTheDay(memeOfTheDayAddress);\r\n        memeOfTheDayTreasury = MOTDTreasury(motdTreasuryAddress);\r\n\r\n        DOMAIN_SEPARATOR = EIP712.makeDomainSeparator(\r\n            VERIFYING_CONTRACT_NAME,\r\n            version\r\n        );\r\n    }\r\n\r\n    function putOnSale(uint256 tokenId) external {\r\n        require(\r\n            memeOfTheDay.ownerOf(tokenId) == msg.sender,\r\n            \"Only owner of token can put on sale\"\r\n        );\r\n\r\n        isOnSale[tokenId] = true;\r\n    }\r\n\r\n    function buy(\r\n        uint256 tokenId,\r\n        uint256 price,\r\n        address payable[] calldata voters,\r\n        bool payCreator,\r\n        uint8 v,\r\n        bytes32 r,\r\n        bytes32 s\r\n    ) external payable {\r\n        require(isOnSale[tokenId], \"Given token is not on sale\");\r\n        require(msg.value == price, \"Sent value should be equal to set price\");\r\n\r\n        bytes memory data = abi.encode(VERIFY_PRICE_TYPEHASH, tokenId, price);\r\n\r\n        require(\r\n            EIP712.recover(DOMAIN_SEPARATOR, v, r, s, data) ==\r\n                memeOfTheDay.ownerOf(tokenId),\r\n            _INVALID_SIGNATURE_ERROR\r\n        );\r\n\r\n        for (uint256 i = 0; i < voters.length; i++) {\r\n            voters[i].transfer(1);\r\n        }\r\n\r\n        if (payCreator) {\r\n            memeOfTheDay.creatorOf(tokenId).transfer(10);\r\n        }\r\n\r\n        address(memeOfTheDayTreasury).transfer(100);\r\n\r\n        memeOfTheDay.safeTransferFrom(\r\n            memeOfTheDay.ownerOf(tokenId),\r\n            msg.sender,\r\n            tokenId,\r\n            1,\r\n            \"\"\r\n        );\r\n\r\n        isOnSale[tokenId] = false;\r\n    }\r\n}\r\n",
  "sourcePath": "/mnt/c/Users/lorenzo/Desktop/Personale/meme-of-the-day-ipfs/src/contracts/src/MemeSale.sol",
  "compiler": {
    "name": "solc",
    "version": "0.6.12+commit.27d51765.Emscripten.clang"
  },
  "schemaVersion": "3.3.2",
  "updatedAt": "2020-11-30T11:48:04.458Z",
  "devdoc": {
    "kind": "dev",
    "methods": {},
    "version": 1
  },
  "userdoc": {
    "kind": "user",
    "methods": {},
    "version": 1
  }
}