{
  "contractName": "MemeOfTheDay",
  "abi": [
    {
      "inputs": [],
      "stateMutability": "nonpayable",
      "type": "constructor"
    },
    {
      "anonymous": false,
      "inputs": [
        {
          "indexed": true,
          "internalType": "address",
          "name": "account",
          "type": "address"
        },
        {
          "indexed": true,
          "internalType": "address",
          "name": "operator",
          "type": "address"
        },
        {
          "indexed": false,
          "internalType": "bool",
          "name": "approved",
          "type": "bool"
        }
      ],
      "name": "ApprovalForAll",
      "type": "event"
    },
    {
      "anonymous": false,
      "inputs": [
        {
          "indexed": false,
          "internalType": "address",
          "name": "creator",
          "type": "address"
        },
        {
          "indexed": false,
          "internalType": "uint256",
          "name": "tokenId",
          "type": "uint256"
        }
      ],
      "name": "MemeMinted",
      "type": "event"
    },
    {
      "anonymous": false,
      "inputs": [
        {
          "indexed": true,
          "internalType": "address",
          "name": "previousOwner",
          "type": "address"
        },
        {
          "indexed": true,
          "internalType": "address",
          "name": "newOwner",
          "type": "address"
        }
      ],
      "name": "OwnershipTransferred",
      "type": "event"
    },
    {
      "anonymous": false,
      "inputs": [
        {
          "indexed": true,
          "internalType": "address",
          "name": "operator",
          "type": "address"
        },
        {
          "indexed": true,
          "internalType": "address",
          "name": "from",
          "type": "address"
        },
        {
          "indexed": true,
          "internalType": "address",
          "name": "to",
          "type": "address"
        },
        {
          "indexed": false,
          "internalType": "uint256[]",
          "name": "ids",
          "type": "uint256[]"
        },
        {
          "indexed": false,
          "internalType": "uint256[]",
          "name": "values",
          "type": "uint256[]"
        }
      ],
      "name": "TransferBatch",
      "type": "event"
    },
    {
      "anonymous": false,
      "inputs": [
        {
          "indexed": true,
          "internalType": "address",
          "name": "operator",
          "type": "address"
        },
        {
          "indexed": true,
          "internalType": "address",
          "name": "from",
          "type": "address"
        },
        {
          "indexed": true,
          "internalType": "address",
          "name": "to",
          "type": "address"
        },
        {
          "indexed": false,
          "internalType": "uint256",
          "name": "id",
          "type": "uint256"
        },
        {
          "indexed": false,
          "internalType": "uint256",
          "name": "value",
          "type": "uint256"
        }
      ],
      "name": "TransferSingle",
      "type": "event"
    },
    {
      "anonymous": false,
      "inputs": [
        {
          "indexed": false,
          "internalType": "string",
          "name": "value",
          "type": "string"
        },
        {
          "indexed": true,
          "internalType": "uint256",
          "name": "id",
          "type": "uint256"
        }
      ],
      "name": "URI",
      "type": "event"
    },
    {
      "inputs": [
        {
          "internalType": "address",
          "name": "account",
          "type": "address"
        },
        {
          "internalType": "uint256",
          "name": "id",
          "type": "uint256"
        }
      ],
      "name": "balanceOf",
      "outputs": [
        {
          "internalType": "uint256",
          "name": "",
          "type": "uint256"
        }
      ],
      "stateMutability": "view",
      "type": "function",
      "constant": true
    },
    {
      "inputs": [
        {
          "internalType": "address[]",
          "name": "accounts",
          "type": "address[]"
        },
        {
          "internalType": "uint256[]",
          "name": "ids",
          "type": "uint256[]"
        }
      ],
      "name": "balanceOfBatch",
      "outputs": [
        {
          "internalType": "uint256[]",
          "name": "",
          "type": "uint256[]"
        }
      ],
      "stateMutability": "view",
      "type": "function",
      "constant": true
    },
    {
      "inputs": [
        {
          "internalType": "uint256",
          "name": "",
          "type": "uint256"
        }
      ],
      "name": "creatorFee",
      "outputs": [
        {
          "internalType": "int256",
          "name": "",
          "type": "int256"
        }
      ],
      "stateMutability": "view",
      "type": "function",
      "constant": true
    },
    {
      "inputs": [
        {
          "internalType": "uint256",
          "name": "",
          "type": "uint256"
        }
      ],
      "name": "creatorOf",
      "outputs": [
        {
          "internalType": "address payable",
          "name": "",
          "type": "address"
        }
      ],
      "stateMutability": "view",
      "type": "function",
      "constant": true
    },
    {
      "inputs": [
        {
          "internalType": "uint256",
          "name": "",
          "type": "uint256"
        }
      ],
      "name": "hashes",
      "outputs": [
        {
          "internalType": "string",
          "name": "",
          "type": "string"
        }
      ],
      "stateMutability": "view",
      "type": "function",
      "constant": true
    },
    {
      "inputs": [
        {
          "internalType": "address",
          "name": "account",
          "type": "address"
        },
        {
          "internalType": "address",
          "name": "operator",
          "type": "address"
        }
      ],
      "name": "isApprovedForAll",
      "outputs": [
        {
          "internalType": "bool",
          "name": "",
          "type": "bool"
        }
      ],
      "stateMutability": "view",
      "type": "function",
      "constant": true
    },
    {
      "inputs": [],
      "name": "owner",
      "outputs": [
        {
          "internalType": "address",
          "name": "",
          "type": "address"
        }
      ],
      "stateMutability": "view",
      "type": "function",
      "constant": true
    },
    {
      "inputs": [
        {
          "internalType": "uint256",
          "name": "",
          "type": "uint256"
        }
      ],
      "name": "ownerOf",
      "outputs": [
        {
          "internalType": "address payable",
          "name": "",
          "type": "address"
        }
      ],
      "stateMutability": "view",
      "type": "function",
      "constant": true
    },
    {
      "inputs": [],
      "name": "renounceOwnership",
      "outputs": [],
      "stateMutability": "nonpayable",
      "type": "function"
    },
    {
      "inputs": [
        {
          "internalType": "address",
          "name": "from",
          "type": "address"
        },
        {
          "internalType": "address",
          "name": "to",
          "type": "address"
        },
        {
          "internalType": "uint256[]",
          "name": "ids",
          "type": "uint256[]"
        },
        {
          "internalType": "uint256[]",
          "name": "amounts",
          "type": "uint256[]"
        },
        {
          "internalType": "bytes",
          "name": "data",
          "type": "bytes"
        }
      ],
      "name": "safeBatchTransferFrom",
      "outputs": [],
      "stateMutability": "nonpayable",
      "type": "function"
    },
    {
      "inputs": [
        {
          "internalType": "address",
          "name": "from",
          "type": "address"
        },
        {
          "internalType": "address",
          "name": "to",
          "type": "address"
        },
        {
          "internalType": "uint256",
          "name": "id",
          "type": "uint256"
        },
        {
          "internalType": "uint256",
          "name": "amount",
          "type": "uint256"
        },
        {
          "internalType": "bytes",
          "name": "data",
          "type": "bytes"
        }
      ],
      "name": "safeTransferFrom",
      "outputs": [],
      "stateMutability": "nonpayable",
      "type": "function"
    },
    {
      "inputs": [
        {
          "internalType": "address",
          "name": "operator",
          "type": "address"
        },
        {
          "internalType": "bool",
          "name": "approved",
          "type": "bool"
        }
      ],
      "name": "setApprovalForAll",
      "outputs": [],
      "stateMutability": "nonpayable",
      "type": "function"
    },
    {
      "inputs": [
        {
          "internalType": "bytes4",
          "name": "interfaceId",
          "type": "bytes4"
        }
      ],
      "name": "supportsInterface",
      "outputs": [
        {
          "internalType": "bool",
          "name": "",
          "type": "bool"
        }
      ],
      "stateMutability": "view",
      "type": "function",
      "constant": true
    },
    {
      "inputs": [
        {
          "internalType": "address",
          "name": "newOwner",
          "type": "address"
        }
      ],
      "name": "transferOwnership",
      "outputs": [],
      "stateMutability": "nonpayable",
      "type": "function"
    },
    {
      "inputs": [
        {
          "internalType": "uint256",
          "name": "",
          "type": "uint256"
        }
      ],
      "name": "uri",
      "outputs": [
        {
          "internalType": "string",
          "name": "",
          "type": "string"
        }
      ],
      "stateMutability": "view",
      "type": "function",
      "constant": true
    },
    {
      "inputs": [
        {
          "internalType": "string",
          "name": "_newUri",
          "type": "string"
        }
      ],
      "name": "setUri",
      "outputs": [],
      "stateMutability": "nonpayable",
      "type": "function"
    },
    {
      "inputs": [
        {
          "internalType": "string",
          "name": "_hash",
          "type": "string"
        },
        {
          "internalType": "int256",
          "name": "_creatorFee",
          "type": "int256"
        }
      ],
      "name": "mint",
      "outputs": [],
      "stateMutability": "nonpayable",
      "type": "function"
    },
    {
      "inputs": [
        {
          "internalType": "string",
          "name": "_hash",
          "type": "string"
        }
      ],
      "name": "getTokenID",
      "outputs": [
        {
          "internalType": "uint256",
          "name": "tokenID",
          "type": "uint256"
        }
      ],
      "stateMutability": "view",
      "type": "function",
      "constant": true
    },
    {
      "inputs": [],
      "name": "getMemesCount",
      "outputs": [
        {
          "internalType": "uint256",
          "name": "count",
          "type": "uint256"
        }
      ],
      "stateMutability": "view",
      "type": "function",
      "constant": true
    }
  ],
  "bytecode": "0x60806040523480156200001157600080fd5b506040518060a00160405280606f815260200162003486606f9139620000446301ffc9a760e01b6200013d60201b60201c565b62000055816200024660201b60201c565b6200006d63d9b67a2660e01b6200013d60201b60201c565b62000085630e89341c60e01b6200013d60201b60201c565b506000620000986200026260201b60201c565b905080600460006101000a81548173ffffffffffffffffffffffffffffffffffffffff021916908373ffffffffffffffffffffffffffffffffffffffff1602179055508073ffffffffffffffffffffffffffffffffffffffff16600073ffffffffffffffffffffffffffffffffffffffff167f8be0079c531659141344cd1fd0a4f28419497f9722a3daafe3b4186f6b6457e060405160405180910390a35062000310565b63ffffffff60e01b817bffffffffffffffffffffffffffffffffffffffffffffffffffffffff19161415620001da576040517f08c379a000000000000000000000000000000000000000000000000000000000815260040180806020018281038252601c8152602001807f4552433136353a20696e76616c696420696e746572666163652069640000000081525060200191505060405180910390fd5b6001600080837bffffffffffffffffffffffffffffffffffffffffffffffffffffffff19167bffffffffffffffffffffffffffffffffffffffffffffffffffffffff1916815260200190815260200160002060006101000a81548160ff02191690831515021790555050565b80600390805190602001906200025e9291906200026a565b5050565b600033905090565b828054600181600116156101000203166002900490600052602060002090601f016020900481019282601f10620002ad57805160ff1916838001178555620002de565b82800160010185558215620002de579182015b82811115620002dd578251825591602001919060010190620002c0565b5b509050620002ed9190620002f1565b5090565b5b808211156200030c576000816000905550600101620002f2565b5090565b61316680620003206000396000f3fe608060405234801561001057600080fd5b50600436106101205760003560e01c8063715018a6116100ad578063e5f6e26111610071578063e5f6e261146109fc578063e706a63914610a1a578063e985e9c514610ae9578063f242432a14610b63578063f2fde38b14610c7257610120565b8063715018a61461087157806378c3829b1461087b5780638da5cb5b146108bd5780639b642de1146108f1578063a22cb465146109ac57610120565b80632eb2c2d6116100f45780632eb2c2d6146103565780634e1273f414610579578063501895ae1461071a578063589a1743146107c15780636352211e1461081957610120565b8062fdd58e1461012557806301ffc9a7146101875780630e89341c146101ea5780632d5497cd14610291575b600080fd5b6101716004803603604081101561013b57600080fd5b81019080803573ffffffffffffffffffffffffffffffffffffffff16906020019092919080359060200190929190505050610cb6565b6040518082815260200191505060405180910390f35b6101d26004803603602081101561019d57600080fd5b8101908080357bffffffffffffffffffffffffffffffffffffffffffffffffffffffff19169060200190929190505050610d96565b60405180821515815260200191505060405180910390f35b6102166004803603602081101561020057600080fd5b8101908080359060200190929190505050610dfd565b6040518080602001828103825283818151815260200191508051906020019080838360005b8381101561025657808201518184015260208101905061023b565b50505050905090810190601f1680156102835780820380516001836020036101000a031916815260200191505b509250505060405180910390f35b610354600480360360408110156102a757600080fd5b81019080803590602001906401000000008111156102c457600080fd5b8201836020820111156102d657600080fd5b803590602001918460018302840111640100000000831117156102f857600080fd5b91908080601f016020809104026020016040519081016040528093929190818152602001838380828437600081840152601f19601f82011690508083019250505050505050919291929080359060200190929190505050610ea1565b005b610577600480360360a081101561036c57600080fd5b81019080803573ffffffffffffffffffffffffffffffffffffffff169060200190929190803573ffffffffffffffffffffffffffffffffffffffff169060200190929190803590602001906401000000008111156103c957600080fd5b8201836020820111156103db57600080fd5b803590602001918460208302840111640100000000831117156103fd57600080fd5b919080806020026020016040519081016040528093929190818152602001838360200280828437600081840152601f19601f8201169050808301925050505050505091929192908035906020019064010000000081111561045d57600080fd5b82018360208201111561046f57600080fd5b8035906020019184602083028401116401000000008311171561049157600080fd5b919080806020026020016040519081016040528093929190818152602001838360200280828437600081840152601f19601f820116905080830192505050505050509192919290803590602001906401000000008111156104f157600080fd5b82018360208201111561050357600080fd5b8035906020019184600183028401116401000000008311171561052557600080fd5b91908080601f016020809104026020016040519081016040528093929190818152602001838380828437600081840152601f19601f8201169050808301925050505050505091929192905050506111d9565b005b6106c36004803603604081101561058f57600080fd5b81019080803590602001906401000000008111156105ac57600080fd5b8201836020820111156105be57600080fd5b803590602001918460208302840111640100000000831117156105e057600080fd5b919080806020026020016040519081016040528093929190818152602001838360200280828437600081840152601f19601f8201169050808301925050505050505091929192908035906020019064010000000081111561064057600080fd5b82018360208201111561065257600080fd5b8035906020019184602083028401116401000000008311171561067457600080fd5b919080806020026020016040519081016040528093929190818152602001838360200280828437600081840152601f19601f820116905080830192505050505050509192919290505050611664565b6040518080602001828103825283818151815260200191508051906020019060200280838360005b838110156107065780820151818401526020810190506106eb565b505050509050019250505060405180910390f35b6107466004803603602081101561073057600080fd5b8101908080359060200190929190505050611776565b6040518080602001828103825283818151815260200191508051906020019080838360005b8381101561078657808201518184015260208101905061076b565b50505050905090810190601f1680156107b35780820380516001836020036101000a031916815260200191505b509250505060405180910390f35b6107ed600480360360208110156107d757600080fd5b810190808035906020019092919050505061182f565b604051808273ffffffffffffffffffffffffffffffffffffffff16815260200191505060405180910390f35b6108456004803603602081101561082f57600080fd5b8101908080359060200190929190505050611862565b604051808273ffffffffffffffffffffffffffffffffffffffff16815260200191505060405180910390f35b610879611895565b005b6108a76004803603602081101561089157600080fd5b8101908080359060200190929190505050611a05565b6040518082815260200191505060405180910390f35b6108c5611a1d565b604051808273ffffffffffffffffffffffffffffffffffffffff16815260200191505060405180910390f35b6109aa6004803603602081101561090757600080fd5b810190808035906020019064010000000081111561092457600080fd5b82018360208201111561093657600080fd5b8035906020019184600183028401116401000000008311171561095857600080fd5b91908080601f016020809104026020016040519081016040528093929190818152602001838380828437600081840152601f19601f820116905080830192505050505050509192919290505050611a47565b005b6109fa600480360360408110156109c257600080fd5b81019080803573ffffffffffffffffffffffffffffffffffffffff169060200190929190803515159060200190929190505050611b02565b005b610a04611c9b565b6040518082815260200191505060405180910390f35b610ad360048036036020811015610a3057600080fd5b8101908080359060200190640100000000811115610a4d57600080fd5b820183602082011115610a5f57600080fd5b80359060200191846001830284011164010000000083111715610a8157600080fd5b91908080601f016020809104026020016040519081016040528093929190818152602001838380828437600081840152601f19601f820116905080830192505050505050509192919290505050611ca8565b6040518082815260200191505060405180910390f35b610b4b60048036036040811015610aff57600080fd5b81019080803573ffffffffffffffffffffffffffffffffffffffff169060200190929190803573ffffffffffffffffffffffffffffffffffffffff169060200190929190505050611d1b565b60405180821515815260200191505060405180910390f35b610c70600480360360a0811015610b7957600080fd5b81019080803573ffffffffffffffffffffffffffffffffffffffff169060200190929190803573ffffffffffffffffffffffffffffffffffffffff169060200190929190803590602001909291908035906020019092919080359060200190640100000000811115610bea57600080fd5b820183602082011115610bfc57600080fd5b80359060200191846001830284011164010000000083111715610c1e57600080fd5b91908080601f016020809104026020016040519081016040528093929190818152602001838380828437600081840152601f19601f820116905080830192505050505050509192919290505050611daf565b005b610cb460048036036020811015610c8857600080fd5b81019080803573ffffffffffffffffffffffffffffffffffffffff169060200190929190505050612124565b005b60008073ffffffffffffffffffffffffffffffffffffffff168373ffffffffffffffffffffffffffffffffffffffff161415610d3d576040517f08c379a000000000000000000000000000000000000000000000000000000000815260040180806020018281038252602b815260200180612f75602b913960400191505060405180910390fd5b6001600083815260200190815260200160002060008473ffffffffffffffffffffffffffffffffffffffff1673ffffffffffffffffffffffffffffffffffffffff16815260200190815260200160002054905092915050565b6000806000837bffffffffffffffffffffffffffffffffffffffffffffffffffffffff19167bffffffffffffffffffffffffffffffffffffffffffffffffffffffff1916815260200190815260200160002060009054906101000a900460ff169050919050565b606060038054600181600116156101000203166002900480601f016020809104026020016040519081016040528092919081815260200182805460018160011615610100020316600290048015610e955780601f10610e6a57610100808354040283529160200191610e95565b820191906000526020600020905b815481529060010190602001808311610e7857829003601f168201915b50505050509050919050565b6006826040518082805190602001908083835b60208310610ed75780518252602082019150602081019050602083039250610eb4565b6001836020036101000a038019825116818451168082178552505050505050905001915050908152602001604051809103902060009054906101000a900460ff1615610f6e576040517f08c379a0000000000000000000000000000000000000000000000000000000008152600401808060200182810382526026815260200180612fef6026913960400191505060405180910390fd5b600582908060018154018082558091505060019003906000526020600020016000909190919091509080519060200190610fa9929190612da7565b5060006001600580549050039050610fd33382600160405180602001604052806000815250612319565b60016006846040518082805190602001908083835b6020831061100b5780518252602082019150602081019050602083039250610fe8565b6001836020036101000a038019825116818451168082178552505050505050905001915050908152602001604051809103902060006101000a81548160ff021916908315150217905550806007846040518082805190602001908083835b6020831061108c5780518252602082019150602081019050602083039250611069565b6001836020036101000a038019825116818451168082178552505050505050905001915050908152602001604051809103902081905550336008600083815260200190815260200160002060006101000a81548173ffffffffffffffffffffffffffffffffffffffff021916908373ffffffffffffffffffffffffffffffffffffffff160217905550336009600083815260200190815260200160002060006101000a81548173ffffffffffffffffffffffffffffffffffffffff021916908373ffffffffffffffffffffffffffffffffffffffff16021790555081600a6000838152602001908152602001600020819055507f48dc2aeea2a01c56706a90dc93cbd9fe7e1783b9c475708d49ea0b7c579ddc9d3382604051808373ffffffffffffffffffffffffffffffffffffffff1681526020018281526020019250505060405180910390a1505050565b8151835114611233576040517f08c379a00000000000000000000000000000000000000000000000000000000081526004018080602001828103825260288152602001806130e86028913960400191505060405180910390fd5b600073ffffffffffffffffffffffffffffffffffffffff168473ffffffffffffffffffffffffffffffffffffffff1614156112b9576040517f08c379a00000000000000000000000000000000000000000000000000000000081526004018080602001828103825260258152602001806130156025913960400191505060405180910390fd5b6112c161251c565b73ffffffffffffffffffffffffffffffffffffffff168573ffffffffffffffffffffffffffffffffffffffff16148061130757506113068561130161251c565b611d1b565b5b61135c576040517f08c379a000000000000000000000000000000000000000000000000000000000815260040180806020018281038252603281526020018061303a6032913960400191505060405180910390fd5b600061136661251c565b9050611376818787878787612524565b60005b845181101561154757600085828151811061139057fe5b6020026020010151905060008583815181106113a857fe5b6020026020010151905061142f816040518060600160405280602a815260200161306c602a91396001600086815260200190815260200160002060008d73ffffffffffffffffffffffffffffffffffffffff1673ffffffffffffffffffffffffffffffffffffffff1681526020019081526020016000205461252c9092919063ffffffff16565b6001600084815260200190815260200160002060008b73ffffffffffffffffffffffffffffffffffffffff1673ffffffffffffffffffffffffffffffffffffffff168152602001908152602001600020819055506114e6816001600085815260200190815260200160002060008b73ffffffffffffffffffffffffffffffffffffffff1673ffffffffffffffffffffffffffffffffffffffff168152602001908152602001600020546125e690919063ffffffff16565b6001600084815260200190815260200160002060008a73ffffffffffffffffffffffffffffffffffffffff1673ffffffffffffffffffffffffffffffffffffffff168152602001908152602001600020819055505050806001019050611379565b508473ffffffffffffffffffffffffffffffffffffffff168673ffffffffffffffffffffffffffffffffffffffff168273ffffffffffffffffffffffffffffffffffffffff167f4a39dc06d4c0dbc64b70af90fd698a233a518aa5d07e595d983b8c0526c8f7fb8787604051808060200180602001838103835285818151815260200191508051906020019060200280838360005b838110156115f75780820151818401526020810190506115dc565b50505050905001838103825284818151815260200191508051906020019060200280838360005b8381101561163957808201518184015260208101905061161e565b5050505090500194505050505060405180910390a461165c81878787878761266e565b505050505050565b606081518351146116c0576040517f08c379a00000000000000000000000000000000000000000000000000000000081526004018080602001828103825260298152602001806130bf6029913960400191505060405180910390fd5b6060835167ffffffffffffffff811180156116da57600080fd5b506040519080825280602002602001820160405280156117095781602001602082028036833780820191505090505b50905060005b845181101561176b5761174885828151811061172757fe5b602002602001015185838151811061173b57fe5b6020026020010151610cb6565b82828151811061175457fe5b60200260200101818152505080600101905061170f565b508091505092915050565b6005818154811061178357fe5b906000526020600020016000915090508054600181600116156101000203166002900480601f0160208091040260200160405190810160405280929190818152602001828054600181600116156101000203166002900480156118275780601f106117fc57610100808354040283529160200191611827565b820191906000526020600020905b81548152906001019060200180831161180a57829003601f168201915b505050505081565b60086020528060005260406000206000915054906101000a900473ffffffffffffffffffffffffffffffffffffffff1681565b60096020528060005260406000206000915054906101000a900473ffffffffffffffffffffffffffffffffffffffff1681565b61189d61251c565b73ffffffffffffffffffffffffffffffffffffffff166118bb611a1d565b73ffffffffffffffffffffffffffffffffffffffff1614611944576040517f08c379a00000000000000000000000000000000000000000000000000000000081526004018080602001828103825260208152602001807f4f776e61626c653a2063616c6c6572206973206e6f7420746865206f776e657281525060200191505060405180910390fd5b600073ffffffffffffffffffffffffffffffffffffffff16600460009054906101000a900473ffffffffffffffffffffffffffffffffffffffff1673ffffffffffffffffffffffffffffffffffffffff167f8be0079c531659141344cd1fd0a4f28419497f9722a3daafe3b4186f6b6457e060405160405180910390a36000600460006101000a81548173ffffffffffffffffffffffffffffffffffffffff021916908373ffffffffffffffffffffffffffffffffffffffff160217905550565b600a6020528060005260406000206000915090505481565b6000600460009054906101000a900473ffffffffffffffffffffffffffffffffffffffff16905090565b611a4f61251c565b73ffffffffffffffffffffffffffffffffffffffff16611a6d611a1d565b73ffffffffffffffffffffffffffffffffffffffff1614611af6576040517f08c379a00000000000000000000000000000000000000000000000000000000081526004018080602001828103825260208152602001807f4f776e61626c653a2063616c6c6572206973206e6f7420746865206f776e657281525060200191505060405180910390fd5b611aff816129fd565b50565b8173ffffffffffffffffffffffffffffffffffffffff16611b2161251c565b73ffffffffffffffffffffffffffffffffffffffff161415611b8e576040517f08c379a00000000000000000000000000000000000000000000000000000000081526004018080602001828103825260298152602001806130966029913960400191505060405180910390fd5b8060026000611b9b61251c565b73ffffffffffffffffffffffffffffffffffffffff1673ffffffffffffffffffffffffffffffffffffffff16815260200190815260200160002060008473ffffffffffffffffffffffffffffffffffffffff1673ffffffffffffffffffffffffffffffffffffffff16815260200190815260200160002060006101000a81548160ff0219169083151502179055508173ffffffffffffffffffffffffffffffffffffffff16611c4861251c565b73ffffffffffffffffffffffffffffffffffffffff167f17307eab39ab6107e8899845ad3d59bd9653f200f220920489ca2b5937696c318360405180821515815260200191505060405180910390a35050565b6000600580549050905090565b60006007826040518082805190602001908083835b60208310611ce05780518252602082019150602081019050602083039250611cbd565b6001836020036101000a0380198251168184511680821785525050505050509050019150509081526020016040518091039020549050919050565b6000600260008473ffffffffffffffffffffffffffffffffffffffff1673ffffffffffffffffffffffffffffffffffffffff16815260200190815260200160002060008373ffffffffffffffffffffffffffffffffffffffff1673ffffffffffffffffffffffffffffffffffffffff16815260200190815260200160002060009054906101000a900460ff16905092915050565b600073ffffffffffffffffffffffffffffffffffffffff168473ffffffffffffffffffffffffffffffffffffffff161415611e35576040517f08c379a00000000000000000000000000000000000000000000000000000000081526004018080602001828103825260258152602001806130156025913960400191505060405180910390fd5b611e3d61251c565b73ffffffffffffffffffffffffffffffffffffffff168573ffffffffffffffffffffffffffffffffffffffff161480611e835750611e8285611e7d61251c565b611d1b565b5b611ed8576040517f08c379a0000000000000000000000000000000000000000000000000000000008152600401808060200182810382526029815260200180612fc66029913960400191505060405180910390fd5b6000611ee261251c565b9050611f02818787611ef388612a17565b611efc88612a17565b87612524565b611f7f836040518060600160405280602a815260200161306c602a91396001600088815260200190815260200160002060008a73ffffffffffffffffffffffffffffffffffffffff1673ffffffffffffffffffffffffffffffffffffffff1681526020019081526020016000205461252c9092919063ffffffff16565b6001600086815260200190815260200160002060008873ffffffffffffffffffffffffffffffffffffffff1673ffffffffffffffffffffffffffffffffffffffff16815260200190815260200160002081905550612036836001600087815260200190815260200160002060008873ffffffffffffffffffffffffffffffffffffffff1673ffffffffffffffffffffffffffffffffffffffff168152602001908152602001600020546125e690919063ffffffff16565b6001600086815260200190815260200160002060008773ffffffffffffffffffffffffffffffffffffffff1673ffffffffffffffffffffffffffffffffffffffff168152602001908152602001600020819055508473ffffffffffffffffffffffffffffffffffffffff168673ffffffffffffffffffffffffffffffffffffffff168273ffffffffffffffffffffffffffffffffffffffff167fc3d58168c5ae7397731d063d5bbf3d657854427343f4c083240f7aacaa2d0f628787604051808381526020018281526020019250505060405180910390a461211c818787878787612a87565b505050505050565b61212c61251c565b73ffffffffffffffffffffffffffffffffffffffff1661214a611a1d565b73ffffffffffffffffffffffffffffffffffffffff16146121d3576040517f08c379a00000000000000000000000000000000000000000000000000000000081526004018080602001828103825260208152602001807f4f776e61626c653a2063616c6c6572206973206e6f7420746865206f776e657281525060200191505060405180910390fd5b600073ffffffffffffffffffffffffffffffffffffffff168173ffffffffffffffffffffffffffffffffffffffff161415612259576040517f08c379a0000000000000000000000000000000000000000000000000000000008152600401808060200182810382526026815260200180612fa06026913960400191505060405180910390fd5b8073ffffffffffffffffffffffffffffffffffffffff16600460009054906101000a900473ffffffffffffffffffffffffffffffffffffffff1673ffffffffffffffffffffffffffffffffffffffff167f8be0079c531659141344cd1fd0a4f28419497f9722a3daafe3b4186f6b6457e060405160405180910390a380600460006101000a81548173ffffffffffffffffffffffffffffffffffffffff021916908373ffffffffffffffffffffffffffffffffffffffff16021790555050565b600073ffffffffffffffffffffffffffffffffffffffff168473ffffffffffffffffffffffffffffffffffffffff16141561239f576040517f08c379a00000000000000000000000000000000000000000000000000000000081526004018080602001828103825260218152602001806131106021913960400191505060405180910390fd5b60006123a961251c565b90506123ca816000876123bb88612a17565b6123c488612a17565b87612524565b61242d836001600087815260200190815260200160002060008873ffffffffffffffffffffffffffffffffffffffff1673ffffffffffffffffffffffffffffffffffffffff168152602001908152602001600020546125e690919063ffffffff16565b6001600086815260200190815260200160002060008773ffffffffffffffffffffffffffffffffffffffff1673ffffffffffffffffffffffffffffffffffffffff168152602001908152602001600020819055508473ffffffffffffffffffffffffffffffffffffffff16600073ffffffffffffffffffffffffffffffffffffffff168273ffffffffffffffffffffffffffffffffffffffff167fc3d58168c5ae7397731d063d5bbf3d657854427343f4c083240f7aacaa2d0f628787604051808381526020018281526020019250505060405180910390a461251581600087878787612a87565b5050505050565b600033905090565b505050505050565b60008383111582906125d9576040517f08c379a00000000000000000000000000000000000000000000000000000000081526004018080602001828103825283818151815260200191508051906020019080838360005b8381101561259e578082015181840152602081019050612583565b50505050905090810190601f1680156125cb5780820380516001836020036101000a031916815260200191505b509250505060405180910390fd5b5082840390509392505050565b600080828401905083811015612664576040517f08c379a000000000000000000000000000000000000000000000000000000000815260040180806020018281038252601b8152602001807f536166654d6174683a206164646974696f6e206f766572666c6f77000000000081525060200191505060405180910390fd5b8091505092915050565b61268d8473ffffffffffffffffffffffffffffffffffffffff16612d94565b156129f5578373ffffffffffffffffffffffffffffffffffffffff1663bc197c8187878686866040518663ffffffff1660e01b8152600401808673ffffffffffffffffffffffffffffffffffffffff1681526020018573ffffffffffffffffffffffffffffffffffffffff168152602001806020018060200180602001848103845287818151815260200191508051906020019060200280838360005b8381101561274557808201518184015260208101905061272a565b50505050905001848103835286818151815260200191508051906020019060200280838360005b8381101561278757808201518184015260208101905061276c565b50505050905001848103825285818151815260200191508051906020019080838360005b838110156127c65780820151818401526020810190506127ab565b50505050905090810190601f1680156127f35780820380516001836020036101000a031916815260200191505b5098505050505050505050602060405180830381600087803b15801561281857600080fd5b505af192505050801561284c57506040513d602081101561283857600080fd5b810190808051906020019092919050505060015b61295657612858612e62565b806128635750612905565b806040517f08c379a00000000000000000000000000000000000000000000000000000000081526004018080602001828103825283818151815260200191508051906020019080838360005b838110156128ca5780820151818401526020810190506128af565b50505050905090810190601f1680156128f75780820380516001836020036101000a031916815260200191505b509250505060405180910390fd5b6040517f08c379a0000000000000000000000000000000000000000000000000000000008152600401808060200182810382526034815260200180612f196034913960400191505060405180910390fd5b63bc197c8160e01b7bffffffffffffffffffffffffffffffffffffffffffffffffffffffff1916817bffffffffffffffffffffffffffffffffffffffffffffffffffffffff1916146129f3576040517f08c379a0000000000000000000000000000000000000000000000000000000008152600401808060200182810382526028815260200180612f4d6028913960400191505060405180910390fd5b505b505050505050565b8060039080519060200190612a13929190612da7565b5050565b606080600167ffffffffffffffff81118015612a3257600080fd5b50604051908082528060200260200182016040528015612a615781602001602082028036833780820191505090505b5090508281600081518110612a7257fe5b60200260200101818152505080915050919050565b612aa68473ffffffffffffffffffffffffffffffffffffffff16612d94565b15612d8c578373ffffffffffffffffffffffffffffffffffffffff1663f23a6e6187878686866040518663ffffffff1660e01b8152600401808673ffffffffffffffffffffffffffffffffffffffff1681526020018573ffffffffffffffffffffffffffffffffffffffff16815260200184815260200183815260200180602001828103825283818151815260200191508051906020019080838360005b83811015612b5f578082015181840152602081019050612b44565b50505050905090810190601f168015612b8c5780820380516001836020036101000a031916815260200191505b509650505050505050602060405180830381600087803b158015612baf57600080fd5b505af1925050508015612be357506040513d6020811015612bcf57600080fd5b810190808051906020019092919050505060015b612ced57612bef612e62565b80612bfa5750612c9c565b806040517f08c379a00000000000000000000000000000000000000000000000000000000081526004018080602001828103825283818151815260200191508051906020019080838360005b83811015612c61578082015181840152602081019050612c46565b50505050905090810190601f168015612c8e5780820380516001836020036101000a031916815260200191505b509250505060405180910390fd5b6040517f08c379a0000000000000000000000000000000000000000000000000000000008152600401808060200182810382526034815260200180612f196034913960400191505060405180910390fd5b63f23a6e6160e01b7bffffffffffffffffffffffffffffffffffffffffffffffffffffffff1916817bffffffffffffffffffffffffffffffffffffffffffffffffffffffff191614612d8a576040517f08c379a0000000000000000000000000000000000000000000000000000000008152600401808060200182810382526028815260200180612f4d6028913960400191505060405180910390fd5b505b505050505050565b600080823b905060008111915050919050565b828054600181600116156101000203166002900490600052602060002090601f016020900481019282601f10612de857805160ff1916838001178555612e16565b82800160010185558215612e16579182015b82811115612e15578251825591602001919060010190612dfa565b5b509050612e239190612e27565b5090565b5b80821115612e40576000816000905550600101612e28565b5090565b6000601f19601f8301169050919050565b60008160e01c9050919050565b600060443d1015612e7257612f15565b60046000803e612e83600051612e55565b6308c379a08114612e945750612f15565b60405160043d036004823e80513d602482011167ffffffffffffffff82111715612ec057505050612f15565b808201805167ffffffffffffffff811115612edf575050505050612f15565b8060208301013d8501811115612efa57505050505050612f15565b612f0382612e44565b60208401016040528296505050505050505b9056fe455243313135353a207472616e7366657220746f206e6f6e2045524331313535526563656976657220696d706c656d656e746572455243313135353a204552433131353552656365697665722072656a656374656420746f6b656e73455243313135353a2062616c616e636520717565727920666f7220746865207a65726f20616464726573734f776e61626c653a206e6577206f776e657220697320746865207a65726f2061646472657373455243313135353a2063616c6c6572206973206e6f74206f776e6572206e6f7220617070726f766564546f6b656e20776974682074686973206861736820697320616c7265616479206d696e746564455243313135353a207472616e7366657220746f20746865207a65726f2061646472657373455243313135353a207472616e736665722063616c6c6572206973206e6f74206f776e6572206e6f7220617070726f766564455243313135353a20696e73756666696369656e742062616c616e636520666f72207472616e73666572455243313135353a2073657474696e6720617070726f76616c2073746174757320666f722073656c66455243313135353a206163636f756e747320616e6420696473206c656e677468206d69736d61746368455243313135353a2069647320616e6420616d6f756e7473206c656e677468206d69736d61746368455243313135353a206d696e7420746f20746865207a65726f2061646472657373a26469706673582212205fef741ea0e20409de4c576d7f9badae41afb6fd4d38ac4eb026b39db6447d8664736f6c634300060c003368747470733a2f2f6875622e74657874696c652e696f2f697066732f62616679626569617a347371777261637967737578376d6f616d33746364377a6e67353366366768346b687a6873726c686b746f343733633572712f746f6b656e6d657461646174612f7b69647d2e6a736f6e",
  "immutableReferences": {},
  "source": "// SPDX-License-Identifier: MIT\npragma solidity ^0.6.0;\n\nimport \"@openzeppelin/contracts/token/ERC1155/ERC1155.sol\";\nimport \"@openzeppelin/contracts/access/Ownable.sol\";\n\n/**\n * @title MemeOfTheDay\n * @notice An ERC1155 compliant token that manages meme NFTs\n * @author MemeOfTheDay\n */\ncontract MemeOfTheDay is ERC1155, Ownable {\n    // Hashes of meme pictures on IPFS\n    string[] public hashes;\n\n    // Mapping for enforcing unique hashes\n    mapping(string => bool) _hashExists;\n\n    // Mapping from ipfs picture hash to NFT tokenID\n    mapping (string => uint256) private _hashToken;\n\n    mapping(uint256 => address payable) public creatorOf;\n    mapping(uint256 => address payable) public ownerOf;\n    mapping(uint256 => int256) public creatorFee;\n\n    event MemeMinted(address creator, uint256 tokenId);\n\n    constructor() public ERC1155(\"https://hub.textile.io/ipfs/bafybeiaz4sqwracygsux7moam3tcd7zng53f6gh4khzhsrlhkto473c5rq/tokenmetadata/{id}.json\") {}\n\n    /**\n     * @notice Changes the URI to fetch NFTs info from\n     * @param _newUri   the new URI to fetch NFTs info from\n     */\n    function setUri(string memory _newUri) external onlyOwner {\n        _setURI(_newUri);\n    }\n\n    /**\n     * @notice Mints a new meme NFT\n     * @param _hash IPFS hash of the NFT\n     * @param _creatorFee custom fee to send to the creator, if is -1 it uses the default one set in the MOTDSaleParametersProviderContract\n     */\n    function mint(string memory _hash, int256 _creatorFee) public {\n        require(!_hashExists[_hash], \"Token with this hash is already minted\");\n\n        hashes.push(_hash);\n        uint256 _id = hashes.length - 1;\n        _mint(msg.sender, _id, 1, \"\");\n\n        _hashExists[_hash] = true;\n        _hashToken[_hash] = _id;\n\n        creatorOf[_id] = msg.sender;\n        ownerOf[_id] = msg.sender;\n        creatorFee[_id] = _creatorFee;\n\n        emit MemeMinted(msg.sender, _id);\n    }\n\n    /**\n     * @notice Returns the TokenID of meme\n     * @return tokenID of the meme\n     */\n    function getTokenID(string memory _hash) public view returns (uint256 tokenID) {\n        return _hashToken[_hash];\n    }\n\n    /**\n     * @notice Returns the number of minted memes\n     * @return count the number of memes\n     */\n    function getMemesCount() public view returns (uint256 count) {\n        return hashes.length;\n    }\n}\n",
  "sourcePath": "/home/muhammadrehman/Desktop/meme-of-the-day/src/contracts/src/MemeOfTheDay.sol",
  "compiler": {
    "name": "solc",
    "version": "0.6.12+commit.27d51765.Emscripten.clang"
  },
  "schemaVersion": "3.4.0",
  "updatedAt": "2021-04-30T16:19:22.589Z",
  "networkType": "ethereum",
  "devdoc": {
    "author": "MemeOfTheDay",
    "kind": "dev",
    "methods": {
      "balanceOf(address,uint256)": {
        "details": "See {IERC1155-balanceOf}. Requirements: - `account` cannot be the zero address."
      },
      "balanceOfBatch(address[],uint256[])": {
        "details": "See {IERC1155-balanceOfBatch}. Requirements: - `accounts` and `ids` must have the same length."
      },
      "getMemesCount()": {
        "returns": {
          "count": "the number of memes"
        }
      },
      "getTokenID(string)": {
        "returns": {
          "tokenID": "of the meme"
        }
      },
      "isApprovedForAll(address,address)": {
        "details": "See {IERC1155-isApprovedForAll}."
      },
      "mint(string,int256)": {
        "params": {
          "_creatorFee": "custom fee to send to the creator, if is -1 it uses the default one set in the MOTDSaleParametersProviderContract",
          "_hash": "IPFS hash of the NFT"
        }
      },
      "owner()": {
        "details": "Returns the address of the current owner."
      },
      "renounceOwnership()": {
        "details": "Leaves the contract without owner. It will not be possible to call `onlyOwner` functions anymore. Can only be called by the current owner. NOTE: Renouncing ownership will leave the contract without an owner, thereby removing any functionality that is only available to the owner."
      },
      "safeBatchTransferFrom(address,address,uint256[],uint256[],bytes)": {
        "details": "See {IERC1155-safeBatchTransferFrom}."
      },
      "safeTransferFrom(address,address,uint256,uint256,bytes)": {
        "details": "See {IERC1155-safeTransferFrom}."
      },
      "setApprovalForAll(address,bool)": {
        "details": "See {IERC1155-setApprovalForAll}."
      },
      "setUri(string)": {
        "params": {
          "_newUri": "the new URI to fetch NFTs info from"
        }
      },
      "supportsInterface(bytes4)": {
        "details": "See {IERC165-supportsInterface}. Time complexity O(1), guaranteed to always use less than 30 000 gas."
      },
      "transferOwnership(address)": {
        "details": "Transfers ownership of the contract to a new account (`newOwner`). Can only be called by the current owner."
      },
      "uri(uint256)": {
        "details": "See {IERC1155MetadataURI-uri}. This implementation returns the same URI for *all* token types. It relies on the token type ID substitution mechanism https://eips.ethereum.org/EIPS/eip-1155#metadata[defined in the EIP]. Clients calling this function must replace the `\\{id\\}` substring with the actual token type ID."
      }
    },
    "title": "MemeOfTheDay",
    "version": 1
  },
  "userdoc": {
    "kind": "user",
    "methods": {
      "getMemesCount()": {
        "notice": "Returns the number of minted memes"
      },
      "getTokenID(string)": {
        "notice": "Returns the TokenID of meme"
      },
      "mint(string,int256)": {
        "notice": "Mints a new meme NFT"
      },
      "setUri(string)": {
        "notice": "Changes the URI to fetch NFTs info from"
      }
    },
    "notice": "An ERC1155 compliant token that manages meme NFTs",
    "version": 1
  }
}