{
  "contractName": "MemeSaleV4PauseReentrancy",
  "abi": [
    {
      "anonymous": false,
      "inputs": [
        {
          "indexed": false,
          "internalType": "uint256",
          "name": "creatorFee",
          "type": "uint256"
        }
      ],
      "name": "CreatorFee",
      "type": "event"
    },
    {
      "anonymous": false,
      "inputs": [
        {
          "indexed": false,
          "internalType": "uint256",
          "name": "ownerFee",
          "type": "uint256"
        }
      ],
      "name": "OwnerFee",
      "type": "event"
    },
    {
      "anonymous": false,
      "inputs": [
        {
          "indexed": true,
          "internalType": "address",
          "name": "previousOwner",
          "type": "address"
        },
        {
          "indexed": true,
          "internalType": "address",
          "name": "newOwner",
          "type": "address"
        }
      ],
      "name": "OwnershipTransferred",
      "type": "event"
    },
    {
      "anonymous": false,
      "inputs": [
        {
          "indexed": false,
          "internalType": "address",
          "name": "account",
          "type": "address"
        }
      ],
      "name": "Paused",
      "type": "event"
    },
    {
      "anonymous": false,
      "inputs": [
        {
          "indexed": false,
          "internalType": "uint256",
          "name": "platformFee",
          "type": "uint256"
        }
      ],
      "name": "PlatformFee",
      "type": "event"
    },
    {
      "anonymous": false,
      "inputs": [
        {
          "indexed": false,
          "internalType": "address",
          "name": "account",
          "type": "address"
        }
      ],
      "name": "Unpaused",
      "type": "event"
    },
    {
      "anonymous": false,
      "inputs": [
        {
          "indexed": false,
          "internalType": "uint256",
          "name": "votersFee",
          "type": "uint256"
        }
      ],
      "name": "VotersFee",
      "type": "event"
    },
    {
      "inputs": [],
      "name": "DOMAIN_SEPARATOR",
      "outputs": [
        {
          "internalType": "bytes32",
          "name": "",
          "type": "bytes32"
        }
      ],
      "stateMutability": "view",
      "type": "function"
    },
    {
      "inputs": [],
      "name": "VERIFY_PRICE_TYPEHASH",
      "outputs": [
        {
          "internalType": "bytes32",
          "name": "",
          "type": "bytes32"
        }
      ],
      "stateMutability": "view",
      "type": "function"
    },
    {
      "inputs": [
        {
          "internalType": "uint256",
          "name": "",
          "type": "uint256"
        }
      ],
      "name": "isOnSale",
      "outputs": [
        {
          "internalType": "bool",
          "name": "",
          "type": "bool"
        }
      ],
      "stateMutability": "view",
      "type": "function"
    },
    {
      "inputs": [],
      "name": "memeOfTheDay",
      "outputs": [
        {
          "internalType": "contract MemeOfTheDayV3Pause",
          "name": "",
          "type": "address"
        }
      ],
      "stateMutability": "view",
      "type": "function"
    },
    {
      "inputs": [],
      "name": "memeOfTheDayTreasury",
      "outputs": [
        {
          "internalType": "contract MOTDTreasuryV3Pause",
          "name": "",
          "type": "address"
        }
      ],
      "stateMutability": "view",
      "type": "function"
    },
    {
      "inputs": [],
      "name": "owner",
      "outputs": [
        {
          "internalType": "address",
          "name": "",
          "type": "address"
        }
      ],
      "stateMutability": "view",
      "type": "function"
    },
    {
      "inputs": [],
      "name": "paused",
      "outputs": [
        {
          "internalType": "bool",
          "name": "",
          "type": "bool"
        }
      ],
      "stateMutability": "view",
      "type": "function"
    },
    {
      "inputs": [],
      "name": "renounceOwnership",
      "outputs": [],
      "stateMutability": "nonpayable",
      "type": "function"
    },
    {
      "inputs": [
        {
          "internalType": "address",
          "name": "newOwner",
          "type": "address"
        }
      ],
      "name": "transferOwnership",
      "outputs": [],
      "stateMutability": "nonpayable",
      "type": "function"
    },
    {
      "inputs": [
        {
          "internalType": "address",
          "name": "memeOfTheDayAddress",
          "type": "address"
        },
        {
          "internalType": "address payable",
          "name": "motdTreasuryAddress",
          "type": "address"
        },
        {
          "internalType": "address",
          "name": "memeOfTheDaySaleParametersProviderAddress",
          "type": "address"
        },
        {
          "internalType": "string",
          "name": "version",
          "type": "string"
        }
      ],
      "name": "initialize",
      "outputs": [],
      "stateMutability": "nonpayable",
      "type": "function"
    },
    {
      "inputs": [
        {
          "internalType": "uint256",
          "name": "tokenId",
          "type": "uint256"
        }
      ],
      "name": "putOnSale",
      "outputs": [],
      "stateMutability": "nonpayable",
      "type": "function"
    },
    {
      "inputs": [
        {
          "internalType": "uint256",
          "name": "tokenId",
          "type": "uint256"
        }
      ],
      "name": "removeFromSale",
      "outputs": [],
      "stateMutability": "nonpayable",
      "type": "function"
    },
    {
      "inputs": [
        {
          "internalType": "uint256",
          "name": "tokenId",
          "type": "uint256"
        },
        {
          "internalType": "uint256",
          "name": "price",
          "type": "uint256"
        },
        {
          "internalType": "address payable[]",
          "name": "voters",
          "type": "address[]"
        },
        {
          "internalType": "uint256[]",
          "name": "votes",
          "type": "uint256[]"
        },
        {
          "internalType": "bool",
          "name": "payCreator",
          "type": "bool"
        },
        {
          "internalType": "uint8",
          "name": "v",
          "type": "uint8"
        },
        {
          "internalType": "bytes32",
          "name": "r",
          "type": "bytes32"
        },
        {
          "internalType": "bytes32",
          "name": "s",
          "type": "bytes32"
        }
      ],
      "name": "buy",
      "outputs": [],
      "stateMutability": "payable",
      "type": "function"
    },
    {
      "inputs": [],
      "name": "pause",
      "outputs": [],
      "stateMutability": "nonpayable",
      "type": "function"
    },
    {
      "inputs": [],
      "name": "unpause",
      "outputs": [],
      "stateMutability": "nonpayable",
      "type": "function"
    },
    {
      "inputs": [],
      "name": "sayHello",
      "outputs": [
        {
          "internalType": "string",
          "name": "",
          "type": "string"
        }
      ],
      "stateMutability": "pure",
      "type": "function"
    }
  ],
  "bytecode": "0x608060405234801561001057600080fd5b50613b72806100206000396000f3fe6080604052600436106100f35760003560e01c80638a728dc41161008a578063e523bb4211610059578063e523bb42146102ab578063ef5fb05b146102d6578063f0f2805f14610301578063f2fde38b1461033e576100f3565b80638a728dc4146102015780638da5cb5b1461022c5780639d6e60e3146102575780639dbcfd6f14610282576100f3565b80635c975abb116100c65780635c975abb1461017f57806365e8e4f4146101aa578063715018a6146101d35780638456cb59146101ea576100f3565b80630483877d146100f85780631361a3b6146101145780633644e5151461013d5780633f4ba83a14610168575b600080fd5b610112600480360381019061010d9190612bc6565b610367565b005b34801561012057600080fd5b5061013b60048036038101906101369190612b74565b61062b565b005b34801561014957600080fd5b5061015261081a565b60405161015f919061336b565b60405180910390f35b34801561017457600080fd5b5061017d610820565b005b34801561018b57600080fd5b506101946108ed565b6040516101a19190613350565b60405180910390f35b3480156101b657600080fd5b506101d160048036038101906101cc9190612ad0565b610904565b005b3480156101df57600080fd5b506101e8610af7565b005b3480156101f657600080fd5b506101ff610c34565b005b34801561020d57600080fd5b50610216610d02565b6040516102239190613455565b60405180910390f35b34801561023857600080fd5b50610241610d28565b60405161024e91906132dd565b60405180910390f35b34801561026357600080fd5b5061026c610d52565b604051610279919061336b565b60405180910390f35b34801561028e57600080fd5b506102a960048036038101906102a49190612b74565b610d79565b005b3480156102b757600080fd5b506102c0610f69565b6040516102cd9190613470565b60405180910390f35b3480156102e257600080fd5b506102eb610f8f565b6040516102f8919061348b565b60405180910390f35b34801561030d57600080fd5b5061032860048036038101906103239190612b74565b610faf565b6040516103359190613350565b60405180910390f35b34801561034a57600080fd5b5061036560048036038101906103609190612a55565b610fcf565b005b61036f6108ed565b156103af576040517f08c379a00000000000000000000000000000000000000000000000000000000081526004016103a69061352d565b60405180910390fd5b600260985414156103f5576040517f08c379a00000000000000000000000000000000000000000000000000000000081526004016103ec9061366d565b60405180910390fd5b600260988190555060cd60008b815260200190815260200160002060009054906101000a900460ff1661045d576040517f08c379a0000000000000000000000000000000000000000000000000000000008152600401610454906135ad565b60405180910390fd5b60007f01b2ca8b9a0a07d70c188f51d5d3ea9d76d3a4722a62ba8b3b3f9bbe316ca84460001b8b8b604051602001610497939291906133d9565b604051602081830303815290604052905060ca60009054906101000a900473ffffffffffffffffffffffffffffffffffffffff1673ffffffffffffffffffffffffffffffffffffffff16636352211e8c6040518263ffffffff1660e01b8152600401610503919061368d565b60206040518083038186803b15801561051b57600080fd5b505afa15801561052f573d6000803e3d6000fd5b505050506040513d601f19601f820116820180604052508101906105539190612a7e565b73ffffffffffffffffffffffffffffffffffffffff166105786000548686868661117b565b73ffffffffffffffffffffffffffffffffffffffff16146040518060400160405280601b81526020017f4d656d6553616c653a20696e76616c6964207369676e6174757265000000000081525090610606576040517f08c379a00000000000000000000000000000000000000000000000000000000081526004016105fd919061348b565b60405180910390fd5b506106168b8b8b8b8b8b8b6111c8565b50600160988190555050505050505050505050565b6106336108ed565b15610673576040517f08c379a000000000000000000000000000000000000000000000000000000000815260040161066a9061352d565b60405180910390fd5b3373ffffffffffffffffffffffffffffffffffffffff1660ca60009054906101000a900473ffffffffffffffffffffffffffffffffffffffff1673ffffffffffffffffffffffffffffffffffffffff16636352211e836040518263ffffffff1660e01b81526004016106e5919061368d565b60206040518083038186803b1580156106fd57600080fd5b505afa158015610711573d6000803e3d6000fd5b505050506040513d601f19601f820116820180604052508101906107359190612a7e565b73ffffffffffffffffffffffffffffffffffffffff161461078b576040517f08c379a0000000000000000000000000000000000000000000000000000000008152600401610782906135cd565b60405180910390fd5b60cd600082815260200190815260200160002060009054906101000a900460ff166107eb576040517f08c379a00000000000000000000000000000000000000000000000000000000081526004016107e29061358d565b60405180910390fd5b600060cd600083815260200190815260200160002060006101000a81548160ff02191690831515021790555050565b60005481565b6108286108ed565b610867576040517f08c379a000000000000000000000000000000000000000000000000000000000815260040161085e906134cd565b60405180910390fd5b61086f6119a0565b73ffffffffffffffffffffffffffffffffffffffff1661088d610d28565b73ffffffffffffffffffffffffffffffffffffffff16146108e3576040517f08c379a00000000000000000000000000000000000000000000000000000000081526004016108da906135ed565b60405180910390fd5b6108eb6119a8565b565b6000606660009054906101000a900460ff16905090565b60018054906101000a900460ff168061092a5750600160009054906101000a900460ff16155b610969576040517f08c379a00000000000000000000000000000000000000000000000000000000081526004016109609061356d565b60405180910390fd5b600060018054906101000a900460ff1615905080156109b75760018060016101000a81548160ff02191690831515021790555060018060006101000a81548160ff0219169083151502179055505b6109bf611a4a565b6109c7611b31565b8460ca60006101000a81548173ffffffffffffffffffffffffffffffffffffffff021916908373ffffffffffffffffffffffffffffffffffffffff1602179055508360cb60006101000a81548173ffffffffffffffffffffffffffffffffffffffff021916908373ffffffffffffffffffffffffffffffffffffffff1602179055508260cc60006101000a81548173ffffffffffffffffffffffffffffffffffffffff021916908373ffffffffffffffffffffffffffffffffffffffff160217905550610ac96040518060400160405280600881526020017f4d656d6553616c6500000000000000000000000000000000000000000000000081525083611c18565b6000819055508015610af05760006001806101000a81548160ff0219169083151502179055505b5050505050565b610aff6119a0565b73ffffffffffffffffffffffffffffffffffffffff16610b1d610d28565b73ffffffffffffffffffffffffffffffffffffffff1614610b73576040517f08c379a0000000000000000000000000000000000000000000000000000000008152600401610b6a906135ed565b60405180910390fd5b600073ffffffffffffffffffffffffffffffffffffffff16603460009054906101000a900473ffffffffffffffffffffffffffffffffffffffff1673ffffffffffffffffffffffffffffffffffffffff167f8be0079c531659141344cd1fd0a4f28419497f9722a3daafe3b4186f6b6457e060405160405180910390a36000603460006101000a81548173ffffffffffffffffffffffffffffffffffffffff021916908373ffffffffffffffffffffffffffffffffffffffff160217905550565b610c3c6108ed565b15610c7c576040517f08c379a0000000000000000000000000000000000000000000000000000000008152600401610c739061352d565b60405180910390fd5b610c846119a0565b73ffffffffffffffffffffffffffffffffffffffff16610ca2610d28565b73ffffffffffffffffffffffffffffffffffffffff1614610cf8576040517f08c379a0000000000000000000000000000000000000000000000000000000008152600401610cef906135ed565b60405180910390fd5b610d00611c8a565b565b60cb60009054906101000a900473ffffffffffffffffffffffffffffffffffffffff1681565b6000603460009054906101000a900473ffffffffffffffffffffffffffffffffffffffff16905090565b7f01b2ca8b9a0a07d70c188f51d5d3ea9d76d3a4722a62ba8b3b3f9bbe316ca84460001b81565b610d816108ed565b15610dc1576040517f08c379a0000000000000000000000000000000000000000000000000000000008152600401610db89061352d565b60405180910390fd5b3373ffffffffffffffffffffffffffffffffffffffff1660ca60009054906101000a900473ffffffffffffffffffffffffffffffffffffffff1673ffffffffffffffffffffffffffffffffffffffff16636352211e836040518263ffffffff1660e01b8152600401610e33919061368d565b60206040518083038186803b158015610e4b57600080fd5b505afa158015610e5f573d6000803e3d6000fd5b505050506040513d601f19601f82011682018060405250810190610e839190612a7e565b73ffffffffffffffffffffffffffffffffffffffff1614610ed9576040517f08c379a0000000000000000000000000000000000000000000000000000000008152600401610ed0906134ad565b60405180910390fd5b60cd600082815260200190815260200160002060009054906101000a900460ff1615610f3a576040517f08c379a0000000000000000000000000000000000000000000000000000000008152600401610f319061360d565b60405180910390fd5b600160cd600083815260200190815260200160002060006101000a81548160ff02191690831515021790555050565b60ca60009054906101000a900473ffffffffffffffffffffffffffffffffffffffff1681565b6060604051806060016040528060328152602001613b0b60329139905090565b60cd6020528060005260406000206000915054906101000a900460ff1681565b610fd76119a0565b73ffffffffffffffffffffffffffffffffffffffff16610ff5610d28565b73ffffffffffffffffffffffffffffffffffffffff161461104b576040517f08c379a0000000000000000000000000000000000000000000000000000000008152600401611042906135ed565b60405180910390fd5b600073ffffffffffffffffffffffffffffffffffffffff168173ffffffffffffffffffffffffffffffffffffffff1614156110bb576040517f08c379a00000000000000000000000000000000000000000000000000000000081526004016110b29061350d565b60405180910390fd5b8073ffffffffffffffffffffffffffffffffffffffff16603460009054906101000a900473ffffffffffffffffffffffffffffffffffffffff1673ffffffffffffffffffffffffffffffffffffffff167f8be0079c531659141344cd1fd0a4f28419497f9722a3daafe3b4186f6b6457e060405160405180910390a380603460006101000a81548173ffffffffffffffffffffffffffffffffffffffff021916908373ffffffffffffffffffffffffffffffffffffffff16021790555050565b600080868380519060200120604051602001611198929190613291565b6040516020818303038152906040528051906020012090506111bc81878787611d2d565b91505095945050505050565b6000806000806111d98a8c87611ebc565b93509350935093507f2aad9e33ce58271cb1401a4211b102aad5eed0b41fcd4221b3b8f5977583371484604051611210919061368d565b60405180910390a17fce38999dded47da0afaf5ed4186a2b50ab40367c7b0abc2ba7e2ee3db0d1a28183604051611247919061368d565b60405180910390a17f6f9983488bd1500c372d1f10befe9e7790d764b18c848cfa10872f4e248ded928260405161127e919061368d565b60405180910390a17fd0d39a845ce9a85c506556420bacf3313b17c54cb854655b4c3b5284ffe43652816040516112b5919061368d565b60405180910390a16000805b8888905081101561132c57888882818110611305577f4e487b7100000000000000000000000000000000000000000000000000000000600052603260045260246000fd5b9050602002013582611317919061374c565b9150808061132490613978565b9150506112c1565b5060005b8a8a90508110156114a3576000828a8a84818110611377577f4e487b7100000000000000000000000000000000000000000000000000000000600052603260045260246000fd5b9050602002013561138891906137a2565b8761139391906137d3565b905060008c8c848181106113d0577f4e487b7100000000000000000000000000000000000000000000000000000000600052603260045260246000fd5b90506020020160208101906113e59190612aa7565b73ffffffffffffffffffffffffffffffffffffffff1682604051611408906132c8565b60006040518083038185875af1925050503d8060008114611445576040519150601f19603f3d011682016040523d82523d6000602084013e61144a565b606091505b505090508061148e576040517f08c379a00000000000000000000000000000000000000000000000000000000081526004016114859061362d565b60405180910390fd5b5050808061149b90613978565b915050611330565b50851561160257600060ca60009054906101000a900473ffffffffffffffffffffffffffffffffffffffff1673ffffffffffffffffffffffffffffffffffffffff1663589a17438e6040518263ffffffff1660e01b8152600401611507919061368d565b60206040518083038186803b15801561151f57600080fd5b505afa158015611533573d6000803e3d6000fd5b505050506040513d601f19601f820116820180604052508101906115579190612a7e565b73ffffffffffffffffffffffffffffffffffffffff168560405161157a906132c8565b60006040518083038185875af1925050503d80600081146115b7576040519150601f19603f3d011682016040523d82523d6000602084013e6115bc565b606091505b5050905080611600576040517f08c379a00000000000000000000000000000000000000000000000000000000081526004016115f79061362d565b60405180910390fd5b505b600060cb60009054906101000a900473ffffffffffffffffffffffffffffffffffffffff1673ffffffffffffffffffffffffffffffffffffffff168460405161164a906132c8565b60006040518083038185875af1925050503d8060008114611687576040519150601f19603f3d011682016040523d82523d6000602084013e61168c565b606091505b50509050806116d0576040517f08c379a00000000000000000000000000000000000000000000000000000000081526004016116c79061362d565b60405180910390fd5b600060ca60009054906101000a900473ffffffffffffffffffffffffffffffffffffffff1673ffffffffffffffffffffffffffffffffffffffff16636352211e8f6040518263ffffffff1660e01b815260040161172d919061368d565b60206040518083038186803b15801561174557600080fd5b505afa158015611759573d6000803e3d6000fd5b505050506040513d601f19601f8201168201806040525081019061177d9190612a7e565b73ffffffffffffffffffffffffffffffffffffffff16846040516117a0906132c8565b60006040518083038185875af1925050503d80600081146117dd576040519150601f19603f3d011682016040523d82523d6000602084013e6117e2565b606091505b5050905080611826576040517f08c379a000000000000000000000000000000000000000000000000000000000815260040161181d9061362d565b60405180910390fd5b505060ca60009054906101000a900473ffffffffffffffffffffffffffffffffffffffff1673ffffffffffffffffffffffffffffffffffffffff1663f242432a60ca60009054906101000a900473ffffffffffffffffffffffffffffffffffffffff1673ffffffffffffffffffffffffffffffffffffffff16636352211e8f6040518263ffffffff1660e01b81526004016118c1919061368d565b60206040518083038186803b1580156118d957600080fd5b505afa1580156118ed573d6000803e3d6000fd5b505050506040513d601f19601f820116820180604052508101906119119190612a7e565b338f60016040518563ffffffff1660e01b815260040161193494939291906132f8565b600060405180830381600087803b15801561194e57600080fd5b505af1158015611962573d6000803e3d6000fd5b50505050600060cd60008e815260200190815260200160002060006101000a81548160ff021916908315150217905550505050505050505050505050565b600033905090565b6119b06108ed565b6119ef576040517f08c379a00000000000000000000000000000000000000000000000000000000081526004016119e6906134cd565b60405180910390fd5b6000606660006101000a81548160ff0219169083151502179055507f5db9ee0a495bf2e6ff9c91a7834c1ba4fdd244a5e8aa4e537bd38aeae4b073aa611a336119a0565b604051611a4091906132dd565b60405180910390a1565b60018054906101000a900460ff1680611a705750600160009054906101000a900460ff16155b611aaf576040517f08c379a0000000000000000000000000000000000000000000000000000000008152600401611aa69061356d565b60405180910390fd5b600060018054906101000a900460ff161590508015611afd5760018060016101000a81548160ff02191690831515021790555060018060006101000a81548160ff0219169083151502179055505b611b05611f36565b611b0d61200d565b8015611b2e5760006001806101000a81548160ff0219169083151502179055505b50565b60018054906101000a900460ff1680611b575750600160009054906101000a900460ff16155b611b96576040517f08c379a0000000000000000000000000000000000000000000000000000000008152600401611b8d9061356d565b60405180910390fd5b600060018054906101000a900460ff161590508015611be45760018060016101000a81548160ff02191690831515021790555060018060006101000a81548160ff0219169083151502179055505b611bec611f36565b611bf461218d565b8015611c155760006001806101000a81548160ff0219169083151502179055505b50565b6000804690507f8b73c3c69bb8fe3d512ecc4cf759cc79239f7b179b0ffacaa9a75d522b39400f60001b848051906020012084805190602001208360001b30604051602001611c6b959493929190613386565b6040516020818303038152906040528051906020012091505092915050565b611c926108ed565b15611cd2576040517f08c379a0000000000000000000000000000000000000000000000000000000008152600401611cc99061352d565b60405180910390fd5b6001606660006101000a81548160ff0219169083151502179055507f62e78cea01bee320cd4e420270b5ea74000d11b0c9f74754ebdbfc544b05a258611d166119a0565b604051611d2391906132dd565b60405180910390a1565b60007f7fffffffffffffffffffffffffffffff5d576e7357a4501ddfe92f46681b20a08260001c1115611d95576040517f08c379a0000000000000000000000000000000000000000000000000000000008152600401611d8c9061364d565b60405180910390fd5b601b8460ff1614158015611dad5750601c8460ff1614155b15611ded576040517f08c379a0000000000000000000000000000000000000000000000000000000008152600401611de4906134ed565b60405180910390fd5b600060018686868660405160008152602001604052604051611e129493929190613410565b6020604051602081039080840390855afa158015611e34573d6000803e3d6000fd5b505050602060405103519050600073ffffffffffffffffffffffffffffffffffffffff168173ffffffffffffffffffffffffffffffffffffffff161415611eb0576040517f08c379a0000000000000000000000000000000000000000000000000000000008152600401611ea79061354d565b60405180910390fd5b80915050949350505050565b6000806000806000611ecd8861227f565b90506000611edc8989896123ea565b90506000611ee98a612704565b905080838b611ef8919061374c565b611f02919061374c565b341015611f0e57600080fd5b6000611f1b84848461286f565b90508383838397509750975097505050505093509350935093565b60018054906101000a900460ff1680611f5c5750600160009054906101000a900460ff16155b611f9b576040517f08c379a0000000000000000000000000000000000000000000000000000000008152600401611f929061356d565b60405180910390fd5b600060018054906101000a900460ff161590508015611fe95760018060016101000a81548160ff02191690831515021790555060018060006101000a81548160ff0219169083151502179055505b801561200a5760006001806101000a81548160ff0219169083151502179055505b50565b60018054906101000a900460ff16806120335750600160009054906101000a900460ff16155b612072576040517f08c379a00000000000000000000000000000000000000000000000000000000081526004016120699061356d565b60405180910390fd5b600060018054906101000a900460ff1615905080156120c05760018060016101000a81548160ff02191690831515021790555060018060006101000a81548160ff0219169083151502179055505b60006120ca6119a0565b905080603460006101000a81548173ffffffffffffffffffffffffffffffffffffffff021916908373ffffffffffffffffffffffffffffffffffffffff1602179055508073ffffffffffffffffffffffffffffffffffffffff16600073ffffffffffffffffffffffffffffffffffffffff167f8be0079c531659141344cd1fd0a4f28419497f9722a3daafe3b4186f6b6457e060405160405180910390a350801561218a5760006001806101000a81548160ff0219169083151502179055505b50565b60018054906101000a900460ff16806121b35750600160009054906101000a900460ff16155b6121f2576040517f08c379a00000000000000000000000000000000000000000000000000000000081526004016121e99061356d565b60405180910390fd5b600060018054906101000a900460ff1615905080156122405760018060016101000a81548160ff02191690831515021790555060018060006101000a81548160ff0219169083151502179055505b6000606660006101000a81548160ff021916908315150217905550801561227c5760006001806101000a81548160ff0219169083151502179055505b50565b600060cc60009054906101000a900473ffffffffffffffffffffffffffffffffffffffff1673ffffffffffffffffffffffffffffffffffffffff16632a4a9dd160cc60009054906101000a900473ffffffffffffffffffffffffffffffffffffffff1673ffffffffffffffffffffffffffffffffffffffff16633e2dce1e6040518163ffffffff1660e01b815260040160206040518083038186803b15801561232757600080fd5b505afa15801561233b573d6000803e3d6000fd5b505050506040513d601f19601f8201168201806040525081019061235f9190612b9d565b6040518263ffffffff1660e01b815260040161237b919061368d565b60206040518083038186803b15801561239357600080fd5b505afa1580156123a7573d6000803e3d6000fd5b505050506040513d601f19601f820116820180604052508101906123cb9190612b9d565b6103e8836123d991906137a2565b6123e391906137d3565b9050919050565b6000806000905082156126f9577fffffffffffffffffffffffffffffffffffffffffffffffffffffffffffffffff60ca60009054906101000a900473ffffffffffffffffffffffffffffffffffffffff1673ffffffffffffffffffffffffffffffffffffffff166378c3829b866040518263ffffffff1660e01b8152600401612473919061368d565b60206040518083038186803b15801561248b57600080fd5b505afa15801561249f573d6000803e3d6000fd5b505050506040513d601f19601f820116820180604052508101906124c39190612b4b565b13156125935760ca60009054906101000a900473ffffffffffffffffffffffffffffffffffffffff1673ffffffffffffffffffffffffffffffffffffffff166378c3829b856040518263ffffffff1660e01b8152600401612524919061368d565b60206040518083038186803b15801561253c57600080fd5b505afa158015612550573d6000803e3d6000fd5b505050506040513d601f19601f820116820180604052508101906125749190612b4b565b6103e88661258291906137a2565b61258c91906137d3565b90506126f8565b60cc60009054906101000a900473ffffffffffffffffffffffffffffffffffffffff1673ffffffffffffffffffffffffffffffffffffffff16632a4a9dd160cc60009054906101000a900473ffffffffffffffffffffffffffffffffffffffff1673ffffffffffffffffffffffffffffffffffffffff1663443139f16040518163ffffffff1660e01b815260040160206040518083038186803b15801561263957600080fd5b505afa15801561264d573d6000803e3d6000fd5b505050506040513d601f19601f820116820180604052508101906126719190612b9d565b6040518263ffffffff1660e01b815260040161268d919061368d565b60206040518083038186803b1580156126a557600080fd5b505afa1580156126b9573d6000803e3d6000fd5b505050506040513d601f19601f820116820180604052508101906126dd9190612b9d565b6103e8866126eb91906137a2565b6126f591906137d3565b90505b5b809150509392505050565b600060cc60009054906101000a900473ffffffffffffffffffffffffffffffffffffffff1673ffffffffffffffffffffffffffffffffffffffff16632a4a9dd160cc60009054906101000a900473ffffffffffffffffffffffffffffffffffffffff1673ffffffffffffffffffffffffffffffffffffffff16632648cd806040518163ffffffff1660e01b815260040160206040518083038186803b1580156127ac57600080fd5b505afa1580156127c0573d6000803e3d6000fd5b505050506040513d601f19601f820116820180604052508101906127e49190612b9d565b6040518263ffffffff1660e01b8152600401612800919061368d565b60206040518083038186803b15801561281857600080fd5b505afa15801561282c573d6000803e3d6000fd5b505050506040513d601f19601f820116820180604052508101906128509190612b9d565b6103e88361285e91906137a2565b61286891906137d3565b9050919050565b60008183853461287f919061382d565b612889919061382d565b612893919061382d565b90509392505050565b60006128af6128aa846136d9565b6136a8565b9050828152602081018484840111156128c757600080fd5b6128d2848285613936565b509392505050565b6000813590506128e981613a69565b92915050565b6000815190506128fe81613a69565b92915050565b60008135905061291381613a80565b92915050565b60008083601f84011261292b57600080fd5b8235905067ffffffffffffffff81111561294457600080fd5b60208301915083602082028301111561295c57600080fd5b9250929050565b60008083601f84011261297557600080fd5b8235905067ffffffffffffffff81111561298e57600080fd5b6020830191508360208202830111156129a657600080fd5b9250929050565b6000813590506129bc81613a97565b92915050565b6000813590506129d181613aae565b92915050565b6000815190506129e681613ac5565b92915050565b600082601f8301126129fd57600080fd5b8135612a0d84826020860161289c565b91505092915050565b600081359050612a2581613adc565b92915050565b600081519050612a3a81613adc565b92915050565b600081359050612a4f81613af3565b92915050565b600060208284031215612a6757600080fd5b6000612a75848285016128da565b91505092915050565b600060208284031215612a9057600080fd5b6000612a9e848285016128ef565b91505092915050565b600060208284031215612ab957600080fd5b6000612ac784828501612904565b91505092915050565b60008060008060808587031215612ae657600080fd5b6000612af4878288016128da565b9450506020612b0587828801612904565b9350506040612b16878288016128da565b925050606085013567ffffffffffffffff811115612b3357600080fd5b612b3f878288016129ec565b91505092959194509250565b600060208284031215612b5d57600080fd5b6000612b6b848285016129d7565b91505092915050565b600060208284031215612b8657600080fd5b6000612b9484828501612a16565b91505092915050565b600060208284031215612baf57600080fd5b6000612bbd84828501612a2b565b91505092915050565b6000806000806000806000806000806101008b8d031215612be657600080fd5b6000612bf48d828e01612a16565b9a50506020612c058d828e01612a16565b99505060408b013567ffffffffffffffff811115612c2257600080fd5b612c2e8d828e01612919565b985098505060608b013567ffffffffffffffff811115612c4d57600080fd5b612c598d828e01612963565b96509650506080612c6c8d828e016129ad565b94505060a0612c7d8d828e01612a40565b93505060c0612c8e8d828e016129c2565b92505060e0612c9f8d828e016129c2565b9150509295989b9194979a5092959850565b612cba81613861565b82525050565b612cc981613885565b82525050565b612cd881613891565b82525050565b612cef612cea82613891565b6139c1565b82525050565b612cfe816138dc565b82525050565b612d0d81613900565b82525050565b612d1c81613924565b82525050565b6000612d2d82613709565b612d378185613730565b9350612d47818560208601613945565b612d5081613a58565b840191505092915050565b6000612d68602383613730565b91507f4f6e6c79206f776e6572206f6620746f6b656e2063616e20707574206f6e207360008301527f616c6500000000000000000000000000000000000000000000000000000000006020830152604082019050919050565b6000612dce601483613730565b91507f5061757361626c653a206e6f74207061757365640000000000000000000000006000830152602082019050919050565b6000612e0e602683613730565b91507f45435265636f7665723a20696e76616c6964207369676e61747572652027762760008301527f2076616c756500000000000000000000000000000000000000000000000000006020830152604082019050919050565b6000612e74602683613730565b91507f4f776e61626c653a206e6577206f776e657220697320746865207a65726f206160008301527f64647265737300000000000000000000000000000000000000000000000000006020830152604082019050919050565b6000612eda600283613741565b91507f19010000000000000000000000000000000000000000000000000000000000006000830152600282019050919050565b6000612f1a601083613730565b91507f5061757361626c653a20706175736564000000000000000000000000000000006000830152602082019050919050565b6000612f5a601c83613730565b91507f45435265636f7665723a20696e76616c6964207369676e6174757265000000006000830152602082019050919050565b6000612f9a602e83613730565b91507f496e697469616c697a61626c653a20636f6e747261637420697320616c72656160008301527f647920696e697469616c697a65640000000000000000000000000000000000006020830152604082019050919050565b6000613000601d83613730565b91507f546f6b656e206973206e6f74206f6e2073616c6520616c7265616479210000006000830152602082019050919050565b6000613040601a83613730565b91507f476976656e20746f6b656e206973206e6f74206f6e2073616c650000000000006000830152602082019050919050565b6000613080603283613730565b91507f4f6e6c79206f776e6572206f6620746f6b656e2063616e2072656d6f7665207460008301527f686520746f6b656e2066726f6d2073616c6500000000000000000000000000006020830152604082019050919050565b60006130e6602083613730565b91507f4f776e61626c653a2063616c6c6572206973206e6f7420746865206f776e65726000830152602082019050919050565b6000613126600083613714565b9150600082019050919050565b6000613140600083613725565b9150600082019050919050565b600061315a601983613730565b91507f546f6b656e20697320616c7265616479206f6e2073616c6521000000000000006000830152602082019050919050565b600061319a601083613730565b91507f5472616e73666572206661696c65642e000000000000000000000000000000006000830152602082019050919050565b60006131da602683613730565b91507f45435265636f7665723a20696e76616c6964207369676e61747572652027732760008301527f2076616c756500000000000000000000000000000000000000000000000000006020830152604082019050919050565b6000613240601f83613730565b91507f5265656e7472616e637947756172643a207265656e7472616e742063616c6c006000830152602082019050919050565b61327c816138c5565b82525050565b61328b816138cf565b82525050565b600061329c82612ecd565b91506132a88285612cde565b6020820191506132b88284612cde565b6020820191508190509392505050565b60006132d382613133565b9150819050919050565b60006020820190506132f26000830184612cb1565b92915050565b600060a08201905061330d6000830187612cb1565b61331a6020830186612cb1565b6133276040830185613273565b6133346060830184612d13565b818103608083015261334581613119565b905095945050505050565b60006020820190506133656000830184612cc0565b92915050565b60006020820190506133806000830184612ccf565b92915050565b600060a08201905061339b6000830188612ccf565b6133a86020830187612ccf565b6133b56040830186612ccf565b6133c26060830185612ccf565b6133cf6080830184612cb1565b9695505050505050565b60006060820190506133ee6000830186612ccf565b6133fb6020830185613273565b6134086040830184613273565b949350505050565b60006080820190506134256000830187612ccf565b6134326020830186613282565b61343f6040830185612ccf565b61344c6060830184612ccf565b95945050505050565b600060208201905061346a6000830184612cf5565b92915050565b60006020820190506134856000830184612d04565b92915050565b600060208201905081810360008301526134a58184612d22565b905092915050565b600060208201905081810360008301526134c681612d5b565b9050919050565b600060208201905081810360008301526134e681612dc1565b9050919050565b6000602082019050818103600083015261350681612e01565b9050919050565b6000602082019050818103600083015261352681612e67565b9050919050565b6000602082019050818103600083015261354681612f0d565b9050919050565b6000602082019050818103600083015261356681612f4d565b9050919050565b6000602082019050818103600083015261358681612f8d565b9050919050565b600060208201905081810360008301526135a681612ff3565b9050919050565b600060208201905081810360008301526135c681613033565b9050919050565b600060208201905081810360008301526135e681613073565b9050919050565b60006020820190508181036000830152613606816130d9565b9050919050565b600060208201905081810360008301526136268161314d565b9050919050565b600060208201905081810360008301526136468161318d565b9050919050565b60006020820190508181036000830152613666816131cd565b9050919050565b6000602082019050818103600083015261368681613233565b9050919050565b60006020820190506136a26000830184613273565b92915050565b6000604051905081810181811067ffffffffffffffff821117156136cf576136ce613a29565b5b8060405250919050565b600067ffffffffffffffff8211156136f4576136f3613a29565b5b601f19601f8301169050602081019050919050565b600081519050919050565b600082825260208201905092915050565b600081905092915050565b600082825260208201905092915050565b600081905092915050565b6000613757826138c5565b9150613762836138c5565b9250827fffffffffffffffffffffffffffffffffffffffffffffffffffffffffffffffff03821115613797576137966139cb565b5b828201905092915050565b60006137ad826138c5565b91506137b8836138c5565b9250826137c8576137c76139fa565b5b828204905092915050565b60006137de826138c5565b91506137e9836138c5565b9250817fffffffffffffffffffffffffffffffffffffffffffffffffffffffffffffffff0483118215151615613822576138216139cb565b5b828202905092915050565b6000613838826138c5565b9150613843836138c5565b925082821015613856576138556139cb565b5b828203905092915050565b600061386c826138a5565b9050919050565b600061387e826138a5565b9050919050565b60008115159050919050565b6000819050919050565b6000819050919050565b600073ffffffffffffffffffffffffffffffffffffffff82169050919050565b6000819050919050565b600060ff82169050919050565b60006138e7826138ee565b9050919050565b60006138f9826138a5565b9050919050565b600061390b82613912565b9050919050565b600061391d826138a5565b9050919050565b600061392f826138c5565b9050919050565b82818337600083830152505050565b60005b83811015613963578082015181840152602081019050613948565b83811115613972576000848401525b50505050565b6000613983826138c5565b91507fffffffffffffffffffffffffffffffffffffffffffffffffffffffffffffffff8214156139b6576139b56139cb565b5b600182019050919050565b6000819050919050565b7f4e487b7100000000000000000000000000000000000000000000000000000000600052601160045260246000fd5b7f4e487b7100000000000000000000000000000000000000000000000000000000600052601260045260246000fd5b7f4e487b7100000000000000000000000000000000000000000000000000000000600052604160045260246000fd5b6000601f19601f8301169050919050565b613a7281613861565b8114613a7d57600080fd5b50565b613a8981613873565b8114613a9457600080fd5b50565b613aa081613885565b8114613aab57600080fd5b50565b613ab781613891565b8114613ac257600080fd5b50565b613ace8161389b565b8114613ad957600080fd5b50565b613ae5816138c5565b8114613af057600080fd5b50565b613afc816138cf565b8114613b0757600080fd5b5056fe48656c6c6f2066726f6d20616674657220746865207570677261646521204920616d2061206e65772066756e6374696f6e21a264697066735822122010f79c3ee5e668e4440885587d36e50d53da470fca0ce2a4196023024e7537f864736f6c63430008000033",
  "immutableReferences": {},
  "source": "// SPDX-License-Identifier: MIT\r\npragma solidity ^0.8.0;\r\n\r\n//Removed because sol 0.8.0 already checks for over and underflow\r\n//import \"@openzeppelin/contracts/math/SafeMath.sol\";\r\n\r\nimport {EIP712Domain} from \"./EIP712Domain.sol\";\r\nimport {EIP712} from \"./EIP712.sol\";\r\nimport \"../../../node_modules/@openzeppelin/contracts-upgradeable/proxy/utils/Initializable.sol\";\r\nimport \"../../../node_modules/@openzeppelin/contracts-upgradeable/security/PausableUpgradeable.sol\";\r\nimport \"../../../node_modules/@openzeppelin/contracts-upgradeable/access/OwnableUpgradeable.sol\";\r\nimport \"../../../node_modules/@openzeppelin/contracts-upgradeable/security/ReentrancyGuardUpgradeable.sol\";\r\n\r\n//IN CASE OF UPGRADE THESE IMPORTS NEED TO BE UPDATED AS WELL ! ! !\r\nimport \"./MemeOfTheDayV3Pause.sol\";\r\nimport \"./MOTDTreasuryV3Pause.sol\";\r\nimport \"./MOTDSaleParametersProviderV3Pause.sol\";\r\n\r\n/**\r\n * @title MemeSale\r\n * @notice contract that handles sales of memes\r\n * @author MemeOfTheDay\r\n */\r\ncontract MemeSaleV4PauseReentrancy is EIP712Domain, Initializable, OwnableUpgradeable, PausableUpgradeable, ReentrancyGuardUpgradeable{\r\n\r\n    //Removed because sol 0.8.0 natively checks for over and underflow\r\n    //using SafeMath for uint256;\r\n\r\n    string internal constant VERIFYING_CONTRACT_NAME = \"MemeSale\";\r\n\r\n    // keccak256(VerifyPrice(uint256 tokenId,uint256 price)\")\r\n    bytes32\r\n        public constant VERIFY_PRICE_TYPEHASH = 0x01b2ca8b9a0a07d70c188f51d5d3ea9d76d3a4722a62ba8b3b3f9bbe316ca844;\r\n\r\n    string\r\n        internal constant _INVALID_SIGNATURE_ERROR = \"MemeSale: invalid signature\";\r\n\r\n    MemeOfTheDayV3Pause public memeOfTheDay;\r\n    MOTDTreasuryV3Pause public memeOfTheDayTreasury;\r\n    MOTDSaleParametersProviderV3Pause memeOfTheDaySaleParametersProvider;\r\n\r\n    mapping(uint256 => bool) public isOnSale;\r\n\r\n    event VotersFee(uint256 votersFee);\r\n    event CreatorFee(uint256 creatorFee);\r\n    event PlatformFee(uint256 platformFee);\r\n    event OwnerFee(uint256 ownerFee);\r\n\r\n    //Due to UPGRADEABILITY, Initializer is used! NO CONSTRUCTOR Can be used anymore!\r\n    function initialize(\r\n        address memeOfTheDayAddress,\r\n        address payable motdTreasuryAddress,\r\n        address memeOfTheDaySaleParametersProviderAddress,\r\n        string memory version\r\n        ) public initializer {\r\n\r\n        __Ownable_init();\r\n        __Pausable_init();\r\n\r\n        memeOfTheDay = MemeOfTheDayV3Pause(memeOfTheDayAddress);\r\n\r\n        memeOfTheDayTreasury = MOTDTreasuryV3Pause(motdTreasuryAddress);\r\n\r\n        memeOfTheDaySaleParametersProvider = MOTDSaleParametersProviderV3Pause(memeOfTheDaySaleParametersProviderAddress);\r\n        \r\n        DOMAIN_SEPARATOR = EIP712.makeDomainSeparator(\r\n            VERIFYING_CONTRACT_NAME,\r\n            version\r\n        );\r\n    }\r\n   \r\n\r\n    //REPLACED BY INITIALIZER DUE TO UPGRADEABLE DESIGN\r\n    // constructor(\r\n    //     address memeOfTheDayAddress,\r\n    //     address payable motdTreasuryAddress,\r\n    //     address memeOfTheDaySaleParametersProviderAddress,\r\n    //     string memory version\r\n    // ) public {\r\n    //     memeOfTheDay = MemeOfTheDay(memeOfTheDayAddress);\r\n    //     memeOfTheDayTreasury = MOTDTreasury(motdTreasuryAddress);\r\n    //     memeOfTheDaySaleParametersProvider = MOTDSaleParametersProvider(\r\n    //         memeOfTheDaySaleParametersProviderAddress\r\n    //     );\r\n\r\n    //     DOMAIN_SEPARATOR = EIP712.makeDomainSeparator(\r\n    //         VERIFYING_CONTRACT_NAME,\r\n    //         version\r\n    //     );\r\n    // }\r\n\r\n    /**\r\n     * @notice Puts on sale a token\r\n     * @param tokenId the id of the token to put to sale\r\n     */\r\n    function putOnSale(uint256 tokenId) external whenNotPaused {\r\n        require(\r\n            memeOfTheDay.ownerOf(tokenId) == msg.sender,\r\n            \"Only owner of token can put on sale\"\r\n        );\r\n        require(!isOnSale[tokenId], \"Token is already on sale!\");\r\n\r\n        isOnSale[tokenId] = true;\r\n    }\r\n\r\n    /**\r\n     * @notice Removes a token from sale \r\n     * @param tokenId the id of the token to remove from sale\r\n     */\r\n    function removeFromSale(uint256 tokenId) external whenNotPaused {\r\n        require(\r\n            memeOfTheDay.ownerOf(tokenId) == msg.sender,\r\n            \"Only owner of token can remove the token from sale\"\r\n        );\r\n        require(isOnSale[tokenId], \"Token is not on sale already!\");\r\n\r\n        isOnSale[tokenId] = false;\r\n    }\r\n\r\n    /**\r\n     * @notice Buys token\r\n     * @param tokenId       the id of the token to buy\r\n     * @param price         the price of the token on sale\r\n     * @param voters        array of voters on the meme\r\n     * @param votes         array of votes of the voters\r\n     * @param payCreator    defines if creator has to be paid or not\r\n     * @param v             v part of the seller's signature\r\n     * @param r             r part of the seller's signature\r\n     * @param s             s part of the seller's signature\r\n     */\r\n    function buy(\r\n        uint256 tokenId,\r\n        uint256 price,\r\n        address payable[] calldata voters,\r\n        uint256[] calldata votes,\r\n        bool payCreator,\r\n        uint8 v,\r\n        bytes32 r,\r\n        bytes32 s\r\n    ) external payable whenNotPaused nonReentrant{\r\n        require(isOnSale[tokenId], \"Given token is not on sale\");\r\n\r\n        bytes memory data = abi.encode(VERIFY_PRICE_TYPEHASH, tokenId, price);\r\n\r\n        require(\r\n            EIP712.recover(DOMAIN_SEPARATOR, v, r, s, data) ==\r\n                memeOfTheDay.ownerOf(tokenId),\r\n            _INVALID_SIGNATURE_ERROR\r\n        );\r\n\r\n        _buy(tokenId, price, voters, votes, payCreator);\r\n    }\r\n\r\n    function _buy(\r\n        uint256 tokenId,\r\n        uint256 price,\r\n        address payable[] calldata voters,\r\n        uint256[] calldata votes,\r\n        bool payCreator\r\n    ) internal {\r\n        (\r\n            uint256 votersFee,\r\n            uint256 creatorFee,\r\n            uint256 platformFee,\r\n            uint256 ownerFee\r\n        ) = _getFeesAmounts(price, tokenId, payCreator);\r\n\r\n        emit VotersFee(votersFee);\r\n        emit CreatorFee(creatorFee);\r\n        emit PlatformFee(platformFee);\r\n        emit OwnerFee(ownerFee);\r\n\r\n\r\n        //BLOCK SCOPING DUE TO STACK TOO DEEP ERROR !!!\r\n\r\n    //    { //BLOCK SCOPE 1 START\r\n\r\n            \r\n        uint256 totVotes = 0;\r\n        for (uint256 i = 0; i < votes.length; i++) {\r\n            totVotes += votes[i];\r\n        }\r\n\r\n        for (uint256 i = 0; i < voters.length; i++) {\r\n            uint256 voterFee = votersFee * (votes[i]/totVotes); //No more div or mul because SafeMath checks are native to sol 0.8.0\r\n            (bool success, ) = voters[i].call{value: voterFee}(\"\"); //use call{value: }(\"\") instead of Transfer since Istanbul fork! EIP 1884\r\n            require(success, \"Transfer failed.\");\r\n        }\r\n\r\n\r\n    //    }  //BLOCK SCOPE 1 END\r\n\r\n    //    {  //BLOCK SCOPE 2 START\r\n\r\n              if (payCreator) {\r\n           (bool success1, ) = memeOfTheDay.creatorOf(tokenId).call{value: creatorFee}(\"\");  //use call{value: }(\"\") instead of Transfer since Istanbul fork! EIP 1884\r\n           require(success1, \"Transfer failed.\");\r\n        }\r\n\r\n    //    }  //BLOCK SCOPE 2 END\r\n\r\n        {  //BLOCK SCOPE 3 Start\r\n\r\n        (bool success2, ) = address(memeOfTheDayTreasury).call{value: platformFee}(\"\"); //use call{value: }(\"\") instead of Transfer since Istanbul fork! EIP 1884\r\n         require(success2, \"Transfer failed.\");\r\n        (bool success3, ) = memeOfTheDay.ownerOf(tokenId).call{value: ownerFee}(\"\");  //use call{value: }(\"\") instead of Transfer since Istanbul fork! EIP 1884\r\n         require(success3, \"Transfer failed.\");\r\n\r\n        }  //BLOCK SCOPE 3 END\r\n\r\n        {  //BLOCK SCOPE 4 START\r\n\r\n        memeOfTheDay.safeTransferFrom(\r\n            memeOfTheDay.ownerOf(tokenId),\r\n            msg.sender,\r\n            tokenId,\r\n            1,\r\n            \"\"\r\n        );\r\n\r\n        isOnSale[tokenId] = false;\r\n\r\n        }  //BLOCK SCOPE 4 END\r\n\r\n        //BLOCK SCOPING END\r\n    }\r\n\r\n    function _getVotersFee(uint256 tokenPrice) internal view returns (uint256) {\r\n        return\r\n            tokenPrice / (1000) * (                                //No more div or mul because SafeMath checks are native since sol 0.8.0\r\n                memeOfTheDaySaleParametersProvider.parameters(\r\n                    memeOfTheDaySaleParametersProvider\r\n                        .VOTERS_FEE_PERCENT_INDEX()\r\n                )\r\n            );\r\n    }\r\n\r\n    function _getCreatorFee(\r\n        uint256 tokenPrice,\r\n        uint256 tokenId,\r\n        bool payCreator\r\n    ) internal view returns (uint256) {\r\n        uint256 creatorFee = 0;\r\n        if (payCreator) {\r\n            if (memeOfTheDay.creatorFee(tokenId) > -1) {\r\n                creatorFee = tokenPrice / (1000) * (            //No more div or mul becasue SafeMath checks are native to sol 0.8.0\r\n                    uint256(memeOfTheDay.creatorFee(tokenId))\r\n                );\r\n            } else {\r\n                creatorFee = tokenPrice / (1000) * (                //No more div or mul becasue SafeMath checks are native to sol 0.8.0\r\n                    memeOfTheDaySaleParametersProvider.parameters(\r\n                        memeOfTheDaySaleParametersProvider\r\n                            .DEFAULT_CREATOR_FEE_PERCENT_INDEX()\r\n                    )\r\n                );\r\n            }\r\n        }\r\n\r\n        return creatorFee;\r\n    }\r\n\r\n    function _getPlatformFee(uint256 tokenPrice)\r\n        internal\r\n        view\r\n        returns (uint256)\r\n    {\r\n        return\r\n            tokenPrice / (1000) * (                             //No more div or mul becasue SafeMath checks are native to sol 0.8.0\r\n                memeOfTheDaySaleParametersProvider.parameters(\r\n                    memeOfTheDaySaleParametersProvider\r\n                        .PLATFORM_FEE_PERCENT_INDEX()\r\n                )\r\n            );\r\n    }\r\n\r\n    function _getOwnerFee(\r\n        uint256 votersFee,\r\n        uint256 creatorFee,\r\n        uint256 platformFee\r\n    ) internal view returns (uint256) {\r\n\r\n        //economic model \"buyer pay fee\", buyer needs to send to contract\r\n        //token price including voters fee and platform fee\r\n        return msg.value - (votersFee) - (creatorFee) - (platformFee);    //No more sub, add, div or mul becasue SafeMath checks are native to sol 0.8.0\r\n    }\r\n\r\n    function _getFeesAmounts(\r\n        uint256 tokenPrice,\r\n        uint256 tokenId,\r\n        bool payCreator\r\n    )\r\n        internal\r\n        view\r\n        returns (\r\n            uint256,\r\n            uint256,\r\n            uint256,\r\n            uint256\r\n        )\r\n    {\r\n        uint256 votersFee = _getVotersFee(tokenPrice);\r\n        uint256 creatorFee = _getCreatorFee(tokenPrice, tokenId, payCreator);\r\n        uint256 platformFee = _getPlatformFee(tokenPrice);\r\n        //buyer pays fees economic model check\r\n        require(msg.value >= tokenPrice+votersFee+platformFee);\r\n        uint256 ownerFee = _getOwnerFee(\r\n            votersFee,\r\n            creatorFee,\r\n            platformFee\r\n        );\r\n\r\n        return (votersFee, creatorFee, platformFee, ownerFee);\r\n    }\r\n\r\n    //USED TO PAUSE THIS CONTRACT, ONLY POSSIBLE WHEN NOT PAUSED!\r\n    function pause() public whenNotPaused onlyOwner {\r\n        _pause();\r\n    }\r\n\r\n    //USED TO UNPAUSE THIS CONTRACT, ONLY POSSIBLE WHEN PAUSED!\r\n    function unpause() public whenPaused onlyOwner {\r\n        _unpause();\r\n    }\r\n\r\n    function sayHello() public pure returns(string memory){\r\n        return \"Hello from after the upgrade! I am a new function!\";\r\n    }\r\n}",
  "sourcePath": "C:/Users/sound/Desktop/MOTD/meme-repo-copy/src/contracts/src/MemeSaleV4PauseReentrancy.sol",
  "compiler": {
    "name": "solc",
    "version": "0.8.0+commit.c7dfd78e.Emscripten.clang"
  },
  "schemaVersion": "3.3.4",
  "updatedAt": "2021-04-28T13:37:50.395Z",
  "devdoc": {
    "author": "MemeOfTheDay",
    "kind": "dev",
    "methods": {
      "buy(uint256,uint256,address[],uint256[],bool,uint8,bytes32,bytes32)": {
        "params": {
          "payCreator": "defines if creator has to be paid or not",
          "price": "the price of the token on sale",
          "r": "r part of the seller's signature",
          "s": "s part of the seller's signature",
          "tokenId": "the id of the token to buy",
          "v": "v part of the seller's signature",
          "voters": "array of voters on the meme",
          "votes": "array of votes of the voters"
        }
      },
      "owner()": {
        "details": "Returns the address of the current owner."
      },
      "paused()": {
        "details": "Returns true if the contract is paused, and false otherwise."
      },
      "putOnSale(uint256)": {
        "params": {
          "tokenId": "the id of the token to put to sale"
        }
      },
      "removeFromSale(uint256)": {
        "params": {
          "tokenId": "the id of the token to remove from sale"
        }
      },
      "renounceOwnership()": {
        "details": "Leaves the contract without owner. It will not be possible to call `onlyOwner` functions anymore. Can only be called by the current owner. NOTE: Renouncing ownership will leave the contract without an owner, thereby removing any functionality that is only available to the owner."
      },
      "transferOwnership(address)": {
        "details": "Transfers ownership of the contract to a new account (`newOwner`). Can only be called by the current owner."
      }
    },
    "title": "MemeSale",
    "version": 1
  },
  "userdoc": {
    "kind": "user",
    "methods": {
      "buy(uint256,uint256,address[],uint256[],bool,uint8,bytes32,bytes32)": {
        "notice": "Buys token"
      },
      "putOnSale(uint256)": {
        "notice": "Puts on sale a token"
      },
      "removeFromSale(uint256)": {
        "notice": "Removes a token from sale "
      }
    },
    "notice": "contract that handles sales of memes",
    "version": 1
  }
}