{
  "contractName": "MemeSale",
  "abi": [
    {
      "inputs": [
        {
          "internalType": "address",
          "name": "memeOfTheDayAddress",
          "type": "address"
        },
        {
          "internalType": "address payable",
          "name": "motdTreasuryAddress",
          "type": "address"
        },
        {
          "internalType": "address",
          "name": "memeOfTheDaySaleParametersProviderAddress",
          "type": "address"
        },
        {
          "internalType": "string",
          "name": "version",
          "type": "string"
        }
      ],
      "stateMutability": "nonpayable",
      "type": "constructor"
    },
    {
      "inputs": [],
      "name": "DOMAIN_SEPARATOR",
      "outputs": [
        {
          "internalType": "bytes32",
          "name": "",
          "type": "bytes32"
        }
      ],
      "stateMutability": "view",
      "type": "function"
    },
    {
      "inputs": [],
      "name": "VERIFY_PRICE_TYPEHASH",
      "outputs": [
        {
          "internalType": "bytes32",
          "name": "",
          "type": "bytes32"
        }
      ],
      "stateMutability": "view",
      "type": "function"
    },
    {
      "inputs": [
        {
          "internalType": "uint256",
          "name": "",
          "type": "uint256"
        }
      ],
      "name": "isOnSale",
      "outputs": [
        {
          "internalType": "bool",
          "name": "",
          "type": "bool"
        }
      ],
      "stateMutability": "view",
      "type": "function"
    },
    {
      "inputs": [],
      "name": "memeOfTheDay",
      "outputs": [
        {
          "internalType": "contract MemeOfTheDay",
          "name": "",
          "type": "address"
        }
      ],
      "stateMutability": "view",
      "type": "function"
    },
    {
      "inputs": [],
      "name": "memeOfTheDayTreasury",
      "outputs": [
        {
          "internalType": "contract MOTDTreasury",
          "name": "",
          "type": "address"
        }
      ],
      "stateMutability": "view",
      "type": "function"
    },
    {
      "inputs": [
        {
          "internalType": "uint256",
          "name": "tokenId",
          "type": "uint256"
        }
      ],
      "name": "putOnSale",
      "outputs": [],
      "stateMutability": "nonpayable",
      "type": "function"
    },
    {
      "inputs": [
        {
          "internalType": "uint256",
          "name": "tokenId",
          "type": "uint256"
        }
      ],
      "name": "removeFromSale",
      "outputs": [],
      "stateMutability": "nonpayable",
      "type": "function"
    },
    {
      "inputs": [
        {
          "internalType": "uint256",
          "name": "tokenId",
          "type": "uint256"
        },
        {
          "internalType": "uint256",
          "name": "price",
          "type": "uint256"
        },
        {
          "internalType": "address payable[]",
          "name": "voters",
          "type": "address[]"
        },
        {
          "internalType": "uint256[]",
          "name": "votes",
          "type": "uint256[]"
        },
        {
          "internalType": "bool",
          "name": "payCreator",
          "type": "bool"
        },
        {
          "internalType": "uint8",
          "name": "v",
          "type": "uint8"
        },
        {
          "internalType": "bytes32",
          "name": "r",
          "type": "bytes32"
        },
        {
          "internalType": "bytes32",
          "name": "s",
          "type": "bytes32"
        }
      ],
      "name": "buy",
      "outputs": [],
      "stateMutability": "payable",
      "type": "function"
    }
  ],
  "bytecode": "0x60806040523480156200001157600080fd5b50604051620020aa380380620020aa833981810160405260808110156200003757600080fd5b81019080805190602001909291908051906020019092919080519060200190929190805160405193929190846401000000008211156200007657600080fd5b838201915060208201858111156200008d57600080fd5b8251866001820283011164010000000082111715620000ab57600080fd5b8083526020830192505050908051906020019080838360005b83811015620000e1578082015181840152602081019050620000c4565b50505050905090810190601f1680156200010f5780820380516001836020036101000a031916815260200191505b5060405250505083600160006101000a81548173ffffffffffffffffffffffffffffffffffffffff021916908373ffffffffffffffffffffffffffffffffffffffff16021790555082600260006101000a81548173ffffffffffffffffffffffffffffffffffffffff021916908373ffffffffffffffffffffffffffffffffffffffff16021790555081600360006101000a81548173ffffffffffffffffffffffffffffffffffffffff021916908373ffffffffffffffffffffffffffffffffffffffff160217905550620002256040518060400160405280600881526020017f4d656d6553616c65000000000000000000000000000000000000000000000000815250826200023560201b62000ad41760201c565b60008190555050505050620002d5565b6000804690507f8b73c3c69bb8fe3d512ecc4cf759cc79239f7b179b0ffacaa9a75d522b39400f60001b848051906020012084805190602001208360001b30604051602001808681526020018581526020018481526020018381526020018273ffffffffffffffffffffffffffffffffffffffff168152602001955050505050506040516020818303038152906040528051906020012091505092915050565b611dc580620002e56000396000f3fe60806040526004361061007b5760003560e01c80639d6e60e31161004e5780639d6e60e3146102375780639dbcfd6f14610262578063e523bb421461029d578063f0f2805f146102de5761007b565b80630483877d146100805780631361a3b6146101905780633644e515146101cb5780638a728dc4146101f6575b600080fd5b61018e600480360361010081101561009757600080fd5b810190808035906020019092919080359060200190929190803590602001906401000000008111156100c857600080fd5b8201836020820111156100da57600080fd5b803590602001918460208302840111640100000000831117156100fc57600080fd5b90919293919293908035906020019064010000000081111561011d57600080fd5b82018360208201111561012f57600080fd5b8035906020019184602083028401116401000000008311171561015157600080fd5b9091929391929390803515159060200190929190803560ff169060200190929190803590602001909291908035906020019092919050505061032f565b005b34801561019c57600080fd5b506101c9600480360360208110156101b357600080fd5b8101908080359060200190929190505050610654565b005b3480156101d757600080fd5b506101e0610847565b6040518082815260200191505060405180910390f35b34801561020257600080fd5b5061020b61084d565b604051808273ffffffffffffffffffffffffffffffffffffffff16815260200191505060405180910390f35b34801561024357600080fd5b5061024c610873565b6040518082815260200191505060405180910390f35b34801561026e57600080fd5b5061029b6004803603602081101561028557600080fd5b810190808035906020019092919050505061089a565b005b3480156102a957600080fd5b506102b2610a8e565b604051808273ffffffffffffffffffffffffffffffffffffffff16815260200191505060405180910390f35b3480156102ea57600080fd5b506103176004803603602081101561030157600080fd5b8101908080359060200190929190505050610ab4565b60405180821515815260200191505060405180910390f35b600460008b815260200190815260200160002060009054906101000a900460ff166103c2576040517f08c379a000000000000000000000000000000000000000000000000000000000815260040180806020018281038252601a8152602001807f476976656e20746f6b656e206973206e6f74206f6e2073616c6500000000000081525060200191505060405180910390fd5b88341461041a576040517f08c379a0000000000000000000000000000000000000000000000000000000008152600401808060200182810382526027815260200180611cca6027913960400191505060405180910390fd5b60607f01b2ca8b9a0a07d70c188f51d5d3ea9d76d3a4722a62ba8b3b3f9bbe316ca84460001b8b8b6040516020018084815260200183815260200182815260200193505050506040516020818303038152906040529050600160009054906101000a900473ffffffffffffffffffffffffffffffffffffffff1673ffffffffffffffffffffffffffffffffffffffff16636352211e8c6040518263ffffffff1660e01b81526004018082815260200191505060206040518083038186803b1580156104e457600080fd5b505afa1580156104f8573d6000803e3d6000fd5b505050506040513d602081101561050e57600080fd5b810190808051906020019092919050505073ffffffffffffffffffffffffffffffffffffffff1661054460005486868686610b74565b73ffffffffffffffffffffffffffffffffffffffff16146040518060400160405280601b81526020017f4d656d6553616c653a20696e76616c6964207369676e6174757265000000000081525090610637576040517f08c379a00000000000000000000000000000000000000000000000000000000081526004018080602001828103825283818151815260200191508051906020019080838360005b838110156105fc5780820151818401526020810190506105e1565b50505050905090810190601f1680156106295780820380516001836020036101000a031916815260200191505b509250505060405180910390fd5b506106478b8b8b8b8b8b8b610bef565b5050505050505050505050565b3373ffffffffffffffffffffffffffffffffffffffff16600160009054906101000a900473ffffffffffffffffffffffffffffffffffffffff1673ffffffffffffffffffffffffffffffffffffffff16636352211e836040518263ffffffff1660e01b81526004018082815260200191505060206040518083038186803b1580156106de57600080fd5b505afa1580156106f2573d6000803e3d6000fd5b505050506040513d602081101561070857600080fd5b810190808051906020019092919050505073ffffffffffffffffffffffffffffffffffffffff1614610785576040517f08c379a0000000000000000000000000000000000000000000000000000000008152600401808060200182810382526032815260200180611d176032913960400191505060405180910390fd5b6004600082815260200190815260200160002060009054906101000a900460ff16610818576040517f08c379a000000000000000000000000000000000000000000000000000000000815260040180806020018281038252601d8152602001807f546f6b656e206973206e6f74206f6e2073616c6520616c72656164792100000081525060200191505060405180910390fd5b60006004600083815260200190815260200160002060006101000a81548160ff02191690831515021790555050565b60005481565b600260009054906101000a900473ffffffffffffffffffffffffffffffffffffffff1681565b7f01b2ca8b9a0a07d70c188f51d5d3ea9d76d3a4722a62ba8b3b3f9bbe316ca84460001b81565b3373ffffffffffffffffffffffffffffffffffffffff16600160009054906101000a900473ffffffffffffffffffffffffffffffffffffffff1673ffffffffffffffffffffffffffffffffffffffff16636352211e836040518263ffffffff1660e01b81526004018082815260200191505060206040518083038186803b15801561092457600080fd5b505afa158015610938573d6000803e3d6000fd5b505050506040513d602081101561094e57600080fd5b810190808051906020019092919050505073ffffffffffffffffffffffffffffffffffffffff16146109cb576040517f08c379a0000000000000000000000000000000000000000000000000000000008152600401808060200182810382526023815260200180611ca76023913960400191505060405180910390fd5b6004600082815260200190815260200160002060009054906101000a900460ff1615610a5f576040517f08c379a00000000000000000000000000000000000000000000000000000000081526004018080602001828103825260198152602001807f546f6b656e20697320616c7265616479206f6e2073616c65210000000000000081525060200191505060405180910390fd5b60016004600083815260200190815260200160002060006101000a81548160ff02191690831515021790555050565b600160009054906101000a900473ffffffffffffffffffffffffffffffffffffffff1681565b60046020528060005260406000206000915054906101000a900460ff1681565b6000804690507f8b73c3c69bb8fe3d512ecc4cf759cc79239f7b179b0ffacaa9a75d522b39400f60001b848051906020012084805190602001208360001b30604051602001808681526020018581526020018481526020018381526020018273ffffffffffffffffffffffffffffffffffffffff168152602001955050505050506040516020818303038152906040528051906020012091505092915050565b60008086838051906020012060405160200180807f190100000000000000000000000000000000000000000000000000000000000081525060020183815260200182815260200192505050604051602081830303815290604052805190602001209050610be381878787611128565b91505095945050505050565b600080600080610c008a8c8761132b565b93509350935093506000805b88889050811015610c3b57888882818110610c2357fe5b90506020020135820191508080600101915050610c0c565b5060005b8a8a9050811015610d02576000610c83610c74848c8c86818110610c5f57fe5b9050602002013561138390919063ffffffff16565b886113cd90919063ffffffff16565b90508b8b83818110610c9157fe5b9050602002013573ffffffffffffffffffffffffffffffffffffffff1673ffffffffffffffffffffffffffffffffffffffff166108fc829081150290604051600060405180830381858888f19350505050158015610cf3573d6000803e3d6000fd5b50508080600101915050610c3f565b508515610dfe57600160009054906101000a900473ffffffffffffffffffffffffffffffffffffffff1673ffffffffffffffffffffffffffffffffffffffff1663589a17438d6040518263ffffffff1660e01b81526004018082815260200191505060206040518083038186803b158015610d7c57600080fd5b505afa158015610d90573d6000803e3d6000fd5b505050506040513d6020811015610da657600080fd5b810190808051906020019092919050505073ffffffffffffffffffffffffffffffffffffffff166108fc859081150290604051600060405180830381858888f19350505050158015610dfc573d6000803e3d6000fd5b505b600260009054906101000a900473ffffffffffffffffffffffffffffffffffffffff1673ffffffffffffffffffffffffffffffffffffffff166108fc849081150290604051600060405180830381858888f19350505050158015610e66573d6000803e3d6000fd5b50600160009054906101000a900473ffffffffffffffffffffffffffffffffffffffff1673ffffffffffffffffffffffffffffffffffffffff16636352211e8d6040518263ffffffff1660e01b81526004018082815260200191505060206040518083038186803b158015610eda57600080fd5b505afa158015610eee573d6000803e3d6000fd5b505050506040513d6020811015610f0457600080fd5b810190808051906020019092919050505073ffffffffffffffffffffffffffffffffffffffff166108fc839081150290604051600060405180830381858888f19350505050158015610f5a573d6000803e3d6000fd5b50600160009054906101000a900473ffffffffffffffffffffffffffffffffffffffff1673ffffffffffffffffffffffffffffffffffffffff1663f242432a600160009054906101000a900473ffffffffffffffffffffffffffffffffffffffff1673ffffffffffffffffffffffffffffffffffffffff16636352211e8f6040518263ffffffff1660e01b81526004018082815260200191505060206040518083038186803b15801561100c57600080fd5b505afa158015611020573d6000803e3d6000fd5b505050506040513d602081101561103657600080fd5b8101908080519060200190929190505050338f60016040518563ffffffff1660e01b8152600401808573ffffffffffffffffffffffffffffffffffffffff1681526020018473ffffffffffffffffffffffffffffffffffffffff1681526020018381526020018281526020018060200182810382526000815260200160200195505050505050600060405180830381600087803b1580156110d657600080fd5b505af11580156110ea573d6000803e3d6000fd5b505050506000600460008e815260200190815260200160002060006101000a81548160ff021916908315150217905550505050505050505050505050565b60007f7fffffffffffffffffffffffffffffff5d576e7357a4501ddfe92f46681b20a08260001c11156111a6576040517f08c379a0000000000000000000000000000000000000000000000000000000008152600401808060200182810382526026815260200180611d6a6026913960400191505060405180910390fd5b601b8460ff16141580156111be5750601c8460ff1614155b15611214576040517f08c379a0000000000000000000000000000000000000000000000000000000008152600401808060200182810382526026815260200180611cf16026913960400191505060405180910390fd5b600060018686868660405160008152602001604052604051808581526020018460ff1681526020018381526020018281526020019450505050506020604051602081039080840390855afa158015611270573d6000803e3d6000fd5b505050602060405103519050600073ffffffffffffffffffffffffffffffffffffffff168173ffffffffffffffffffffffffffffffffffffffff16141561131f576040517f08c379a000000000000000000000000000000000000000000000000000000000815260040180806020018281038252601c8152602001807f45435265636f7665723a20696e76616c6964207369676e61747572650000000081525060200191505060405180910390fd5b80915050949350505050565b600080600080600061133c88611453565b9050600061134b8989896115d2565b905060006113588a611914565b905060006113688b858585611a93565b90508383838397509750975097505050505093509350935093565b60006113c583836040518060400160405280601a81526020017f536166654d6174683a206469766973696f6e206279207a65726f000000000000815250611ad6565b905092915050565b6000808314156113e0576000905061144d565b60008284029050828482816113f157fe5b0414611448576040517f08c379a0000000000000000000000000000000000000000000000000000000008152600401808060200182810382526021815260200180611d496021913960400191505060405180910390fd5b809150505b92915050565b60006115cb600360009054906101000a900473ffffffffffffffffffffffffffffffffffffffff1673ffffffffffffffffffffffffffffffffffffffff16632a4a9dd1600360009054906101000a900473ffffffffffffffffffffffffffffffffffffffff1673ffffffffffffffffffffffffffffffffffffffff16633e2dce1e6040518163ffffffff1660e01b815260040160206040518083038186803b1580156114fe57600080fd5b505afa158015611512573d6000803e3d6000fd5b505050506040513d602081101561152857600080fd5b81019080805190602001909291905050506040518263ffffffff1660e01b81526004018082815260200191505060206040518083038186803b15801561156d57600080fd5b505afa158015611581573d6000803e3d6000fd5b505050506040513d602081101561159757600080fd5b81019080805190602001909291905050506115bd6103e88561138390919063ffffffff16565b6113cd90919063ffffffff16565b9050919050565b600080600090508215611909577fffffffffffffffffffffffffffffffffffffffffffffffffffffffffffffffff600160009054906101000a900473ffffffffffffffffffffffffffffffffffffffff1673ffffffffffffffffffffffffffffffffffffffff166378c3829b866040518263ffffffff1660e01b81526004018082815260200191505060206040518083038186803b15801561167357600080fd5b505afa158015611687573d6000803e3d6000fd5b505050506040513d602081101561169d57600080fd5b8101908080519060200190929190505050131561178f57611788600160009054906101000a900473ffffffffffffffffffffffffffffffffffffffff1673ffffffffffffffffffffffffffffffffffffffff166378c3829b866040518263ffffffff1660e01b81526004018082815260200191505060206040518083038186803b15801561172a57600080fd5b505afa15801561173e573d6000803e3d6000fd5b505050506040513d602081101561175457600080fd5b810190808051906020019092919050505061177a6103e88861138390919063ffffffff16565b6113cd90919063ffffffff16565b9050611908565b611905600360009054906101000a900473ffffffffffffffffffffffffffffffffffffffff1673ffffffffffffffffffffffffffffffffffffffff16632a4a9dd1600360009054906101000a900473ffffffffffffffffffffffffffffffffffffffff1673ffffffffffffffffffffffffffffffffffffffff1663443139f16040518163ffffffff1660e01b815260040160206040518083038186803b15801561183857600080fd5b505afa15801561184c573d6000803e3d6000fd5b505050506040513d602081101561186257600080fd5b81019080805190602001909291905050506040518263ffffffff1660e01b81526004018082815260200191505060206040518083038186803b1580156118a757600080fd5b505afa1580156118bb573d6000803e3d6000fd5b505050506040513d60208110156118d157600080fd5b81019080805190602001909291905050506118f76103e88861138390919063ffffffff16565b6113cd90919063ffffffff16565b90505b5b809150509392505050565b6000611a8c600360009054906101000a900473ffffffffffffffffffffffffffffffffffffffff1673ffffffffffffffffffffffffffffffffffffffff16632a4a9dd1600360009054906101000a900473ffffffffffffffffffffffffffffffffffffffff1673ffffffffffffffffffffffffffffffffffffffff16632648cd806040518163ffffffff1660e01b815260040160206040518083038186803b1580156119bf57600080fd5b505afa1580156119d3573d6000803e3d6000fd5b505050506040513d60208110156119e957600080fd5b81019080805190602001909291905050506040518263ffffffff1660e01b81526004018082815260200191505060206040518083038186803b158015611a2e57600080fd5b505afa158015611a42573d6000803e3d6000fd5b505050506040513d6020811015611a5857600080fd5b8101908080519060200190929190505050611a7e6103e88561138390919063ffffffff16565b6113cd90919063ffffffff16565b9050919050565b6000611acc82611abe85611ab0888a611b9c90919063ffffffff16565b611b9c90919063ffffffff16565b611b9c90919063ffffffff16565b9050949350505050565b60008083118290611b82576040517f08c379a00000000000000000000000000000000000000000000000000000000081526004018080602001828103825283818151815260200191508051906020019080838360005b83811015611b47578082015181840152602081019050611b2c565b50505050905090810190601f168015611b745780820380516001836020036101000a031916815260200191505b509250505060405180910390fd5b506000838581611b8e57fe5b049050809150509392505050565b6000611bde83836040518060400160405280601e81526020017f536166654d6174683a207375627472616374696f6e206f766572666c6f770000815250611be6565b905092915050565b6000838311158290611c93576040517f08c379a00000000000000000000000000000000000000000000000000000000081526004018080602001828103825283818151815260200191508051906020019080838360005b83811015611c58578082015181840152602081019050611c3d565b50505050905090810190601f168015611c855780820380516001836020036101000a031916815260200191505b509250505060405180910390fd5b506000838503905080915050939250505056fe4f6e6c79206f776e6572206f6620746f6b656e2063616e20707574206f6e2073616c6553656e742076616c75652073686f756c6420626520657175616c20746f2073657420707269636545435265636f7665723a20696e76616c6964207369676e6174757265202776272076616c75654f6e6c79206f776e6572206f6620746f6b656e2063616e2072656d6f76652074686520746f6b656e2066726f6d2073616c65536166654d6174683a206d756c7469706c69636174696f6e206f766572666c6f7745435265636f7665723a20696e76616c6964207369676e6174757265202773272076616c7565a2646970667358221220d284dcd020e80aa09253d1095fec13dea7659238a779b92b105e8363be797e3164736f6c634300060c0033",
  "immutableReferences": {},
  "source": "// SPDX-License-Identifier: MIT\r\npragma solidity ^0.6.12;\r\n\r\nimport \"@openzeppelin/contracts/math/SafeMath.sol\";\r\n\r\nimport {EIP712Domain} from \"./EIP712Domain.sol\";\r\nimport {EIP712} from \"./EIP712.sol\";\r\n\r\nimport \"./MemeOfTheDay.sol\";\r\nimport \"./MOTDTreasury.sol\";\r\nimport \"./MOTDSaleParametersProvider.sol\";\r\n\r\n/**\r\n * @title MemeSale\r\n * @notice contract that handles sales of memes\r\n * @author MemeOfTheDay\r\n */\r\ncontract MemeSale is EIP712Domain {\r\n    using SafeMath for uint256;\r\n\r\n    string internal constant VERIFYING_CONTRACT_NAME = \"MemeSale\";\r\n\r\n    // keccak256(VerifyPrice(uint256 tokenId,uint256 price)\")\r\n    bytes32\r\n        public constant VERIFY_PRICE_TYPEHASH = 0x01b2ca8b9a0a07d70c188f51d5d3ea9d76d3a4722a62ba8b3b3f9bbe316ca844;\r\n\r\n    string\r\n        internal constant _INVALID_SIGNATURE_ERROR = \"MemeSale: invalid signature\";\r\n\r\n    MemeOfTheDay public memeOfTheDay;\r\n    MOTDTreasury public memeOfTheDayTreasury;\r\n    MOTDSaleParametersProvider memeOfTheDaySaleParametersProvider;\r\n\r\n    mapping(uint256 => bool) public isOnSale;\r\n\r\n    constructor(\r\n        address memeOfTheDayAddress,\r\n        address payable motdTreasuryAddress,\r\n        address memeOfTheDaySaleParametersProviderAddress,\r\n        string memory version\r\n    ) public {\r\n        memeOfTheDay = MemeOfTheDay(memeOfTheDayAddress);\r\n        memeOfTheDayTreasury = MOTDTreasury(motdTreasuryAddress);\r\n        memeOfTheDaySaleParametersProvider = MOTDSaleParametersProvider(\r\n            memeOfTheDaySaleParametersProviderAddress\r\n        );\r\n\r\n        DOMAIN_SEPARATOR = EIP712.makeDomainSeparator(\r\n            VERIFYING_CONTRACT_NAME,\r\n            version\r\n        );\r\n    }\r\n\r\n    /**\r\n     * @notice Puts on sale a token\r\n     * @param tokenId the id of the token to put to sale\r\n     */\r\n    function putOnSale(uint256 tokenId) external {\r\n        require(\r\n            memeOfTheDay.ownerOf(tokenId) == msg.sender,\r\n            \"Only owner of token can put on sale\"\r\n        );\r\n        require(!isOnSale[tokenId], \"Token is already on sale!\");\r\n\r\n        isOnSale[tokenId] = true;\r\n    }\r\n\r\n    /**\r\n     * @notice Removes from sale a token\r\n     * @param tokenId the id of the token to remove from sale\r\n     */\r\n    function removeFromSale(uint256 tokenId) external {\r\n        require(\r\n            memeOfTheDay.ownerOf(tokenId) == msg.sender,\r\n            \"Only owner of token can remove the token from sale\"\r\n        );\r\n        require(isOnSale[tokenId], \"Token is not on sale already!\");\r\n\r\n        isOnSale[tokenId] = false;\r\n    }\r\n\r\n    /**\r\n     * @notice Buys token\r\n     * @param tokenId       the id of the token to buy\r\n     * @param price         the price of the token on sale\r\n     * @param voters        array of voters on the meme\r\n     * @param votes         array of votes of the voters\r\n     * @param payCreator    defines if creator has to be paid or not\r\n     * @param v             v part of the seller's signature\r\n     * @param r             r part of the seller's signature\r\n     * @param s             s part of the seller's signature\r\n     */\r\n    function buy(\r\n        uint256 tokenId,\r\n        uint256 price,\r\n        address payable[] calldata voters,\r\n        uint256[] calldata votes,\r\n        bool payCreator,\r\n        uint8 v,\r\n        bytes32 r,\r\n        bytes32 s\r\n    ) external payable {\r\n        require(isOnSale[tokenId], \"Given token is not on sale\");\r\n        require(msg.value == price, \"Sent value should be equal to set price\");\r\n\r\n        bytes memory data = abi.encode(VERIFY_PRICE_TYPEHASH, tokenId, price);\r\n\r\n        require(\r\n            EIP712.recover(DOMAIN_SEPARATOR, v, r, s, data) ==\r\n                memeOfTheDay.ownerOf(tokenId),\r\n            _INVALID_SIGNATURE_ERROR\r\n        );\r\n\r\n        _buy(tokenId, price, voters, votes, payCreator);\r\n    }\r\n\r\n    function _buy(\r\n        uint256 tokenId,\r\n        uint256 price,\r\n        address payable[] calldata voters,\r\n        uint256[] calldata votes,\r\n        bool payCreator\r\n    ) internal {\r\n        (\r\n            uint256 votersFee,\r\n            uint256 creatorFee,\r\n            uint256 platformFee,\r\n            uint256 ownerFee\r\n        ) = _getFeesAmounts(price, tokenId, payCreator);\r\n\r\n        uint256 totVotes = 0;\r\n        for (uint256 i = 0; i < votes.length; i++) {\r\n            totVotes += votes[i];\r\n        }\r\n\r\n        for (uint256 i = 0; i < voters.length; i++) {\r\n            uint256 voterFee = votersFee.mul(votes[i].div(totVotes));\r\n            voters[i].transfer(voterFee);\r\n        }\r\n\r\n        if (payCreator) {\r\n            memeOfTheDay.creatorOf(tokenId).transfer(creatorFee);\r\n        }\r\n\r\n        address(memeOfTheDayTreasury).transfer(platformFee);\r\n        memeOfTheDay.ownerOf(tokenId).transfer(ownerFee);\r\n\r\n        memeOfTheDay.safeTransferFrom(\r\n            memeOfTheDay.ownerOf(tokenId),\r\n            msg.sender,\r\n            tokenId,\r\n            1,\r\n            \"\"\r\n        );\r\n\r\n        isOnSale[tokenId] = false;\r\n    }\r\n\r\n    function _getVotersFee(uint256 tokenPrice) internal view returns (uint256) {\r\n        return\r\n            tokenPrice.div(1000).mul(\r\n                memeOfTheDaySaleParametersProvider.parameters(\r\n                    memeOfTheDaySaleParametersProvider\r\n                        .VOTERS_FEE_PERCENT_INDEX()\r\n                )\r\n            );\r\n    }\r\n\r\n    function _getCreatorFee(\r\n        uint256 tokenPrice,\r\n        uint256 tokenId,\r\n        bool payCreator\r\n    ) internal view returns (uint256) {\r\n        uint256 creatorFee = 0;\r\n        if (payCreator) {\r\n            if (memeOfTheDay.creatorFee(tokenId) > -1) {\r\n                creatorFee = tokenPrice.div(1000).mul(\r\n                    uint256(memeOfTheDay.creatorFee(tokenId))\r\n                );\r\n            } else {\r\n                creatorFee = tokenPrice.div(1000).mul(\r\n                    memeOfTheDaySaleParametersProvider.parameters(\r\n                        memeOfTheDaySaleParametersProvider\r\n                            .DEFAULT_CREATOR_FEE_PERCENT_INDEX()\r\n                    )\r\n                );\r\n            }\r\n        }\r\n\r\n        return creatorFee;\r\n    }\r\n\r\n    function _getPlatformFee(uint256 tokenPrice)\r\n        internal\r\n        view\r\n        returns (uint256)\r\n    {\r\n        return\r\n            tokenPrice.div(1000).mul(\r\n                memeOfTheDaySaleParametersProvider.parameters(\r\n                    memeOfTheDaySaleParametersProvider\r\n                        .PLATFORM_FEE_PERCENT_INDEX()\r\n                )\r\n            );\r\n    }\r\n\r\n    function _getOwnerFee(\r\n        uint256 tokenPrice,\r\n        uint256 votersFee,\r\n        uint256 creatorFee,\r\n        uint256 platformFee\r\n    ) internal pure returns (uint256) {\r\n        return tokenPrice.sub(votersFee).sub(creatorFee).sub(platformFee);\r\n    }\r\n\r\n    function _getFeesAmounts(\r\n        uint256 tokenPrice,\r\n        uint256 tokenId,\r\n        bool payCreator\r\n    )\r\n        internal\r\n        view\r\n        returns (\r\n            uint256,\r\n            uint256,\r\n            uint256,\r\n            uint256\r\n        )\r\n    {\r\n        uint256 votersFee = _getVotersFee(tokenPrice);\r\n        uint256 creatorFee = _getCreatorFee(tokenPrice, tokenId, payCreator);\r\n        uint256 platformFee = _getPlatformFee(tokenPrice);\r\n        uint256 ownerFee = _getOwnerFee(\r\n            tokenPrice,\r\n            votersFee,\r\n            creatorFee,\r\n            platformFee\r\n        );\r\n\r\n        return (votersFee, creatorFee, platformFee, ownerFee);\r\n    }\r\n}\r\n",
  "sourcePath": "/home/developer/meme-of-the-day-marketplace/src/contracts/src/MemeSale.sol",
  "compiler": {
    "name": "solc",
    "version": "0.6.12+commit.27d51765.Emscripten.clang"
  },
  "schemaVersion": "3.3.1",
  "updatedAt": "2020-12-08T15:43:12.331Z",
  "devdoc": {
    "author": "MemeOfTheDay",
    "kind": "dev",
    "methods": {
      "buy(uint256,uint256,address[],uint256[],bool,uint8,bytes32,bytes32)": {
        "params": {
          "payCreator": "defines if creator has to be paid or not",
          "price": "the price of the token on sale",
          "r": "r part of the seller's signature",
          "s": "s part of the seller's signature",
          "tokenId": "the id of the token to buy",
          "v": "v part of the seller's signature",
          "voters": "array of voters on the meme",
          "votes": "array of votes of the voters"
        }
      },
      "putOnSale(uint256)": {
        "params": {
          "tokenId": "the id of the token to put to sale"
        }
      },
      "removeFromSale(uint256)": {
        "params": {
          "tokenId": "the id of the token to remove from sale"
        }
      }
    },
    "title": "MemeSale",
    "version": 1
  },
  "userdoc": {
    "kind": "user",
    "methods": {
      "buy(uint256,uint256,address[],uint256[],bool,uint8,bytes32,bytes32)": {
        "notice": "Buys token"
      },
      "putOnSale(uint256)": {
        "notice": "Puts on sale a token"
      },
      "removeFromSale(uint256)": {
        "notice": "Removes from sale a token"
      }
    },
    "notice": "contract that handles sales of memes",
    "version": 1
  }
}