{
  "contractName": "MemeSaleV3PauseReentrancy",
  "abi": [
    {
      "anonymous": false,
      "inputs": [
        {
          "indexed": false,
          "internalType": "uint256",
          "name": "creatorFee",
          "type": "uint256"
        }
      ],
      "name": "CreatorFee",
      "type": "event"
    },
    {
      "anonymous": false,
      "inputs": [
        {
          "indexed": false,
          "internalType": "uint256",
          "name": "ownerFee",
          "type": "uint256"
        }
      ],
      "name": "OwnerFee",
      "type": "event"
    },
    {
      "anonymous": false,
      "inputs": [
        {
          "indexed": true,
          "internalType": "address",
          "name": "previousOwner",
          "type": "address"
        },
        {
          "indexed": true,
          "internalType": "address",
          "name": "newOwner",
          "type": "address"
        }
      ],
      "name": "OwnershipTransferred",
      "type": "event"
    },
    {
      "anonymous": false,
      "inputs": [
        {
          "indexed": false,
          "internalType": "address",
          "name": "account",
          "type": "address"
        }
      ],
      "name": "Paused",
      "type": "event"
    },
    {
      "anonymous": false,
      "inputs": [
        {
          "indexed": false,
          "internalType": "uint256",
          "name": "platformFee",
          "type": "uint256"
        }
      ],
      "name": "PlatformFee",
      "type": "event"
    },
    {
      "anonymous": false,
      "inputs": [
        {
          "indexed": false,
          "internalType": "address",
          "name": "account",
          "type": "address"
        }
      ],
      "name": "Unpaused",
      "type": "event"
    },
    {
      "anonymous": false,
      "inputs": [
        {
          "indexed": false,
          "internalType": "uint256",
          "name": "votersFee",
          "type": "uint256"
        }
      ],
      "name": "VotersFee",
      "type": "event"
    },
    {
      "inputs": [],
      "name": "DOMAIN_SEPARATOR",
      "outputs": [
        {
          "internalType": "bytes32",
          "name": "",
          "type": "bytes32"
        }
      ],
      "stateMutability": "view",
      "type": "function",
      "constant": true
    },
    {
      "inputs": [],
      "name": "VERIFY_PRICE_TYPEHASH",
      "outputs": [
        {
          "internalType": "bytes32",
          "name": "",
          "type": "bytes32"
        }
      ],
      "stateMutability": "view",
      "type": "function",
      "constant": true
    },
    {
      "inputs": [
        {
          "internalType": "uint256",
          "name": "",
          "type": "uint256"
        }
      ],
      "name": "isOnSale",
      "outputs": [
        {
          "internalType": "bool",
          "name": "",
          "type": "bool"
        }
      ],
      "stateMutability": "view",
      "type": "function",
      "constant": true
    },
    {
      "inputs": [],
      "name": "memeOfTheDay",
      "outputs": [
        {
          "internalType": "contract MemeOfTheDayV3Pause",
          "name": "",
          "type": "address"
        }
      ],
      "stateMutability": "view",
      "type": "function",
      "constant": true
    },
    {
      "inputs": [],
      "name": "memeOfTheDayTreasury",
      "outputs": [
        {
          "internalType": "contract MOTDTreasuryV3Pause",
          "name": "",
          "type": "address"
        }
      ],
      "stateMutability": "view",
      "type": "function",
      "constant": true
    },
    {
      "inputs": [],
      "name": "owner",
      "outputs": [
        {
          "internalType": "address",
          "name": "",
          "type": "address"
        }
      ],
      "stateMutability": "view",
      "type": "function",
      "constant": true
    },
    {
      "inputs": [],
      "name": "paused",
      "outputs": [
        {
          "internalType": "bool",
          "name": "",
          "type": "bool"
        }
      ],
      "stateMutability": "view",
      "type": "function",
      "constant": true
    },
    {
      "inputs": [],
      "name": "renounceOwnership",
      "outputs": [],
      "stateMutability": "nonpayable",
      "type": "function"
    },
    {
      "inputs": [
        {
          "internalType": "address",
          "name": "newOwner",
          "type": "address"
        }
      ],
      "name": "transferOwnership",
      "outputs": [],
      "stateMutability": "nonpayable",
      "type": "function"
    },
    {
      "inputs": [
        {
          "internalType": "address",
          "name": "memeOfTheDayAddress",
          "type": "address"
        },
        {
          "internalType": "address payable",
          "name": "motdTreasuryAddress",
          "type": "address"
        },
        {
          "internalType": "address",
          "name": "memeOfTheDaySaleParametersProviderAddress",
          "type": "address"
        },
        {
          "internalType": "string",
          "name": "version",
          "type": "string"
        }
      ],
      "name": "initialize",
      "outputs": [],
      "stateMutability": "nonpayable",
      "type": "function"
    },
    {
      "inputs": [
        {
          "internalType": "uint256",
          "name": "tokenId",
          "type": "uint256"
        }
      ],
      "name": "putOnSale",
      "outputs": [],
      "stateMutability": "nonpayable",
      "type": "function"
    },
    {
      "inputs": [
        {
          "internalType": "uint256",
          "name": "tokenId",
          "type": "uint256"
        }
      ],
      "name": "removeFromSale",
      "outputs": [],
      "stateMutability": "nonpayable",
      "type": "function"
    },
    {
      "inputs": [
        {
          "internalType": "uint256",
          "name": "tokenId",
          "type": "uint256"
        },
        {
          "internalType": "uint256",
          "name": "price",
          "type": "uint256"
        },
        {
          "internalType": "address payable[]",
          "name": "voters",
          "type": "address[]"
        },
        {
          "internalType": "uint256[]",
          "name": "votes",
          "type": "uint256[]"
        },
        {
          "internalType": "bool",
          "name": "payCreator",
          "type": "bool"
        },
        {
          "internalType": "uint8",
          "name": "v",
          "type": "uint8"
        },
        {
          "internalType": "bytes32",
          "name": "r",
          "type": "bytes32"
        },
        {
          "internalType": "bytes32",
          "name": "s",
          "type": "bytes32"
        }
      ],
      "name": "buy",
      "outputs": [],
      "stateMutability": "payable",
      "type": "function",
      "payable": true
    },
    {
      "inputs": [],
      "name": "pause",
      "outputs": [],
      "stateMutability": "nonpayable",
      "type": "function"
    },
    {
      "inputs": [],
      "name": "unpause",
      "outputs": [],
      "stateMutability": "nonpayable",
      "type": "function"
    }
  ],
  "bytecode": "0x608060405234801561001057600080fd5b50613aea806100206000396000f3fe6080604052600436106100e85760003560e01c80638456cb591161008a5780639dbcfd6f116100595780639dbcfd6f14610277578063e523bb42146102a0578063f0f2805f146102cb578063f2fde38b14610308576100e8565b80638456cb59146101df5780638a728dc4146101f65780638da5cb5b146102215780639d6e60e31461024c576100e8565b80633f4ba83a116100c65780633f4ba83a1461015d5780635c975abb1461017457806365e8e4f41461019f578063715018a6146101c8576100e8565b80630483877d146100ed5780631361a3b6146101095780633644e51514610132575b600080fd5b61010760048036038101906101029190612b70565b610331565b005b34801561011557600080fd5b50610130600480360381019061012b9190612b1e565b6105f5565b005b34801561013e57600080fd5b506101476107e4565b6040516101549190613315565b60405180910390f35b34801561016957600080fd5b506101726107ea565b005b34801561018057600080fd5b506101896108b7565b60405161019691906132fa565b60405180910390f35b3480156101ab57600080fd5b506101c660048036038101906101c19190612a7a565b6108ce565b005b3480156101d457600080fd5b506101dd610ac1565b005b3480156101eb57600080fd5b506101f4610bfe565b005b34801561020257600080fd5b5061020b610ccc565b60405161021891906133ff565b60405180910390f35b34801561022d57600080fd5b50610236610cf2565b6040516102439190613287565b60405180910390f35b34801561025857600080fd5b50610261610d1c565b60405161026e9190613315565b60405180910390f35b34801561028357600080fd5b5061029e60048036038101906102999190612b1e565b610d43565b005b3480156102ac57600080fd5b506102b5610f33565b6040516102c2919061341a565b60405180910390f35b3480156102d757600080fd5b506102f260048036038101906102ed9190612b1e565b610f59565b6040516102ff91906132fa565b60405180910390f35b34801561031457600080fd5b5061032f600480360381019061032a91906129ff565b610f79565b005b6103396108b7565b15610379576040517f08c379a0000000000000000000000000000000000000000000000000000000008152600401610370906134d7565b60405180910390fd5b600260985414156103bf576040517f08c379a00000000000000000000000000000000000000000000000000000000081526004016103b690613617565b60405180910390fd5b600260988190555060cd60008b815260200190815260200160002060009054906101000a900460ff16610427576040517f08c379a000000000000000000000000000000000000000000000000000000000815260040161041e90613557565b60405180910390fd5b60007f01b2ca8b9a0a07d70c188f51d5d3ea9d76d3a4722a62ba8b3b3f9bbe316ca84460001b8b8b60405160200161046193929190613383565b604051602081830303815290604052905060ca60009054906101000a900473ffffffffffffffffffffffffffffffffffffffff1673ffffffffffffffffffffffffffffffffffffffff16636352211e8c6040518263ffffffff1660e01b81526004016104cd9190613637565b60206040518083038186803b1580156104e557600080fd5b505afa1580156104f9573d6000803e3d6000fd5b505050506040513d601f19601f8201168201806040525081019061051d9190612a28565b73ffffffffffffffffffffffffffffffffffffffff1661054260005486868686611125565b73ffffffffffffffffffffffffffffffffffffffff16146040518060400160405280601b81526020017f4d656d6553616c653a20696e76616c6964207369676e61747572650000000000815250906105d0576040517f08c379a00000000000000000000000000000000000000000000000000000000081526004016105c79190613435565b60405180910390fd5b506105e08b8b8b8b8b8b8b611172565b50600160988190555050505050505050505050565b6105fd6108b7565b1561063d576040517f08c379a0000000000000000000000000000000000000000000000000000000008152600401610634906134d7565b60405180910390fd5b3373ffffffffffffffffffffffffffffffffffffffff1660ca60009054906101000a900473ffffffffffffffffffffffffffffffffffffffff1673ffffffffffffffffffffffffffffffffffffffff16636352211e836040518263ffffffff1660e01b81526004016106af9190613637565b60206040518083038186803b1580156106c757600080fd5b505afa1580156106db573d6000803e3d6000fd5b505050506040513d601f19601f820116820180604052508101906106ff9190612a28565b73ffffffffffffffffffffffffffffffffffffffff1614610755576040517f08c379a000000000000000000000000000000000000000000000000000000000815260040161074c90613577565b60405180910390fd5b60cd600082815260200190815260200160002060009054906101000a900460ff166107b5576040517f08c379a00000000000000000000000000000000000000000000000000000000081526004016107ac90613537565b60405180910390fd5b600060cd600083815260200190815260200160002060006101000a81548160ff02191690831515021790555050565b60005481565b6107f26108b7565b610831576040517f08c379a000000000000000000000000000000000000000000000000000000000815260040161082890613477565b60405180910390fd5b61083961194a565b73ffffffffffffffffffffffffffffffffffffffff16610857610cf2565b73ffffffffffffffffffffffffffffffffffffffff16146108ad576040517f08c379a00000000000000000000000000000000000000000000000000000000081526004016108a490613597565b60405180910390fd5b6108b5611952565b565b6000606660009054906101000a900460ff16905090565b60018054906101000a900460ff16806108f45750600160009054906101000a900460ff16155b610933576040517f08c379a000000000000000000000000000000000000000000000000000000000815260040161092a90613517565b60405180910390fd5b600060018054906101000a900460ff1615905080156109815760018060016101000a81548160ff02191690831515021790555060018060006101000a81548160ff0219169083151502179055505b6109896119f4565b610991611adb565b8460ca60006101000a81548173ffffffffffffffffffffffffffffffffffffffff021916908373ffffffffffffffffffffffffffffffffffffffff1602179055508360cb60006101000a81548173ffffffffffffffffffffffffffffffffffffffff021916908373ffffffffffffffffffffffffffffffffffffffff1602179055508260cc60006101000a81548173ffffffffffffffffffffffffffffffffffffffff021916908373ffffffffffffffffffffffffffffffffffffffff160217905550610a936040518060400160405280600881526020017f4d656d6553616c6500000000000000000000000000000000000000000000000081525083611bc2565b6000819055508015610aba5760006001806101000a81548160ff0219169083151502179055505b5050505050565b610ac961194a565b73ffffffffffffffffffffffffffffffffffffffff16610ae7610cf2565b73ffffffffffffffffffffffffffffffffffffffff1614610b3d576040517f08c379a0000000000000000000000000000000000000000000000000000000008152600401610b3490613597565b60405180910390fd5b600073ffffffffffffffffffffffffffffffffffffffff16603460009054906101000a900473ffffffffffffffffffffffffffffffffffffffff1673ffffffffffffffffffffffffffffffffffffffff167f8be0079c531659141344cd1fd0a4f28419497f9722a3daafe3b4186f6b6457e060405160405180910390a36000603460006101000a81548173ffffffffffffffffffffffffffffffffffffffff021916908373ffffffffffffffffffffffffffffffffffffffff160217905550565b610c066108b7565b15610c46576040517f08c379a0000000000000000000000000000000000000000000000000000000008152600401610c3d906134d7565b60405180910390fd5b610c4e61194a565b73ffffffffffffffffffffffffffffffffffffffff16610c6c610cf2565b73ffffffffffffffffffffffffffffffffffffffff1614610cc2576040517f08c379a0000000000000000000000000000000000000000000000000000000008152600401610cb990613597565b60405180910390fd5b610cca611c34565b565b60cb60009054906101000a900473ffffffffffffffffffffffffffffffffffffffff1681565b6000603460009054906101000a900473ffffffffffffffffffffffffffffffffffffffff16905090565b7f01b2ca8b9a0a07d70c188f51d5d3ea9d76d3a4722a62ba8b3b3f9bbe316ca84460001b81565b610d4b6108b7565b15610d8b576040517f08c379a0000000000000000000000000000000000000000000000000000000008152600401610d82906134d7565b60405180910390fd5b3373ffffffffffffffffffffffffffffffffffffffff1660ca60009054906101000a900473ffffffffffffffffffffffffffffffffffffffff1673ffffffffffffffffffffffffffffffffffffffff16636352211e836040518263ffffffff1660e01b8152600401610dfd9190613637565b60206040518083038186803b158015610e1557600080fd5b505afa158015610e29573d6000803e3d6000fd5b505050506040513d601f19601f82011682018060405250810190610e4d9190612a28565b73ffffffffffffffffffffffffffffffffffffffff1614610ea3576040517f08c379a0000000000000000000000000000000000000000000000000000000008152600401610e9a90613457565b60405180910390fd5b60cd600082815260200190815260200160002060009054906101000a900460ff1615610f04576040517f08c379a0000000000000000000000000000000000000000000000000000000008152600401610efb906135b7565b60405180910390fd5b600160cd600083815260200190815260200160002060006101000a81548160ff02191690831515021790555050565b60ca60009054906101000a900473ffffffffffffffffffffffffffffffffffffffff1681565b60cd6020528060005260406000206000915054906101000a900460ff1681565b610f8161194a565b73ffffffffffffffffffffffffffffffffffffffff16610f9f610cf2565b73ffffffffffffffffffffffffffffffffffffffff1614610ff5576040517f08c379a0000000000000000000000000000000000000000000000000000000008152600401610fec90613597565b60405180910390fd5b600073ffffffffffffffffffffffffffffffffffffffff168173ffffffffffffffffffffffffffffffffffffffff161415611065576040517f08c379a000000000000000000000000000000000000000000000000000000000815260040161105c906134b7565b60405180910390fd5b8073ffffffffffffffffffffffffffffffffffffffff16603460009054906101000a900473ffffffffffffffffffffffffffffffffffffffff1673ffffffffffffffffffffffffffffffffffffffff167f8be0079c531659141344cd1fd0a4f28419497f9722a3daafe3b4186f6b6457e060405160405180910390a380603460006101000a81548173ffffffffffffffffffffffffffffffffffffffff021916908373ffffffffffffffffffffffffffffffffffffffff16021790555050565b60008086838051906020012060405160200161114292919061323b565b60405160208183030381529060405280519060200120905061116681878787611cd7565b91505095945050505050565b6000806000806111838a8c87611e66565b93509350935093507f2aad9e33ce58271cb1401a4211b102aad5eed0b41fcd4221b3b8f59775833714846040516111ba9190613637565b60405180910390a17fce38999dded47da0afaf5ed4186a2b50ab40367c7b0abc2ba7e2ee3db0d1a281836040516111f19190613637565b60405180910390a17f6f9983488bd1500c372d1f10befe9e7790d764b18c848cfa10872f4e248ded92826040516112289190613637565b60405180910390a17fd0d39a845ce9a85c506556420bacf3313b17c54cb854655b4c3b5284ffe436528160405161125f9190613637565b60405180910390a16000805b888890508110156112d6578888828181106112af577f4e487b7100000000000000000000000000000000000000000000000000000000600052603260045260246000fd5b90506020020135826112c191906136f6565b915080806112ce90613922565b91505061126b565b5060005b8a8a905081101561144d576000828a8a84818110611321577f4e487b7100000000000000000000000000000000000000000000000000000000600052603260045260246000fd5b90506020020135611332919061374c565b8761133d919061377d565b905060008c8c8481811061137a577f4e487b7100000000000000000000000000000000000000000000000000000000600052603260045260246000fd5b905060200201602081019061138f9190612a51565b73ffffffffffffffffffffffffffffffffffffffff16826040516113b290613272565b60006040518083038185875af1925050503d80600081146113ef576040519150601f19603f3d011682016040523d82523d6000602084013e6113f4565b606091505b5050905080611438576040517f08c379a000000000000000000000000000000000000000000000000000000000815260040161142f906135d7565b60405180910390fd5b5050808061144590613922565b9150506112da565b5085156115ac57600060ca60009054906101000a900473ffffffffffffffffffffffffffffffffffffffff1673ffffffffffffffffffffffffffffffffffffffff1663589a17438e6040518263ffffffff1660e01b81526004016114b19190613637565b60206040518083038186803b1580156114c957600080fd5b505afa1580156114dd573d6000803e3d6000fd5b505050506040513d601f19601f820116820180604052508101906115019190612a28565b73ffffffffffffffffffffffffffffffffffffffff168560405161152490613272565b60006040518083038185875af1925050503d8060008114611561576040519150601f19603f3d011682016040523d82523d6000602084013e611566565b606091505b50509050806115aa576040517f08c379a00000000000000000000000000000000000000000000000000000000081526004016115a1906135d7565b60405180910390fd5b505b600060cb60009054906101000a900473ffffffffffffffffffffffffffffffffffffffff1673ffffffffffffffffffffffffffffffffffffffff16846040516115f490613272565b60006040518083038185875af1925050503d8060008114611631576040519150601f19603f3d011682016040523d82523d6000602084013e611636565b606091505b505090508061167a576040517f08c379a0000000000000000000000000000000000000000000000000000000008152600401611671906135d7565b60405180910390fd5b600060ca60009054906101000a900473ffffffffffffffffffffffffffffffffffffffff1673ffffffffffffffffffffffffffffffffffffffff16636352211e8f6040518263ffffffff1660e01b81526004016116d79190613637565b60206040518083038186803b1580156116ef57600080fd5b505afa158015611703573d6000803e3d6000fd5b505050506040513d601f19601f820116820180604052508101906117279190612a28565b73ffffffffffffffffffffffffffffffffffffffff168460405161174a90613272565b60006040518083038185875af1925050503d8060008114611787576040519150601f19603f3d011682016040523d82523d6000602084013e61178c565b606091505b50509050806117d0576040517f08c379a00000000000000000000000000000000000000000000000000000000081526004016117c7906135d7565b60405180910390fd5b505060ca60009054906101000a900473ffffffffffffffffffffffffffffffffffffffff1673ffffffffffffffffffffffffffffffffffffffff1663f242432a60ca60009054906101000a900473ffffffffffffffffffffffffffffffffffffffff1673ffffffffffffffffffffffffffffffffffffffff16636352211e8f6040518263ffffffff1660e01b815260040161186b9190613637565b60206040518083038186803b15801561188357600080fd5b505afa158015611897573d6000803e3d6000fd5b505050506040513d601f19601f820116820180604052508101906118bb9190612a28565b338f60016040518563ffffffff1660e01b81526004016118de94939291906132a2565b600060405180830381600087803b1580156118f857600080fd5b505af115801561190c573d6000803e3d6000fd5b50505050600060cd60008e815260200190815260200160002060006101000a81548160ff021916908315150217905550505050505050505050505050565b600033905090565b61195a6108b7565b611999576040517f08c379a000000000000000000000000000000000000000000000000000000000815260040161199090613477565b60405180910390fd5b6000606660006101000a81548160ff0219169083151502179055507f5db9ee0a495bf2e6ff9c91a7834c1ba4fdd244a5e8aa4e537bd38aeae4b073aa6119dd61194a565b6040516119ea9190613287565b60405180910390a1565b60018054906101000a900460ff1680611a1a5750600160009054906101000a900460ff16155b611a59576040517f08c379a0000000000000000000000000000000000000000000000000000000008152600401611a5090613517565b60405180910390fd5b600060018054906101000a900460ff161590508015611aa75760018060016101000a81548160ff02191690831515021790555060018060006101000a81548160ff0219169083151502179055505b611aaf611ee0565b611ab7611fb7565b8015611ad85760006001806101000a81548160ff0219169083151502179055505b50565b60018054906101000a900460ff1680611b015750600160009054906101000a900460ff16155b611b40576040517f08c379a0000000000000000000000000000000000000000000000000000000008152600401611b3790613517565b60405180910390fd5b600060018054906101000a900460ff161590508015611b8e5760018060016101000a81548160ff02191690831515021790555060018060006101000a81548160ff0219169083151502179055505b611b96611ee0565b611b9e612137565b8015611bbf5760006001806101000a81548160ff0219169083151502179055505b50565b6000804690507f8b73c3c69bb8fe3d512ecc4cf759cc79239f7b179b0ffacaa9a75d522b39400f60001b848051906020012084805190602001208360001b30604051602001611c15959493929190613330565b6040516020818303038152906040528051906020012091505092915050565b611c3c6108b7565b15611c7c576040517f08c379a0000000000000000000000000000000000000000000000000000000008152600401611c73906134d7565b60405180910390fd5b6001606660006101000a81548160ff0219169083151502179055507f62e78cea01bee320cd4e420270b5ea74000d11b0c9f74754ebdbfc544b05a258611cc061194a565b604051611ccd9190613287565b60405180910390a1565b60007f7fffffffffffffffffffffffffffffff5d576e7357a4501ddfe92f46681b20a08260001c1115611d3f576040517f08c379a0000000000000000000000000000000000000000000000000000000008152600401611d36906135f7565b60405180910390fd5b601b8460ff1614158015611d575750601c8460ff1614155b15611d97576040517f08c379a0000000000000000000000000000000000000000000000000000000008152600401611d8e90613497565b60405180910390fd5b600060018686868660405160008152602001604052604051611dbc94939291906133ba565b6020604051602081039080840390855afa158015611dde573d6000803e3d6000fd5b505050602060405103519050600073ffffffffffffffffffffffffffffffffffffffff168173ffffffffffffffffffffffffffffffffffffffff161415611e5a576040517f08c379a0000000000000000000000000000000000000000000000000000000008152600401611e51906134f7565b60405180910390fd5b80915050949350505050565b6000806000806000611e7788612229565b90506000611e86898989612394565b90506000611e938a6126ae565b905080838b611ea291906136f6565b611eac91906136f6565b341015611eb857600080fd5b6000611ec5848484612819565b90508383838397509750975097505050505093509350935093565b60018054906101000a900460ff1680611f065750600160009054906101000a900460ff16155b611f45576040517f08c379a0000000000000000000000000000000000000000000000000000000008152600401611f3c90613517565b60405180910390fd5b600060018054906101000a900460ff161590508015611f935760018060016101000a81548160ff02191690831515021790555060018060006101000a81548160ff0219169083151502179055505b8015611fb45760006001806101000a81548160ff0219169083151502179055505b50565b60018054906101000a900460ff1680611fdd5750600160009054906101000a900460ff16155b61201c576040517f08c379a000000000000000000000000000000000000000000000000000000000815260040161201390613517565b60405180910390fd5b600060018054906101000a900460ff16159050801561206a5760018060016101000a81548160ff02191690831515021790555060018060006101000a81548160ff0219169083151502179055505b600061207461194a565b905080603460006101000a81548173ffffffffffffffffffffffffffffffffffffffff021916908373ffffffffffffffffffffffffffffffffffffffff1602179055508073ffffffffffffffffffffffffffffffffffffffff16600073ffffffffffffffffffffffffffffffffffffffff167f8be0079c531659141344cd1fd0a4f28419497f9722a3daafe3b4186f6b6457e060405160405180910390a35080156121345760006001806101000a81548160ff0219169083151502179055505b50565b60018054906101000a900460ff168061215d5750600160009054906101000a900460ff16155b61219c576040517f08c379a000000000000000000000000000000000000000000000000000000000815260040161219390613517565b60405180910390fd5b600060018054906101000a900460ff1615905080156121ea5760018060016101000a81548160ff02191690831515021790555060018060006101000a81548160ff0219169083151502179055505b6000606660006101000a81548160ff02191690831515021790555080156122265760006001806101000a81548160ff0219169083151502179055505b50565b600060cc60009054906101000a900473ffffffffffffffffffffffffffffffffffffffff1673ffffffffffffffffffffffffffffffffffffffff16632a4a9dd160cc60009054906101000a900473ffffffffffffffffffffffffffffffffffffffff1673ffffffffffffffffffffffffffffffffffffffff16633e2dce1e6040518163ffffffff1660e01b815260040160206040518083038186803b1580156122d157600080fd5b505afa1580156122e5573d6000803e3d6000fd5b505050506040513d601f19601f820116820180604052508101906123099190612b47565b6040518263ffffffff1660e01b81526004016123259190613637565b60206040518083038186803b15801561233d57600080fd5b505afa158015612351573d6000803e3d6000fd5b505050506040513d601f19601f820116820180604052508101906123759190612b47565b6103e883612383919061374c565b61238d919061377d565b9050919050565b6000806000905082156126a3577fffffffffffffffffffffffffffffffffffffffffffffffffffffffffffffffff60ca60009054906101000a900473ffffffffffffffffffffffffffffffffffffffff1673ffffffffffffffffffffffffffffffffffffffff166378c3829b866040518263ffffffff1660e01b815260040161241d9190613637565b60206040518083038186803b15801561243557600080fd5b505afa158015612449573d6000803e3d6000fd5b505050506040513d601f19601f8201168201806040525081019061246d9190612af5565b131561253d5760ca60009054906101000a900473ffffffffffffffffffffffffffffffffffffffff1673ffffffffffffffffffffffffffffffffffffffff166378c3829b856040518263ffffffff1660e01b81526004016124ce9190613637565b60206040518083038186803b1580156124e657600080fd5b505afa1580156124fa573d6000803e3d6000fd5b505050506040513d601f19601f8201168201806040525081019061251e9190612af5565b6103e88661252c919061374c565b612536919061377d565b90506126a2565b60cc60009054906101000a900473ffffffffffffffffffffffffffffffffffffffff1673ffffffffffffffffffffffffffffffffffffffff16632a4a9dd160cc60009054906101000a900473ffffffffffffffffffffffffffffffffffffffff1673ffffffffffffffffffffffffffffffffffffffff1663443139f16040518163ffffffff1660e01b815260040160206040518083038186803b1580156125e357600080fd5b505afa1580156125f7573d6000803e3d6000fd5b505050506040513d601f19601f8201168201806040525081019061261b9190612b47565b6040518263ffffffff1660e01b81526004016126379190613637565b60206040518083038186803b15801561264f57600080fd5b505afa158015612663573d6000803e3d6000fd5b505050506040513d601f19601f820116820180604052508101906126879190612b47565b6103e886612695919061374c565b61269f919061377d565b90505b5b809150509392505050565b600060cc60009054906101000a900473ffffffffffffffffffffffffffffffffffffffff1673ffffffffffffffffffffffffffffffffffffffff16632a4a9dd160cc60009054906101000a900473ffffffffffffffffffffffffffffffffffffffff1673ffffffffffffffffffffffffffffffffffffffff16632648cd806040518163ffffffff1660e01b815260040160206040518083038186803b15801561275657600080fd5b505afa15801561276a573d6000803e3d6000fd5b505050506040513d601f19601f8201168201806040525081019061278e9190612b47565b6040518263ffffffff1660e01b81526004016127aa9190613637565b60206040518083038186803b1580156127c257600080fd5b505afa1580156127d6573d6000803e3d6000fd5b505050506040513d601f19601f820116820180604052508101906127fa9190612b47565b6103e883612808919061374c565b612812919061377d565b9050919050565b60008183853461282991906137d7565b61283391906137d7565b61283d91906137d7565b90509392505050565b600061285961285484613683565b613652565b90508281526020810184848401111561287157600080fd5b61287c8482856138e0565b509392505050565b60008135905061289381613a13565b92915050565b6000815190506128a881613a13565b92915050565b6000813590506128bd81613a2a565b92915050565b60008083601f8401126128d557600080fd5b8235905067ffffffffffffffff8111156128ee57600080fd5b60208301915083602082028301111561290657600080fd5b9250929050565b60008083601f84011261291f57600080fd5b8235905067ffffffffffffffff81111561293857600080fd5b60208301915083602082028301111561295057600080fd5b9250929050565b60008135905061296681613a41565b92915050565b60008135905061297b81613a58565b92915050565b60008151905061299081613a6f565b92915050565b600082601f8301126129a757600080fd5b81356129b7848260208601612846565b91505092915050565b6000813590506129cf81613a86565b92915050565b6000815190506129e481613a86565b92915050565b6000813590506129f981613a9d565b92915050565b600060208284031215612a1157600080fd5b6000612a1f84828501612884565b91505092915050565b600060208284031215612a3a57600080fd5b6000612a4884828501612899565b91505092915050565b600060208284031215612a6357600080fd5b6000612a71848285016128ae565b91505092915050565b60008060008060808587031215612a9057600080fd5b6000612a9e87828801612884565b9450506020612aaf878288016128ae565b9350506040612ac087828801612884565b925050606085013567ffffffffffffffff811115612add57600080fd5b612ae987828801612996565b91505092959194509250565b600060208284031215612b0757600080fd5b6000612b1584828501612981565b91505092915050565b600060208284031215612b3057600080fd5b6000612b3e848285016129c0565b91505092915050565b600060208284031215612b5957600080fd5b6000612b67848285016129d5565b91505092915050565b6000806000806000806000806000806101008b8d031215612b9057600080fd5b6000612b9e8d828e016129c0565b9a50506020612baf8d828e016129c0565b99505060408b013567ffffffffffffffff811115612bcc57600080fd5b612bd88d828e016128c3565b985098505060608b013567ffffffffffffffff811115612bf757600080fd5b612c038d828e0161290d565b96509650506080612c168d828e01612957565b94505060a0612c278d828e016129ea565b93505060c0612c388d828e0161296c565b92505060e0612c498d828e0161296c565b9150509295989b9194979a5092959850565b612c648161380b565b82525050565b612c738161382f565b82525050565b612c828161383b565b82525050565b612c99612c948261383b565b61396b565b82525050565b612ca881613886565b82525050565b612cb7816138aa565b82525050565b612cc6816138ce565b82525050565b6000612cd7826136b3565b612ce181856136da565b9350612cf18185602086016138ef565b612cfa81613a02565b840191505092915050565b6000612d126023836136da565b91507f4f6e6c79206f776e6572206f6620746f6b656e2063616e20707574206f6e207360008301527f616c6500000000000000000000000000000000000000000000000000000000006020830152604082019050919050565b6000612d786014836136da565b91507f5061757361626c653a206e6f74207061757365640000000000000000000000006000830152602082019050919050565b6000612db86026836136da565b91507f45435265636f7665723a20696e76616c6964207369676e61747572652027762760008301527f2076616c756500000000000000000000000000000000000000000000000000006020830152604082019050919050565b6000612e1e6026836136da565b91507f4f776e61626c653a206e6577206f776e657220697320746865207a65726f206160008301527f64647265737300000000000000000000000000000000000000000000000000006020830152604082019050919050565b6000612e846002836136eb565b91507f19010000000000000000000000000000000000000000000000000000000000006000830152600282019050919050565b6000612ec46010836136da565b91507f5061757361626c653a20706175736564000000000000000000000000000000006000830152602082019050919050565b6000612f04601c836136da565b91507f45435265636f7665723a20696e76616c6964207369676e6174757265000000006000830152602082019050919050565b6000612f44602e836136da565b91507f496e697469616c697a61626c653a20636f6e747261637420697320616c72656160008301527f647920696e697469616c697a65640000000000000000000000000000000000006020830152604082019050919050565b6000612faa601d836136da565b91507f546f6b656e206973206e6f74206f6e2073616c6520616c7265616479210000006000830152602082019050919050565b6000612fea601a836136da565b91507f476976656e20746f6b656e206973206e6f74206f6e2073616c650000000000006000830152602082019050919050565b600061302a6032836136da565b91507f4f6e6c79206f776e6572206f6620746f6b656e2063616e2072656d6f7665207460008301527f686520746f6b656e2066726f6d2073616c6500000000000000000000000000006020830152604082019050919050565b60006130906020836136da565b91507f4f776e61626c653a2063616c6c6572206973206e6f7420746865206f776e65726000830152602082019050919050565b60006130d06000836136be565b9150600082019050919050565b60006130ea6000836136cf565b9150600082019050919050565b60006131046019836136da565b91507f546f6b656e20697320616c7265616479206f6e2073616c6521000000000000006000830152602082019050919050565b60006131446010836136da565b91507f5472616e73666572206661696c65642e000000000000000000000000000000006000830152602082019050919050565b60006131846026836136da565b91507f45435265636f7665723a20696e76616c6964207369676e61747572652027732760008301527f2076616c756500000000000000000000000000000000000000000000000000006020830152604082019050919050565b60006131ea601f836136da565b91507f5265656e7472616e637947756172643a207265656e7472616e742063616c6c006000830152602082019050919050565b6132268161386f565b82525050565b61323581613879565b82525050565b600061324682612e77565b91506132528285612c88565b6020820191506132628284612c88565b6020820191508190509392505050565b600061327d826130dd565b9150819050919050565b600060208201905061329c6000830184612c5b565b92915050565b600060a0820190506132b76000830187612c5b565b6132c46020830186612c5b565b6132d1604083018561321d565b6132de6060830184612cbd565b81810360808301526132ef816130c3565b905095945050505050565b600060208201905061330f6000830184612c6a565b92915050565b600060208201905061332a6000830184612c79565b92915050565b600060a0820190506133456000830188612c79565b6133526020830187612c79565b61335f6040830186612c79565b61336c6060830185612c79565b6133796080830184612c5b565b9695505050505050565b60006060820190506133986000830186612c79565b6133a5602083018561321d565b6133b2604083018461321d565b949350505050565b60006080820190506133cf6000830187612c79565b6133dc602083018661322c565b6133e96040830185612c79565b6133f66060830184612c79565b95945050505050565b60006020820190506134146000830184612c9f565b92915050565b600060208201905061342f6000830184612cae565b92915050565b6000602082019050818103600083015261344f8184612ccc565b905092915050565b6000602082019050818103600083015261347081612d05565b9050919050565b6000602082019050818103600083015261349081612d6b565b9050919050565b600060208201905081810360008301526134b081612dab565b9050919050565b600060208201905081810360008301526134d081612e11565b9050919050565b600060208201905081810360008301526134f081612eb7565b9050919050565b6000602082019050818103600083015261351081612ef7565b9050919050565b6000602082019050818103600083015261353081612f37565b9050919050565b6000602082019050818103600083015261355081612f9d565b9050919050565b6000602082019050818103600083015261357081612fdd565b9050919050565b600060208201905081810360008301526135908161301d565b9050919050565b600060208201905081810360008301526135b081613083565b9050919050565b600060208201905081810360008301526135d0816130f7565b9050919050565b600060208201905081810360008301526135f081613137565b9050919050565b6000602082019050818103600083015261361081613177565b9050919050565b60006020820190508181036000830152613630816131dd565b9050919050565b600060208201905061364c600083018461321d565b92915050565b6000604051905081810181811067ffffffffffffffff82111715613679576136786139d3565b5b8060405250919050565b600067ffffffffffffffff82111561369e5761369d6139d3565b5b601f19601f8301169050602081019050919050565b600081519050919050565b600082825260208201905092915050565b600081905092915050565b600082825260208201905092915050565b600081905092915050565b60006137018261386f565b915061370c8361386f565b9250827fffffffffffffffffffffffffffffffffffffffffffffffffffffffffffffffff0382111561374157613740613975565b5b828201905092915050565b60006137578261386f565b91506137628361386f565b925082613772576137716139a4565b5b828204905092915050565b60006137888261386f565b91506137938361386f565b9250817fffffffffffffffffffffffffffffffffffffffffffffffffffffffffffffffff04831182151516156137cc576137cb613975565b5b828202905092915050565b60006137e28261386f565b91506137ed8361386f565b925082821015613800576137ff613975565b5b828203905092915050565b60006138168261384f565b9050919050565b60006138288261384f565b9050919050565b60008115159050919050565b6000819050919050565b6000819050919050565b600073ffffffffffffffffffffffffffffffffffffffff82169050919050565b6000819050919050565b600060ff82169050919050565b600061389182613898565b9050919050565b60006138a38261384f565b9050919050565b60006138b5826138bc565b9050919050565b60006138c78261384f565b9050919050565b60006138d98261386f565b9050919050565b82818337600083830152505050565b60005b8381101561390d5780820151818401526020810190506138f2565b8381111561391c576000848401525b50505050565b600061392d8261386f565b91507fffffffffffffffffffffffffffffffffffffffffffffffffffffffffffffffff8214156139605761395f613975565b5b600182019050919050565b6000819050919050565b7f4e487b7100000000000000000000000000000000000000000000000000000000600052601160045260246000fd5b7f4e487b7100000000000000000000000000000000000000000000000000000000600052601260045260246000fd5b7f4e487b7100000000000000000000000000000000000000000000000000000000600052604160045260246000fd5b6000601f19601f8301169050919050565b613a1c8161380b565b8114613a2757600080fd5b50565b613a338161381d565b8114613a3e57600080fd5b50565b613a4a8161382f565b8114613a5557600080fd5b50565b613a618161383b565b8114613a6c57600080fd5b50565b613a7881613845565b8114613a8357600080fd5b50565b613a8f8161386f565b8114613a9a57600080fd5b50565b613aa681613879565b8114613ab157600080fd5b5056fea26469706673582212208c74fadbf02a98e73479f81e27065821a75f31ca8cf57c80eb9a029abaeb31cb64736f6c63430008000033",
  "immutableReferences": {},
  "source": "// SPDX-License-Identifier: MIT\r\npragma solidity ^0.8.0;\r\n\r\n//Removed because sol 0.8.0 already checks for over and underflow\r\n//import \"@openzeppelin/contracts/math/SafeMath.sol\";\r\n\r\nimport {EIP712Domain} from \"./EIP712Domain.sol\";\r\nimport {EIP712} from \"./EIP712.sol\";\r\nimport \"../../../node_modules/@openzeppelin/contracts-upgradeable/proxy/utils/Initializable.sol\";\r\nimport \"../../../node_modules/@openzeppelin/contracts-upgradeable/security/PausableUpgradeable.sol\";\r\nimport \"../../../node_modules/@openzeppelin/contracts-upgradeable/access/OwnableUpgradeable.sol\";\r\nimport \"../../../node_modules/@openzeppelin/contracts-upgradeable/security/ReentrancyGuardUpgradeable.sol\";\r\n\r\n//IN CASE OF UPGRADE THESE IMPORTS NEED TO BE UPDATED AS WELL ! ! !\r\nimport \"./MemeOfTheDayV3Pause.sol\";\r\nimport \"./MOTDTreasuryV3Pause.sol\";\r\nimport \"./MOTDSaleParametersProviderV3Pause.sol\";\r\n\r\n/**\r\n * @title MemeSale\r\n * @notice contract that handles sales of memes\r\n * @author MemeOfTheDay\r\n */\r\ncontract MemeSaleV3PauseReentrancy is EIP712Domain, Initializable, OwnableUpgradeable, PausableUpgradeable, ReentrancyGuardUpgradeable{\r\n\r\n    //Removed because sol 0.8.0 natively checks for over and underflow\r\n    //using SafeMath for uint256;\r\n\r\n    string internal constant VERIFYING_CONTRACT_NAME = \"MemeSale\";\r\n\r\n    // keccak256(VerifyPrice(uint256 tokenId,uint256 price)\")\r\n    bytes32\r\n        public constant VERIFY_PRICE_TYPEHASH = 0x01b2ca8b9a0a07d70c188f51d5d3ea9d76d3a4722a62ba8b3b3f9bbe316ca844;\r\n\r\n    string\r\n        internal constant _INVALID_SIGNATURE_ERROR = \"MemeSale: invalid signature\";\r\n\r\n    MemeOfTheDayV3Pause public memeOfTheDay;\r\n    MOTDTreasuryV3Pause public memeOfTheDayTreasury;\r\n    MOTDSaleParametersProviderV3Pause memeOfTheDaySaleParametersProvider;\r\n\r\n    mapping(uint256 => bool) public isOnSale;\r\n\r\n    event VotersFee(uint256 votersFee);\r\n    event CreatorFee(uint256 creatorFee);\r\n    event PlatformFee(uint256 platformFee);\r\n    event OwnerFee(uint256 ownerFee);\r\n\r\n    //Due to UPGRADEABILITY, Initializer is used! NO CONSTRUCTOR Can be used anymore!\r\n    function initialize(\r\n        address memeOfTheDayAddress,\r\n        address payable motdTreasuryAddress,\r\n        address memeOfTheDaySaleParametersProviderAddress,\r\n        string memory version\r\n        ) public initializer {\r\n\r\n        __Ownable_init();\r\n        __Pausable_init();\r\n\r\n        memeOfTheDay = MemeOfTheDayV3Pause(memeOfTheDayAddress);\r\n\r\n        memeOfTheDayTreasury = MOTDTreasuryV3Pause(motdTreasuryAddress);\r\n\r\n        memeOfTheDaySaleParametersProvider = MOTDSaleParametersProviderV3Pause(memeOfTheDaySaleParametersProviderAddress);\r\n        \r\n        DOMAIN_SEPARATOR = EIP712.makeDomainSeparator(\r\n            VERIFYING_CONTRACT_NAME,\r\n            version\r\n        );\r\n    }\r\n   \r\n\r\n    //REPLACED BY INITIALIZER DUE TO UPGRADEABLE DESIGN\r\n    // constructor(\r\n    //     address memeOfTheDayAddress,\r\n    //     address payable motdTreasuryAddress,\r\n    //     address memeOfTheDaySaleParametersProviderAddress,\r\n    //     string memory version\r\n    // ) public {\r\n    //     memeOfTheDay = MemeOfTheDay(memeOfTheDayAddress);\r\n    //     memeOfTheDayTreasury = MOTDTreasury(motdTreasuryAddress);\r\n    //     memeOfTheDaySaleParametersProvider = MOTDSaleParametersProvider(\r\n    //         memeOfTheDaySaleParametersProviderAddress\r\n    //     );\r\n\r\n    //     DOMAIN_SEPARATOR = EIP712.makeDomainSeparator(\r\n    //         VERIFYING_CONTRACT_NAME,\r\n    //         version\r\n    //     );\r\n    // }\r\n\r\n    /**\r\n     * @notice Puts on sale a token\r\n     * @param tokenId the id of the token to put to sale\r\n     */\r\n    function putOnSale(uint256 tokenId) external whenNotPaused {\r\n        require(\r\n            memeOfTheDay.ownerOf(tokenId) == msg.sender,\r\n            \"Only owner of token can put on sale\"\r\n        );\r\n        require(!isOnSale[tokenId], \"Token is already on sale!\");\r\n\r\n        isOnSale[tokenId] = true;\r\n    }\r\n\r\n    /**\r\n     * @notice Removes a token from sale \r\n     * @param tokenId the id of the token to remove from sale\r\n     */\r\n    function removeFromSale(uint256 tokenId) external whenNotPaused {\r\n        require(\r\n            memeOfTheDay.ownerOf(tokenId) == msg.sender,\r\n            \"Only owner of token can remove the token from sale\"\r\n        );\r\n        require(isOnSale[tokenId], \"Token is not on sale already!\");\r\n\r\n        isOnSale[tokenId] = false;\r\n    }\r\n\r\n    /**\r\n     * @notice Buys token\r\n     * @param tokenId       the id of the token to buy\r\n     * @param price         the price of the token on sale\r\n     * @param voters        array of voters on the meme\r\n     * @param votes         array of votes of the voters\r\n     * @param payCreator    defines if creator has to be paid or not\r\n     * @param v             v part of the seller's signature\r\n     * @param r             r part of the seller's signature\r\n     * @param s             s part of the seller's signature\r\n     */\r\n    function buy(\r\n        uint256 tokenId,\r\n        uint256 price,\r\n        address payable[] calldata voters,\r\n        uint256[] calldata votes,\r\n        bool payCreator,\r\n        uint8 v,\r\n        bytes32 r,\r\n        bytes32 s\r\n    ) external payable whenNotPaused nonReentrant{\r\n        require(isOnSale[tokenId], \"Given token is not on sale\");\r\n\r\n        bytes memory data = abi.encode(VERIFY_PRICE_TYPEHASH, tokenId, price);\r\n\r\n        require(\r\n            EIP712.recover(DOMAIN_SEPARATOR, v, r, s, data) ==\r\n                memeOfTheDay.ownerOf(tokenId),\r\n            _INVALID_SIGNATURE_ERROR\r\n        );\r\n\r\n        _buy(tokenId, price, voters, votes, payCreator);\r\n    }\r\n\r\n    function _buy(\r\n        uint256 tokenId,\r\n        uint256 price,\r\n        address payable[] calldata voters,\r\n        uint256[] calldata votes,\r\n        bool payCreator\r\n    ) internal {\r\n        (\r\n            uint256 votersFee,\r\n            uint256 creatorFee,\r\n            uint256 platformFee,\r\n            uint256 ownerFee\r\n        ) = _getFeesAmounts(price, tokenId, payCreator);\r\n\r\n        emit VotersFee(votersFee);\r\n        emit CreatorFee(creatorFee);\r\n        emit PlatformFee(platformFee);\r\n        emit OwnerFee(ownerFee);\r\n\r\n\r\n        //BLOCK SCOPING DUE TO STACK TOO DEEP ERROR !!!\r\n\r\n    //    { //BLOCK SCOPE 1 START\r\n\r\n            \r\n        uint256 totVotes = 0;\r\n        for (uint256 i = 0; i < votes.length; i++) {\r\n            totVotes += votes[i];\r\n        }\r\n\r\n        for (uint256 i = 0; i < voters.length; i++) {\r\n            uint256 voterFee = votersFee * (votes[i]/totVotes); //No more div or mul because SafeMath checks are native to sol 0.8.0\r\n            (bool success, ) = voters[i].call{value: voterFee}(\"\"); //use call{value: }(\"\") instead of Transfer since Istanbul fork! EIP 1884\r\n            require(success, \"Transfer failed.\");\r\n        }\r\n\r\n\r\n    //    }  //BLOCK SCOPE 1 END\r\n\r\n    //    {  //BLOCK SCOPE 2 START\r\n\r\n              if (payCreator) {\r\n           (bool success1, ) = memeOfTheDay.creatorOf(tokenId).call{value: creatorFee}(\"\");  //use call{value: }(\"\") instead of Transfer since Istanbul fork! EIP 1884\r\n           require(success1, \"Transfer failed.\");\r\n        }\r\n\r\n    //    }  //BLOCK SCOPE 2 END\r\n\r\n        {  //BLOCK SCOPE 3 Start\r\n\r\n        (bool success2, ) = address(memeOfTheDayTreasury).call{value: platformFee}(\"\"); //use call{value: }(\"\") instead of Transfer since Istanbul fork! EIP 1884\r\n         require(success2, \"Transfer failed.\");\r\n        (bool success3, ) = memeOfTheDay.ownerOf(tokenId).call{value: ownerFee}(\"\");  //use call{value: }(\"\") instead of Transfer since Istanbul fork! EIP 1884\r\n         require(success3, \"Transfer failed.\");\r\n\r\n        }  //BLOCK SCOPE 3 END\r\n\r\n        {  //BLOCK SCOPE 4 START\r\n\r\n        memeOfTheDay.safeTransferFrom(\r\n            memeOfTheDay.ownerOf(tokenId),\r\n            msg.sender,\r\n            tokenId,\r\n            1,\r\n            \"\"\r\n        );\r\n\r\n        isOnSale[tokenId] = false;\r\n\r\n        }  //BLOCK SCOPE 4 END\r\n\r\n        //BLOCK SCOPING END\r\n    }\r\n\r\n    function _getVotersFee(uint256 tokenPrice) internal view returns (uint256) {\r\n        return\r\n            tokenPrice / (1000) * (                                //No more div or mul because SafeMath checks are native since sol 0.8.0\r\n                memeOfTheDaySaleParametersProvider.parameters(\r\n                    memeOfTheDaySaleParametersProvider\r\n                        .VOTERS_FEE_PERCENT_INDEX()\r\n                )\r\n            );\r\n    }\r\n\r\n    function _getCreatorFee(\r\n        uint256 tokenPrice,\r\n        uint256 tokenId,\r\n        bool payCreator\r\n    ) internal view returns (uint256) {\r\n        uint256 creatorFee = 0;\r\n        if (payCreator) {\r\n            if (memeOfTheDay.creatorFee(tokenId) > -1) {\r\n                creatorFee = tokenPrice / (1000) * (            //No more div or mul becasue SafeMath checks are native to sol 0.8.0\r\n                    uint256(memeOfTheDay.creatorFee(tokenId))\r\n                );\r\n            } else {\r\n                creatorFee = tokenPrice / (1000) * (                //No more div or mul becasue SafeMath checks are native to sol 0.8.0\r\n                    memeOfTheDaySaleParametersProvider.parameters(\r\n                        memeOfTheDaySaleParametersProvider\r\n                            .DEFAULT_CREATOR_FEE_PERCENT_INDEX()\r\n                    )\r\n                );\r\n            }\r\n        }\r\n\r\n        return creatorFee;\r\n    }\r\n\r\n    function _getPlatformFee(uint256 tokenPrice)\r\n        internal\r\n        view\r\n        returns (uint256)\r\n    {\r\n        return\r\n            tokenPrice / (1000) * (                             //No more div or mul becasue SafeMath checks are native to sol 0.8.0\r\n                memeOfTheDaySaleParametersProvider.parameters(\r\n                    memeOfTheDaySaleParametersProvider\r\n                        .PLATFORM_FEE_PERCENT_INDEX()\r\n                )\r\n            );\r\n    }\r\n\r\n    function _getOwnerFee(\r\n        uint256 votersFee,\r\n        uint256 creatorFee,\r\n        uint256 platformFee\r\n    ) internal view returns (uint256) {\r\n\r\n        //economic model \"buyer pay fee\", buyer needs to send to contract\r\n        //token price including voters fee and platform fee\r\n        return msg.value - (votersFee) - (creatorFee) - (platformFee);    //No more sub, add, div or mul becasue SafeMath checks are native to sol 0.8.0\r\n    }\r\n\r\n    function _getFeesAmounts(\r\n        uint256 tokenPrice,\r\n        uint256 tokenId,\r\n        bool payCreator\r\n    )\r\n        internal\r\n        view\r\n        returns (\r\n            uint256,\r\n            uint256,\r\n            uint256,\r\n            uint256\r\n        )\r\n    {\r\n        uint256 votersFee = _getVotersFee(tokenPrice);\r\n        uint256 creatorFee = _getCreatorFee(tokenPrice, tokenId, payCreator);\r\n        uint256 platformFee = _getPlatformFee(tokenPrice);\r\n        //buyer pays fees economic model check\r\n        require(msg.value >= tokenPrice+votersFee+platformFee);\r\n        uint256 ownerFee = _getOwnerFee(\r\n            votersFee,\r\n            creatorFee,\r\n            platformFee\r\n        );\r\n\r\n        return (votersFee, creatorFee, platformFee, ownerFee);\r\n    }\r\n\r\n    //USED TO PAUSE THIS CONTRACT, ONLY POSSIBLE WHEN NOT PAUSED!\r\n    function pause() public whenNotPaused onlyOwner {\r\n        _pause();\r\n    }\r\n\r\n    //USED TO UNPAUSE THIS CONTRACT, ONLY POSSIBLE WHEN PAUSED!\r\n    function unpause() public whenPaused onlyOwner {\r\n        _unpause();\r\n    }\r\n}",
  "sourcePath": "C:/Users/sound/Desktop/MOTD/meme-repo-copy/src/contracts/src/MemeSaleV3PauseReentrancy.sol",
  "compiler": {
    "name": "solc",
    "version": "0.8.0+commit.c7dfd78e.Emscripten.clang"
  },
  "schemaVersion": "3.4.1",
  "updatedAt": "2021-05-08T07:28:09.914Z",
  "networkType": "ethereum",
  "devdoc": {
    "author": "MemeOfTheDay",
    "kind": "dev",
    "methods": {
      "buy(uint256,uint256,address[],uint256[],bool,uint8,bytes32,bytes32)": {
        "params": {
          "payCreator": "defines if creator has to be paid or not",
          "price": "the price of the token on sale",
          "r": "r part of the seller's signature",
          "s": "s part of the seller's signature",
          "tokenId": "the id of the token to buy",
          "v": "v part of the seller's signature",
          "voters": "array of voters on the meme",
          "votes": "array of votes of the voters"
        }
      },
      "owner()": {
        "details": "Returns the address of the current owner."
      },
      "paused()": {
        "details": "Returns true if the contract is paused, and false otherwise."
      },
      "putOnSale(uint256)": {
        "params": {
          "tokenId": "the id of the token to put to sale"
        }
      },
      "removeFromSale(uint256)": {
        "params": {
          "tokenId": "the id of the token to remove from sale"
        }
      },
      "renounceOwnership()": {
        "details": "Leaves the contract without owner. It will not be possible to call `onlyOwner` functions anymore. Can only be called by the current owner. NOTE: Renouncing ownership will leave the contract without an owner, thereby removing any functionality that is only available to the owner."
      },
      "transferOwnership(address)": {
        "details": "Transfers ownership of the contract to a new account (`newOwner`). Can only be called by the current owner."
      }
    },
    "title": "MemeSale",
    "version": 1
  },
  "userdoc": {
    "kind": "user",
    "methods": {
      "buy(uint256,uint256,address[],uint256[],bool,uint8,bytes32,bytes32)": {
        "notice": "Buys token"
      },
      "putOnSale(uint256)": {
        "notice": "Puts on sale a token"
      },
      "removeFromSale(uint256)": {
        "notice": "Removes a token from sale "
      }
    },
    "notice": "contract that handles sales of memes",
    "version": 1
  }
}