{
  "contractName": "MemeOfTheDayV3PauseReentrancy",
  "abi": [
    {
      "anonymous": false,
      "inputs": [
        {
          "indexed": true,
          "internalType": "address",
          "name": "account",
          "type": "address"
        },
        {
          "indexed": true,
          "internalType": "address",
          "name": "operator",
          "type": "address"
        },
        {
          "indexed": false,
          "internalType": "bool",
          "name": "approved",
          "type": "bool"
        }
      ],
      "name": "ApprovalForAll",
      "type": "event"
    },
    {
      "anonymous": false,
      "inputs": [
        {
          "indexed": false,
          "internalType": "address",
          "name": "creator",
          "type": "address"
        },
        {
          "indexed": false,
          "internalType": "uint256",
          "name": "tokenId",
          "type": "uint256"
        }
      ],
      "name": "MemeMinted",
      "type": "event"
    },
    {
      "anonymous": false,
      "inputs": [
        {
          "indexed": true,
          "internalType": "address",
          "name": "previousOwner",
          "type": "address"
        },
        {
          "indexed": true,
          "internalType": "address",
          "name": "newOwner",
          "type": "address"
        }
      ],
      "name": "OwnershipTransferred",
      "type": "event"
    },
    {
      "anonymous": false,
      "inputs": [
        {
          "indexed": false,
          "internalType": "address",
          "name": "account",
          "type": "address"
        }
      ],
      "name": "Paused",
      "type": "event"
    },
    {
      "anonymous": false,
      "inputs": [
        {
          "indexed": true,
          "internalType": "address",
          "name": "operator",
          "type": "address"
        },
        {
          "indexed": true,
          "internalType": "address",
          "name": "from",
          "type": "address"
        },
        {
          "indexed": true,
          "internalType": "address",
          "name": "to",
          "type": "address"
        },
        {
          "indexed": false,
          "internalType": "uint256[]",
          "name": "ids",
          "type": "uint256[]"
        },
        {
          "indexed": false,
          "internalType": "uint256[]",
          "name": "values",
          "type": "uint256[]"
        }
      ],
      "name": "TransferBatch",
      "type": "event"
    },
    {
      "anonymous": false,
      "inputs": [
        {
          "indexed": true,
          "internalType": "address",
          "name": "operator",
          "type": "address"
        },
        {
          "indexed": true,
          "internalType": "address",
          "name": "from",
          "type": "address"
        },
        {
          "indexed": true,
          "internalType": "address",
          "name": "to",
          "type": "address"
        },
        {
          "indexed": false,
          "internalType": "uint256",
          "name": "id",
          "type": "uint256"
        },
        {
          "indexed": false,
          "internalType": "uint256",
          "name": "value",
          "type": "uint256"
        }
      ],
      "name": "TransferSingle",
      "type": "event"
    },
    {
      "anonymous": false,
      "inputs": [
        {
          "indexed": false,
          "internalType": "string",
          "name": "value",
          "type": "string"
        },
        {
          "indexed": true,
          "internalType": "uint256",
          "name": "id",
          "type": "uint256"
        }
      ],
      "name": "URI",
      "type": "event"
    },
    {
      "anonymous": false,
      "inputs": [
        {
          "indexed": false,
          "internalType": "address",
          "name": "account",
          "type": "address"
        }
      ],
      "name": "Unpaused",
      "type": "event"
    },
    {
      "inputs": [
        {
          "internalType": "address",
          "name": "account",
          "type": "address"
        },
        {
          "internalType": "uint256",
          "name": "id",
          "type": "uint256"
        }
      ],
      "name": "balanceOf",
      "outputs": [
        {
          "internalType": "uint256",
          "name": "",
          "type": "uint256"
        }
      ],
      "stateMutability": "view",
      "type": "function",
      "constant": true
    },
    {
      "inputs": [
        {
          "internalType": "address[]",
          "name": "accounts",
          "type": "address[]"
        },
        {
          "internalType": "uint256[]",
          "name": "ids",
          "type": "uint256[]"
        }
      ],
      "name": "balanceOfBatch",
      "outputs": [
        {
          "internalType": "uint256[]",
          "name": "",
          "type": "uint256[]"
        }
      ],
      "stateMutability": "view",
      "type": "function",
      "constant": true
    },
    {
      "inputs": [
        {
          "internalType": "uint256",
          "name": "",
          "type": "uint256"
        }
      ],
      "name": "creatorFee",
      "outputs": [
        {
          "internalType": "int256",
          "name": "",
          "type": "int256"
        }
      ],
      "stateMutability": "view",
      "type": "function",
      "constant": true
    },
    {
      "inputs": [
        {
          "internalType": "uint256",
          "name": "",
          "type": "uint256"
        }
      ],
      "name": "creatorOf",
      "outputs": [
        {
          "internalType": "address",
          "name": "",
          "type": "address"
        }
      ],
      "stateMutability": "view",
      "type": "function",
      "constant": true
    },
    {
      "inputs": [
        {
          "internalType": "uint256",
          "name": "",
          "type": "uint256"
        }
      ],
      "name": "hashes",
      "outputs": [
        {
          "internalType": "string",
          "name": "",
          "type": "string"
        }
      ],
      "stateMutability": "view",
      "type": "function",
      "constant": true
    },
    {
      "inputs": [
        {
          "internalType": "address",
          "name": "account",
          "type": "address"
        },
        {
          "internalType": "address",
          "name": "operator",
          "type": "address"
        }
      ],
      "name": "isApprovedForAll",
      "outputs": [
        {
          "internalType": "bool",
          "name": "",
          "type": "bool"
        }
      ],
      "stateMutability": "view",
      "type": "function",
      "constant": true
    },
    {
      "inputs": [],
      "name": "owner",
      "outputs": [
        {
          "internalType": "address",
          "name": "",
          "type": "address"
        }
      ],
      "stateMutability": "view",
      "type": "function",
      "constant": true
    },
    {
      "inputs": [
        {
          "internalType": "uint256",
          "name": "",
          "type": "uint256"
        }
      ],
      "name": "ownerOf",
      "outputs": [
        {
          "internalType": "address",
          "name": "",
          "type": "address"
        }
      ],
      "stateMutability": "view",
      "type": "function",
      "constant": true
    },
    {
      "inputs": [],
      "name": "paused",
      "outputs": [
        {
          "internalType": "bool",
          "name": "",
          "type": "bool"
        }
      ],
      "stateMutability": "view",
      "type": "function",
      "constant": true
    },
    {
      "inputs": [],
      "name": "renounceOwnership",
      "outputs": [],
      "stateMutability": "nonpayable",
      "type": "function"
    },
    {
      "inputs": [
        {
          "internalType": "address",
          "name": "from",
          "type": "address"
        },
        {
          "internalType": "address",
          "name": "to",
          "type": "address"
        },
        {
          "internalType": "uint256[]",
          "name": "ids",
          "type": "uint256[]"
        },
        {
          "internalType": "uint256[]",
          "name": "amounts",
          "type": "uint256[]"
        },
        {
          "internalType": "bytes",
          "name": "data",
          "type": "bytes"
        }
      ],
      "name": "safeBatchTransferFrom",
      "outputs": [],
      "stateMutability": "nonpayable",
      "type": "function"
    },
    {
      "inputs": [
        {
          "internalType": "address",
          "name": "from",
          "type": "address"
        },
        {
          "internalType": "address",
          "name": "to",
          "type": "address"
        },
        {
          "internalType": "uint256",
          "name": "id",
          "type": "uint256"
        },
        {
          "internalType": "uint256",
          "name": "amount",
          "type": "uint256"
        },
        {
          "internalType": "bytes",
          "name": "data",
          "type": "bytes"
        }
      ],
      "name": "safeTransferFrom",
      "outputs": [],
      "stateMutability": "nonpayable",
      "type": "function"
    },
    {
      "inputs": [
        {
          "internalType": "address",
          "name": "operator",
          "type": "address"
        },
        {
          "internalType": "bool",
          "name": "approved",
          "type": "bool"
        }
      ],
      "name": "setApprovalForAll",
      "outputs": [],
      "stateMutability": "nonpayable",
      "type": "function"
    },
    {
      "inputs": [
        {
          "internalType": "bytes4",
          "name": "interfaceId",
          "type": "bytes4"
        }
      ],
      "name": "supportsInterface",
      "outputs": [
        {
          "internalType": "bool",
          "name": "",
          "type": "bool"
        }
      ],
      "stateMutability": "view",
      "type": "function",
      "constant": true
    },
    {
      "inputs": [
        {
          "internalType": "address",
          "name": "newOwner",
          "type": "address"
        }
      ],
      "name": "transferOwnership",
      "outputs": [],
      "stateMutability": "nonpayable",
      "type": "function"
    },
    {
      "inputs": [
        {
          "internalType": "uint256",
          "name": "",
          "type": "uint256"
        }
      ],
      "name": "uri",
      "outputs": [
        {
          "internalType": "string",
          "name": "",
          "type": "string"
        }
      ],
      "stateMutability": "view",
      "type": "function",
      "constant": true
    },
    {
      "inputs": [],
      "name": "initialize",
      "outputs": [],
      "stateMutability": "nonpayable",
      "type": "function"
    },
    {
      "inputs": [
        {
          "internalType": "string",
          "name": "_newUri",
          "type": "string"
        }
      ],
      "name": "setUri",
      "outputs": [],
      "stateMutability": "nonpayable",
      "type": "function"
    },
    {
      "inputs": [
        {
          "internalType": "string",
          "name": "_hash",
          "type": "string"
        },
        {
          "internalType": "int256",
          "name": "_creatorFee",
          "type": "int256"
        }
      ],
      "name": "mint",
      "outputs": [],
      "stateMutability": "nonpayable",
      "type": "function"
    },
    {
      "inputs": [
        {
          "internalType": "string",
          "name": "_hash",
          "type": "string"
        }
      ],
      "name": "getTokenID",
      "outputs": [
        {
          "internalType": "uint256",
          "name": "tokenID",
          "type": "uint256"
        }
      ],
      "stateMutability": "view",
      "type": "function",
      "constant": true
    },
    {
      "inputs": [],
      "name": "getMemesCount",
      "outputs": [
        {
          "internalType": "uint256",
          "name": "count",
          "type": "uint256"
        }
      ],
      "stateMutability": "view",
      "type": "function",
      "constant": true
    },
    {
      "inputs": [],
      "name": "sayHello",
      "outputs": [
        {
          "internalType": "string",
          "name": "",
          "type": "string"
        }
      ],
      "stateMutability": "pure",
      "type": "function",
      "constant": true
    },
    {
      "inputs": [],
      "name": "pause",
      "outputs": [],
      "stateMutability": "nonpayable",
      "type": "function"
    },
    {
      "inputs": [],
      "name": "unpause",
      "outputs": [],
      "stateMutability": "nonpayable",
      "type": "function"
    }
  ],
  "bytecode": "0x608060405234801561001057600080fd5b506145d4806100206000396000f3fe608060405234801561001057600080fd5b50600436106101575760003560e01c806378c3829b116100c3578063e5f6e2611161007c578063e5f6e261146103b0578063e706a639146103ce578063e985e9c5146103fe578063ef5fb05b1461042e578063f242432a1461044c578063f2fde38b1461046857610157565b806378c3829b146103165780638129fc1c146103465780638456cb59146103505780638da5cb5b1461035a5780639b642de114610378578063a22cb4651461039457610157565b80634e1273f4116101155780634e1273f41461022e578063501895ae1461025e578063589a17431461028e5780635c975abb146102be5780636352211e146102dc578063715018a61461030c57610157565b8062fdd58e1461015c57806301ffc9a71461018c5780630e89341c146101bc5780632d5497cd146101ec5780632eb2c2d6146102085780633f4ba83a14610224575b600080fd5b6101766004803603810190610171919061328f565b610484565b6040516101839190613fed565b60405180910390f35b6101a660048036038101906101a19190613337565b61054e565b6040516101b39190613d75565b60405180910390f35b6101d660048036038101906101d1919061341e565b610630565b6040516101e39190613dab565b60405180910390f35b610206600480360381019061020191906133ca565b6106c4565b005b610222600480360381019061021d9190613105565b61093b565b005b61022c610d34565b005b610248600480360381019061024391906132cb565b610e01565b6040516102559190613d1c565b60405180910390f35b6102786004803603810190610273919061341e565b610fb2565b6040516102859190613dab565b60405180910390f35b6102a860048036038101906102a3919061341e565b61105e565b6040516102b59190613c16565b60405180910390f35b6102c6611091565b6040516102d39190613d75565b60405180910390f35b6102f660048036038101906102f1919061341e565b6110a8565b6040516103039190613c16565b60405180910390f35b6103146110db565b005b610330600480360381019061032b919061341e565b611218565b60405161033d9190613d90565b60405180910390f35b61034e611231565b005b610358611343565b005b610362611411565b60405161036f9190613c16565b60405180910390f35b610392600480360381019061038d9190613389565b61143b565b005b6103ae60048036038101906103a99190613253565b61150b565b005b6103b861168c565b6040516103c59190613fed565b60405180910390f35b6103e860048036038101906103e39190613389565b6116e1565b6040516103f59190613fed565b60405180910390f35b610418600480360381019061041391906130c9565b611751565b6040516104259190613d75565b60405180910390f35b6104366117e5565b6040516104439190613dab565b60405180910390f35b610466600480360381019061046191906131c4565b611822565b005b610482600480360381019061047d91906130a0565b611b3d565b005b60008073ffffffffffffffffffffffffffffffffffffffff168373ffffffffffffffffffffffffffffffffffffffff1614156104f5576040517f08c379a00000000000000000000000000000000000000000000000000000000081526004016104ec90613e2d565b60405180910390fd5b6065600083815260200190815260200160002060008473ffffffffffffffffffffffffffffffffffffffff1673ffffffffffffffffffffffffffffffffffffffff16815260200190815260200160002054905092915050565b60007fd9b67a26000000000000000000000000000000000000000000000000000000007bffffffffffffffffffffffffffffffffffffffffffffffffffffffff1916827bffffffffffffffffffffffffffffffffffffffffffffffffffffffff1916148061061957507f0e89341c000000000000000000000000000000000000000000000000000000007bffffffffffffffffffffffffffffffffffffffffffffffffffffffff1916827bffffffffffffffffffffffffffffffffffffffffffffffffffffffff1916145b80610629575061062882611ce9565b5b9050919050565b60606067805461063f906142e0565b80601f016020809104026020016040519081016040528092919081815260200182805461066b906142e0565b80156106b85780601f1061068d576101008083540402835291602001916106b8565b820191906000526020600020905b81548152906001019060200180831161069b57829003601f168201915b50505050509050919050565b6106cc611091565b1561070c576040517f08c379a000000000000000000000000000000000000000000000000000000000815260040161070390613ead565b60405180910390fd5b60fc8260405161071c9190613bff565b908152602001604051809103902060009054906101000a900460ff1615610778576040517f08c379a000000000000000000000000000000000000000000000000000000000815260040161076f90613e8d565b60405180910390fd5b60fb829080600181540180825580915050600190039060005260206000200160009091909190915090805190602001906107b3929190612d83565b506000600160fb805490506107c891906141ec565b90506107e63382600160405180602001604052806000815250611d53565b600160fc846040516107f89190613bff565b908152602001604051809103902060006101000a81548160ff0219169083151502179055508060fd8460405161082e9190613bff565b9081526020016040518091039020819055503360fe600083815260200190815260200160002060006101000a81548173ffffffffffffffffffffffffffffffffffffffff021916908373ffffffffffffffffffffffffffffffffffffffff1602179055503360ff600083815260200190815260200160002060006101000a81548173ffffffffffffffffffffffffffffffffffffffff021916908373ffffffffffffffffffffffffffffffffffffffff160217905550816101006000838152602001908152602001600020819055507f48dc2aeea2a01c56706a90dc93cbd9fe7e1783b9c475708d49ea0b7c579ddc9d338260405161092e929190613cf3565b60405180910390a1505050565b815183511461097f576040517f08c379a000000000000000000000000000000000000000000000000000000000815260040161097690613fad565b60405180910390fd5b600073ffffffffffffffffffffffffffffffffffffffff168473ffffffffffffffffffffffffffffffffffffffff1614156109ef576040517f08c379a00000000000000000000000000000000000000000000000000000000081526004016109e690613ecd565b60405180910390fd5b6109f7611eea565b73ffffffffffffffffffffffffffffffffffffffff168573ffffffffffffffffffffffffffffffffffffffff161480610a3d5750610a3c85610a37611eea565b611751565b5b610a7c576040517f08c379a0000000000000000000000000000000000000000000000000000000008152600401610a7390613eed565b60405180910390fd5b6000610a86611eea565b9050610a96818787878787611ef2565b60005b8451811015610c9f576000858281518110610add577f4e487b7100000000000000000000000000000000000000000000000000000000600052603260045260246000fd5b602002602001015190506000858381518110610b22577f4e487b7100000000000000000000000000000000000000000000000000000000600052603260045260246000fd5b6020026020010151905060006065600084815260200190815260200160002060008b73ffffffffffffffffffffffffffffffffffffffff1673ffffffffffffffffffffffffffffffffffffffff16815260200190815260200160002054905081811015610bc4576040517f08c379a0000000000000000000000000000000000000000000000000000000008152600401610bbb90613f2d565b60405180910390fd5b8181610bd091906141ec565b6065600085815260200190815260200160002060008c73ffffffffffffffffffffffffffffffffffffffff1673ffffffffffffffffffffffffffffffffffffffff16815260200190815260200160002081905550816065600085815260200190815260200160002060008b73ffffffffffffffffffffffffffffffffffffffff1673ffffffffffffffffffffffffffffffffffffffff1681526020019081526020016000206000828254610c849190614196565b9250508190555050505080610c9890614312565b9050610a99565b508473ffffffffffffffffffffffffffffffffffffffff168673ffffffffffffffffffffffffffffffffffffffff168273ffffffffffffffffffffffffffffffffffffffff167f4a39dc06d4c0dbc64b70af90fd698a233a518aa5d07e595d983b8c0526c8f7fb8787604051610d16929190613d3e565b60405180910390a4610d2c818787878787611efa565b505050505050565b610d3c611091565b610d7b576040517f08c379a0000000000000000000000000000000000000000000000000000000008152600401610d7290613e0d565b60405180910390fd5b610d83611eea565b73ffffffffffffffffffffffffffffffffffffffff16610da1611411565b73ffffffffffffffffffffffffffffffffffffffff1614610df7576040517f08c379a0000000000000000000000000000000000000000000000000000000008152600401610dee90613f4d565b60405180910390fd5b610dff6120ca565b565b60608151835114610e47576040517f08c379a0000000000000000000000000000000000000000000000000000000008152600401610e3e90613f8d565b60405180910390fd5b6000835167ffffffffffffffff811115610e8a577f4e487b7100000000000000000000000000000000000000000000000000000000600052604160045260246000fd5b604051908082528060200260200182016040528015610eb85781602001602082028036833780820191505090505b50905060005b8451811015610fa757610f51858281518110610f03577f4e487b7100000000000000000000000000000000000000000000000000000000600052603260045260246000fd5b6020026020010151858381518110610f44577f4e487b7100000000000000000000000000000000000000000000000000000000600052603260045260246000fd5b6020026020010151610484565b828281518110610f8a577f4e487b7100000000000000000000000000000000000000000000000000000000600052603260045260246000fd5b60200260200101818152505080610fa090614312565b9050610ebe565b508091505092915050565b60fb8181548110610fc257600080fd5b906000526020600020016000915090508054610fdd906142e0565b80601f0160208091040260200160405190810160405280929190818152602001828054611009906142e0565b80156110565780601f1061102b57610100808354040283529160200191611056565b820191906000526020600020905b81548152906001019060200180831161103957829003601f168201915b505050505081565b60fe6020528060005260406000206000915054906101000a900473ffffffffffffffffffffffffffffffffffffffff1681565b600060c960009054906101000a900460ff16905090565b60ff6020528060005260406000206000915054906101000a900473ffffffffffffffffffffffffffffffffffffffff1681565b6110e3611eea565b73ffffffffffffffffffffffffffffffffffffffff16611101611411565b73ffffffffffffffffffffffffffffffffffffffff1614611157576040517f08c379a000000000000000000000000000000000000000000000000000000000815260040161114e90613f4d565b60405180910390fd5b600073ffffffffffffffffffffffffffffffffffffffff16609760009054906101000a900473ffffffffffffffffffffffffffffffffffffffff1673ffffffffffffffffffffffffffffffffffffffff167f8be0079c531659141344cd1fd0a4f28419497f9722a3daafe3b4186f6b6457e060405160405180910390a36000609760006101000a81548173ffffffffffffffffffffffffffffffffffffffff021916908373ffffffffffffffffffffffffffffffffffffffff160217905550565b6101006020528060005260406000206000915090505481565b600060019054906101000a900460ff1680611257575060008054906101000a900460ff16155b611296576040517f08c379a000000000000000000000000000000000000000000000000000000000815260040161128d90613f0d565b60405180910390fd5b60008060019054906101000a900460ff1615905080156112e6576001600060016101000a81548160ff02191690831515021790555060016000806101000a81548160ff0219169083151502179055505b6113076040518060a00160405280606f8152602001614530606f913961216c565b61130f61225f565b611317612340565b61131f612429565b80156113405760008060016101000a81548160ff0219169083151502179055505b50565b61134b611091565b1561138b576040517f08c379a000000000000000000000000000000000000000000000000000000000815260040161138290613ead565b60405180910390fd5b611393611eea565b73ffffffffffffffffffffffffffffffffffffffff166113b1611411565b73ffffffffffffffffffffffffffffffffffffffff1614611407576040517f08c379a00000000000000000000000000000000000000000000000000000000081526004016113fe90613f4d565b60405180910390fd5b61140f612512565b565b6000609760009054906101000a900473ffffffffffffffffffffffffffffffffffffffff16905090565b611443611091565b15611483576040517f08c379a000000000000000000000000000000000000000000000000000000000815260040161147a90613ead565b60405180910390fd5b61148b611eea565b73ffffffffffffffffffffffffffffffffffffffff166114a9611411565b73ffffffffffffffffffffffffffffffffffffffff16146114ff576040517f08c379a00000000000000000000000000000000000000000000000000000000081526004016114f690613f4d565b60405180910390fd5b611508816125b5565b50565b8173ffffffffffffffffffffffffffffffffffffffff1661152a611eea565b73ffffffffffffffffffffffffffffffffffffffff161415611581576040517f08c379a000000000000000000000000000000000000000000000000000000000815260040161157890613f6d565b60405180910390fd5b806066600061158e611eea565b73ffffffffffffffffffffffffffffffffffffffff1673ffffffffffffffffffffffffffffffffffffffff16815260200190815260200160002060008473ffffffffffffffffffffffffffffffffffffffff1673ffffffffffffffffffffffffffffffffffffffff16815260200190815260200160002060006101000a81548160ff0219169083151502179055508173ffffffffffffffffffffffffffffffffffffffff1661163b611eea565b73ffffffffffffffffffffffffffffffffffffffff167f17307eab39ab6107e8899845ad3d59bd9653f200f220920489ca2b5937696c31836040516116809190613d75565b60405180910390a35050565b6000611696611091565b156116d6576040517f08c379a00000000000000000000000000000000000000000000000000000000081526004016116cd90613ead565b60405180910390fd5b60fb80549050905090565b60006116eb611091565b1561172b576040517f08c379a000000000000000000000000000000000000000000000000000000000815260040161172290613ead565b60405180910390fd5b60fd8260405161173b9190613bff565b9081526020016040518091039020549050919050565b6000606660008473ffffffffffffffffffffffffffffffffffffffff1673ffffffffffffffffffffffffffffffffffffffff16815260200190815260200160002060008373ffffffffffffffffffffffffffffffffffffffff1673ffffffffffffffffffffffffffffffffffffffff16815260200190815260200160002060009054906101000a900460ff16905092915050565b60606040518060400160405280600681526020017f48656c6c6f210000000000000000000000000000000000000000000000000000815250905090565b600073ffffffffffffffffffffffffffffffffffffffff168473ffffffffffffffffffffffffffffffffffffffff161415611892576040517f08c379a000000000000000000000000000000000000000000000000000000000815260040161188990613ecd565b60405180910390fd5b61189a611eea565b73ffffffffffffffffffffffffffffffffffffffff168573ffffffffffffffffffffffffffffffffffffffff1614806118e057506118df856118da611eea565b611751565b5b61191f576040517f08c379a000000000000000000000000000000000000000000000000000000000815260040161191690613e6d565b60405180910390fd5b6000611929611eea565b905061194981878761193a886125cf565b611943886125cf565b87611ef2565b60006065600086815260200190815260200160002060008873ffffffffffffffffffffffffffffffffffffffff1673ffffffffffffffffffffffffffffffffffffffff168152602001908152602001600020549050838110156119e1576040517f08c379a00000000000000000000000000000000000000000000000000000000081526004016119d890613f2d565b60405180910390fd5b83816119ed91906141ec565b6065600087815260200190815260200160002060008973ffffffffffffffffffffffffffffffffffffffff1673ffffffffffffffffffffffffffffffffffffffff16815260200190815260200160002081905550836065600087815260200190815260200160002060008873ffffffffffffffffffffffffffffffffffffffff1673ffffffffffffffffffffffffffffffffffffffff1681526020019081526020016000206000828254611aa19190614196565b925050819055508573ffffffffffffffffffffffffffffffffffffffff168773ffffffffffffffffffffffffffffffffffffffff168373ffffffffffffffffffffffffffffffffffffffff167fc3d58168c5ae7397731d063d5bbf3d657854427343f4c083240f7aacaa2d0f628888604051611b1e929190614008565b60405180910390a4611b34828888888888612695565b50505050505050565b611b45611eea565b73ffffffffffffffffffffffffffffffffffffffff16611b63611411565b73ffffffffffffffffffffffffffffffffffffffff1614611bb9576040517f08c379a0000000000000000000000000000000000000000000000000000000008152600401611bb090613f4d565b60405180910390fd5b600073ffffffffffffffffffffffffffffffffffffffff168173ffffffffffffffffffffffffffffffffffffffff161415611c29576040517f08c379a0000000000000000000000000000000000000000000000000000000008152600401611c2090613e4d565b60405180910390fd5b8073ffffffffffffffffffffffffffffffffffffffff16609760009054906101000a900473ffffffffffffffffffffffffffffffffffffffff1673ffffffffffffffffffffffffffffffffffffffff167f8be0079c531659141344cd1fd0a4f28419497f9722a3daafe3b4186f6b6457e060405160405180910390a380609760006101000a81548173ffffffffffffffffffffffffffffffffffffffff021916908373ffffffffffffffffffffffffffffffffffffffff16021790555050565b60007f01ffc9a7000000000000000000000000000000000000000000000000000000007bffffffffffffffffffffffffffffffffffffffffffffffffffffffff1916827bffffffffffffffffffffffffffffffffffffffffffffffffffffffff1916149050919050565b600073ffffffffffffffffffffffffffffffffffffffff168473ffffffffffffffffffffffffffffffffffffffff161415611dc3576040517f08c379a0000000000000000000000000000000000000000000000000000000008152600401611dba90613fcd565b60405180910390fd5b6000611dcd611eea565b9050611dee81600087611ddf886125cf565b611de8886125cf565b87611ef2565b826065600086815260200190815260200160002060008773ffffffffffffffffffffffffffffffffffffffff1673ffffffffffffffffffffffffffffffffffffffff1681526020019081526020016000206000828254611e4e9190614196565b925050819055508473ffffffffffffffffffffffffffffffffffffffff16600073ffffffffffffffffffffffffffffffffffffffff168273ffffffffffffffffffffffffffffffffffffffff167fc3d58168c5ae7397731d063d5bbf3d657854427343f4c083240f7aacaa2d0f628787604051611ecc929190614008565b60405180910390a4611ee381600087878787612695565b5050505050565b600033905090565b505050505050565b611f198473ffffffffffffffffffffffffffffffffffffffff16612865565b156120c2578373ffffffffffffffffffffffffffffffffffffffff1663bc197c8187878686866040518663ffffffff1660e01b8152600401611f5f959493929190613c31565b602060405180830381600087803b158015611f7957600080fd5b505af1925050508015611faa57506040513d601f19601f82011682018060405250810190611fa79190613360565b60015b61203957611fb6614406565b80611fc15750611ffe565b806040517f08c379a0000000000000000000000000000000000000000000000000000000008152600401611ff59190613dab565b60405180910390fd5b6040517f08c379a000000000000000000000000000000000000000000000000000000000815260040161203090613dcd565b60405180910390fd5b63bc197c8160e01b7bffffffffffffffffffffffffffffffffffffffffffffffffffffffff1916817bffffffffffffffffffffffffffffffffffffffffffffffffffffffff1916146120c0576040517f08c379a00000000000000000000000000000000000000000000000000000000081526004016120b790613ded565b60405180910390fd5b505b505050505050565b6120d2611091565b612111576040517f08c379a000000000000000000000000000000000000000000000000000000000815260040161210890613e0d565b60405180910390fd5b600060c960006101000a81548160ff0219169083151502179055507f5db9ee0a495bf2e6ff9c91a7834c1ba4fdd244a5e8aa4e537bd38aeae4b073aa612155611eea565b6040516121629190613c16565b60405180910390a1565b600060019054906101000a900460ff1680612192575060008054906101000a900460ff16155b6121d1576040517f08c379a00000000000000000000000000000000000000000000000000000000081526004016121c890613f0d565b60405180910390fd5b60008060019054906101000a900460ff161590508015612221576001600060016101000a81548160ff02191690831515021790555060016000806101000a81548160ff0219169083151502179055505b612229612878565b612231612951565b61223a82612a2a565b801561225b5760008060016101000a81548160ff0219169083151502179055505b5050565b600060019054906101000a900460ff1680612285575060008054906101000a900460ff16155b6122c4576040517f08c379a00000000000000000000000000000000000000000000000000000000081526004016122bb90613f0d565b60405180910390fd5b60008060019054906101000a900460ff161590508015612314576001600060016101000a81548160ff02191690831515021790555060016000806101000a81548160ff0219169083151502179055505b61231c612951565b801561233d5760008060016101000a81548160ff0219169083151502179055505b50565b600060019054906101000a900460ff1680612366575060008054906101000a900460ff16155b6123a5576040517f08c379a000000000000000000000000000000000000000000000000000000000815260040161239c90613f0d565b60405180910390fd5b60008060019054906101000a900460ff1615905080156123f5576001600060016101000a81548160ff02191690831515021790555060016000806101000a81548160ff0219169083151502179055505b6123fd612878565b612405612b0d565b80156124265760008060016101000a81548160ff0219169083151502179055505b50565b600060019054906101000a900460ff168061244f575060008054906101000a900460ff16155b61248e576040517f08c379a000000000000000000000000000000000000000000000000000000000815260040161248590613f0d565b60405180910390fd5b60008060019054906101000a900460ff1615905080156124de576001600060016101000a81548160ff02191690831515021790555060016000806101000a81548160ff0219169083151502179055505b6124e6612878565b6124ee612c8f565b801561250f5760008060016101000a81548160ff0219169083151502179055505b50565b61251a611091565b1561255a576040517f08c379a000000000000000000000000000000000000000000000000000000000815260040161255190613ead565b60405180910390fd5b600160c960006101000a81548160ff0219169083151502179055507f62e78cea01bee320cd4e420270b5ea74000d11b0c9f74754ebdbfc544b05a25861259e611eea565b6040516125ab9190613c16565b60405180910390a1565b80606790805190602001906125cb929190612d83565b5050565b60606000600167ffffffffffffffff811115612614577f4e487b7100000000000000000000000000000000000000000000000000000000600052604160045260246000fd5b6040519080825280602002602001820160405280156126425781602001602082028036833780820191505090505b5090508281600081518110612680577f4e487b7100000000000000000000000000000000000000000000000000000000600052603260045260246000fd5b60200260200101818152505080915050919050565b6126b48473ffffffffffffffffffffffffffffffffffffffff16612865565b1561285d578373ffffffffffffffffffffffffffffffffffffffff1663f23a6e6187878686866040518663ffffffff1660e01b81526004016126fa959493929190613c99565b602060405180830381600087803b15801561271457600080fd5b505af192505050801561274557506040513d601f19601f820116820180604052508101906127429190613360565b60015b6127d457612751614406565b8061275c5750612799565b806040517f08c379a00000000000000000000000000000000000000000000000000000000081526004016127909190613dab565b60405180910390fd5b6040517f08c379a00000000000000000000000000000000000000000000000000000000081526004016127cb90613dcd565b60405180910390fd5b63f23a6e6160e01b7bffffffffffffffffffffffffffffffffffffffffffffffffffffffff1916817bffffffffffffffffffffffffffffffffffffffffffffffffffffffff19161461285b576040517f08c379a000000000000000000000000000000000000000000000000000000000815260040161285290613ded565b60405180910390fd5b505b505050505050565b600080823b905060008111915050919050565b600060019054906101000a900460ff168061289e575060008054906101000a900460ff16155b6128dd576040517f08c379a00000000000000000000000000000000000000000000000000000000081526004016128d490613f0d565b60405180910390fd5b60008060019054906101000a900460ff16159050801561292d576001600060016101000a81548160ff02191690831515021790555060016000806101000a81548160ff0219169083151502179055505b801561294e5760008060016101000a81548160ff0219169083151502179055505b50565b600060019054906101000a900460ff1680612977575060008054906101000a900460ff16155b6129b6576040517f08c379a00000000000000000000000000000000000000000000000000000000081526004016129ad90613f0d565b60405180910390fd5b60008060019054906101000a900460ff161590508015612a06576001600060016101000a81548160ff02191690831515021790555060016000806101000a81548160ff0219169083151502179055505b8015612a275760008060016101000a81548160ff0219169083151502179055505b50565b600060019054906101000a900460ff1680612a50575060008054906101000a900460ff16155b612a8f576040517f08c379a0000000000000000000000000000000000000000000000000000000008152600401612a8690613f0d565b60405180910390fd5b60008060019054906101000a900460ff161590508015612adf576001600060016101000a81548160ff02191690831515021790555060016000806101000a81548160ff0219169083151502179055505b612ae8826125b5565b8015612b095760008060016101000a81548160ff0219169083151502179055505b5050565b600060019054906101000a900460ff1680612b33575060008054906101000a900460ff16155b612b72576040517f08c379a0000000000000000000000000000000000000000000000000000000008152600401612b6990613f0d565b60405180910390fd5b60008060019054906101000a900460ff161590508015612bc2576001600060016101000a81548160ff02191690831515021790555060016000806101000a81548160ff0219169083151502179055505b6000612bcc611eea565b905080609760006101000a81548173ffffffffffffffffffffffffffffffffffffffff021916908373ffffffffffffffffffffffffffffffffffffffff1602179055508073ffffffffffffffffffffffffffffffffffffffff16600073ffffffffffffffffffffffffffffffffffffffff167f8be0079c531659141344cd1fd0a4f28419497f9722a3daafe3b4186f6b6457e060405160405180910390a3508015612c8c5760008060016101000a81548160ff0219169083151502179055505b50565b600060019054906101000a900460ff1680612cb5575060008054906101000a900460ff16155b612cf4576040517f08c379a0000000000000000000000000000000000000000000000000000000008152600401612ceb90613f0d565b60405180910390fd5b60008060019054906101000a900460ff161590508015612d44576001600060016101000a81548160ff02191690831515021790555060016000806101000a81548160ff0219169083151502179055505b600060c960006101000a81548160ff0219169083151502179055508015612d805760008060016101000a81548160ff0219169083151502179055505b50565b828054612d8f906142e0565b90600052602060002090601f016020900481019282612db15760008555612df8565b82601f10612dca57805160ff1916838001178555612df8565b82800160010185558215612df8579182015b82811115612df7578251825591602001919060010190612ddc565b5b509050612e059190612e09565b5090565b5b80821115612e22576000816000905550600101612e0a565b5090565b6000612e39612e3484614062565b614031565b90508083825260208201905082856020860282011115612e5857600080fd5b60005b85811015612e885781612e6e8882612f7a565b845260208401935060208301925050600181019050612e5b565b5050509392505050565b6000612ea5612ea08461408e565b614031565b90508083825260208201905082856020860282011115612ec457600080fd5b60005b85811015612ef45781612eda888261308b565b845260208401935060208301925050600181019050612ec7565b5050509392505050565b6000612f11612f0c846140ba565b614031565b905082815260208101848484011115612f2957600080fd5b612f3484828561429e565b509392505050565b6000612f4f612f4a846140ea565b614031565b905082815260208101848484011115612f6757600080fd5b612f7284828561429e565b509392505050565b600081359050612f89816144bc565b92915050565b600082601f830112612fa057600080fd5b8135612fb0848260208601612e26565b91505092915050565b600082601f830112612fca57600080fd5b8135612fda848260208601612e92565b91505092915050565b600081359050612ff2816144d3565b92915050565b600081359050613007816144ea565b92915050565b60008151905061301c816144ea565b92915050565b600082601f83011261303357600080fd5b8135613043848260208601612efe565b91505092915050565b60008135905061305b81614501565b92915050565b600082601f83011261307257600080fd5b8135613082848260208601612f3c565b91505092915050565b60008135905061309a81614518565b92915050565b6000602082840312156130b257600080fd5b60006130c084828501612f7a565b91505092915050565b600080604083850312156130dc57600080fd5b60006130ea85828601612f7a565b92505060206130fb85828601612f7a565b9150509250929050565b600080600080600060a0868803121561311d57600080fd5b600061312b88828901612f7a565b955050602061313c88828901612f7a565b945050604086013567ffffffffffffffff81111561315957600080fd5b61316588828901612fb9565b935050606086013567ffffffffffffffff81111561318257600080fd5b61318e88828901612fb9565b925050608086013567ffffffffffffffff8111156131ab57600080fd5b6131b788828901613022565b9150509295509295909350565b600080600080600060a086880312156131dc57600080fd5b60006131ea88828901612f7a565b95505060206131fb88828901612f7a565b945050604061320c8882890161308b565b935050606061321d8882890161308b565b925050608086013567ffffffffffffffff81111561323a57600080fd5b61324688828901613022565b9150509295509295909350565b6000806040838503121561326657600080fd5b600061327485828601612f7a565b925050602061328585828601612fe3565b9150509250929050565b600080604083850312156132a257600080fd5b60006132b085828601612f7a565b92505060206132c18582860161308b565b9150509250929050565b600080604083850312156132de57600080fd5b600083013567ffffffffffffffff8111156132f857600080fd5b61330485828601612f8f565b925050602083013567ffffffffffffffff81111561332157600080fd5b61332d85828601612fb9565b9150509250929050565b60006020828403121561334957600080fd5b600061335784828501612ff8565b91505092915050565b60006020828403121561337257600080fd5b60006133808482850161300d565b91505092915050565b60006020828403121561339b57600080fd5b600082013567ffffffffffffffff8111156133b557600080fd5b6133c184828501613061565b91505092915050565b600080604083850312156133dd57600080fd5b600083013567ffffffffffffffff8111156133f757600080fd5b61340385828601613061565b92505060206134148582860161304c565b9150509250929050565b60006020828403121561343057600080fd5b600061343e8482850161308b565b91505092915050565b60006134538383613be1565b60208301905092915050565b61346881614220565b82525050565b60006134798261412a565b6134838185614158565b935061348e8361411a565b8060005b838110156134bf5781516134a68882613447565b97506134b18361414b565b925050600181019050613492565b5085935050505092915050565b6134d581614232565b82525050565b60006134e682614135565b6134f08185614169565b93506135008185602086016142ad565b613509816143e8565b840191505092915050565b61351d8161426a565b82525050565b600061352e82614140565b613538818561417a565b93506135488185602086016142ad565b613551816143e8565b840191505092915050565b600061356782614140565b613571818561418b565b93506135818185602086016142ad565b80840191505092915050565b600061359a60348361417a565b91507f455243313135353a207472616e7366657220746f206e6f6e204552433131353560008301527f526563656976657220696d706c656d656e7465720000000000000000000000006020830152604082019050919050565b600061360060288361417a565b91507f455243313135353a204552433131353552656365697665722072656a6563746560008301527f6420746f6b656e730000000000000000000000000000000000000000000000006020830152604082019050919050565b600061366660148361417a565b91507f5061757361626c653a206e6f74207061757365640000000000000000000000006000830152602082019050919050565b60006136a6602b8361417a565b91507f455243313135353a2062616c616e636520717565727920666f7220746865207a60008301527f65726f20616464726573730000000000000000000000000000000000000000006020830152604082019050919050565b600061370c60268361417a565b91507f4f776e61626c653a206e6577206f776e657220697320746865207a65726f206160008301527f64647265737300000000000000000000000000000000000000000000000000006020830152604082019050919050565b600061377260298361417a565b91507f455243313135353a2063616c6c6572206973206e6f74206f776e6572206e6f7260008301527f20617070726f76656400000000000000000000000000000000000000000000006020830152604082019050919050565b60006137d860268361417a565b91507f546f6b656e20776974682074686973206861736820697320616c72656164792060008301527f6d696e74656400000000000000000000000000000000000000000000000000006020830152604082019050919050565b600061383e60108361417a565b91507f5061757361626c653a20706175736564000000000000000000000000000000006000830152602082019050919050565b600061387e60258361417a565b91507f455243313135353a207472616e7366657220746f20746865207a65726f20616460008301527f64726573730000000000000000000000000000000000000000000000000000006020830152604082019050919050565b60006138e460328361417a565b91507f455243313135353a207472616e736665722063616c6c6572206973206e6f742060008301527f6f776e6572206e6f7220617070726f76656400000000000000000000000000006020830152604082019050919050565b600061394a602e8361417a565b91507f496e697469616c697a61626c653a20636f6e747261637420697320616c72656160008301527f647920696e697469616c697a65640000000000000000000000000000000000006020830152604082019050919050565b60006139b0602a8361417a565b91507f455243313135353a20696e73756666696369656e742062616c616e636520666f60008301527f72207472616e73666572000000000000000000000000000000000000000000006020830152604082019050919050565b6000613a1660208361417a565b91507f4f776e61626c653a2063616c6c6572206973206e6f7420746865206f776e65726000830152602082019050919050565b6000613a5660298361417a565b91507f455243313135353a2073657474696e6720617070726f76616c2073746174757360008301527f20666f722073656c6600000000000000000000000000000000000000000000006020830152604082019050919050565b6000613abc60298361417a565b91507f455243313135353a206163636f756e747320616e6420696473206c656e67746860008301527f206d69736d6174636800000000000000000000000000000000000000000000006020830152604082019050919050565b6000613b2260288361417a565b91507f455243313135353a2069647320616e6420616d6f756e7473206c656e6774682060008301527f6d69736d617463680000000000000000000000000000000000000000000000006020830152604082019050919050565b6000613b8860218361417a565b91507f455243313135353a206d696e7420746f20746865207a65726f2061646472657360008301527f73000000000000000000000000000000000000000000000000000000000000006020830152604082019050919050565b613bea81614294565b82525050565b613bf981614294565b82525050565b6000613c0b828461355c565b915081905092915050565b6000602082019050613c2b600083018461345f565b92915050565b600060a082019050613c46600083018861345f565b613c53602083018761345f565b8181036040830152613c65818661346e565b90508181036060830152613c79818561346e565b90508181036080830152613c8d81846134db565b90509695505050505050565b600060a082019050613cae600083018861345f565b613cbb602083018761345f565b613cc86040830186613bf0565b613cd56060830185613bf0565b8181036080830152613ce781846134db565b90509695505050505050565b6000604082019050613d08600083018561345f565b613d156020830184613bf0565b9392505050565b60006020820190508181036000830152613d36818461346e565b905092915050565b60006040820190508181036000830152613d58818561346e565b90508181036020830152613d6c818461346e565b90509392505050565b6000602082019050613d8a60008301846134cc565b92915050565b6000602082019050613da56000830184613514565b92915050565b60006020820190508181036000830152613dc58184613523565b905092915050565b60006020820190508181036000830152613de68161358d565b9050919050565b60006020820190508181036000830152613e06816135f3565b9050919050565b60006020820190508181036000830152613e2681613659565b9050919050565b60006020820190508181036000830152613e4681613699565b9050919050565b60006020820190508181036000830152613e66816136ff565b9050919050565b60006020820190508181036000830152613e8681613765565b9050919050565b60006020820190508181036000830152613ea6816137cb565b9050919050565b60006020820190508181036000830152613ec681613831565b9050919050565b60006020820190508181036000830152613ee681613871565b9050919050565b60006020820190508181036000830152613f06816138d7565b9050919050565b60006020820190508181036000830152613f268161393d565b9050919050565b60006020820190508181036000830152613f46816139a3565b9050919050565b60006020820190508181036000830152613f6681613a09565b9050919050565b60006020820190508181036000830152613f8681613a49565b9050919050565b60006020820190508181036000830152613fa681613aaf565b9050919050565b60006020820190508181036000830152613fc681613b15565b9050919050565b60006020820190508181036000830152613fe681613b7b565b9050919050565b60006020820190506140026000830184613bf0565b92915050565b600060408201905061401d6000830185613bf0565b61402a6020830184613bf0565b9392505050565b6000604051905081810181811067ffffffffffffffff82111715614058576140576143b9565b5b8060405250919050565b600067ffffffffffffffff82111561407d5761407c6143b9565b5b602082029050602081019050919050565b600067ffffffffffffffff8211156140a9576140a86143b9565b5b602082029050602081019050919050565b600067ffffffffffffffff8211156140d5576140d46143b9565b5b601f19601f8301169050602081019050919050565b600067ffffffffffffffff821115614105576141046143b9565b5b601f19601f8301169050602081019050919050565b6000819050602082019050919050565b600081519050919050565b600081519050919050565b600081519050919050565b6000602082019050919050565b600082825260208201905092915050565b600082825260208201905092915050565b600082825260208201905092915050565b600081905092915050565b60006141a182614294565b91506141ac83614294565b9250827fffffffffffffffffffffffffffffffffffffffffffffffffffffffffffffffff038211156141e1576141e061435b565b5b828201905092915050565b60006141f782614294565b915061420283614294565b9250828210156142155761421461435b565b5b828203905092915050565b600061422b82614274565b9050919050565b60008115159050919050565b60007fffffffff0000000000000000000000000000000000000000000000000000000082169050919050565b6000819050919050565b600073ffffffffffffffffffffffffffffffffffffffff82169050919050565b6000819050919050565b82818337600083830152505050565b60005b838110156142cb5780820151818401526020810190506142b0565b838111156142da576000848401525b50505050565b600060028204905060018216806142f857607f821691505b6020821081141561430c5761430b61438a565b5b50919050565b600061431d82614294565b91507fffffffffffffffffffffffffffffffffffffffffffffffffffffffffffffffff8214156143505761434f61435b565b5b600182019050919050565b7f4e487b7100000000000000000000000000000000000000000000000000000000600052601160045260246000fd5b7f4e487b7100000000000000000000000000000000000000000000000000000000600052602260045260246000fd5b7f4e487b7100000000000000000000000000000000000000000000000000000000600052604160045260246000fd5b6000601f19601f8301169050919050565b60008160e01c9050919050565b600060443d1015614416576144b9565b60046000803e6144276000516143f9565b6308c379a0811461443857506144b9565b60405160043d036004823e80513d602482011167ffffffffffffffff82111715614464575050506144b9565b808201805167ffffffffffffffff8111156144835750505050506144b9565b8060208301013d850181111561449e575050505050506144b9565b6144a7826143e8565b60208401016040528296505050505050505b90565b6144c581614220565b81146144d057600080fd5b50565b6144dc81614232565b81146144e757600080fd5b50565b6144f38161423e565b81146144fe57600080fd5b50565b61450a8161426a565b811461451557600080fd5b50565b61452181614294565b811461452c57600080fd5b5056fe68747470733a2f2f6875622e74657874696c652e696f2f697066732f62616679626569617a347371777261637967737578376d6f616d33746364377a6e67353366366768346b687a6873726c686b746f343733633572712f746f6b656e6d657461646174612f7b69647d2e6a736f6ea26469706673582212206253c62c3905ed946a211f343ef00190dd63ee45ec1a22f6f4190196ffd6594d64736f6c63430008000033",
  "immutableReferences": {},
  "source": "// SPDX-License-Identifier: MIT\r\n\r\npragma solidity 0.8.0;\r\n\r\nimport \"../../../node_modules/@openzeppelin/contracts-upgradeable/token/ERC1155/ERC1155Upgradeable.sol\";\r\nimport \"../../../node_modules/@openzeppelin/contracts-upgradeable/access/OwnableUpgradeable.sol\";\r\nimport \"../../../node_modules/@openzeppelin/contracts-upgradeable/proxy/utils/Initializable.sol\";\r\nimport \"../../../node_modules/@openzeppelin/contracts-upgradeable/security/PausableUpgradeable.sol\";\r\n\r\ncontract MemeOfTheDayV3PauseReentrancy is ERC1155Upgradeable, OwnableUpgradeable, PausableUpgradeable {\r\n\r\nstring[] public hashes;\r\n\r\n    // Mapping for enforcing unique hashes\r\n    mapping(string => bool) _hashExists; \r\n\r\n    // Mapping from ipfs picture hash to NFT tokenID\r\n    mapping (string => uint256) private _hashToken;  \r\n\r\n    mapping(uint256 => address) public creatorOf;\r\n    mapping(uint256 => address) public ownerOf;\r\n    mapping(uint256 => int256) public creatorFee;\r\n\r\n    event MemeMinted(address creator, uint256 tokenId);\r\n\r\n    function initialize() public initializer {\r\n        __ERC1155_init(\"https://hub.textile.io/ipfs/bafybeiaz4sqwracygsux7moam3tcd7zng53f6gh4khzhsrlhkto473c5rq/tokenmetadata/{id}.json\");\r\n        __ERC165_init();\r\n        __Ownable_init();\r\n        __Pausable_init();\r\n    }\r\n    /**\r\n     * @notice Changes the URI to fetch NFTs info from\r\n     * @param _newUri   the new URI to fetch NFTs info from\r\n     */\r\n    function setUri(string memory _newUri) external whenNotPaused onlyOwner  {\r\n        _setURI(_newUri);\r\n    }\r\n\r\n    /**\r\n     * @notice Mints a new meme NFT\r\n     * @param _hash IPFS hash of the NFT\r\n     * @param _creatorFee custom fee to send to the creator, if is -1 it uses the default one set in the MOTDSaleParametersProviderContract\r\n     */\r\n    function mint(string memory _hash, int256 _creatorFee) public whenNotPaused {\r\n        require(!_hashExists[_hash], \"Token with this hash is already minted\");\r\n\r\n        hashes.push(_hash);\r\n        uint256 _id = hashes.length - 1;\r\n        _mint(msg.sender, _id, 1, \"\");\r\n\r\n        _hashExists[_hash] = true;\r\n        _hashToken[_hash] = _id;\r\n\r\n        creatorOf[_id] = msg.sender;\r\n        ownerOf[_id] = msg.sender;\r\n        creatorFee[_id] = _creatorFee;\r\n\r\n        emit MemeMinted(msg.sender, _id);\r\n    }\r\n\r\n    /**\r\n     * @notice Returns the TokenID of meme\r\n     * @return tokenID of the meme\r\n     */\r\n    function getTokenID(string memory _hash) public view whenNotPaused returns (uint256 tokenID) {\r\n        return _hashToken[_hash];\r\n    }\r\n\r\n    /**\r\n     * @notice Returns the number of minted memes\r\n     * @return count the number of memes\r\n     */\r\n    function getMemesCount() public view whenNotPaused returns (uint256 count) {\r\n        return hashes.length;\r\n    }\r\n\r\n\r\n    function sayHello()public pure returns (string memory) {\r\n        return \"Hello!\";\r\n    }\r\n\r\n    function pause() public whenNotPaused onlyOwner {\r\n        _pause();\r\n    }\r\n\r\n    function unpause() public whenPaused onlyOwner {\r\n        _unpause();\r\n    }\r\n}",
  "sourcePath": "C:/Users/sound/Desktop/MOTD/meme-repo-copy/src/contracts/src/MemeOfTheDayV3PauseReentrancy.sol",
  "compiler": {
    "name": "solc",
    "version": "0.8.0+commit.c7dfd78e.Emscripten.clang"
  },
  "schemaVersion": "3.3.4",
  "updatedAt": "2021-04-28T09:41:28.631Z",
  "networkType": "ethereum",
  "devdoc": {
    "kind": "dev",
    "methods": {
      "balanceOf(address,uint256)": {
        "details": "See {IERC1155-balanceOf}. Requirements: - `account` cannot be the zero address."
      },
      "balanceOfBatch(address[],uint256[])": {
        "details": "See {IERC1155-balanceOfBatch}. Requirements: - `accounts` and `ids` must have the same length."
      },
      "getMemesCount()": {
        "returns": {
          "count": "the number of memes"
        }
      },
      "getTokenID(string)": {
        "returns": {
          "tokenID": "of the meme"
        }
      },
      "isApprovedForAll(address,address)": {
        "details": "See {IERC1155-isApprovedForAll}."
      },
      "mint(string,int256)": {
        "params": {
          "_creatorFee": "custom fee to send to the creator, if is -1 it uses the default one set in the MOTDSaleParametersProviderContract",
          "_hash": "IPFS hash of the NFT"
        }
      },
      "owner()": {
        "details": "Returns the address of the current owner."
      },
      "paused()": {
        "details": "Returns true if the contract is paused, and false otherwise."
      },
      "renounceOwnership()": {
        "details": "Leaves the contract without owner. It will not be possible to call `onlyOwner` functions anymore. Can only be called by the current owner. NOTE: Renouncing ownership will leave the contract without an owner, thereby removing any functionality that is only available to the owner."
      },
      "safeBatchTransferFrom(address,address,uint256[],uint256[],bytes)": {
        "details": "See {IERC1155-safeBatchTransferFrom}."
      },
      "safeTransferFrom(address,address,uint256,uint256,bytes)": {
        "details": "See {IERC1155-safeTransferFrom}."
      },
      "setApprovalForAll(address,bool)": {
        "details": "See {IERC1155-setApprovalForAll}."
      },
      "setUri(string)": {
        "params": {
          "_newUri": "the new URI to fetch NFTs info from"
        }
      },
      "supportsInterface(bytes4)": {
        "details": "See {IERC165-supportsInterface}."
      },
      "transferOwnership(address)": {
        "details": "Transfers ownership of the contract to a new account (`newOwner`). Can only be called by the current owner."
      },
      "uri(uint256)": {
        "details": "See {IERC1155MetadataURI-uri}. This implementation returns the same URI for *all* token types. It relies on the token type ID substitution mechanism https://eips.ethereum.org/EIPS/eip-1155#metadata[defined in the EIP]. Clients calling this function must replace the `\\{id\\}` substring with the actual token type ID."
      }
    },
    "version": 1
  },
  "userdoc": {
    "kind": "user",
    "methods": {
      "getMemesCount()": {
        "notice": "Returns the number of minted memes"
      },
      "getTokenID(string)": {
        "notice": "Returns the TokenID of meme"
      },
      "mint(string,int256)": {
        "notice": "Mints a new meme NFT"
      },
      "setUri(string)": {
        "notice": "Changes the URI to fetch NFTs info from"
      }
    },
    "version": 1
  }
}