{
  "contractName": "MemeOfTheDayV4Pause",
  "abi": [
    {
      "anonymous": false,
      "inputs": [
        {
          "indexed": true,
          "internalType": "address",
          "name": "account",
          "type": "address"
        },
        {
          "indexed": true,
          "internalType": "address",
          "name": "operator",
          "type": "address"
        },
        {
          "indexed": false,
          "internalType": "bool",
          "name": "approved",
          "type": "bool"
        }
      ],
      "name": "ApprovalForAll",
      "type": "event"
    },
    {
      "anonymous": false,
      "inputs": [
        {
          "indexed": false,
          "internalType": "address",
          "name": "creator",
          "type": "address"
        },
        {
          "indexed": false,
          "internalType": "uint256",
          "name": "tokenId",
          "type": "uint256"
        }
      ],
      "name": "MemeMinted",
      "type": "event"
    },
    {
      "anonymous": false,
      "inputs": [
        {
          "indexed": true,
          "internalType": "address",
          "name": "previousOwner",
          "type": "address"
        },
        {
          "indexed": true,
          "internalType": "address",
          "name": "newOwner",
          "type": "address"
        }
      ],
      "name": "OwnershipTransferred",
      "type": "event"
    },
    {
      "anonymous": false,
      "inputs": [
        {
          "indexed": false,
          "internalType": "address",
          "name": "account",
          "type": "address"
        }
      ],
      "name": "Paused",
      "type": "event"
    },
    {
      "anonymous": false,
      "inputs": [
        {
          "indexed": true,
          "internalType": "address",
          "name": "operator",
          "type": "address"
        },
        {
          "indexed": true,
          "internalType": "address",
          "name": "from",
          "type": "address"
        },
        {
          "indexed": true,
          "internalType": "address",
          "name": "to",
          "type": "address"
        },
        {
          "indexed": false,
          "internalType": "uint256[]",
          "name": "ids",
          "type": "uint256[]"
        },
        {
          "indexed": false,
          "internalType": "uint256[]",
          "name": "values",
          "type": "uint256[]"
        }
      ],
      "name": "TransferBatch",
      "type": "event"
    },
    {
      "anonymous": false,
      "inputs": [
        {
          "indexed": true,
          "internalType": "address",
          "name": "operator",
          "type": "address"
        },
        {
          "indexed": true,
          "internalType": "address",
          "name": "from",
          "type": "address"
        },
        {
          "indexed": true,
          "internalType": "address",
          "name": "to",
          "type": "address"
        },
        {
          "indexed": false,
          "internalType": "uint256",
          "name": "id",
          "type": "uint256"
        },
        {
          "indexed": false,
          "internalType": "uint256",
          "name": "value",
          "type": "uint256"
        }
      ],
      "name": "TransferSingle",
      "type": "event"
    },
    {
      "anonymous": false,
      "inputs": [
        {
          "indexed": false,
          "internalType": "string",
          "name": "value",
          "type": "string"
        },
        {
          "indexed": true,
          "internalType": "uint256",
          "name": "id",
          "type": "uint256"
        }
      ],
      "name": "URI",
      "type": "event"
    },
    {
      "anonymous": false,
      "inputs": [
        {
          "indexed": false,
          "internalType": "address",
          "name": "account",
          "type": "address"
        }
      ],
      "name": "Unpaused",
      "type": "event"
    },
    {
      "inputs": [
        {
          "internalType": "address",
          "name": "account",
          "type": "address"
        },
        {
          "internalType": "uint256",
          "name": "id",
          "type": "uint256"
        }
      ],
      "name": "balanceOf",
      "outputs": [
        {
          "internalType": "uint256",
          "name": "",
          "type": "uint256"
        }
      ],
      "stateMutability": "view",
      "type": "function"
    },
    {
      "inputs": [
        {
          "internalType": "address[]",
          "name": "accounts",
          "type": "address[]"
        },
        {
          "internalType": "uint256[]",
          "name": "ids",
          "type": "uint256[]"
        }
      ],
      "name": "balanceOfBatch",
      "outputs": [
        {
          "internalType": "uint256[]",
          "name": "",
          "type": "uint256[]"
        }
      ],
      "stateMutability": "view",
      "type": "function"
    },
    {
      "inputs": [
        {
          "internalType": "uint256",
          "name": "",
          "type": "uint256"
        }
      ],
      "name": "creatorFee",
      "outputs": [
        {
          "internalType": "int256",
          "name": "",
          "type": "int256"
        }
      ],
      "stateMutability": "view",
      "type": "function"
    },
    {
      "inputs": [
        {
          "internalType": "uint256",
          "name": "",
          "type": "uint256"
        }
      ],
      "name": "creatorOf",
      "outputs": [
        {
          "internalType": "address",
          "name": "",
          "type": "address"
        }
      ],
      "stateMutability": "view",
      "type": "function"
    },
    {
      "inputs": [
        {
          "internalType": "uint256",
          "name": "",
          "type": "uint256"
        }
      ],
      "name": "hashes",
      "outputs": [
        {
          "internalType": "string",
          "name": "",
          "type": "string"
        }
      ],
      "stateMutability": "view",
      "type": "function"
    },
    {
      "inputs": [
        {
          "internalType": "address",
          "name": "account",
          "type": "address"
        },
        {
          "internalType": "address",
          "name": "operator",
          "type": "address"
        }
      ],
      "name": "isApprovedForAll",
      "outputs": [
        {
          "internalType": "bool",
          "name": "",
          "type": "bool"
        }
      ],
      "stateMutability": "view",
      "type": "function"
    },
    {
      "inputs": [],
      "name": "owner",
      "outputs": [
        {
          "internalType": "address",
          "name": "",
          "type": "address"
        }
      ],
      "stateMutability": "view",
      "type": "function"
    },
    {
      "inputs": [
        {
          "internalType": "uint256",
          "name": "",
          "type": "uint256"
        }
      ],
      "name": "ownerOf",
      "outputs": [
        {
          "internalType": "address",
          "name": "",
          "type": "address"
        }
      ],
      "stateMutability": "view",
      "type": "function"
    },
    {
      "inputs": [],
      "name": "paused",
      "outputs": [
        {
          "internalType": "bool",
          "name": "",
          "type": "bool"
        }
      ],
      "stateMutability": "view",
      "type": "function"
    },
    {
      "inputs": [],
      "name": "renounceOwnership",
      "outputs": [],
      "stateMutability": "nonpayable",
      "type": "function"
    },
    {
      "inputs": [
        {
          "internalType": "address",
          "name": "from",
          "type": "address"
        },
        {
          "internalType": "address",
          "name": "to",
          "type": "address"
        },
        {
          "internalType": "uint256[]",
          "name": "ids",
          "type": "uint256[]"
        },
        {
          "internalType": "uint256[]",
          "name": "amounts",
          "type": "uint256[]"
        },
        {
          "internalType": "bytes",
          "name": "data",
          "type": "bytes"
        }
      ],
      "name": "safeBatchTransferFrom",
      "outputs": [],
      "stateMutability": "nonpayable",
      "type": "function"
    },
    {
      "inputs": [
        {
          "internalType": "address",
          "name": "from",
          "type": "address"
        },
        {
          "internalType": "address",
          "name": "to",
          "type": "address"
        },
        {
          "internalType": "uint256",
          "name": "id",
          "type": "uint256"
        },
        {
          "internalType": "uint256",
          "name": "amount",
          "type": "uint256"
        },
        {
          "internalType": "bytes",
          "name": "data",
          "type": "bytes"
        }
      ],
      "name": "safeTransferFrom",
      "outputs": [],
      "stateMutability": "nonpayable",
      "type": "function"
    },
    {
      "inputs": [
        {
          "internalType": "address",
          "name": "operator",
          "type": "address"
        },
        {
          "internalType": "bool",
          "name": "approved",
          "type": "bool"
        }
      ],
      "name": "setApprovalForAll",
      "outputs": [],
      "stateMutability": "nonpayable",
      "type": "function"
    },
    {
      "inputs": [
        {
          "internalType": "bytes4",
          "name": "interfaceId",
          "type": "bytes4"
        }
      ],
      "name": "supportsInterface",
      "outputs": [
        {
          "internalType": "bool",
          "name": "",
          "type": "bool"
        }
      ],
      "stateMutability": "view",
      "type": "function"
    },
    {
      "inputs": [
        {
          "internalType": "address",
          "name": "newOwner",
          "type": "address"
        }
      ],
      "name": "transferOwnership",
      "outputs": [],
      "stateMutability": "nonpayable",
      "type": "function"
    },
    {
      "inputs": [
        {
          "internalType": "uint256",
          "name": "",
          "type": "uint256"
        }
      ],
      "name": "uri",
      "outputs": [
        {
          "internalType": "string",
          "name": "",
          "type": "string"
        }
      ],
      "stateMutability": "view",
      "type": "function"
    },
    {
      "inputs": [],
      "name": "initialize",
      "outputs": [],
      "stateMutability": "nonpayable",
      "type": "function"
    },
    {
      "inputs": [
        {
          "internalType": "string",
          "name": "_newUri",
          "type": "string"
        }
      ],
      "name": "setUri",
      "outputs": [],
      "stateMutability": "nonpayable",
      "type": "function"
    },
    {
      "inputs": [
        {
          "internalType": "string",
          "name": "_hash",
          "type": "string"
        },
        {
          "internalType": "int256",
          "name": "_creatorFee",
          "type": "int256"
        }
      ],
      "name": "mint",
      "outputs": [],
      "stateMutability": "nonpayable",
      "type": "function"
    },
    {
      "inputs": [
        {
          "internalType": "string",
          "name": "_hash",
          "type": "string"
        }
      ],
      "name": "getTokenID",
      "outputs": [
        {
          "internalType": "uint256",
          "name": "tokenID",
          "type": "uint256"
        }
      ],
      "stateMutability": "view",
      "type": "function"
    },
    {
      "inputs": [],
      "name": "getMemesCount",
      "outputs": [
        {
          "internalType": "uint256",
          "name": "count",
          "type": "uint256"
        }
      ],
      "stateMutability": "view",
      "type": "function"
    },
    {
      "inputs": [],
      "name": "pause",
      "outputs": [],
      "stateMutability": "nonpayable",
      "type": "function"
    },
    {
      "inputs": [],
      "name": "unpause",
      "outputs": [],
      "stateMutability": "nonpayable",
      "type": "function"
    },
    {
      "inputs": [],
      "name": "sayHello",
      "outputs": [
        {
          "internalType": "string",
          "name": "",
          "type": "string"
        }
      ],
      "stateMutability": "pure",
      "type": "function"
    }
  ],
  "bytecode": "0x608060405234801561001057600080fd5b506145f2806100206000396000f3fe608060405234801561001057600080fd5b50600436106101575760003560e01c806378c3829b116100c3578063e5f6e2611161007c578063e5f6e261146103b0578063e706a639146103ce578063e985e9c5146103fe578063ef5fb05b1461042e578063f242432a1461044c578063f2fde38b1461046857610157565b806378c3829b146103165780638129fc1c146103465780638456cb59146103505780638da5cb5b1461035a5780639b642de114610378578063a22cb4651461039457610157565b80634e1273f4116101155780634e1273f41461022e578063501895ae1461025e578063589a17431461028e5780635c975abb146102be5780636352211e146102dc578063715018a61461030c57610157565b8062fdd58e1461015c57806301ffc9a71461018c5780630e89341c146101bc5780632d5497cd146101ec5780632eb2c2d6146102085780633f4ba83a14610224575b600080fd5b61017660048036038101906101719190613272565b610484565b6040516101839190613fd0565b60405180910390f35b6101a660048036038101906101a1919061331a565b61054e565b6040516101b39190613d58565b60405180910390f35b6101d660048036038101906101d19190613401565b610630565b6040516101e39190613d8e565b60405180910390f35b610206600480360381019061020191906133ad565b6106c4565b005b610222600480360381019061021d91906130e8565b61093b565b005b61022c610d34565b005b610248600480360381019061024391906132ae565b610e01565b6040516102559190613cff565b60405180910390f35b61027860048036038101906102739190613401565b610fb2565b6040516102859190613d8e565b60405180910390f35b6102a860048036038101906102a39190613401565b61105e565b6040516102b59190613bf9565b60405180910390f35b6102c6611091565b6040516102d39190613d58565b60405180910390f35b6102f660048036038101906102f19190613401565b6110a8565b6040516103039190613bf9565b60405180910390f35b6103146110db565b005b610330600480360381019061032b9190613401565b611218565b60405161033d9190613d73565b60405180910390f35b61034e611231565b005b610358611343565b005b610362611411565b60405161036f9190613bf9565b60405180910390f35b610392600480360381019061038d919061336c565b61143b565b005b6103ae60048036038101906103a99190613236565b61150b565b005b6103b861168c565b6040516103c59190613fd0565b60405180910390f35b6103e860048036038101906103e3919061336c565b6116e1565b6040516103f59190613fd0565b60405180910390f35b610418600480360381019061041391906130ac565b611751565b6040516104259190613d58565b60405180910390f35b6104366117e5565b6040516104439190613d8e565b60405180910390f35b610466600480360381019061046191906131a7565b611805565b005b610482600480360381019061047d9190613083565b611b20565b005b60008073ffffffffffffffffffffffffffffffffffffffff168373ffffffffffffffffffffffffffffffffffffffff1614156104f5576040517f08c379a00000000000000000000000000000000000000000000000000000000081526004016104ec90613e10565b60405180910390fd5b6065600083815260200190815260200160002060008473ffffffffffffffffffffffffffffffffffffffff1673ffffffffffffffffffffffffffffffffffffffff16815260200190815260200160002054905092915050565b60007fd9b67a26000000000000000000000000000000000000000000000000000000007bffffffffffffffffffffffffffffffffffffffffffffffffffffffff1916827bffffffffffffffffffffffffffffffffffffffffffffffffffffffff1916148061061957507f0e89341c000000000000000000000000000000000000000000000000000000007bffffffffffffffffffffffffffffffffffffffffffffffffffffffff1916827bffffffffffffffffffffffffffffffffffffffffffffffffffffffff1916145b80610629575061062882611ccc565b5b9050919050565b60606067805461063f906142c3565b80601f016020809104026020016040519081016040528092919081815260200182805461066b906142c3565b80156106b85780601f1061068d576101008083540402835291602001916106b8565b820191906000526020600020905b81548152906001019060200180831161069b57829003601f168201915b50505050509050919050565b6106cc611091565b1561070c576040517f08c379a000000000000000000000000000000000000000000000000000000000815260040161070390613e90565b60405180910390fd5b60fc8260405161071c9190613be2565b908152602001604051809103902060009054906101000a900460ff1615610778576040517f08c379a000000000000000000000000000000000000000000000000000000000815260040161076f90613e70565b60405180910390fd5b60fb829080600181540180825580915050600190039060005260206000200160009091909190915090805190602001906107b3929190612d66565b506000600160fb805490506107c891906141cf565b90506107e63382600160405180602001604052806000815250611d36565b600160fc846040516107f89190613be2565b908152602001604051809103902060006101000a81548160ff0219169083151502179055508060fd8460405161082e9190613be2565b9081526020016040518091039020819055503360fe600083815260200190815260200160002060006101000a81548173ffffffffffffffffffffffffffffffffffffffff021916908373ffffffffffffffffffffffffffffffffffffffff1602179055503360ff600083815260200190815260200160002060006101000a81548173ffffffffffffffffffffffffffffffffffffffff021916908373ffffffffffffffffffffffffffffffffffffffff160217905550816101006000838152602001908152602001600020819055507f48dc2aeea2a01c56706a90dc93cbd9fe7e1783b9c475708d49ea0b7c579ddc9d338260405161092e929190613cd6565b60405180910390a1505050565b815183511461097f576040517f08c379a000000000000000000000000000000000000000000000000000000000815260040161097690613f90565b60405180910390fd5b600073ffffffffffffffffffffffffffffffffffffffff168473ffffffffffffffffffffffffffffffffffffffff1614156109ef576040517f08c379a00000000000000000000000000000000000000000000000000000000081526004016109e690613eb0565b60405180910390fd5b6109f7611ecd565b73ffffffffffffffffffffffffffffffffffffffff168573ffffffffffffffffffffffffffffffffffffffff161480610a3d5750610a3c85610a37611ecd565b611751565b5b610a7c576040517f08c379a0000000000000000000000000000000000000000000000000000000008152600401610a7390613ed0565b60405180910390fd5b6000610a86611ecd565b9050610a96818787878787611ed5565b60005b8451811015610c9f576000858281518110610add577f4e487b7100000000000000000000000000000000000000000000000000000000600052603260045260246000fd5b602002602001015190506000858381518110610b22577f4e487b7100000000000000000000000000000000000000000000000000000000600052603260045260246000fd5b6020026020010151905060006065600084815260200190815260200160002060008b73ffffffffffffffffffffffffffffffffffffffff1673ffffffffffffffffffffffffffffffffffffffff16815260200190815260200160002054905081811015610bc4576040517f08c379a0000000000000000000000000000000000000000000000000000000008152600401610bbb90613f10565b60405180910390fd5b8181610bd091906141cf565b6065600085815260200190815260200160002060008c73ffffffffffffffffffffffffffffffffffffffff1673ffffffffffffffffffffffffffffffffffffffff16815260200190815260200160002081905550816065600085815260200190815260200160002060008b73ffffffffffffffffffffffffffffffffffffffff1673ffffffffffffffffffffffffffffffffffffffff1681526020019081526020016000206000828254610c849190614179565b9250508190555050505080610c98906142f5565b9050610a99565b508473ffffffffffffffffffffffffffffffffffffffff168673ffffffffffffffffffffffffffffffffffffffff168273ffffffffffffffffffffffffffffffffffffffff167f4a39dc06d4c0dbc64b70af90fd698a233a518aa5d07e595d983b8c0526c8f7fb8787604051610d16929190613d21565b60405180910390a4610d2c818787878787611edd565b505050505050565b610d3c611091565b610d7b576040517f08c379a0000000000000000000000000000000000000000000000000000000008152600401610d7290613df0565b60405180910390fd5b610d83611ecd565b73ffffffffffffffffffffffffffffffffffffffff16610da1611411565b73ffffffffffffffffffffffffffffffffffffffff1614610df7576040517f08c379a0000000000000000000000000000000000000000000000000000000008152600401610dee90613f30565b60405180910390fd5b610dff6120ad565b565b60608151835114610e47576040517f08c379a0000000000000000000000000000000000000000000000000000000008152600401610e3e90613f70565b60405180910390fd5b6000835167ffffffffffffffff811115610e8a577f4e487b7100000000000000000000000000000000000000000000000000000000600052604160045260246000fd5b604051908082528060200260200182016040528015610eb85781602001602082028036833780820191505090505b50905060005b8451811015610fa757610f51858281518110610f03577f4e487b7100000000000000000000000000000000000000000000000000000000600052603260045260246000fd5b6020026020010151858381518110610f44577f4e487b7100000000000000000000000000000000000000000000000000000000600052603260045260246000fd5b6020026020010151610484565b828281518110610f8a577f4e487b7100000000000000000000000000000000000000000000000000000000600052603260045260246000fd5b60200260200101818152505080610fa0906142f5565b9050610ebe565b508091505092915050565b60fb8181548110610fc257600080fd5b906000526020600020016000915090508054610fdd906142c3565b80601f0160208091040260200160405190810160405280929190818152602001828054611009906142c3565b80156110565780601f1061102b57610100808354040283529160200191611056565b820191906000526020600020905b81548152906001019060200180831161103957829003601f168201915b505050505081565b60fe6020528060005260406000206000915054906101000a900473ffffffffffffffffffffffffffffffffffffffff1681565b600060c960009054906101000a900460ff16905090565b60ff6020528060005260406000206000915054906101000a900473ffffffffffffffffffffffffffffffffffffffff1681565b6110e3611ecd565b73ffffffffffffffffffffffffffffffffffffffff16611101611411565b73ffffffffffffffffffffffffffffffffffffffff1614611157576040517f08c379a000000000000000000000000000000000000000000000000000000000815260040161114e90613f30565b60405180910390fd5b600073ffffffffffffffffffffffffffffffffffffffff16609760009054906101000a900473ffffffffffffffffffffffffffffffffffffffff1673ffffffffffffffffffffffffffffffffffffffff167f8be0079c531659141344cd1fd0a4f28419497f9722a3daafe3b4186f6b6457e060405160405180910390a36000609760006101000a81548173ffffffffffffffffffffffffffffffffffffffff021916908373ffffffffffffffffffffffffffffffffffffffff160217905550565b6101006020528060005260406000206000915090505481565b600060019054906101000a900460ff1680611257575060008054906101000a900460ff16155b611296576040517f08c379a000000000000000000000000000000000000000000000000000000000815260040161128d90613ef0565b60405180910390fd5b60008060019054906101000a900460ff1615905080156112e6576001600060016101000a81548160ff02191690831515021790555060016000806101000a81548160ff0219169083151502179055505b6113076040518060a00160405280606f8152602001614513606f913961214f565b61130f612242565b611317612323565b61131f61240c565b80156113405760008060016101000a81548160ff0219169083151502179055505b50565b61134b611091565b1561138b576040517f08c379a000000000000000000000000000000000000000000000000000000000815260040161138290613e90565b60405180910390fd5b611393611ecd565b73ffffffffffffffffffffffffffffffffffffffff166113b1611411565b73ffffffffffffffffffffffffffffffffffffffff1614611407576040517f08c379a00000000000000000000000000000000000000000000000000000000081526004016113fe90613f30565b60405180910390fd5b61140f6124f5565b565b6000609760009054906101000a900473ffffffffffffffffffffffffffffffffffffffff16905090565b611443611091565b15611483576040517f08c379a000000000000000000000000000000000000000000000000000000000815260040161147a90613e90565b60405180910390fd5b61148b611ecd565b73ffffffffffffffffffffffffffffffffffffffff166114a9611411565b73ffffffffffffffffffffffffffffffffffffffff16146114ff576040517f08c379a00000000000000000000000000000000000000000000000000000000081526004016114f690613f30565b60405180910390fd5b61150881612598565b50565b8173ffffffffffffffffffffffffffffffffffffffff1661152a611ecd565b73ffffffffffffffffffffffffffffffffffffffff161415611581576040517f08c379a000000000000000000000000000000000000000000000000000000000815260040161157890613f50565b60405180910390fd5b806066600061158e611ecd565b73ffffffffffffffffffffffffffffffffffffffff1673ffffffffffffffffffffffffffffffffffffffff16815260200190815260200160002060008473ffffffffffffffffffffffffffffffffffffffff1673ffffffffffffffffffffffffffffffffffffffff16815260200190815260200160002060006101000a81548160ff0219169083151502179055508173ffffffffffffffffffffffffffffffffffffffff1661163b611ecd565b73ffffffffffffffffffffffffffffffffffffffff167f17307eab39ab6107e8899845ad3d59bd9653f200f220920489ca2b5937696c31836040516116809190613d58565b60405180910390a35050565b6000611696611091565b156116d6576040517f08c379a00000000000000000000000000000000000000000000000000000000081526004016116cd90613e90565b60405180910390fd5b60fb80549050905090565b60006116eb611091565b1561172b576040517f08c379a000000000000000000000000000000000000000000000000000000000815260040161172290613e90565b60405180910390fd5b60fd8260405161173b9190613be2565b9081526020016040518091039020549050919050565b6000606660008473ffffffffffffffffffffffffffffffffffffffff1673ffffffffffffffffffffffffffffffffffffffff16815260200190815260200160002060008373ffffffffffffffffffffffffffffffffffffffff1673ffffffffffffffffffffffffffffffffffffffff16815260200190815260200160002060009054906101000a900460ff16905092915050565b60606040518060600160405280603b8152602001614582603b9139905090565b600073ffffffffffffffffffffffffffffffffffffffff168473ffffffffffffffffffffffffffffffffffffffff161415611875576040517f08c379a000000000000000000000000000000000000000000000000000000000815260040161186c90613eb0565b60405180910390fd5b61187d611ecd565b73ffffffffffffffffffffffffffffffffffffffff168573ffffffffffffffffffffffffffffffffffffffff1614806118c357506118c2856118bd611ecd565b611751565b5b611902576040517f08c379a00000000000000000000000000000000000000000000000000000000081526004016118f990613e50565b60405180910390fd5b600061190c611ecd565b905061192c81878761191d886125b2565b611926886125b2565b87611ed5565b60006065600086815260200190815260200160002060008873ffffffffffffffffffffffffffffffffffffffff1673ffffffffffffffffffffffffffffffffffffffff168152602001908152602001600020549050838110156119c4576040517f08c379a00000000000000000000000000000000000000000000000000000000081526004016119bb90613f10565b60405180910390fd5b83816119d091906141cf565b6065600087815260200190815260200160002060008973ffffffffffffffffffffffffffffffffffffffff1673ffffffffffffffffffffffffffffffffffffffff16815260200190815260200160002081905550836065600087815260200190815260200160002060008873ffffffffffffffffffffffffffffffffffffffff1673ffffffffffffffffffffffffffffffffffffffff1681526020019081526020016000206000828254611a849190614179565b925050819055508573ffffffffffffffffffffffffffffffffffffffff168773ffffffffffffffffffffffffffffffffffffffff168373ffffffffffffffffffffffffffffffffffffffff167fc3d58168c5ae7397731d063d5bbf3d657854427343f4c083240f7aacaa2d0f628888604051611b01929190613feb565b60405180910390a4611b17828888888888612678565b50505050505050565b611b28611ecd565b73ffffffffffffffffffffffffffffffffffffffff16611b46611411565b73ffffffffffffffffffffffffffffffffffffffff1614611b9c576040517f08c379a0000000000000000000000000000000000000000000000000000000008152600401611b9390613f30565b60405180910390fd5b600073ffffffffffffffffffffffffffffffffffffffff168173ffffffffffffffffffffffffffffffffffffffff161415611c0c576040517f08c379a0000000000000000000000000000000000000000000000000000000008152600401611c0390613e30565b60405180910390fd5b8073ffffffffffffffffffffffffffffffffffffffff16609760009054906101000a900473ffffffffffffffffffffffffffffffffffffffff1673ffffffffffffffffffffffffffffffffffffffff167f8be0079c531659141344cd1fd0a4f28419497f9722a3daafe3b4186f6b6457e060405160405180910390a380609760006101000a81548173ffffffffffffffffffffffffffffffffffffffff021916908373ffffffffffffffffffffffffffffffffffffffff16021790555050565b60007f01ffc9a7000000000000000000000000000000000000000000000000000000007bffffffffffffffffffffffffffffffffffffffffffffffffffffffff1916827bffffffffffffffffffffffffffffffffffffffffffffffffffffffff1916149050919050565b600073ffffffffffffffffffffffffffffffffffffffff168473ffffffffffffffffffffffffffffffffffffffff161415611da6576040517f08c379a0000000000000000000000000000000000000000000000000000000008152600401611d9d90613fb0565b60405180910390fd5b6000611db0611ecd565b9050611dd181600087611dc2886125b2565b611dcb886125b2565b87611ed5565b826065600086815260200190815260200160002060008773ffffffffffffffffffffffffffffffffffffffff1673ffffffffffffffffffffffffffffffffffffffff1681526020019081526020016000206000828254611e319190614179565b925050819055508473ffffffffffffffffffffffffffffffffffffffff16600073ffffffffffffffffffffffffffffffffffffffff168273ffffffffffffffffffffffffffffffffffffffff167fc3d58168c5ae7397731d063d5bbf3d657854427343f4c083240f7aacaa2d0f628787604051611eaf929190613feb565b60405180910390a4611ec681600087878787612678565b5050505050565b600033905090565b505050505050565b611efc8473ffffffffffffffffffffffffffffffffffffffff16612848565b156120a5578373ffffffffffffffffffffffffffffffffffffffff1663bc197c8187878686866040518663ffffffff1660e01b8152600401611f42959493929190613c14565b602060405180830381600087803b158015611f5c57600080fd5b505af1925050508015611f8d57506040513d601f19601f82011682018060405250810190611f8a9190613343565b60015b61201c57611f996143e9565b80611fa45750611fe1565b806040517f08c379a0000000000000000000000000000000000000000000000000000000008152600401611fd89190613d8e565b60405180910390fd5b6040517f08c379a000000000000000000000000000000000000000000000000000000000815260040161201390613db0565b60405180910390fd5b63bc197c8160e01b7bffffffffffffffffffffffffffffffffffffffffffffffffffffffff1916817bffffffffffffffffffffffffffffffffffffffffffffffffffffffff1916146120a3576040517f08c379a000000000000000000000000000000000000000000000000000000000815260040161209a90613dd0565b60405180910390fd5b505b505050505050565b6120b5611091565b6120f4576040517f08c379a00000000000000000000000000000000000000000000000000000000081526004016120eb90613df0565b60405180910390fd5b600060c960006101000a81548160ff0219169083151502179055507f5db9ee0a495bf2e6ff9c91a7834c1ba4fdd244a5e8aa4e537bd38aeae4b073aa612138611ecd565b6040516121459190613bf9565b60405180910390a1565b600060019054906101000a900460ff1680612175575060008054906101000a900460ff16155b6121b4576040517f08c379a00000000000000000000000000000000000000000000000000000000081526004016121ab90613ef0565b60405180910390fd5b60008060019054906101000a900460ff161590508015612204576001600060016101000a81548160ff02191690831515021790555060016000806101000a81548160ff0219169083151502179055505b61220c61285b565b612214612934565b61221d82612a0d565b801561223e5760008060016101000a81548160ff0219169083151502179055505b5050565b600060019054906101000a900460ff1680612268575060008054906101000a900460ff16155b6122a7576040517f08c379a000000000000000000000000000000000000000000000000000000000815260040161229e90613ef0565b60405180910390fd5b60008060019054906101000a900460ff1615905080156122f7576001600060016101000a81548160ff02191690831515021790555060016000806101000a81548160ff0219169083151502179055505b6122ff612934565b80156123205760008060016101000a81548160ff0219169083151502179055505b50565b600060019054906101000a900460ff1680612349575060008054906101000a900460ff16155b612388576040517f08c379a000000000000000000000000000000000000000000000000000000000815260040161237f90613ef0565b60405180910390fd5b60008060019054906101000a900460ff1615905080156123d8576001600060016101000a81548160ff02191690831515021790555060016000806101000a81548160ff0219169083151502179055505b6123e061285b565b6123e8612af0565b80156124095760008060016101000a81548160ff0219169083151502179055505b50565b600060019054906101000a900460ff1680612432575060008054906101000a900460ff16155b612471576040517f08c379a000000000000000000000000000000000000000000000000000000000815260040161246890613ef0565b60405180910390fd5b60008060019054906101000a900460ff1615905080156124c1576001600060016101000a81548160ff02191690831515021790555060016000806101000a81548160ff0219169083151502179055505b6124c961285b565b6124d1612c72565b80156124f25760008060016101000a81548160ff0219169083151502179055505b50565b6124fd611091565b1561253d576040517f08c379a000000000000000000000000000000000000000000000000000000000815260040161253490613e90565b60405180910390fd5b600160c960006101000a81548160ff0219169083151502179055507f62e78cea01bee320cd4e420270b5ea74000d11b0c9f74754ebdbfc544b05a258612581611ecd565b60405161258e9190613bf9565b60405180910390a1565b80606790805190602001906125ae929190612d66565b5050565b60606000600167ffffffffffffffff8111156125f7577f4e487b7100000000000000000000000000000000000000000000000000000000600052604160045260246000fd5b6040519080825280602002602001820160405280156126255781602001602082028036833780820191505090505b5090508281600081518110612663577f4e487b7100000000000000000000000000000000000000000000000000000000600052603260045260246000fd5b60200260200101818152505080915050919050565b6126978473ffffffffffffffffffffffffffffffffffffffff16612848565b15612840578373ffffffffffffffffffffffffffffffffffffffff1663f23a6e6187878686866040518663ffffffff1660e01b81526004016126dd959493929190613c7c565b602060405180830381600087803b1580156126f757600080fd5b505af192505050801561272857506040513d601f19601f820116820180604052508101906127259190613343565b60015b6127b7576127346143e9565b8061273f575061277c565b806040517f08c379a00000000000000000000000000000000000000000000000000000000081526004016127739190613d8e565b60405180910390fd5b6040517f08c379a00000000000000000000000000000000000000000000000000000000081526004016127ae90613db0565b60405180910390fd5b63f23a6e6160e01b7bffffffffffffffffffffffffffffffffffffffffffffffffffffffff1916817bffffffffffffffffffffffffffffffffffffffffffffffffffffffff19161461283e576040517f08c379a000000000000000000000000000000000000000000000000000000000815260040161283590613dd0565b60405180910390fd5b505b505050505050565b600080823b905060008111915050919050565b600060019054906101000a900460ff1680612881575060008054906101000a900460ff16155b6128c0576040517f08c379a00000000000000000000000000000000000000000000000000000000081526004016128b790613ef0565b60405180910390fd5b60008060019054906101000a900460ff161590508015612910576001600060016101000a81548160ff02191690831515021790555060016000806101000a81548160ff0219169083151502179055505b80156129315760008060016101000a81548160ff0219169083151502179055505b50565b600060019054906101000a900460ff168061295a575060008054906101000a900460ff16155b612999576040517f08c379a000000000000000000000000000000000000000000000000000000000815260040161299090613ef0565b60405180910390fd5b60008060019054906101000a900460ff1615905080156129e9576001600060016101000a81548160ff02191690831515021790555060016000806101000a81548160ff0219169083151502179055505b8015612a0a5760008060016101000a81548160ff0219169083151502179055505b50565b600060019054906101000a900460ff1680612a33575060008054906101000a900460ff16155b612a72576040517f08c379a0000000000000000000000000000000000000000000000000000000008152600401612a6990613ef0565b60405180910390fd5b60008060019054906101000a900460ff161590508015612ac2576001600060016101000a81548160ff02191690831515021790555060016000806101000a81548160ff0219169083151502179055505b612acb82612598565b8015612aec5760008060016101000a81548160ff0219169083151502179055505b5050565b600060019054906101000a900460ff1680612b16575060008054906101000a900460ff16155b612b55576040517f08c379a0000000000000000000000000000000000000000000000000000000008152600401612b4c90613ef0565b60405180910390fd5b60008060019054906101000a900460ff161590508015612ba5576001600060016101000a81548160ff02191690831515021790555060016000806101000a81548160ff0219169083151502179055505b6000612baf611ecd565b905080609760006101000a81548173ffffffffffffffffffffffffffffffffffffffff021916908373ffffffffffffffffffffffffffffffffffffffff1602179055508073ffffffffffffffffffffffffffffffffffffffff16600073ffffffffffffffffffffffffffffffffffffffff167f8be0079c531659141344cd1fd0a4f28419497f9722a3daafe3b4186f6b6457e060405160405180910390a3508015612c6f5760008060016101000a81548160ff0219169083151502179055505b50565b600060019054906101000a900460ff1680612c98575060008054906101000a900460ff16155b612cd7576040517f08c379a0000000000000000000000000000000000000000000000000000000008152600401612cce90613ef0565b60405180910390fd5b60008060019054906101000a900460ff161590508015612d27576001600060016101000a81548160ff02191690831515021790555060016000806101000a81548160ff0219169083151502179055505b600060c960006101000a81548160ff0219169083151502179055508015612d635760008060016101000a81548160ff0219169083151502179055505b50565b828054612d72906142c3565b90600052602060002090601f016020900481019282612d945760008555612ddb565b82601f10612dad57805160ff1916838001178555612ddb565b82800160010185558215612ddb579182015b82811115612dda578251825591602001919060010190612dbf565b5b509050612de89190612dec565b5090565b5b80821115612e05576000816000905550600101612ded565b5090565b6000612e1c612e1784614045565b614014565b90508083825260208201905082856020860282011115612e3b57600080fd5b60005b85811015612e6b5781612e518882612f5d565b845260208401935060208301925050600181019050612e3e565b5050509392505050565b6000612e88612e8384614071565b614014565b90508083825260208201905082856020860282011115612ea757600080fd5b60005b85811015612ed75781612ebd888261306e565b845260208401935060208301925050600181019050612eaa565b5050509392505050565b6000612ef4612eef8461409d565b614014565b905082815260208101848484011115612f0c57600080fd5b612f17848285614281565b509392505050565b6000612f32612f2d846140cd565b614014565b905082815260208101848484011115612f4a57600080fd5b612f55848285614281565b509392505050565b600081359050612f6c8161449f565b92915050565b600082601f830112612f8357600080fd5b8135612f93848260208601612e09565b91505092915050565b600082601f830112612fad57600080fd5b8135612fbd848260208601612e75565b91505092915050565b600081359050612fd5816144b6565b92915050565b600081359050612fea816144cd565b92915050565b600081519050612fff816144cd565b92915050565b600082601f83011261301657600080fd5b8135613026848260208601612ee1565b91505092915050565b60008135905061303e816144e4565b92915050565b600082601f83011261305557600080fd5b8135613065848260208601612f1f565b91505092915050565b60008135905061307d816144fb565b92915050565b60006020828403121561309557600080fd5b60006130a384828501612f5d565b91505092915050565b600080604083850312156130bf57600080fd5b60006130cd85828601612f5d565b92505060206130de85828601612f5d565b9150509250929050565b600080600080600060a0868803121561310057600080fd5b600061310e88828901612f5d565b955050602061311f88828901612f5d565b945050604086013567ffffffffffffffff81111561313c57600080fd5b61314888828901612f9c565b935050606086013567ffffffffffffffff81111561316557600080fd5b61317188828901612f9c565b925050608086013567ffffffffffffffff81111561318e57600080fd5b61319a88828901613005565b9150509295509295909350565b600080600080600060a086880312156131bf57600080fd5b60006131cd88828901612f5d565b95505060206131de88828901612f5d565b94505060406131ef8882890161306e565b93505060606132008882890161306e565b925050608086013567ffffffffffffffff81111561321d57600080fd5b61322988828901613005565b9150509295509295909350565b6000806040838503121561324957600080fd5b600061325785828601612f5d565b925050602061326885828601612fc6565b9150509250929050565b6000806040838503121561328557600080fd5b600061329385828601612f5d565b92505060206132a48582860161306e565b9150509250929050565b600080604083850312156132c157600080fd5b600083013567ffffffffffffffff8111156132db57600080fd5b6132e785828601612f72565b925050602083013567ffffffffffffffff81111561330457600080fd5b61331085828601612f9c565b9150509250929050565b60006020828403121561332c57600080fd5b600061333a84828501612fdb565b91505092915050565b60006020828403121561335557600080fd5b600061336384828501612ff0565b91505092915050565b60006020828403121561337e57600080fd5b600082013567ffffffffffffffff81111561339857600080fd5b6133a484828501613044565b91505092915050565b600080604083850312156133c057600080fd5b600083013567ffffffffffffffff8111156133da57600080fd5b6133e685828601613044565b92505060206133f78582860161302f565b9150509250929050565b60006020828403121561341357600080fd5b60006134218482850161306e565b91505092915050565b60006134368383613bc4565b60208301905092915050565b61344b81614203565b82525050565b600061345c8261410d565b613466818561413b565b9350613471836140fd565b8060005b838110156134a2578151613489888261342a565b97506134948361412e565b925050600181019050613475565b5085935050505092915050565b6134b881614215565b82525050565b60006134c982614118565b6134d3818561414c565b93506134e3818560208601614290565b6134ec816143cb565b840191505092915050565b6135008161424d565b82525050565b600061351182614123565b61351b818561415d565b935061352b818560208601614290565b613534816143cb565b840191505092915050565b600061354a82614123565b613554818561416e565b9350613564818560208601614290565b80840191505092915050565b600061357d60348361415d565b91507f455243313135353a207472616e7366657220746f206e6f6e204552433131353560008301527f526563656976657220696d706c656d656e7465720000000000000000000000006020830152604082019050919050565b60006135e360288361415d565b91507f455243313135353a204552433131353552656365697665722072656a6563746560008301527f6420746f6b656e730000000000000000000000000000000000000000000000006020830152604082019050919050565b600061364960148361415d565b91507f5061757361626c653a206e6f74207061757365640000000000000000000000006000830152602082019050919050565b6000613689602b8361415d565b91507f455243313135353a2062616c616e636520717565727920666f7220746865207a60008301527f65726f20616464726573730000000000000000000000000000000000000000006020830152604082019050919050565b60006136ef60268361415d565b91507f4f776e61626c653a206e6577206f776e657220697320746865207a65726f206160008301527f64647265737300000000000000000000000000000000000000000000000000006020830152604082019050919050565b600061375560298361415d565b91507f455243313135353a2063616c6c6572206973206e6f74206f776e6572206e6f7260008301527f20617070726f76656400000000000000000000000000000000000000000000006020830152604082019050919050565b60006137bb60268361415d565b91507f546f6b656e20776974682074686973206861736820697320616c72656164792060008301527f6d696e74656400000000000000000000000000000000000000000000000000006020830152604082019050919050565b600061382160108361415d565b91507f5061757361626c653a20706175736564000000000000000000000000000000006000830152602082019050919050565b600061386160258361415d565b91507f455243313135353a207472616e7366657220746f20746865207a65726f20616460008301527f64726573730000000000000000000000000000000000000000000000000000006020830152604082019050919050565b60006138c760328361415d565b91507f455243313135353a207472616e736665722063616c6c6572206973206e6f742060008301527f6f776e6572206e6f7220617070726f76656400000000000000000000000000006020830152604082019050919050565b600061392d602e8361415d565b91507f496e697469616c697a61626c653a20636f6e747261637420697320616c72656160008301527f647920696e697469616c697a65640000000000000000000000000000000000006020830152604082019050919050565b6000613993602a8361415d565b91507f455243313135353a20696e73756666696369656e742062616c616e636520666f60008301527f72207472616e73666572000000000000000000000000000000000000000000006020830152604082019050919050565b60006139f960208361415d565b91507f4f776e61626c653a2063616c6c6572206973206e6f7420746865206f776e65726000830152602082019050919050565b6000613a3960298361415d565b91507f455243313135353a2073657474696e6720617070726f76616c2073746174757360008301527f20666f722073656c6600000000000000000000000000000000000000000000006020830152604082019050919050565b6000613a9f60298361415d565b91507f455243313135353a206163636f756e747320616e6420696473206c656e67746860008301527f206d69736d6174636800000000000000000000000000000000000000000000006020830152604082019050919050565b6000613b0560288361415d565b91507f455243313135353a2069647320616e6420616d6f756e7473206c656e6774682060008301527f6d69736d617463680000000000000000000000000000000000000000000000006020830152604082019050919050565b6000613b6b60218361415d565b91507f455243313135353a206d696e7420746f20746865207a65726f2061646472657360008301527f73000000000000000000000000000000000000000000000000000000000000006020830152604082019050919050565b613bcd81614277565b82525050565b613bdc81614277565b82525050565b6000613bee828461353f565b915081905092915050565b6000602082019050613c0e6000830184613442565b92915050565b600060a082019050613c296000830188613442565b613c366020830187613442565b8181036040830152613c488186613451565b90508181036060830152613c5c8185613451565b90508181036080830152613c7081846134be565b90509695505050505050565b600060a082019050613c916000830188613442565b613c9e6020830187613442565b613cab6040830186613bd3565b613cb86060830185613bd3565b8181036080830152613cca81846134be565b90509695505050505050565b6000604082019050613ceb6000830185613442565b613cf86020830184613bd3565b9392505050565b60006020820190508181036000830152613d198184613451565b905092915050565b60006040820190508181036000830152613d3b8185613451565b90508181036020830152613d4f8184613451565b90509392505050565b6000602082019050613d6d60008301846134af565b92915050565b6000602082019050613d8860008301846134f7565b92915050565b60006020820190508181036000830152613da88184613506565b905092915050565b60006020820190508181036000830152613dc981613570565b9050919050565b60006020820190508181036000830152613de9816135d6565b9050919050565b60006020820190508181036000830152613e098161363c565b9050919050565b60006020820190508181036000830152613e298161367c565b9050919050565b60006020820190508181036000830152613e49816136e2565b9050919050565b60006020820190508181036000830152613e6981613748565b9050919050565b60006020820190508181036000830152613e89816137ae565b9050919050565b60006020820190508181036000830152613ea981613814565b9050919050565b60006020820190508181036000830152613ec981613854565b9050919050565b60006020820190508181036000830152613ee9816138ba565b9050919050565b60006020820190508181036000830152613f0981613920565b9050919050565b60006020820190508181036000830152613f2981613986565b9050919050565b60006020820190508181036000830152613f49816139ec565b9050919050565b60006020820190508181036000830152613f6981613a2c565b9050919050565b60006020820190508181036000830152613f8981613a92565b9050919050565b60006020820190508181036000830152613fa981613af8565b9050919050565b60006020820190508181036000830152613fc981613b5e565b9050919050565b6000602082019050613fe56000830184613bd3565b92915050565b60006040820190506140006000830185613bd3565b61400d6020830184613bd3565b9392505050565b6000604051905081810181811067ffffffffffffffff8211171561403b5761403a61439c565b5b8060405250919050565b600067ffffffffffffffff8211156140605761405f61439c565b5b602082029050602081019050919050565b600067ffffffffffffffff82111561408c5761408b61439c565b5b602082029050602081019050919050565b600067ffffffffffffffff8211156140b8576140b761439c565b5b601f19601f8301169050602081019050919050565b600067ffffffffffffffff8211156140e8576140e761439c565b5b601f19601f8301169050602081019050919050565b6000819050602082019050919050565b600081519050919050565b600081519050919050565b600081519050919050565b6000602082019050919050565b600082825260208201905092915050565b600082825260208201905092915050565b600082825260208201905092915050565b600081905092915050565b600061418482614277565b915061418f83614277565b9250827fffffffffffffffffffffffffffffffffffffffffffffffffffffffffffffffff038211156141c4576141c361433e565b5b828201905092915050565b60006141da82614277565b91506141e583614277565b9250828210156141f8576141f761433e565b5b828203905092915050565b600061420e82614257565b9050919050565b60008115159050919050565b60007fffffffff0000000000000000000000000000000000000000000000000000000082169050919050565b6000819050919050565b600073ffffffffffffffffffffffffffffffffffffffff82169050919050565b6000819050919050565b82818337600083830152505050565b60005b838110156142ae578082015181840152602081019050614293565b838111156142bd576000848401525b50505050565b600060028204905060018216806142db57607f821691505b602082108114156142ef576142ee61436d565b5b50919050565b600061430082614277565b91507fffffffffffffffffffffffffffffffffffffffffffffffffffffffffffffffff8214156143335761433261433e565b5b600182019050919050565b7f4e487b7100000000000000000000000000000000000000000000000000000000600052601160045260246000fd5b7f4e487b7100000000000000000000000000000000000000000000000000000000600052602260045260246000fd5b7f4e487b7100000000000000000000000000000000000000000000000000000000600052604160045260246000fd5b6000601f19601f8301169050919050565b60008160e01c9050919050565b600060443d10156143f95761449c565b60046000803e61440a6000516143dc565b6308c379a0811461441b575061449c565b60405160043d036004823e80513d602482011167ffffffffffffffff821117156144475750505061449c565b808201805167ffffffffffffffff81111561446657505050505061449c565b8060208301013d85018111156144815750505050505061449c565b61448a826143cb565b60208401016040528296505050505050505b90565b6144a881614203565b81146144b357600080fd5b50565b6144bf81614215565b81146144ca57600080fd5b50565b6144d681614221565b81146144e157600080fd5b50565b6144ed8161424d565b81146144f857600080fd5b50565b61450481614277565b811461450f57600080fd5b5056fe68747470733a2f2f6875622e74657874696c652e696f2f697066732f62616679626569617a347371777261637967737578376d6f616d33746364377a6e67353366366768346b687a6873726c686b746f343733633572712f746f6b656e6d657461646174612f7b69647d2e6a736f6e48656c6c6f2066726f6d206166746572207468652050726f787920557067726164652121204920616d20746865206e65772066756e6374696f6e21a2646970667358221220cd050d84f5c054f285489277510efde236b219b1d1e10beea6f57710f3c205cb64736f6c63430008000033",
  "immutableReferences": {},
  "source": "// SPDX-License-Identifier: MIT\n\n//This contract is an example of an Upgraded contract, At the end of the code you can find an additional function sayHello()\n//This shall demonstrate, that it is possible to add functionality at the end of the code. It is very important to only append code\n//and never change any order of variables, nor delete any of them, in order to avoid storage collisions!!\n//Compare MemeOfTheDayV4Pause with MemeOfTheDayV3Pause to get a precise understanding! \n\npragma solidity ^0.8.0;\n\nimport \"../../../node_modules/@openzeppelin/contracts-upgradeable/token/ERC1155/ERC1155Upgradeable.sol\";\nimport \"../../../node_modules/@openzeppelin/contracts-upgradeable/access/OwnableUpgradeable.sol\";\nimport \"../../../node_modules/@openzeppelin/contracts-upgradeable/proxy/utils/Initializable.sol\";\nimport \"../../../node_modules/@openzeppelin/contracts-upgradeable/security/PausableUpgradeable.sol\";\n\ncontract MemeOfTheDayV4Pause is ERC1155Upgradeable, OwnableUpgradeable, PausableUpgradeable {\n\nstring[] public hashes;\n\n    // Mapping for enforcing unique hashes\n    mapping(string => bool) _hashExists; \n\n    // Mapping from ipfs picture hash to NFT tokenID\n    mapping (string => uint256) private _hashToken;  \n\n    mapping(uint256 => address) public creatorOf;\n    mapping(uint256 => address) public ownerOf;\n    mapping(uint256 => int256) public creatorFee;\n\n    event MemeMinted(address creator, uint256 tokenId);\n\n    function initialize() public initializer {\n        __ERC1155_init(\"https://hub.textile.io/ipfs/bafybeiaz4sqwracygsux7moam3tcd7zng53f6gh4khzhsrlhkto473c5rq/tokenmetadata/{id}.json\");\n        __ERC165_init();\n        __Ownable_init();\n        __Pausable_init();\n    }\n    /**\n     * @notice Changes the URI to fetch NFTs info from\n     * @param _newUri   the new URI to fetch NFTs info from\n     */\n    function setUri(string memory _newUri) external whenNotPaused onlyOwner  {\n        _setURI(_newUri);\n    }\n\n    /**\n     * @notice Mints a new meme NFT\n     * @param _hash IPFS hash of the NFT\n     * @param _creatorFee custom fee to send to the creator, if is -1 it uses the default one set in the MOTDSaleParametersProviderContract\n     */\n    function mint(string memory _hash, int256 _creatorFee) public whenNotPaused {\n        require(!_hashExists[_hash], \"Token with this hash is already minted\");\n\n        hashes.push(_hash);\n        uint256 _id = hashes.length - 1;\n        _mint(msg.sender, _id, 1, \"\");\n\n        _hashExists[_hash] = true;\n        _hashToken[_hash] = _id;\n\n        creatorOf[_id] = msg.sender;\n        ownerOf[_id] = msg.sender;\n        creatorFee[_id] = _creatorFee;\n\n        emit MemeMinted(msg.sender, _id);\n    }\n\n    /**\n     * @notice Returns the TokenID of meme\n     * @return tokenID of the meme\n     */\n    function getTokenID(string memory _hash) public view whenNotPaused returns (uint256 tokenID) {\n        return _hashToken[_hash];\n    }\n\n    /**\n     * @notice Returns the number of minted memes\n     * @return count the number of memes\n     */\n    function getMemesCount() public view whenNotPaused returns (uint256 count) {\n        return hashes.length;\n    }\n\n    function pause() public whenNotPaused onlyOwner {\n        _pause();\n    }\n\n    function unpause() public whenPaused onlyOwner {\n        _unpause();\n    }\n\n       function sayHello()public pure returns (string memory) {\n        return \"Hello from after the Proxy Upgrade!! I am the new function!\";\n    }\n\n}",
  "sourcePath": "/home/gobhi/Desktop/meme-of-the-day/src/contracts/src/MemeOfTheDayV4Pause.sol",
  "compiler": {
    "name": "solc",
    "version": "0.8.0+commit.c7dfd78e.Emscripten.clang"
  },
  "schemaVersion": "3.4.1",
  "updatedAt": "2021-07-16T12:54:39.003Z",
  "devdoc": {
    "kind": "dev",
    "methods": {
      "balanceOf(address,uint256)": {
        "details": "See {IERC1155-balanceOf}. Requirements: - `account` cannot be the zero address."
      },
      "balanceOfBatch(address[],uint256[])": {
        "details": "See {IERC1155-balanceOfBatch}. Requirements: - `accounts` and `ids` must have the same length."
      },
      "getMemesCount()": {
        "returns": {
          "count": "the number of memes"
        }
      },
      "getTokenID(string)": {
        "returns": {
          "tokenID": "of the meme"
        }
      },
      "isApprovedForAll(address,address)": {
        "details": "See {IERC1155-isApprovedForAll}."
      },
      "mint(string,int256)": {
        "params": {
          "_creatorFee": "custom fee to send to the creator, if is -1 it uses the default one set in the MOTDSaleParametersProviderContract",
          "_hash": "IPFS hash of the NFT"
        }
      },
      "owner()": {
        "details": "Returns the address of the current owner."
      },
      "paused()": {
        "details": "Returns true if the contract is paused, and false otherwise."
      },
      "renounceOwnership()": {
        "details": "Leaves the contract without owner. It will not be possible to call `onlyOwner` functions anymore. Can only be called by the current owner. NOTE: Renouncing ownership will leave the contract without an owner, thereby removing any functionality that is only available to the owner."
      },
      "safeBatchTransferFrom(address,address,uint256[],uint256[],bytes)": {
        "details": "See {IERC1155-safeBatchTransferFrom}."
      },
      "safeTransferFrom(address,address,uint256,uint256,bytes)": {
        "details": "See {IERC1155-safeTransferFrom}."
      },
      "setApprovalForAll(address,bool)": {
        "details": "See {IERC1155-setApprovalForAll}."
      },
      "setUri(string)": {
        "params": {
          "_newUri": "the new URI to fetch NFTs info from"
        }
      },
      "supportsInterface(bytes4)": {
        "details": "See {IERC165-supportsInterface}."
      },
      "transferOwnership(address)": {
        "details": "Transfers ownership of the contract to a new account (`newOwner`). Can only be called by the current owner."
      },
      "uri(uint256)": {
        "details": "See {IERC1155MetadataURI-uri}. This implementation returns the same URI for *all* token types. It relies on the token type ID substitution mechanism https://eips.ethereum.org/EIPS/eip-1155#metadata[defined in the EIP]. Clients calling this function must replace the `\\{id\\}` substring with the actual token type ID."
      }
    },
    "version": 1
  },
  "userdoc": {
    "kind": "user",
    "methods": {
      "getMemesCount()": {
        "notice": "Returns the number of minted memes"
      },
      "getTokenID(string)": {
        "notice": "Returns the TokenID of meme"
      },
      "mint(string,int256)": {
        "notice": "Mints a new meme NFT"
      },
      "setUri(string)": {
        "notice": "Changes the URI to fetch NFTs info from"
      }
    },
    "version": 1
  }
}