{
  "contractName": "MemeSale",
  "abi": [
    {
      "anonymous": false,
      "inputs": [
        {
          "indexed": false,
          "internalType": "uint256",
          "name": "creatorFee",
          "type": "uint256"
        }
      ],
      "name": "CreatorFee",
      "type": "event"
    },
    {
      "anonymous": false,
      "inputs": [
        {
          "indexed": false,
          "internalType": "uint256",
          "name": "ownerFee",
          "type": "uint256"
        }
      ],
      "name": "OwnerFee",
      "type": "event"
    },
    {
      "anonymous": false,
      "inputs": [
        {
          "indexed": false,
          "internalType": "uint256",
          "name": "platformFee",
          "type": "uint256"
        }
      ],
      "name": "PlatformFee",
      "type": "event"
    },
    {
      "anonymous": false,
      "inputs": [
        {
          "indexed": false,
          "internalType": "uint256",
          "name": "votersFee",
          "type": "uint256"
        }
      ],
      "name": "VotersFee",
      "type": "event"
    },
    {
      "inputs": [],
      "name": "DOMAIN_SEPARATOR",
      "outputs": [
        {
          "internalType": "bytes32",
          "name": "",
          "type": "bytes32"
        }
      ],
      "stateMutability": "view",
      "type": "function"
    },
    {
      "inputs": [],
      "name": "VERIFY_PRICE_TYPEHASH",
      "outputs": [
        {
          "internalType": "bytes32",
          "name": "",
          "type": "bytes32"
        }
      ],
      "stateMutability": "view",
      "type": "function"
    },
    {
      "inputs": [
        {
          "internalType": "uint256",
          "name": "",
          "type": "uint256"
        }
      ],
      "name": "isOnSale",
      "outputs": [
        {
          "internalType": "bool",
          "name": "",
          "type": "bool"
        }
      ],
      "stateMutability": "view",
      "type": "function"
    },
    {
      "inputs": [],
      "name": "memeOfTheDay",
      "outputs": [
        {
          "internalType": "contract MemeOfTheDay",
          "name": "",
          "type": "address"
        }
      ],
      "stateMutability": "view",
      "type": "function"
    },
    {
      "inputs": [],
      "name": "memeOfTheDayTreasury",
      "outputs": [
        {
          "internalType": "contract MOTDTreasury",
          "name": "",
          "type": "address"
        }
      ],
      "stateMutability": "view",
      "type": "function"
    },
    {
      "inputs": [
        {
          "internalType": "address",
          "name": "memeOfTheDayAddress",
          "type": "address"
        },
        {
          "internalType": "address payable",
          "name": "motdTreasuryAddress",
          "type": "address"
        },
        {
          "internalType": "address",
          "name": "memeOfTheDaySaleParametersProviderAddress",
          "type": "address"
        },
        {
          "internalType": "string",
          "name": "version",
          "type": "string"
        }
      ],
      "name": "initialize",
      "outputs": [],
      "stateMutability": "nonpayable",
      "type": "function"
    },
    {
      "inputs": [
        {
          "internalType": "uint256",
          "name": "tokenId",
          "type": "uint256"
        }
      ],
      "name": "putOnSale",
      "outputs": [],
      "stateMutability": "nonpayable",
      "type": "function"
    },
    {
      "inputs": [
        {
          "internalType": "uint256",
          "name": "tokenId",
          "type": "uint256"
        }
      ],
      "name": "removeFromSale",
      "outputs": [],
      "stateMutability": "nonpayable",
      "type": "function"
    },
    {
      "inputs": [
        {
          "internalType": "uint256",
          "name": "tokenId",
          "type": "uint256"
        },
        {
          "internalType": "uint256",
          "name": "price",
          "type": "uint256"
        },
        {
          "internalType": "address payable[]",
          "name": "voters",
          "type": "address[]"
        },
        {
          "internalType": "uint256[]",
          "name": "votes",
          "type": "uint256[]"
        },
        {
          "internalType": "bool",
          "name": "payCreator",
          "type": "bool"
        },
        {
          "internalType": "uint8",
          "name": "v",
          "type": "uint8"
        },
        {
          "internalType": "bytes32",
          "name": "r",
          "type": "bytes32"
        },
        {
          "internalType": "bytes32",
          "name": "s",
          "type": "bytes32"
        }
      ],
      "name": "buy",
      "outputs": [],
      "stateMutability": "payable",
      "type": "function"
    }
  ],
  "bytecode": "0x608060405234801561001057600080fd5b50612b13806100206000396000f3fe6080604052600436106100865760003560e01c80638a728dc4116100595780638a728dc4146101245780639d6e60e31461014f5780639dbcfd6f1461017a578063e523bb42146101a3578063f0f2805f146101ce57610086565b80630483877d1461008b5780631361a3b6146100a75780633644e515146100d057806365e8e4f4146100fb575b600080fd5b6100a560048036038101906100a09190611dba565b61020b565b005b3480156100b357600080fd5b506100ce60048036038101906100c99190611d68565b610431565b005b3480156100dc57600080fd5b506100e56105d8565b6040516100f291906123de565b60405180910390f35b34801561010757600080fd5b50610122600480360381019061011d9190611cc4565b6105de565b005b34801561013057600080fd5b506101396107c1565b60405161014691906124c8565b60405180910390f35b34801561015b57600080fd5b506101646107e7565b60405161017191906123de565b60405180910390f35b34801561018657600080fd5b506101a1600480360381019061019c9190611d68565b61080e565b005b3480156101af57600080fd5b506101b86109b6565b6040516101c591906124e3565b60405180910390f35b3480156101da57600080fd5b506101f560048036038101906101f09190611d68565b6109dc565b60405161020291906123c3565b60405180910390f35b600460008b815260200190815260200160002060009054906101000a900460ff1661026b576040517f08c379a0000000000000000000000000000000000000000000000000000000008152600401610262906125c0565b60405180910390fd5b60007f01b2ca8b9a0a07d70c188f51d5d3ea9d76d3a4722a62ba8b3b3f9bbe316ca84460001b8b8b6040516020016102a59392919061244c565b6040516020818303038152906040529050600160029054906101000a900473ffffffffffffffffffffffffffffffffffffffff1673ffffffffffffffffffffffffffffffffffffffff16636352211e8c6040518263ffffffff1660e01b81526004016103119190612660565b60206040518083038186803b15801561032957600080fd5b505afa15801561033d573d6000803e3d6000fd5b505050506040513d601f19601f820116820180604052508101906103619190611c72565b73ffffffffffffffffffffffffffffffffffffffff16610386600054868686866109fc565b73ffffffffffffffffffffffffffffffffffffffff16146040518060400160405280601b81526020017f4d656d6553616c653a20696e76616c6964207369676e6174757265000000000081525090610414576040517f08c379a000000000000000000000000000000000000000000000000000000000815260040161040b91906124fe565b60405180910390fd5b506104248b8b8b8b8b8b8b610a49565b5050505050505050505050565b3373ffffffffffffffffffffffffffffffffffffffff16600160029054906101000a900473ffffffffffffffffffffffffffffffffffffffff1673ffffffffffffffffffffffffffffffffffffffff16636352211e836040518263ffffffff1660e01b81526004016104a39190612660565b60206040518083038186803b1580156104bb57600080fd5b505afa1580156104cf573d6000803e3d6000fd5b505050506040513d601f19601f820116820180604052508101906104f39190611c72565b73ffffffffffffffffffffffffffffffffffffffff1614610549576040517f08c379a0000000000000000000000000000000000000000000000000000000008152600401610540906125e0565b60405180910390fd5b6004600082815260200190815260200160002060009054906101000a900460ff166105a9576040517f08c379a00000000000000000000000000000000000000000000000000000000081526004016105a0906125a0565b60405180910390fd5b60006004600083815260200190815260200160002060006101000a81548160ff02191690831515021790555050565b60005481565b60018054906101000a900460ff16806106045750600160009054906101000a900460ff16155b610643576040517f08c379a000000000000000000000000000000000000000000000000000000000815260040161063a90612580565b60405180910390fd5b600060018054906101000a900460ff1615905080156106915760018060016101000a81548160ff02191690831515021790555060018060006101000a81548160ff0219169083151502179055505b84600160026101000a81548173ffffffffffffffffffffffffffffffffffffffff021916908373ffffffffffffffffffffffffffffffffffffffff16021790555083600260006101000a81548173ffffffffffffffffffffffffffffffffffffffff021916908373ffffffffffffffffffffffffffffffffffffffff16021790555082600360006101000a81548173ffffffffffffffffffffffffffffffffffffffff021916908373ffffffffffffffffffffffffffffffffffffffff1602179055506107936040518060400160405280600881526020017f4d656d6553616c6500000000000000000000000000000000000000000000000081525083611221565b60008190555080156107ba5760006001806101000a81548160ff0219169083151502179055505b5050505050565b600260009054906101000a900473ffffffffffffffffffffffffffffffffffffffff1681565b7f01b2ca8b9a0a07d70c188f51d5d3ea9d76d3a4722a62ba8b3b3f9bbe316ca84460001b81565b3373ffffffffffffffffffffffffffffffffffffffff16600160029054906101000a900473ffffffffffffffffffffffffffffffffffffffff1673ffffffffffffffffffffffffffffffffffffffff16636352211e836040518263ffffffff1660e01b81526004016108809190612660565b60206040518083038186803b15801561089857600080fd5b505afa1580156108ac573d6000803e3d6000fd5b505050506040513d601f19601f820116820180604052508101906108d09190611c72565b73ffffffffffffffffffffffffffffffffffffffff1614610926576040517f08c379a000000000000000000000000000000000000000000000000000000000815260040161091d90612520565b60405180910390fd5b6004600082815260200190815260200160002060009054906101000a900460ff1615610987576040517f08c379a000000000000000000000000000000000000000000000000000000000815260040161097e90612600565b60405180910390fd5b60016004600083815260200190815260200160002060006101000a81548160ff02191690831515021790555050565b600160029054906101000a900473ffffffffffffffffffffffffffffffffffffffff1681565b60046020528060005260406000206000915054906101000a900460ff1681565b600080868380519060200120604051602001610a1992919061231f565b604051602081830303815290604052805190602001209050610a3d81878787611293565b91505095945050505050565b600080600080610a5a8a8c87611422565b93509350935093507f2aad9e33ce58271cb1401a4211b102aad5eed0b41fcd4221b3b8f5977583371484604051610a919190612660565b60405180910390a17fce38999dded47da0afaf5ed4186a2b50ab40367c7b0abc2ba7e2ee3db0d1a28183604051610ac89190612660565b60405180910390a17f6f9983488bd1500c372d1f10befe9e7790d764b18c848cfa10872f4e248ded9282604051610aff9190612660565b60405180910390a17fd0d39a845ce9a85c506556420bacf3313b17c54cb854655b4c3b5284ffe4365281604051610b369190612660565b60405180910390a16000805b88889050811015610bad57888882818110610b86577f4e487b7100000000000000000000000000000000000000000000000000000000600052603260045260246000fd5b9050602002013582610b98919061271f565b91508080610ba59061294b565b915050610b42565b5060005b8a8a9050811015610d24576000828a8a84818110610bf8577f4e487b7100000000000000000000000000000000000000000000000000000000600052603260045260246000fd5b90506020020135610c099190612775565b87610c1491906127a6565b905060008c8c84818110610c51577f4e487b7100000000000000000000000000000000000000000000000000000000600052603260045260246000fd5b9050602002016020810190610c669190611c9b565b73ffffffffffffffffffffffffffffffffffffffff1682604051610c8990612356565b60006040518083038185875af1925050503d8060008114610cc6576040519150601f19603f3d011682016040523d82523d6000602084013e610ccb565b606091505b5050905080610d0f576040517f08c379a0000000000000000000000000000000000000000000000000000000008152600401610d0690612620565b60405180910390fd5b50508080610d1c9061294b565b915050610bb1565b508515610e83576000600160029054906101000a900473ffffffffffffffffffffffffffffffffffffffff1673ffffffffffffffffffffffffffffffffffffffff1663589a17438e6040518263ffffffff1660e01b8152600401610d889190612660565b60206040518083038186803b158015610da057600080fd5b505afa158015610db4573d6000803e3d6000fd5b505050506040513d601f19601f82011682018060405250810190610dd89190611c72565b73ffffffffffffffffffffffffffffffffffffffff1685604051610dfb90612356565b60006040518083038185875af1925050503d8060008114610e38576040519150601f19603f3d011682016040523d82523d6000602084013e610e3d565b606091505b5050905080610e81576040517f08c379a0000000000000000000000000000000000000000000000000000000008152600401610e7890612620565b60405180910390fd5b505b6000600260009054906101000a900473ffffffffffffffffffffffffffffffffffffffff1673ffffffffffffffffffffffffffffffffffffffff1684604051610ecb90612356565b60006040518083038185875af1925050503d8060008114610f08576040519150601f19603f3d011682016040523d82523d6000602084013e610f0d565b606091505b5050905080610f51576040517f08c379a0000000000000000000000000000000000000000000000000000000008152600401610f4890612620565b60405180910390fd5b6000600160029054906101000a900473ffffffffffffffffffffffffffffffffffffffff1673ffffffffffffffffffffffffffffffffffffffff16636352211e8f6040518263ffffffff1660e01b8152600401610fae9190612660565b60206040518083038186803b158015610fc657600080fd5b505afa158015610fda573d6000803e3d6000fd5b505050506040513d601f19601f82011682018060405250810190610ffe9190611c72565b73ffffffffffffffffffffffffffffffffffffffff168460405161102190612356565b60006040518083038185875af1925050503d806000811461105e576040519150601f19603f3d011682016040523d82523d6000602084013e611063565b606091505b50509050806110a7576040517f08c379a000000000000000000000000000000000000000000000000000000000815260040161109e90612620565b60405180910390fd5b5050600160029054906101000a900473ffffffffffffffffffffffffffffffffffffffff1673ffffffffffffffffffffffffffffffffffffffff1663f242432a600160029054906101000a900473ffffffffffffffffffffffffffffffffffffffff1673ffffffffffffffffffffffffffffffffffffffff16636352211e8f6040518263ffffffff1660e01b81526004016111429190612660565b60206040518083038186803b15801561115a57600080fd5b505afa15801561116e573d6000803e3d6000fd5b505050506040513d601f19601f820116820180604052508101906111929190611c72565b338f60016040518563ffffffff1660e01b81526004016111b5949392919061236b565b600060405180830381600087803b1580156111cf57600080fd5b505af11580156111e3573d6000803e3d6000fd5b505050506000600460008e815260200190815260200160002060006101000a81548160ff021916908315150217905550505050505050505050505050565b6000804690507f8b73c3c69bb8fe3d512ecc4cf759cc79239f7b179b0ffacaa9a75d522b39400f60001b848051906020012084805190602001208360001b306040516020016112749594939291906123f9565b6040516020818303038152906040528051906020012091505092915050565b60007f7fffffffffffffffffffffffffffffff5d576e7357a4501ddfe92f46681b20a08260001c11156112fb576040517f08c379a00000000000000000000000000000000000000000000000000000000081526004016112f290612640565b60405180910390fd5b601b8460ff16141580156113135750601c8460ff1614155b15611353576040517f08c379a000000000000000000000000000000000000000000000000000000000815260040161134a90612540565b60405180910390fd5b6000600186868686604051600081526020016040526040516113789493929190612483565b6020604051602081039080840390855afa15801561139a573d6000803e3d6000fd5b505050602060405103519050600073ffffffffffffffffffffffffffffffffffffffff168173ffffffffffffffffffffffffffffffffffffffff161415611416576040517f08c379a000000000000000000000000000000000000000000000000000000000815260040161140d90612560565b60405180910390fd5b80915050949350505050565b60008060008060006114338861149c565b90506000611442898989611607565b9050600061144f8a611921565b905080838b61145e919061271f565b611468919061271f565b34101561147457600080fd5b6000611481848484611a8c565b90508383838397509750975097505050505093509350935093565b6000600360009054906101000a900473ffffffffffffffffffffffffffffffffffffffff1673ffffffffffffffffffffffffffffffffffffffff16632a4a9dd1600360009054906101000a900473ffffffffffffffffffffffffffffffffffffffff1673ffffffffffffffffffffffffffffffffffffffff16633e2dce1e6040518163ffffffff1660e01b815260040160206040518083038186803b15801561154457600080fd5b505afa158015611558573d6000803e3d6000fd5b505050506040513d601f19601f8201168201806040525081019061157c9190611d91565b6040518263ffffffff1660e01b81526004016115989190612660565b60206040518083038186803b1580156115b057600080fd5b505afa1580156115c4573d6000803e3d6000fd5b505050506040513d601f19601f820116820180604052508101906115e89190611d91565b6103e8836115f69190612775565b61160091906127a6565b9050919050565b600080600090508215611916577fffffffffffffffffffffffffffffffffffffffffffffffffffffffffffffffff600160029054906101000a900473ffffffffffffffffffffffffffffffffffffffff1673ffffffffffffffffffffffffffffffffffffffff166378c3829b866040518263ffffffff1660e01b81526004016116909190612660565b60206040518083038186803b1580156116a857600080fd5b505afa1580156116bc573d6000803e3d6000fd5b505050506040513d601f19601f820116820180604052508101906116e09190611d3f565b13156117b057600160029054906101000a900473ffffffffffffffffffffffffffffffffffffffff1673ffffffffffffffffffffffffffffffffffffffff166378c3829b856040518263ffffffff1660e01b81526004016117419190612660565b60206040518083038186803b15801561175957600080fd5b505afa15801561176d573d6000803e3d6000fd5b505050506040513d601f19601f820116820180604052508101906117919190611d3f565b6103e88661179f9190612775565b6117a991906127a6565b9050611915565b600360009054906101000a900473ffffffffffffffffffffffffffffffffffffffff1673ffffffffffffffffffffffffffffffffffffffff16632a4a9dd1600360009054906101000a900473ffffffffffffffffffffffffffffffffffffffff1673ffffffffffffffffffffffffffffffffffffffff1663443139f16040518163ffffffff1660e01b815260040160206040518083038186803b15801561185657600080fd5b505afa15801561186a573d6000803e3d6000fd5b505050506040513d601f19601f8201168201806040525081019061188e9190611d91565b6040518263ffffffff1660e01b81526004016118aa9190612660565b60206040518083038186803b1580156118c257600080fd5b505afa1580156118d6573d6000803e3d6000fd5b505050506040513d601f19601f820116820180604052508101906118fa9190611d91565b6103e8866119089190612775565b61191291906127a6565b90505b5b809150509392505050565b6000600360009054906101000a900473ffffffffffffffffffffffffffffffffffffffff1673ffffffffffffffffffffffffffffffffffffffff16632a4a9dd1600360009054906101000a900473ffffffffffffffffffffffffffffffffffffffff1673ffffffffffffffffffffffffffffffffffffffff16632648cd806040518163ffffffff1660e01b815260040160206040518083038186803b1580156119c957600080fd5b505afa1580156119dd573d6000803e3d6000fd5b505050506040513d601f19601f82011682018060405250810190611a019190611d91565b6040518263ffffffff1660e01b8152600401611a1d9190612660565b60206040518083038186803b158015611a3557600080fd5b505afa158015611a49573d6000803e3d6000fd5b505050506040513d601f19601f82011682018060405250810190611a6d9190611d91565b6103e883611a7b9190612775565b611a8591906127a6565b9050919050565b600081838534611a9c9190612800565b611aa69190612800565b611ab09190612800565b90509392505050565b6000611acc611ac7846126ac565b61267b565b905082815260208101848484011115611ae457600080fd5b611aef848285612909565b509392505050565b600081359050611b0681612a3c565b92915050565b600081519050611b1b81612a3c565b92915050565b600081359050611b3081612a53565b92915050565b60008083601f840112611b4857600080fd5b8235905067ffffffffffffffff811115611b6157600080fd5b602083019150836020820283011115611b7957600080fd5b9250929050565b60008083601f840112611b9257600080fd5b8235905067ffffffffffffffff811115611bab57600080fd5b602083019150836020820283011115611bc357600080fd5b9250929050565b600081359050611bd981612a6a565b92915050565b600081359050611bee81612a81565b92915050565b600081519050611c0381612a98565b92915050565b600082601f830112611c1a57600080fd5b8135611c2a848260208601611ab9565b91505092915050565b600081359050611c4281612aaf565b92915050565b600081519050611c5781612aaf565b92915050565b600081359050611c6c81612ac6565b92915050565b600060208284031215611c8457600080fd5b6000611c9284828501611b0c565b91505092915050565b600060208284031215611cad57600080fd5b6000611cbb84828501611b21565b91505092915050565b60008060008060808587031215611cda57600080fd5b6000611ce887828801611af7565b9450506020611cf987828801611b21565b9350506040611d0a87828801611af7565b925050606085013567ffffffffffffffff811115611d2757600080fd5b611d3387828801611c09565b91505092959194509250565b600060208284031215611d5157600080fd5b6000611d5f84828501611bf4565b91505092915050565b600060208284031215611d7a57600080fd5b6000611d8884828501611c33565b91505092915050565b600060208284031215611da357600080fd5b6000611db184828501611c48565b91505092915050565b6000806000806000806000806000806101008b8d031215611dda57600080fd5b6000611de88d828e01611c33565b9a50506020611df98d828e01611c33565b99505060408b013567ffffffffffffffff811115611e1657600080fd5b611e228d828e01611b36565b985098505060608b013567ffffffffffffffff811115611e4157600080fd5b611e4d8d828e01611b80565b96509650506080611e608d828e01611bca565b94505060a0611e718d828e01611c5d565b93505060c0611e828d828e01611bdf565b92505060e0611e938d828e01611bdf565b9150509295989b9194979a5092959850565b611eae81612834565b82525050565b611ebd81612858565b82525050565b611ecc81612864565b82525050565b611ee3611ede82612864565b612994565b82525050565b611ef2816128af565b82525050565b611f01816128d3565b82525050565b611f10816128f7565b82525050565b6000611f21826126dc565b611f2b8185612703565b9350611f3b818560208601612918565b611f4481612a2b565b840191505092915050565b6000611f5c602383612703565b91507f4f6e6c79206f776e6572206f6620746f6b656e2063616e20707574206f6e207360008301527f616c6500000000000000000000000000000000000000000000000000000000006020830152604082019050919050565b6000611fc2602683612703565b91507f45435265636f7665723a20696e76616c6964207369676e61747572652027762760008301527f2076616c756500000000000000000000000000000000000000000000000000006020830152604082019050919050565b6000612028600283612714565b91507f19010000000000000000000000000000000000000000000000000000000000006000830152600282019050919050565b6000612068601c83612703565b91507f45435265636f7665723a20696e76616c6964207369676e6174757265000000006000830152602082019050919050565b60006120a8602e83612703565b91507f496e697469616c697a61626c653a20636f6e747261637420697320616c72656160008301527f647920696e697469616c697a65640000000000000000000000000000000000006020830152604082019050919050565b600061210e601d83612703565b91507f546f6b656e206973206e6f74206f6e2073616c6520616c7265616479210000006000830152602082019050919050565b600061214e601a83612703565b91507f476976656e20746f6b656e206973206e6f74206f6e2073616c650000000000006000830152602082019050919050565b600061218e603283612703565b91507f4f6e6c79206f776e6572206f6620746f6b656e2063616e2072656d6f7665207460008301527f686520746f6b656e2066726f6d2073616c6500000000000000000000000000006020830152604082019050919050565b60006121f46000836126e7565b9150600082019050919050565b600061220e6000836126f8565b9150600082019050919050565b6000612228601983612703565b91507f546f6b656e20697320616c7265616479206f6e2073616c6521000000000000006000830152602082019050919050565b6000612268601083612703565b91507f5472616e73666572206661696c65642e000000000000000000000000000000006000830152602082019050919050565b60006122a8602683612703565b91507f45435265636f7665723a20696e76616c6964207369676e61747572652027732760008301527f2076616c756500000000000000000000000000000000000000000000000000006020830152604082019050919050565b61230a81612898565b82525050565b612319816128a2565b82525050565b600061232a8261201b565b91506123368285611ed2565b6020820191506123468284611ed2565b6020820191508190509392505050565b600061236182612201565b9150819050919050565b600060a0820190506123806000830187611ea5565b61238d6020830186611ea5565b61239a6040830185612301565b6123a76060830184611f07565b81810360808301526123b8816121e7565b905095945050505050565b60006020820190506123d86000830184611eb4565b92915050565b60006020820190506123f36000830184611ec3565b92915050565b600060a08201905061240e6000830188611ec3565b61241b6020830187611ec3565b6124286040830186611ec3565b6124356060830185611ec3565b6124426080830184611ea5565b9695505050505050565b60006060820190506124616000830186611ec3565b61246e6020830185612301565b61247b6040830184612301565b949350505050565b60006080820190506124986000830187611ec3565b6124a56020830186612310565b6124b26040830185611ec3565b6124bf6060830184611ec3565b95945050505050565b60006020820190506124dd6000830184611ee9565b92915050565b60006020820190506124f86000830184611ef8565b92915050565b600060208201905081810360008301526125188184611f16565b905092915050565b6000602082019050818103600083015261253981611f4f565b9050919050565b6000602082019050818103600083015261255981611fb5565b9050919050565b600060208201905081810360008301526125798161205b565b9050919050565b600060208201905081810360008301526125998161209b565b9050919050565b600060208201905081810360008301526125b981612101565b9050919050565b600060208201905081810360008301526125d981612141565b9050919050565b600060208201905081810360008301526125f981612181565b9050919050565b600060208201905081810360008301526126198161221b565b9050919050565b600060208201905081810360008301526126398161225b565b9050919050565b600060208201905081810360008301526126598161229b565b9050919050565b60006020820190506126756000830184612301565b92915050565b6000604051905081810181811067ffffffffffffffff821117156126a2576126a16129fc565b5b8060405250919050565b600067ffffffffffffffff8211156126c7576126c66129fc565b5b601f19601f8301169050602081019050919050565b600081519050919050565b600082825260208201905092915050565b600081905092915050565b600082825260208201905092915050565b600081905092915050565b600061272a82612898565b915061273583612898565b9250827fffffffffffffffffffffffffffffffffffffffffffffffffffffffffffffffff0382111561276a5761276961299e565b5b828201905092915050565b600061278082612898565b915061278b83612898565b92508261279b5761279a6129cd565b5b828204905092915050565b60006127b182612898565b91506127bc83612898565b9250817fffffffffffffffffffffffffffffffffffffffffffffffffffffffffffffffff04831182151516156127f5576127f461299e565b5b828202905092915050565b600061280b82612898565b915061281683612898565b9250828210156128295761282861299e565b5b828203905092915050565b600061283f82612878565b9050919050565b600061285182612878565b9050919050565b60008115159050919050565b6000819050919050565b6000819050919050565b600073ffffffffffffffffffffffffffffffffffffffff82169050919050565b6000819050919050565b600060ff82169050919050565b60006128ba826128c1565b9050919050565b60006128cc82612878565b9050919050565b60006128de826128e5565b9050919050565b60006128f082612878565b9050919050565b600061290282612898565b9050919050565b82818337600083830152505050565b60005b8381101561293657808201518184015260208101905061291b565b83811115612945576000848401525b50505050565b600061295682612898565b91507fffffffffffffffffffffffffffffffffffffffffffffffffffffffffffffffff8214156129895761298861299e565b5b600182019050919050565b6000819050919050565b7f4e487b7100000000000000000000000000000000000000000000000000000000600052601160045260246000fd5b7f4e487b7100000000000000000000000000000000000000000000000000000000600052601260045260246000fd5b7f4e487b7100000000000000000000000000000000000000000000000000000000600052604160045260246000fd5b6000601f19601f8301169050919050565b612a4581612834565b8114612a5057600080fd5b50565b612a5c81612846565b8114612a6757600080fd5b50565b612a7381612858565b8114612a7e57600080fd5b50565b612a8a81612864565b8114612a9557600080fd5b50565b612aa18161286e565b8114612aac57600080fd5b50565b612ab881612898565b8114612ac357600080fd5b50565b612acf816128a2565b8114612ada57600080fd5b5056fea2646970667358221220dafcaa46d2d1ade3af311ff7b2524ba5a84e75301887e8f1446a5929f052680f64736f6c63430008000033",
  "immutableReferences": {},
  "source": "// SPDX-License-Identifier: MIT\r\npragma solidity ^0.8.0;\r\n\r\n//Removed because sol 0.8.0 already checks for over and underflow\r\n//import \"@openzeppelin/contracts/math/SafeMath.sol\";\r\n\r\nimport {EIP712Domain} from \"./EIP712Domain.sol\";\r\nimport {EIP712} from \"./EIP712.sol\";\r\nimport \"../../../node_modules/@openzeppelin/contracts-upgradeable/proxy/utils/Initializable.sol\";\r\n\r\n//IN CASE OF UPGRADE THESE IMPORTS NEED TO BE UPDATED AS WELL\r\nimport \"./MemeOfTheDay.sol\";\r\nimport \"./MOTDTreasury.sol\";\r\nimport \"./MOTDSaleParametersProvider.sol\";\r\n\r\n/**\r\n * @title MemeSale\r\n * @notice contract that handles sales of memes\r\n * @author MemeOfTheDay\r\n */\r\ncontract MemeSale is EIP712Domain, Initializable{\r\n    //Removed because sol 0.8.0 already checks for over and underflow\r\n    //using SafeMath for uint256;\r\n\r\n    string internal constant VERIFYING_CONTRACT_NAME = \"MemeSale\";\r\n\r\n    // keccak256(VerifyPrice(uint256 tokenId,uint256 price)\")\r\n    bytes32\r\n        public constant VERIFY_PRICE_TYPEHASH = 0x01b2ca8b9a0a07d70c188f51d5d3ea9d76d3a4722a62ba8b3b3f9bbe316ca844;\r\n\r\n    string\r\n        internal constant _INVALID_SIGNATURE_ERROR = \"MemeSale: invalid signature\";\r\n\r\n    MemeOfTheDay public memeOfTheDay;\r\n    MOTDTreasury public memeOfTheDayTreasury;\r\n    MOTDSaleParametersProvider memeOfTheDaySaleParametersProvider;\r\n\r\n    mapping(uint256 => bool) public isOnSale;\r\n\r\n    event VotersFee(uint256 votersFee);\r\n    event CreatorFee(uint256 creatorFee);\r\n    event PlatformFee(uint256 platformFee);\r\n    event OwnerFee(uint256 ownerFee);\r\n\r\n    function initialize(\r\n        address memeOfTheDayAddress,\r\n        address payable motdTreasuryAddress,\r\n        address memeOfTheDaySaleParametersProviderAddress,\r\n        string memory version\r\n        ) public initializer {\r\n         memeOfTheDay = MemeOfTheDay(memeOfTheDayAddress);\r\n\r\n        memeOfTheDayTreasury = MOTDTreasury(motdTreasuryAddress);\r\n\r\n        memeOfTheDaySaleParametersProvider = MOTDSaleParametersProvider(memeOfTheDaySaleParametersProviderAddress);\r\n        \r\n        DOMAIN_SEPARATOR = EIP712.makeDomainSeparator(\r\n            VERIFYING_CONTRACT_NAME,\r\n            version\r\n        );\r\n    }\r\n   \r\n\r\n    //REPLACED BY INITIALIZER DUE TO UPGRADEABLE DESIGN\r\n    // constructor(\r\n    //     address memeOfTheDayAddress,\r\n    //     address payable motdTreasuryAddress,\r\n    //     address memeOfTheDaySaleParametersProviderAddress,\r\n    //     string memory version\r\n    // ) public {\r\n    //     memeOfTheDay = MemeOfTheDay(memeOfTheDayAddress);\r\n    //     memeOfTheDayTreasury = MOTDTreasury(motdTreasuryAddress);\r\n    //     memeOfTheDaySaleParametersProvider = MOTDSaleParametersProvider(\r\n    //         memeOfTheDaySaleParametersProviderAddress\r\n    //     );\r\n\r\n    //     DOMAIN_SEPARATOR = EIP712.makeDomainSeparator(\r\n    //         VERIFYING_CONTRACT_NAME,\r\n    //         version\r\n    //     );\r\n    // }\r\n\r\n    /**\r\n     * @notice Puts on sale a token\r\n     * @param tokenId the id of the token to put to sale\r\n     */\r\n    function putOnSale(uint256 tokenId) external {\r\n        require(\r\n            memeOfTheDay.ownerOf(tokenId) == msg.sender,\r\n            \"Only owner of token can put on sale\"\r\n        );\r\n        require(!isOnSale[tokenId], \"Token is already on sale!\");\r\n\r\n        isOnSale[tokenId] = true;\r\n    }\r\n\r\n    /**\r\n     * @notice Removes from sale a token\r\n     * @param tokenId the id of the token to remove from sale\r\n     */\r\n    function removeFromSale(uint256 tokenId) external {\r\n        require(\r\n            memeOfTheDay.ownerOf(tokenId) == msg.sender,\r\n            \"Only owner of token can remove the token from sale\"\r\n        );\r\n        require(isOnSale[tokenId], \"Token is not on sale already!\");\r\n\r\n        isOnSale[tokenId] = false;\r\n    }\r\n\r\n    /**\r\n     * @notice Buys token\r\n     * @param tokenId       the id of the token to buy\r\n     * @param price         the price of the token on sale\r\n     * @param voters        array of voters on the meme\r\n     * @param votes         array of votes of the voters\r\n     * @param payCreator    defines if creator has to be paid or not\r\n     * @param v             v part of the seller's signature\r\n     * @param r             r part of the seller's signature\r\n     * @param s             s part of the seller's signature\r\n     */\r\n    function buy(\r\n        uint256 tokenId,\r\n        uint256 price,\r\n        address payable[] calldata voters,\r\n        uint256[] calldata votes,\r\n        bool payCreator,\r\n        uint8 v,\r\n        bytes32 r,\r\n        bytes32 s\r\n    ) external payable {\r\n        require(isOnSale[tokenId], \"Given token is not on sale\");\r\n\r\n        bytes memory data = abi.encode(VERIFY_PRICE_TYPEHASH, tokenId, price);\r\n\r\n        require(\r\n            EIP712.recover(DOMAIN_SEPARATOR, v, r, s, data) ==\r\n                memeOfTheDay.ownerOf(tokenId),\r\n            _INVALID_SIGNATURE_ERROR\r\n        );\r\n\r\n        _buy(tokenId, price, voters, votes, payCreator);\r\n    }\r\n\r\n    function _buy(\r\n        uint256 tokenId,\r\n        uint256 price,\r\n        address payable[] calldata voters,\r\n        uint256[] calldata votes,\r\n        bool payCreator\r\n    ) internal {\r\n        (\r\n            uint256 votersFee,\r\n            uint256 creatorFee,\r\n            uint256 platformFee,\r\n            uint256 ownerFee\r\n        ) = _getFeesAmounts(price, tokenId, payCreator);\r\n\r\n        emit VotersFee(votersFee);\r\n        emit CreatorFee(creatorFee);\r\n        emit PlatformFee(platformFee);\r\n        emit OwnerFee(ownerFee);\r\n\r\n\r\n        //BLOCK SCOPING DUE TO STACK TOO DEEP ERROR !!!\r\n\r\n\r\n    //    { //BLOCK SCOPE 1 START\r\n\r\n            \r\n        uint256 totVotes = 0;\r\n        for (uint256 i = 0; i < votes.length; i++) {\r\n            totVotes += votes[i];\r\n        }\r\n\r\n        for (uint256 i = 0; i < voters.length; i++) {\r\n            uint256 voterFee = votersFee * (votes[i]/totVotes); //No more div or mul becasue SafeMath checks are native to sol 0.8.0\r\n            (bool success, ) = voters[i].call{value: voterFee}(\"\"); //use call{value: }(\"\") instead of Transfer since Istanbul fork! EIP 1884\r\n            require(success, \"Transfer failed.\");\r\n        }\r\n\r\n\r\n    //    }  //BLOCK SCOPE 1 END\r\n\r\n    //    {  //BLOCK SCOPE 2 START\r\n\r\n              if (payCreator) {\r\n           (bool success1, ) = memeOfTheDay.creatorOf(tokenId).call{value: creatorFee}(\"\");  //use call{value: }(\"\") instead of Transfer since Istanbul fork! EIP 1884\r\n           require(success1, \"Transfer failed.\");\r\n        }\r\n\r\n    //    }  //BLOCK SCOPE 2 END\r\n\r\n        {  //BLOCK SCOPE 3 Start\r\n\r\n        (bool success2, ) = address(memeOfTheDayTreasury).call{value: platformFee}(\"\"); //use call{value: }(\"\") instead of Transfer since Istanbul fork! EIP 1884\r\n         require(success2, \"Transfer failed.\");\r\n        (bool success3, ) = memeOfTheDay.ownerOf(tokenId).call{value: ownerFee}(\"\");  //use call{value: }(\"\") instead of Transfer since Istanbul fork! EIP 1884\r\n         require(success3, \"Transfer failed.\");\r\n\r\n        }  //BLOCK SCOPE 3 END\r\n\r\n        {  //BLOCK SCOPE 4 START\r\n\r\n        memeOfTheDay.safeTransferFrom(\r\n            memeOfTheDay.ownerOf(tokenId),\r\n            msg.sender,\r\n            tokenId,\r\n            1,\r\n            \"\"\r\n        );\r\n\r\n        isOnSale[tokenId] = false;\r\n\r\n        }  //BLOCK SCOPE 4 END\r\n\r\n        //LOOKS LIKE OWNLY BLOCK SCOPE 3 AND 4 ARE NEEDED TO SOLVE STACK TOO DEEP ISSUE\r\n    }\r\n\r\n    function _getVotersFee(uint256 tokenPrice) internal view returns (uint256) {\r\n        return\r\n            tokenPrice / (1000) * (                                //No more div or mul because SafeMath checks are native since sol 0.8.0\r\n                memeOfTheDaySaleParametersProvider.parameters(\r\n                    memeOfTheDaySaleParametersProvider\r\n                        .VOTERS_FEE_PERCENT_INDEX()\r\n                )\r\n            );\r\n    }\r\n\r\n    function _getCreatorFee(\r\n        uint256 tokenPrice,\r\n        uint256 tokenId,\r\n        bool payCreator\r\n    ) internal view returns (uint256) {\r\n        uint256 creatorFee = 0;\r\n        if (payCreator) {\r\n            if (memeOfTheDay.creatorFee(tokenId) > -1) {\r\n                creatorFee = tokenPrice / (1000) * (            //No more div or mul becasue SafeMath checks are native to sol 0.8.0\r\n                    uint256(memeOfTheDay.creatorFee(tokenId))\r\n                );\r\n            } else {\r\n                creatorFee = tokenPrice / (1000) * (                //No more div or mul becasue SafeMath checks are native to sol 0.8.0\r\n                    memeOfTheDaySaleParametersProvider.parameters(\r\n                        memeOfTheDaySaleParametersProvider\r\n                            .DEFAULT_CREATOR_FEE_PERCENT_INDEX()\r\n                    )\r\n                );\r\n            }\r\n        }\r\n\r\n        return creatorFee;\r\n    }\r\n\r\n    function _getPlatformFee(uint256 tokenPrice)\r\n        internal\r\n        view\r\n        returns (uint256)\r\n    {\r\n        return\r\n            tokenPrice / (1000) * (                             //No more div or mul becasue SafeMath checks are native to sol 0.8.0\r\n                memeOfTheDaySaleParametersProvider.parameters(\r\n                    memeOfTheDaySaleParametersProvider\r\n                        .PLATFORM_FEE_PERCENT_INDEX()\r\n                )\r\n            );\r\n    }\r\n\r\n    function _getOwnerFee(\r\n        uint256 votersFee,\r\n        uint256 creatorFee,\r\n        uint256 platformFee\r\n    ) internal view returns (uint256) {\r\n\r\n        //economic model \"buyer pay fee\", buyer needs to send to contract\r\n        //token price including voters fee and platform fee\r\n        return msg.value - (votersFee) - (creatorFee) - (platformFee);    //No more sub, add, div or mul becasue SafeMath checks are native to sol 0.8.0\r\n    }\r\n\r\n    function _getFeesAmounts(\r\n        uint256 tokenPrice,\r\n        uint256 tokenId,\r\n        bool payCreator\r\n    )\r\n        internal\r\n        view\r\n        returns (\r\n            uint256,\r\n            uint256,\r\n            uint256,\r\n            uint256\r\n        )\r\n    {\r\n        uint256 votersFee = _getVotersFee(tokenPrice);\r\n        uint256 creatorFee = _getCreatorFee(tokenPrice, tokenId, payCreator);\r\n        uint256 platformFee = _getPlatformFee(tokenPrice);\r\n        //buyer pays fees economic model check\r\n        require(msg.value >= tokenPrice+votersFee+platformFee);\r\n        uint256 ownerFee = _getOwnerFee(\r\n            votersFee,\r\n            creatorFee,\r\n            platformFee\r\n        );\r\n\r\n        return (votersFee, creatorFee, platformFee, ownerFee);\r\n    }\r\n\r\n}",
  "sourcePath": "C:/Users/sound/Desktop/MOTD/meme-repo-copy/src/contracts/src/MemeSale.sol",
  "compiler": {
    "name": "solc",
    "version": "0.8.0+commit.c7dfd78e.Emscripten.clang"
  },
  "schemaVersion": "3.3.4",
  "updatedAt": "2021-05-01T15:31:21.038Z",
  "devdoc": {
    "author": "MemeOfTheDay",
    "kind": "dev",
    "methods": {
      "buy(uint256,uint256,address[],uint256[],bool,uint8,bytes32,bytes32)": {
        "params": {
          "payCreator": "defines if creator has to be paid or not",
          "price": "the price of the token on sale",
          "r": "r part of the seller's signature",
          "s": "s part of the seller's signature",
          "tokenId": "the id of the token to buy",
          "v": "v part of the seller's signature",
          "voters": "array of voters on the meme",
          "votes": "array of votes of the voters"
        }
      },
      "putOnSale(uint256)": {
        "params": {
          "tokenId": "the id of the token to put to sale"
        }
      },
      "removeFromSale(uint256)": {
        "params": {
          "tokenId": "the id of the token to remove from sale"
        }
      }
    },
    "title": "MemeSale",
    "version": 1
  },
  "userdoc": {
    "kind": "user",
    "methods": {
      "buy(uint256,uint256,address[],uint256[],bool,uint8,bytes32,bytes32)": {
        "notice": "Buys token"
      },
      "putOnSale(uint256)": {
        "notice": "Puts on sale a token"
      },
      "removeFromSale(uint256)": {
        "notice": "Removes from sale a token"
      }
    },
    "notice": "contract that handles sales of memes",
    "version": 1
  }
}