{
  "contractName": "MemeOfTheDayV3Pause",
  "abi": [
    {
      "anonymous": false,
      "inputs": [
        {
          "indexed": true,
          "internalType": "address",
          "name": "account",
          "type": "address"
        },
        {
          "indexed": true,
          "internalType": "address",
          "name": "operator",
          "type": "address"
        },
        {
          "indexed": false,
          "internalType": "bool",
          "name": "approved",
          "type": "bool"
        }
      ],
      "name": "ApprovalForAll",
      "type": "event"
    },
    {
      "anonymous": false,
      "inputs": [
        {
          "indexed": false,
          "internalType": "address",
          "name": "creator",
          "type": "address"
        },
        {
          "indexed": false,
          "internalType": "uint256",
          "name": "tokenId",
          "type": "uint256"
        }
      ],
      "name": "MemeMinted",
      "type": "event"
    },
    {
      "anonymous": false,
      "inputs": [
        {
          "indexed": true,
          "internalType": "address",
          "name": "previousOwner",
          "type": "address"
        },
        {
          "indexed": true,
          "internalType": "address",
          "name": "newOwner",
          "type": "address"
        }
      ],
      "name": "OwnershipTransferred",
      "type": "event"
    },
    {
      "anonymous": false,
      "inputs": [
        {
          "indexed": false,
          "internalType": "address",
          "name": "account",
          "type": "address"
        }
      ],
      "name": "Paused",
      "type": "event"
    },
    {
      "anonymous": false,
      "inputs": [
        {
          "indexed": true,
          "internalType": "address",
          "name": "operator",
          "type": "address"
        },
        {
          "indexed": true,
          "internalType": "address",
          "name": "from",
          "type": "address"
        },
        {
          "indexed": true,
          "internalType": "address",
          "name": "to",
          "type": "address"
        },
        {
          "indexed": false,
          "internalType": "uint256[]",
          "name": "ids",
          "type": "uint256[]"
        },
        {
          "indexed": false,
          "internalType": "uint256[]",
          "name": "values",
          "type": "uint256[]"
        }
      ],
      "name": "TransferBatch",
      "type": "event"
    },
    {
      "anonymous": false,
      "inputs": [
        {
          "indexed": true,
          "internalType": "address",
          "name": "operator",
          "type": "address"
        },
        {
          "indexed": true,
          "internalType": "address",
          "name": "from",
          "type": "address"
        },
        {
          "indexed": true,
          "internalType": "address",
          "name": "to",
          "type": "address"
        },
        {
          "indexed": false,
          "internalType": "uint256",
          "name": "id",
          "type": "uint256"
        },
        {
          "indexed": false,
          "internalType": "uint256",
          "name": "value",
          "type": "uint256"
        }
      ],
      "name": "TransferSingle",
      "type": "event"
    },
    {
      "anonymous": false,
      "inputs": [
        {
          "indexed": false,
          "internalType": "string",
          "name": "value",
          "type": "string"
        },
        {
          "indexed": true,
          "internalType": "uint256",
          "name": "id",
          "type": "uint256"
        }
      ],
      "name": "URI",
      "type": "event"
    },
    {
      "anonymous": false,
      "inputs": [
        {
          "indexed": false,
          "internalType": "address",
          "name": "account",
          "type": "address"
        }
      ],
      "name": "Unpaused",
      "type": "event"
    },
    {
      "inputs": [
        {
          "internalType": "address",
          "name": "account",
          "type": "address"
        },
        {
          "internalType": "uint256",
          "name": "id",
          "type": "uint256"
        }
      ],
      "name": "balanceOf",
      "outputs": [
        {
          "internalType": "uint256",
          "name": "",
          "type": "uint256"
        }
      ],
      "stateMutability": "view",
      "type": "function",
      "constant": true
    },
    {
      "inputs": [
        {
          "internalType": "address[]",
          "name": "accounts",
          "type": "address[]"
        },
        {
          "internalType": "uint256[]",
          "name": "ids",
          "type": "uint256[]"
        }
      ],
      "name": "balanceOfBatch",
      "outputs": [
        {
          "internalType": "uint256[]",
          "name": "",
          "type": "uint256[]"
        }
      ],
      "stateMutability": "view",
      "type": "function",
      "constant": true
    },
    {
      "inputs": [
        {
          "internalType": "uint256",
          "name": "",
          "type": "uint256"
        }
      ],
      "name": "creatorFee",
      "outputs": [
        {
          "internalType": "int256",
          "name": "",
          "type": "int256"
        }
      ],
      "stateMutability": "view",
      "type": "function",
      "constant": true
    },
    {
      "inputs": [
        {
          "internalType": "uint256",
          "name": "",
          "type": "uint256"
        }
      ],
      "name": "creatorOf",
      "outputs": [
        {
          "internalType": "address",
          "name": "",
          "type": "address"
        }
      ],
      "stateMutability": "view",
      "type": "function",
      "constant": true
    },
    {
      "inputs": [
        {
          "internalType": "uint256",
          "name": "",
          "type": "uint256"
        }
      ],
      "name": "hashes",
      "outputs": [
        {
          "internalType": "string",
          "name": "",
          "type": "string"
        }
      ],
      "stateMutability": "view",
      "type": "function",
      "constant": true
    },
    {
      "inputs": [
        {
          "internalType": "address",
          "name": "account",
          "type": "address"
        },
        {
          "internalType": "address",
          "name": "operator",
          "type": "address"
        }
      ],
      "name": "isApprovedForAll",
      "outputs": [
        {
          "internalType": "bool",
          "name": "",
          "type": "bool"
        }
      ],
      "stateMutability": "view",
      "type": "function",
      "constant": true
    },
    {
      "inputs": [],
      "name": "owner",
      "outputs": [
        {
          "internalType": "address",
          "name": "",
          "type": "address"
        }
      ],
      "stateMutability": "view",
      "type": "function",
      "constant": true
    },
    {
      "inputs": [
        {
          "internalType": "uint256",
          "name": "",
          "type": "uint256"
        }
      ],
      "name": "ownerOf",
      "outputs": [
        {
          "internalType": "address",
          "name": "",
          "type": "address"
        }
      ],
      "stateMutability": "view",
      "type": "function",
      "constant": true
    },
    {
      "inputs": [],
      "name": "paused",
      "outputs": [
        {
          "internalType": "bool",
          "name": "",
          "type": "bool"
        }
      ],
      "stateMutability": "view",
      "type": "function",
      "constant": true
    },
    {
      "inputs": [],
      "name": "renounceOwnership",
      "outputs": [],
      "stateMutability": "nonpayable",
      "type": "function"
    },
    {
      "inputs": [
        {
          "internalType": "address",
          "name": "from",
          "type": "address"
        },
        {
          "internalType": "address",
          "name": "to",
          "type": "address"
        },
        {
          "internalType": "uint256[]",
          "name": "ids",
          "type": "uint256[]"
        },
        {
          "internalType": "uint256[]",
          "name": "amounts",
          "type": "uint256[]"
        },
        {
          "internalType": "bytes",
          "name": "data",
          "type": "bytes"
        }
      ],
      "name": "safeBatchTransferFrom",
      "outputs": [],
      "stateMutability": "nonpayable",
      "type": "function"
    },
    {
      "inputs": [
        {
          "internalType": "address",
          "name": "from",
          "type": "address"
        },
        {
          "internalType": "address",
          "name": "to",
          "type": "address"
        },
        {
          "internalType": "uint256",
          "name": "id",
          "type": "uint256"
        },
        {
          "internalType": "uint256",
          "name": "amount",
          "type": "uint256"
        },
        {
          "internalType": "bytes",
          "name": "data",
          "type": "bytes"
        }
      ],
      "name": "safeTransferFrom",
      "outputs": [],
      "stateMutability": "nonpayable",
      "type": "function"
    },
    {
      "inputs": [
        {
          "internalType": "address",
          "name": "operator",
          "type": "address"
        },
        {
          "internalType": "bool",
          "name": "approved",
          "type": "bool"
        }
      ],
      "name": "setApprovalForAll",
      "outputs": [],
      "stateMutability": "nonpayable",
      "type": "function"
    },
    {
      "inputs": [
        {
          "internalType": "bytes4",
          "name": "interfaceId",
          "type": "bytes4"
        }
      ],
      "name": "supportsInterface",
      "outputs": [
        {
          "internalType": "bool",
          "name": "",
          "type": "bool"
        }
      ],
      "stateMutability": "view",
      "type": "function",
      "constant": true
    },
    {
      "inputs": [
        {
          "internalType": "address",
          "name": "newOwner",
          "type": "address"
        }
      ],
      "name": "transferOwnership",
      "outputs": [],
      "stateMutability": "nonpayable",
      "type": "function"
    },
    {
      "inputs": [
        {
          "internalType": "uint256",
          "name": "",
          "type": "uint256"
        }
      ],
      "name": "uri",
      "outputs": [
        {
          "internalType": "string",
          "name": "",
          "type": "string"
        }
      ],
      "stateMutability": "view",
      "type": "function",
      "constant": true
    },
    {
      "inputs": [],
      "name": "initialize",
      "outputs": [],
      "stateMutability": "nonpayable",
      "type": "function"
    },
    {
      "inputs": [
        {
          "internalType": "string",
          "name": "_newUri",
          "type": "string"
        }
      ],
      "name": "setUri",
      "outputs": [],
      "stateMutability": "nonpayable",
      "type": "function"
    },
    {
      "inputs": [
        {
          "internalType": "string",
          "name": "_hash",
          "type": "string"
        },
        {
          "internalType": "int256",
          "name": "_creatorFee",
          "type": "int256"
        }
      ],
      "name": "mint",
      "outputs": [],
      "stateMutability": "nonpayable",
      "type": "function"
    },
    {
      "inputs": [
        {
          "internalType": "string",
          "name": "_hash",
          "type": "string"
        }
      ],
      "name": "getTokenID",
      "outputs": [
        {
          "internalType": "uint256",
          "name": "tokenID",
          "type": "uint256"
        }
      ],
      "stateMutability": "view",
      "type": "function",
      "constant": true
    },
    {
      "inputs": [],
      "name": "getMemesCount",
      "outputs": [
        {
          "internalType": "uint256",
          "name": "count",
          "type": "uint256"
        }
      ],
      "stateMutability": "view",
      "type": "function",
      "constant": true
    },
    {
      "inputs": [],
      "name": "pause",
      "outputs": [],
      "stateMutability": "nonpayable",
      "type": "function"
    },
    {
      "inputs": [],
      "name": "unpause",
      "outputs": [],
      "stateMutability": "nonpayable",
      "type": "function"
    }
  ],
  "bytecode": "0x608060405234801561001057600080fd5b5061456e806100206000396000f3fe608060405234801561001057600080fd5b506004361061014c5760003560e01c8063715018a6116100c3578063a22cb4651161007c578063a22cb46514610389578063e5f6e261146103a5578063e706a639146103c3578063e985e9c5146103f3578063f242432a14610423578063f2fde38b1461043f5761014c565b8063715018a61461030157806378c3829b1461030b5780638129fc1c1461033b5780638456cb59146103455780638da5cb5b1461034f5780639b642de11461036d5761014c565b80633f4ba83a116101155780633f4ba83a146102195780634e1273f414610223578063501895ae14610253578063589a1743146102835780635c975abb146102b35780636352211e146102d15761014c565b8062fdd58e1461015157806301ffc9a7146101815780630e89341c146101b15780632d5497cd146101e15780632eb2c2d6146101fd575b600080fd5b61016b60048036038101906101669190613229565b61045b565b6040516101789190613f87565b60405180910390f35b61019b600480360381019061019691906132d1565b610525565b6040516101a89190613d0f565b60405180910390f35b6101cb60048036038101906101c691906133b8565b610607565b6040516101d89190613d45565b60405180910390f35b6101fb60048036038101906101f69190613364565b61069b565b005b6102176004803603810190610212919061309f565b610912565b005b610221610d0b565b005b61023d60048036038101906102389190613265565b610dd8565b60405161024a9190613cb6565b60405180910390f35b61026d600480360381019061026891906133b8565b610f89565b60405161027a9190613d45565b60405180910390f35b61029d600480360381019061029891906133b8565b611035565b6040516102aa9190613bb0565b60405180910390f35b6102bb611068565b6040516102c89190613d0f565b60405180910390f35b6102eb60048036038101906102e691906133b8565b61107f565b6040516102f89190613bb0565b60405180910390f35b6103096110b2565b005b610325600480360381019061032091906133b8565b6111ef565b6040516103329190613d2a565b60405180910390f35b610343611208565b005b61034d61131a565b005b6103576113e8565b6040516103649190613bb0565b60405180910390f35b61038760048036038101906103829190613323565b611412565b005b6103a3600480360381019061039e91906131ed565b6114e2565b005b6103ad611663565b6040516103ba9190613f87565b60405180910390f35b6103dd60048036038101906103d89190613323565b6116b8565b6040516103ea9190613f87565b60405180910390f35b61040d60048036038101906104089190613063565b611728565b60405161041a9190613d0f565b60405180910390f35b61043d6004803603810190610438919061315e565b6117bc565b005b6104596004803603810190610454919061303a565b611ad7565b005b60008073ffffffffffffffffffffffffffffffffffffffff168373ffffffffffffffffffffffffffffffffffffffff1614156104cc576040517f08c379a00000000000000000000000000000000000000000000000000000000081526004016104c390613dc7565b60405180910390fd5b6065600083815260200190815260200160002060008473ffffffffffffffffffffffffffffffffffffffff1673ffffffffffffffffffffffffffffffffffffffff16815260200190815260200160002054905092915050565b60007fd9b67a26000000000000000000000000000000000000000000000000000000007bffffffffffffffffffffffffffffffffffffffffffffffffffffffff1916827bffffffffffffffffffffffffffffffffffffffffffffffffffffffff191614806105f057507f0e89341c000000000000000000000000000000000000000000000000000000007bffffffffffffffffffffffffffffffffffffffffffffffffffffffff1916827bffffffffffffffffffffffffffffffffffffffffffffffffffffffff1916145b8061060057506105ff82611c83565b5b9050919050565b6060606780546106169061427a565b80601f01602080910402602001604051908101604052809291908181526020018280546106429061427a565b801561068f5780601f106106645761010080835404028352916020019161068f565b820191906000526020600020905b81548152906001019060200180831161067257829003601f168201915b50505050509050919050565b6106a3611068565b156106e3576040517f08c379a00000000000000000000000000000000000000000000000000000000081526004016106da90613e47565b60405180910390fd5b60fc826040516106f39190613b99565b908152602001604051809103902060009054906101000a900460ff161561074f576040517f08c379a000000000000000000000000000000000000000000000000000000000815260040161074690613e27565b60405180910390fd5b60fb8290806001815401808255809150506001900390600052602060002001600090919091909150908051906020019061078a929190612d1d565b506000600160fb8054905061079f9190614186565b90506107bd3382600160405180602001604052806000815250611ced565b600160fc846040516107cf9190613b99565b908152602001604051809103902060006101000a81548160ff0219169083151502179055508060fd846040516108059190613b99565b9081526020016040518091039020819055503360fe600083815260200190815260200160002060006101000a81548173ffffffffffffffffffffffffffffffffffffffff021916908373ffffffffffffffffffffffffffffffffffffffff1602179055503360ff600083815260200190815260200160002060006101000a81548173ffffffffffffffffffffffffffffffffffffffff021916908373ffffffffffffffffffffffffffffffffffffffff160217905550816101006000838152602001908152602001600020819055507f48dc2aeea2a01c56706a90dc93cbd9fe7e1783b9c475708d49ea0b7c579ddc9d3382604051610905929190613c8d565b60405180910390a1505050565b8151835114610956576040517f08c379a000000000000000000000000000000000000000000000000000000000815260040161094d90613f47565b60405180910390fd5b600073ffffffffffffffffffffffffffffffffffffffff168473ffffffffffffffffffffffffffffffffffffffff1614156109c6576040517f08c379a00000000000000000000000000000000000000000000000000000000081526004016109bd90613e67565b60405180910390fd5b6109ce611e84565b73ffffffffffffffffffffffffffffffffffffffff168573ffffffffffffffffffffffffffffffffffffffff161480610a145750610a1385610a0e611e84565b611728565b5b610a53576040517f08c379a0000000000000000000000000000000000000000000000000000000008152600401610a4a90613e87565b60405180910390fd5b6000610a5d611e84565b9050610a6d818787878787611e8c565b60005b8451811015610c76576000858281518110610ab4577f4e487b7100000000000000000000000000000000000000000000000000000000600052603260045260246000fd5b602002602001015190506000858381518110610af9577f4e487b7100000000000000000000000000000000000000000000000000000000600052603260045260246000fd5b6020026020010151905060006065600084815260200190815260200160002060008b73ffffffffffffffffffffffffffffffffffffffff1673ffffffffffffffffffffffffffffffffffffffff16815260200190815260200160002054905081811015610b9b576040517f08c379a0000000000000000000000000000000000000000000000000000000008152600401610b9290613ec7565b60405180910390fd5b8181610ba79190614186565b6065600085815260200190815260200160002060008c73ffffffffffffffffffffffffffffffffffffffff1673ffffffffffffffffffffffffffffffffffffffff16815260200190815260200160002081905550816065600085815260200190815260200160002060008b73ffffffffffffffffffffffffffffffffffffffff1673ffffffffffffffffffffffffffffffffffffffff1681526020019081526020016000206000828254610c5b9190614130565b9250508190555050505080610c6f906142ac565b9050610a70565b508473ffffffffffffffffffffffffffffffffffffffff168673ffffffffffffffffffffffffffffffffffffffff168273ffffffffffffffffffffffffffffffffffffffff167f4a39dc06d4c0dbc64b70af90fd698a233a518aa5d07e595d983b8c0526c8f7fb8787604051610ced929190613cd8565b60405180910390a4610d03818787878787611e94565b505050505050565b610d13611068565b610d52576040517f08c379a0000000000000000000000000000000000000000000000000000000008152600401610d4990613da7565b60405180910390fd5b610d5a611e84565b73ffffffffffffffffffffffffffffffffffffffff16610d786113e8565b73ffffffffffffffffffffffffffffffffffffffff1614610dce576040517f08c379a0000000000000000000000000000000000000000000000000000000008152600401610dc590613ee7565b60405180910390fd5b610dd6612064565b565b60608151835114610e1e576040517f08c379a0000000000000000000000000000000000000000000000000000000008152600401610e1590613f27565b60405180910390fd5b6000835167ffffffffffffffff811115610e61577f4e487b7100000000000000000000000000000000000000000000000000000000600052604160045260246000fd5b604051908082528060200260200182016040528015610e8f5781602001602082028036833780820191505090505b50905060005b8451811015610f7e57610f28858281518110610eda577f4e487b7100000000000000000000000000000000000000000000000000000000600052603260045260246000fd5b6020026020010151858381518110610f1b577f4e487b7100000000000000000000000000000000000000000000000000000000600052603260045260246000fd5b602002602001015161045b565b828281518110610f61577f4e487b7100000000000000000000000000000000000000000000000000000000600052603260045260246000fd5b60200260200101818152505080610f77906142ac565b9050610e95565b508091505092915050565b60fb8181548110610f9957600080fd5b906000526020600020016000915090508054610fb49061427a565b80601f0160208091040260200160405190810160405280929190818152602001828054610fe09061427a565b801561102d5780601f106110025761010080835404028352916020019161102d565b820191906000526020600020905b81548152906001019060200180831161101057829003601f168201915b505050505081565b60fe6020528060005260406000206000915054906101000a900473ffffffffffffffffffffffffffffffffffffffff1681565b600060c960009054906101000a900460ff16905090565b60ff6020528060005260406000206000915054906101000a900473ffffffffffffffffffffffffffffffffffffffff1681565b6110ba611e84565b73ffffffffffffffffffffffffffffffffffffffff166110d86113e8565b73ffffffffffffffffffffffffffffffffffffffff161461112e576040517f08c379a000000000000000000000000000000000000000000000000000000000815260040161112590613ee7565b60405180910390fd5b600073ffffffffffffffffffffffffffffffffffffffff16609760009054906101000a900473ffffffffffffffffffffffffffffffffffffffff1673ffffffffffffffffffffffffffffffffffffffff167f8be0079c531659141344cd1fd0a4f28419497f9722a3daafe3b4186f6b6457e060405160405180910390a36000609760006101000a81548173ffffffffffffffffffffffffffffffffffffffff021916908373ffffffffffffffffffffffffffffffffffffffff160217905550565b6101006020528060005260406000206000915090505481565b600060019054906101000a900460ff168061122e575060008054906101000a900460ff16155b61126d576040517f08c379a000000000000000000000000000000000000000000000000000000000815260040161126490613ea7565b60405180910390fd5b60008060019054906101000a900460ff1615905080156112bd576001600060016101000a81548160ff02191690831515021790555060016000806101000a81548160ff0219169083151502179055505b6112de6040518060a00160405280606f81526020016144ca606f9139612106565b6112e66121f9565b6112ee6122da565b6112f66123c3565b80156113175760008060016101000a81548160ff0219169083151502179055505b50565b611322611068565b15611362576040517f08c379a000000000000000000000000000000000000000000000000000000000815260040161135990613e47565b60405180910390fd5b61136a611e84565b73ffffffffffffffffffffffffffffffffffffffff166113886113e8565b73ffffffffffffffffffffffffffffffffffffffff16146113de576040517f08c379a00000000000000000000000000000000000000000000000000000000081526004016113d590613ee7565b60405180910390fd5b6113e66124ac565b565b6000609760009054906101000a900473ffffffffffffffffffffffffffffffffffffffff16905090565b61141a611068565b1561145a576040517f08c379a000000000000000000000000000000000000000000000000000000000815260040161145190613e47565b60405180910390fd5b611462611e84565b73ffffffffffffffffffffffffffffffffffffffff166114806113e8565b73ffffffffffffffffffffffffffffffffffffffff16146114d6576040517f08c379a00000000000000000000000000000000000000000000000000000000081526004016114cd90613ee7565b60405180910390fd5b6114df8161254f565b50565b8173ffffffffffffffffffffffffffffffffffffffff16611501611e84565b73ffffffffffffffffffffffffffffffffffffffff161415611558576040517f08c379a000000000000000000000000000000000000000000000000000000000815260040161154f90613f07565b60405180910390fd5b8060666000611565611e84565b73ffffffffffffffffffffffffffffffffffffffff1673ffffffffffffffffffffffffffffffffffffffff16815260200190815260200160002060008473ffffffffffffffffffffffffffffffffffffffff1673ffffffffffffffffffffffffffffffffffffffff16815260200190815260200160002060006101000a81548160ff0219169083151502179055508173ffffffffffffffffffffffffffffffffffffffff16611612611e84565b73ffffffffffffffffffffffffffffffffffffffff167f17307eab39ab6107e8899845ad3d59bd9653f200f220920489ca2b5937696c31836040516116579190613d0f565b60405180910390a35050565b600061166d611068565b156116ad576040517f08c379a00000000000000000000000000000000000000000000000000000000081526004016116a490613e47565b60405180910390fd5b60fb80549050905090565b60006116c2611068565b15611702576040517f08c379a00000000000000000000000000000000000000000000000000000000081526004016116f990613e47565b60405180910390fd5b60fd826040516117129190613b99565b9081526020016040518091039020549050919050565b6000606660008473ffffffffffffffffffffffffffffffffffffffff1673ffffffffffffffffffffffffffffffffffffffff16815260200190815260200160002060008373ffffffffffffffffffffffffffffffffffffffff1673ffffffffffffffffffffffffffffffffffffffff16815260200190815260200160002060009054906101000a900460ff16905092915050565b600073ffffffffffffffffffffffffffffffffffffffff168473ffffffffffffffffffffffffffffffffffffffff16141561182c576040517f08c379a000000000000000000000000000000000000000000000000000000000815260040161182390613e67565b60405180910390fd5b611834611e84565b73ffffffffffffffffffffffffffffffffffffffff168573ffffffffffffffffffffffffffffffffffffffff16148061187a575061187985611874611e84565b611728565b5b6118b9576040517f08c379a00000000000000000000000000000000000000000000000000000000081526004016118b090613e07565b60405180910390fd5b60006118c3611e84565b90506118e38187876118d488612569565b6118dd88612569565b87611e8c565b60006065600086815260200190815260200160002060008873ffffffffffffffffffffffffffffffffffffffff1673ffffffffffffffffffffffffffffffffffffffff1681526020019081526020016000205490508381101561197b576040517f08c379a000000000000000000000000000000000000000000000000000000000815260040161197290613ec7565b60405180910390fd5b83816119879190614186565b6065600087815260200190815260200160002060008973ffffffffffffffffffffffffffffffffffffffff1673ffffffffffffffffffffffffffffffffffffffff16815260200190815260200160002081905550836065600087815260200190815260200160002060008873ffffffffffffffffffffffffffffffffffffffff1673ffffffffffffffffffffffffffffffffffffffff1681526020019081526020016000206000828254611a3b9190614130565b925050819055508573ffffffffffffffffffffffffffffffffffffffff168773ffffffffffffffffffffffffffffffffffffffff168373ffffffffffffffffffffffffffffffffffffffff167fc3d58168c5ae7397731d063d5bbf3d657854427343f4c083240f7aacaa2d0f628888604051611ab8929190613fa2565b60405180910390a4611ace82888888888861262f565b50505050505050565b611adf611e84565b73ffffffffffffffffffffffffffffffffffffffff16611afd6113e8565b73ffffffffffffffffffffffffffffffffffffffff1614611b53576040517f08c379a0000000000000000000000000000000000000000000000000000000008152600401611b4a90613ee7565b60405180910390fd5b600073ffffffffffffffffffffffffffffffffffffffff168173ffffffffffffffffffffffffffffffffffffffff161415611bc3576040517f08c379a0000000000000000000000000000000000000000000000000000000008152600401611bba90613de7565b60405180910390fd5b8073ffffffffffffffffffffffffffffffffffffffff16609760009054906101000a900473ffffffffffffffffffffffffffffffffffffffff1673ffffffffffffffffffffffffffffffffffffffff167f8be0079c531659141344cd1fd0a4f28419497f9722a3daafe3b4186f6b6457e060405160405180910390a380609760006101000a81548173ffffffffffffffffffffffffffffffffffffffff021916908373ffffffffffffffffffffffffffffffffffffffff16021790555050565b60007f01ffc9a7000000000000000000000000000000000000000000000000000000007bffffffffffffffffffffffffffffffffffffffffffffffffffffffff1916827bffffffffffffffffffffffffffffffffffffffffffffffffffffffff1916149050919050565b600073ffffffffffffffffffffffffffffffffffffffff168473ffffffffffffffffffffffffffffffffffffffff161415611d5d576040517f08c379a0000000000000000000000000000000000000000000000000000000008152600401611d5490613f67565b60405180910390fd5b6000611d67611e84565b9050611d8881600087611d7988612569565b611d8288612569565b87611e8c565b826065600086815260200190815260200160002060008773ffffffffffffffffffffffffffffffffffffffff1673ffffffffffffffffffffffffffffffffffffffff1681526020019081526020016000206000828254611de89190614130565b925050819055508473ffffffffffffffffffffffffffffffffffffffff16600073ffffffffffffffffffffffffffffffffffffffff168273ffffffffffffffffffffffffffffffffffffffff167fc3d58168c5ae7397731d063d5bbf3d657854427343f4c083240f7aacaa2d0f628787604051611e66929190613fa2565b60405180910390a4611e7d8160008787878761262f565b5050505050565b600033905090565b505050505050565b611eb38473ffffffffffffffffffffffffffffffffffffffff166127ff565b1561205c578373ffffffffffffffffffffffffffffffffffffffff1663bc197c8187878686866040518663ffffffff1660e01b8152600401611ef9959493929190613bcb565b602060405180830381600087803b158015611f1357600080fd5b505af1925050508015611f4457506040513d601f19601f82011682018060405250810190611f4191906132fa565b60015b611fd357611f506143a0565b80611f5b5750611f98565b806040517f08c379a0000000000000000000000000000000000000000000000000000000008152600401611f8f9190613d45565b60405180910390fd5b6040517f08c379a0000000000000000000000000000000000000000000000000000000008152600401611fca90613d67565b60405180910390fd5b63bc197c8160e01b7bffffffffffffffffffffffffffffffffffffffffffffffffffffffff1916817bffffffffffffffffffffffffffffffffffffffffffffffffffffffff19161461205a576040517f08c379a000000000000000000000000000000000000000000000000000000000815260040161205190613d87565b60405180910390fd5b505b505050505050565b61206c611068565b6120ab576040517f08c379a00000000000000000000000000000000000000000000000000000000081526004016120a290613da7565b60405180910390fd5b600060c960006101000a81548160ff0219169083151502179055507f5db9ee0a495bf2e6ff9c91a7834c1ba4fdd244a5e8aa4e537bd38aeae4b073aa6120ef611e84565b6040516120fc9190613bb0565b60405180910390a1565b600060019054906101000a900460ff168061212c575060008054906101000a900460ff16155b61216b576040517f08c379a000000000000000000000000000000000000000000000000000000000815260040161216290613ea7565b60405180910390fd5b60008060019054906101000a900460ff1615905080156121bb576001600060016101000a81548160ff02191690831515021790555060016000806101000a81548160ff0219169083151502179055505b6121c3612812565b6121cb6128eb565b6121d4826129c4565b80156121f55760008060016101000a81548160ff0219169083151502179055505b5050565b600060019054906101000a900460ff168061221f575060008054906101000a900460ff16155b61225e576040517f08c379a000000000000000000000000000000000000000000000000000000000815260040161225590613ea7565b60405180910390fd5b60008060019054906101000a900460ff1615905080156122ae576001600060016101000a81548160ff02191690831515021790555060016000806101000a81548160ff0219169083151502179055505b6122b66128eb565b80156122d75760008060016101000a81548160ff0219169083151502179055505b50565b600060019054906101000a900460ff1680612300575060008054906101000a900460ff16155b61233f576040517f08c379a000000000000000000000000000000000000000000000000000000000815260040161233690613ea7565b60405180910390fd5b60008060019054906101000a900460ff16159050801561238f576001600060016101000a81548160ff02191690831515021790555060016000806101000a81548160ff0219169083151502179055505b612397612812565b61239f612aa7565b80156123c05760008060016101000a81548160ff0219169083151502179055505b50565b600060019054906101000a900460ff16806123e9575060008054906101000a900460ff16155b612428576040517f08c379a000000000000000000000000000000000000000000000000000000000815260040161241f90613ea7565b60405180910390fd5b60008060019054906101000a900460ff161590508015612478576001600060016101000a81548160ff02191690831515021790555060016000806101000a81548160ff0219169083151502179055505b612480612812565b612488612c29565b80156124a95760008060016101000a81548160ff0219169083151502179055505b50565b6124b4611068565b156124f4576040517f08c379a00000000000000000000000000000000000000000000000000000000081526004016124eb90613e47565b60405180910390fd5b600160c960006101000a81548160ff0219169083151502179055507f62e78cea01bee320cd4e420270b5ea74000d11b0c9f74754ebdbfc544b05a258612538611e84565b6040516125459190613bb0565b60405180910390a1565b8060679080519060200190612565929190612d1d565b5050565b60606000600167ffffffffffffffff8111156125ae577f4e487b7100000000000000000000000000000000000000000000000000000000600052604160045260246000fd5b6040519080825280602002602001820160405280156125dc5781602001602082028036833780820191505090505b509050828160008151811061261a577f4e487b7100000000000000000000000000000000000000000000000000000000600052603260045260246000fd5b60200260200101818152505080915050919050565b61264e8473ffffffffffffffffffffffffffffffffffffffff166127ff565b156127f7578373ffffffffffffffffffffffffffffffffffffffff1663f23a6e6187878686866040518663ffffffff1660e01b8152600401612694959493929190613c33565b602060405180830381600087803b1580156126ae57600080fd5b505af19250505080156126df57506040513d601f19601f820116820180604052508101906126dc91906132fa565b60015b61276e576126eb6143a0565b806126f65750612733565b806040517f08c379a000000000000000000000000000000000000000000000000000000000815260040161272a9190613d45565b60405180910390fd5b6040517f08c379a000000000000000000000000000000000000000000000000000000000815260040161276590613d67565b60405180910390fd5b63f23a6e6160e01b7bffffffffffffffffffffffffffffffffffffffffffffffffffffffff1916817bffffffffffffffffffffffffffffffffffffffffffffffffffffffff1916146127f5576040517f08c379a00000000000000000000000000000000000000000000000000000000081526004016127ec90613d87565b60405180910390fd5b505b505050505050565b600080823b905060008111915050919050565b600060019054906101000a900460ff1680612838575060008054906101000a900460ff16155b612877576040517f08c379a000000000000000000000000000000000000000000000000000000000815260040161286e90613ea7565b60405180910390fd5b60008060019054906101000a900460ff1615905080156128c7576001600060016101000a81548160ff02191690831515021790555060016000806101000a81548160ff0219169083151502179055505b80156128e85760008060016101000a81548160ff0219169083151502179055505b50565b600060019054906101000a900460ff1680612911575060008054906101000a900460ff16155b612950576040517f08c379a000000000000000000000000000000000000000000000000000000000815260040161294790613ea7565b60405180910390fd5b60008060019054906101000a900460ff1615905080156129a0576001600060016101000a81548160ff02191690831515021790555060016000806101000a81548160ff0219169083151502179055505b80156129c15760008060016101000a81548160ff0219169083151502179055505b50565b600060019054906101000a900460ff16806129ea575060008054906101000a900460ff16155b612a29576040517f08c379a0000000000000000000000000000000000000000000000000000000008152600401612a2090613ea7565b60405180910390fd5b60008060019054906101000a900460ff161590508015612a79576001600060016101000a81548160ff02191690831515021790555060016000806101000a81548160ff0219169083151502179055505b612a828261254f565b8015612aa35760008060016101000a81548160ff0219169083151502179055505b5050565b600060019054906101000a900460ff1680612acd575060008054906101000a900460ff16155b612b0c576040517f08c379a0000000000000000000000000000000000000000000000000000000008152600401612b0390613ea7565b60405180910390fd5b60008060019054906101000a900460ff161590508015612b5c576001600060016101000a81548160ff02191690831515021790555060016000806101000a81548160ff0219169083151502179055505b6000612b66611e84565b905080609760006101000a81548173ffffffffffffffffffffffffffffffffffffffff021916908373ffffffffffffffffffffffffffffffffffffffff1602179055508073ffffffffffffffffffffffffffffffffffffffff16600073ffffffffffffffffffffffffffffffffffffffff167f8be0079c531659141344cd1fd0a4f28419497f9722a3daafe3b4186f6b6457e060405160405180910390a3508015612c265760008060016101000a81548160ff0219169083151502179055505b50565b600060019054906101000a900460ff1680612c4f575060008054906101000a900460ff16155b612c8e576040517f08c379a0000000000000000000000000000000000000000000000000000000008152600401612c8590613ea7565b60405180910390fd5b60008060019054906101000a900460ff161590508015612cde576001600060016101000a81548160ff02191690831515021790555060016000806101000a81548160ff0219169083151502179055505b600060c960006101000a81548160ff0219169083151502179055508015612d1a5760008060016101000a81548160ff0219169083151502179055505b50565b828054612d299061427a565b90600052602060002090601f016020900481019282612d4b5760008555612d92565b82601f10612d6457805160ff1916838001178555612d92565b82800160010185558215612d92579182015b82811115612d91578251825591602001919060010190612d76565b5b509050612d9f9190612da3565b5090565b5b80821115612dbc576000816000905550600101612da4565b5090565b6000612dd3612dce84613ffc565b613fcb565b90508083825260208201905082856020860282011115612df257600080fd5b60005b85811015612e225781612e088882612f14565b845260208401935060208301925050600181019050612df5565b5050509392505050565b6000612e3f612e3a84614028565b613fcb565b90508083825260208201905082856020860282011115612e5e57600080fd5b60005b85811015612e8e5781612e748882613025565b845260208401935060208301925050600181019050612e61565b5050509392505050565b6000612eab612ea684614054565b613fcb565b905082815260208101848484011115612ec357600080fd5b612ece848285614238565b509392505050565b6000612ee9612ee484614084565b613fcb565b905082815260208101848484011115612f0157600080fd5b612f0c848285614238565b509392505050565b600081359050612f2381614456565b92915050565b600082601f830112612f3a57600080fd5b8135612f4a848260208601612dc0565b91505092915050565b600082601f830112612f6457600080fd5b8135612f74848260208601612e2c565b91505092915050565b600081359050612f8c8161446d565b92915050565b600081359050612fa181614484565b92915050565b600081519050612fb681614484565b92915050565b600082601f830112612fcd57600080fd5b8135612fdd848260208601612e98565b91505092915050565b600081359050612ff58161449b565b92915050565b600082601f83011261300c57600080fd5b813561301c848260208601612ed6565b91505092915050565b600081359050613034816144b2565b92915050565b60006020828403121561304c57600080fd5b600061305a84828501612f14565b91505092915050565b6000806040838503121561307657600080fd5b600061308485828601612f14565b925050602061309585828601612f14565b9150509250929050565b600080600080600060a086880312156130b757600080fd5b60006130c588828901612f14565b95505060206130d688828901612f14565b945050604086013567ffffffffffffffff8111156130f357600080fd5b6130ff88828901612f53565b935050606086013567ffffffffffffffff81111561311c57600080fd5b61312888828901612f53565b925050608086013567ffffffffffffffff81111561314557600080fd5b61315188828901612fbc565b9150509295509295909350565b600080600080600060a0868803121561317657600080fd5b600061318488828901612f14565b955050602061319588828901612f14565b94505060406131a688828901613025565b93505060606131b788828901613025565b925050608086013567ffffffffffffffff8111156131d457600080fd5b6131e088828901612fbc565b9150509295509295909350565b6000806040838503121561320057600080fd5b600061320e85828601612f14565b925050602061321f85828601612f7d565b9150509250929050565b6000806040838503121561323c57600080fd5b600061324a85828601612f14565b925050602061325b85828601613025565b9150509250929050565b6000806040838503121561327857600080fd5b600083013567ffffffffffffffff81111561329257600080fd5b61329e85828601612f29565b925050602083013567ffffffffffffffff8111156132bb57600080fd5b6132c785828601612f53565b9150509250929050565b6000602082840312156132e357600080fd5b60006132f184828501612f92565b91505092915050565b60006020828403121561330c57600080fd5b600061331a84828501612fa7565b91505092915050565b60006020828403121561333557600080fd5b600082013567ffffffffffffffff81111561334f57600080fd5b61335b84828501612ffb565b91505092915050565b6000806040838503121561337757600080fd5b600083013567ffffffffffffffff81111561339157600080fd5b61339d85828601612ffb565b92505060206133ae85828601612fe6565b9150509250929050565b6000602082840312156133ca57600080fd5b60006133d884828501613025565b91505092915050565b60006133ed8383613b7b565b60208301905092915050565b613402816141ba565b82525050565b6000613413826140c4565b61341d81856140f2565b9350613428836140b4565b8060005b8381101561345957815161344088826133e1565b975061344b836140e5565b92505060018101905061342c565b5085935050505092915050565b61346f816141cc565b82525050565b6000613480826140cf565b61348a8185614103565b935061349a818560208601614247565b6134a381614382565b840191505092915050565b6134b781614204565b82525050565b60006134c8826140da565b6134d28185614114565b93506134e2818560208601614247565b6134eb81614382565b840191505092915050565b6000613501826140da565b61350b8185614125565b935061351b818560208601614247565b80840191505092915050565b6000613534603483614114565b91507f455243313135353a207472616e7366657220746f206e6f6e204552433131353560008301527f526563656976657220696d706c656d656e7465720000000000000000000000006020830152604082019050919050565b600061359a602883614114565b91507f455243313135353a204552433131353552656365697665722072656a6563746560008301527f6420746f6b656e730000000000000000000000000000000000000000000000006020830152604082019050919050565b6000613600601483614114565b91507f5061757361626c653a206e6f74207061757365640000000000000000000000006000830152602082019050919050565b6000613640602b83614114565b91507f455243313135353a2062616c616e636520717565727920666f7220746865207a60008301527f65726f20616464726573730000000000000000000000000000000000000000006020830152604082019050919050565b60006136a6602683614114565b91507f4f776e61626c653a206e6577206f776e657220697320746865207a65726f206160008301527f64647265737300000000000000000000000000000000000000000000000000006020830152604082019050919050565b600061370c602983614114565b91507f455243313135353a2063616c6c6572206973206e6f74206f776e6572206e6f7260008301527f20617070726f76656400000000000000000000000000000000000000000000006020830152604082019050919050565b6000613772602683614114565b91507f546f6b656e20776974682074686973206861736820697320616c72656164792060008301527f6d696e74656400000000000000000000000000000000000000000000000000006020830152604082019050919050565b60006137d8601083614114565b91507f5061757361626c653a20706175736564000000000000000000000000000000006000830152602082019050919050565b6000613818602583614114565b91507f455243313135353a207472616e7366657220746f20746865207a65726f20616460008301527f64726573730000000000000000000000000000000000000000000000000000006020830152604082019050919050565b600061387e603283614114565b91507f455243313135353a207472616e736665722063616c6c6572206973206e6f742060008301527f6f776e6572206e6f7220617070726f76656400000000000000000000000000006020830152604082019050919050565b60006138e4602e83614114565b91507f496e697469616c697a61626c653a20636f6e747261637420697320616c72656160008301527f647920696e697469616c697a65640000000000000000000000000000000000006020830152604082019050919050565b600061394a602a83614114565b91507f455243313135353a20696e73756666696369656e742062616c616e636520666f60008301527f72207472616e73666572000000000000000000000000000000000000000000006020830152604082019050919050565b60006139b0602083614114565b91507f4f776e61626c653a2063616c6c6572206973206e6f7420746865206f776e65726000830152602082019050919050565b60006139f0602983614114565b91507f455243313135353a2073657474696e6720617070726f76616c2073746174757360008301527f20666f722073656c6600000000000000000000000000000000000000000000006020830152604082019050919050565b6000613a56602983614114565b91507f455243313135353a206163636f756e747320616e6420696473206c656e67746860008301527f206d69736d6174636800000000000000000000000000000000000000000000006020830152604082019050919050565b6000613abc602883614114565b91507f455243313135353a2069647320616e6420616d6f756e7473206c656e6774682060008301527f6d69736d617463680000000000000000000000000000000000000000000000006020830152604082019050919050565b6000613b22602183614114565b91507f455243313135353a206d696e7420746f20746865207a65726f2061646472657360008301527f73000000000000000000000000000000000000000000000000000000000000006020830152604082019050919050565b613b848161422e565b82525050565b613b938161422e565b82525050565b6000613ba582846134f6565b915081905092915050565b6000602082019050613bc560008301846133f9565b92915050565b600060a082019050613be060008301886133f9565b613bed60208301876133f9565b8181036040830152613bff8186613408565b90508181036060830152613c138185613408565b90508181036080830152613c278184613475565b90509695505050505050565b600060a082019050613c4860008301886133f9565b613c5560208301876133f9565b613c626040830186613b8a565b613c6f6060830185613b8a565b8181036080830152613c818184613475565b90509695505050505050565b6000604082019050613ca260008301856133f9565b613caf6020830184613b8a565b9392505050565b60006020820190508181036000830152613cd08184613408565b905092915050565b60006040820190508181036000830152613cf28185613408565b90508181036020830152613d068184613408565b90509392505050565b6000602082019050613d246000830184613466565b92915050565b6000602082019050613d3f60008301846134ae565b92915050565b60006020820190508181036000830152613d5f81846134bd565b905092915050565b60006020820190508181036000830152613d8081613527565b9050919050565b60006020820190508181036000830152613da08161358d565b9050919050565b60006020820190508181036000830152613dc0816135f3565b9050919050565b60006020820190508181036000830152613de081613633565b9050919050565b60006020820190508181036000830152613e0081613699565b9050919050565b60006020820190508181036000830152613e20816136ff565b9050919050565b60006020820190508181036000830152613e4081613765565b9050919050565b60006020820190508181036000830152613e60816137cb565b9050919050565b60006020820190508181036000830152613e808161380b565b9050919050565b60006020820190508181036000830152613ea081613871565b9050919050565b60006020820190508181036000830152613ec0816138d7565b9050919050565b60006020820190508181036000830152613ee08161393d565b9050919050565b60006020820190508181036000830152613f00816139a3565b9050919050565b60006020820190508181036000830152613f20816139e3565b9050919050565b60006020820190508181036000830152613f4081613a49565b9050919050565b60006020820190508181036000830152613f6081613aaf565b9050919050565b60006020820190508181036000830152613f8081613b15565b9050919050565b6000602082019050613f9c6000830184613b8a565b92915050565b6000604082019050613fb76000830185613b8a565b613fc46020830184613b8a565b9392505050565b6000604051905081810181811067ffffffffffffffff82111715613ff257613ff1614353565b5b8060405250919050565b600067ffffffffffffffff82111561401757614016614353565b5b602082029050602081019050919050565b600067ffffffffffffffff82111561404357614042614353565b5b602082029050602081019050919050565b600067ffffffffffffffff82111561406f5761406e614353565b5b601f19601f8301169050602081019050919050565b600067ffffffffffffffff82111561409f5761409e614353565b5b601f19601f8301169050602081019050919050565b6000819050602082019050919050565b600081519050919050565b600081519050919050565b600081519050919050565b6000602082019050919050565b600082825260208201905092915050565b600082825260208201905092915050565b600082825260208201905092915050565b600081905092915050565b600061413b8261422e565b91506141468361422e565b9250827fffffffffffffffffffffffffffffffffffffffffffffffffffffffffffffffff0382111561417b5761417a6142f5565b5b828201905092915050565b60006141918261422e565b915061419c8361422e565b9250828210156141af576141ae6142f5565b5b828203905092915050565b60006141c58261420e565b9050919050565b60008115159050919050565b60007fffffffff0000000000000000000000000000000000000000000000000000000082169050919050565b6000819050919050565b600073ffffffffffffffffffffffffffffffffffffffff82169050919050565b6000819050919050565b82818337600083830152505050565b60005b8381101561426557808201518184015260208101905061424a565b83811115614274576000848401525b50505050565b6000600282049050600182168061429257607f821691505b602082108114156142a6576142a5614324565b5b50919050565b60006142b78261422e565b91507fffffffffffffffffffffffffffffffffffffffffffffffffffffffffffffffff8214156142ea576142e96142f5565b5b600182019050919050565b7f4e487b7100000000000000000000000000000000000000000000000000000000600052601160045260246000fd5b7f4e487b7100000000000000000000000000000000000000000000000000000000600052602260045260246000fd5b7f4e487b7100000000000000000000000000000000000000000000000000000000600052604160045260246000fd5b6000601f19601f8301169050919050565b60008160e01c9050919050565b600060443d10156143b057614453565b60046000803e6143c1600051614393565b6308c379a081146143d25750614453565b60405160043d036004823e80513d602482011167ffffffffffffffff821117156143fe57505050614453565b808201805167ffffffffffffffff81111561441d575050505050614453565b8060208301013d850181111561443857505050505050614453565b61444182614382565b60208401016040528296505050505050505b90565b61445f816141ba565b811461446a57600080fd5b50565b614476816141cc565b811461448157600080fd5b50565b61448d816141d8565b811461449857600080fd5b50565b6144a481614204565b81146144af57600080fd5b50565b6144bb8161422e565b81146144c657600080fd5b5056fe68747470733a2f2f6875622e74657874696c652e696f2f697066732f62616679626569617a347371777261637967737578376d6f616d33746364377a6e67353366366768346b687a6873726c686b746f343733633572712f746f6b656e6d657461646174612f7b69647d2e6a736f6ea26469706673582212203c256756a260e3c2aefd67fd03c289814f8d491128baa162ce6e59241946fd1164736f6c63430008000033",
  "immutableReferences": {},
  "source": "// SPDX-License-Identifier: MIT\r\n\r\npragma solidity ^0.8.0;\r\n\r\nimport \"../../../node_modules/@openzeppelin/contracts-upgradeable/token/ERC1155/ERC1155Upgradeable.sol\";\r\nimport \"../../../node_modules/@openzeppelin/contracts-upgradeable/access/OwnableUpgradeable.sol\";\r\nimport \"../../../node_modules/@openzeppelin/contracts-upgradeable/proxy/utils/Initializable.sol\";\r\nimport \"../../../node_modules/@openzeppelin/contracts-upgradeable/security/PausableUpgradeable.sol\";\r\n\r\ncontract MemeOfTheDayV3Pause is ERC1155Upgradeable, OwnableUpgradeable, PausableUpgradeable {\r\n\r\nstring[] public hashes;\r\n\r\n    // Mapping for enforcing unique hashes\r\n    mapping(string => bool) _hashExists; \r\n\r\n    // Mapping from ipfs picture hash to NFT tokenID\r\n    mapping (string => uint256) private _hashToken;  \r\n\r\n    mapping(uint256 => address) public creatorOf;\r\n    mapping(uint256 => address) public ownerOf;\r\n    mapping(uint256 => int256) public creatorFee;\r\n\r\n    event MemeMinted(address creator, uint256 tokenId);\r\n\r\n    function initialize() public initializer {\r\n        __ERC1155_init(\"https://hub.textile.io/ipfs/bafybeiaz4sqwracygsux7moam3tcd7zng53f6gh4khzhsrlhkto473c5rq/tokenmetadata/{id}.json\");\r\n        __ERC165_init();\r\n        __Ownable_init();\r\n        __Pausable_init();\r\n    }\r\n    /**\r\n     * @notice Changes the URI to fetch NFTs info from\r\n     * @param _newUri   the new URI to fetch NFTs info from\r\n     */\r\n    function setUri(string memory _newUri) external whenNotPaused onlyOwner  {\r\n        _setURI(_newUri);\r\n    }\r\n\r\n    /**\r\n     * @notice Mints a new meme NFT\r\n     * @param _hash IPFS hash of the NFT\r\n     * @param _creatorFee custom fee to send to the creator, if is -1 it uses the default one set in the MOTDSaleParametersProviderContract\r\n     */\r\n    function mint(string memory _hash, int256 _creatorFee) public whenNotPaused {\r\n        require(!_hashExists[_hash], \"Token with this hash is already minted\");\r\n\r\n        hashes.push(_hash);\r\n        uint256 _id = hashes.length - 1;\r\n        _mint(msg.sender, _id, 1, \"\");\r\n\r\n        _hashExists[_hash] = true;\r\n        _hashToken[_hash] = _id;\r\n\r\n        creatorOf[_id] = msg.sender;\r\n        ownerOf[_id] = msg.sender;\r\n        creatorFee[_id] = _creatorFee;\r\n\r\n        emit MemeMinted(msg.sender, _id);\r\n    }\r\n\r\n    /**\r\n     * @notice Returns the TokenID of meme\r\n     * @return tokenID of the meme\r\n     */\r\n    function getTokenID(string memory _hash) public view whenNotPaused returns (uint256 tokenID) {\r\n        return _hashToken[_hash];\r\n    }\r\n\r\n    /**\r\n     * @notice Returns the number of minted memes\r\n     * @return count the number of memes\r\n     */\r\n    function getMemesCount() public view whenNotPaused returns (uint256 count) {\r\n        return hashes.length;\r\n    }\r\n\r\n    function pause() public whenNotPaused onlyOwner {\r\n        _pause();\r\n    }\r\n\r\n    function unpause() public whenPaused onlyOwner {\r\n        _unpause();\r\n    }\r\n}",
  "sourcePath": "C:\\Users\\sound\\Desktop\\MOTD\\meme-repo-copy\\src\\contracts\\src\\MemeOfTheDayV3Pause.sol",
  "compiler": {
    "name": "solc",
    "version": "0.8.0+commit.c7dfd78e.Emscripten.clang"
  },
  "schemaVersion": "3.3.4",
  "updatedAt": "2021-04-28T13:38:00.369Z",
  "networkType": "ethereum",
  "devdoc": {
    "kind": "dev",
    "methods": {
      "balanceOf(address,uint256)": {
        "details": "See {IERC1155-balanceOf}. Requirements: - `account` cannot be the zero address."
      },
      "balanceOfBatch(address[],uint256[])": {
        "details": "See {IERC1155-balanceOfBatch}. Requirements: - `accounts` and `ids` must have the same length."
      },
      "getMemesCount()": {
        "returns": {
          "count": "the number of memes"
        }
      },
      "getTokenID(string)": {
        "returns": {
          "tokenID": "of the meme"
        }
      },
      "isApprovedForAll(address,address)": {
        "details": "See {IERC1155-isApprovedForAll}."
      },
      "mint(string,int256)": {
        "params": {
          "_creatorFee": "custom fee to send to the creator, if is -1 it uses the default one set in the MOTDSaleParametersProviderContract",
          "_hash": "IPFS hash of the NFT"
        }
      },
      "owner()": {
        "details": "Returns the address of the current owner."
      },
      "paused()": {
        "details": "Returns true if the contract is paused, and false otherwise."
      },
      "renounceOwnership()": {
        "details": "Leaves the contract without owner. It will not be possible to call `onlyOwner` functions anymore. Can only be called by the current owner. NOTE: Renouncing ownership will leave the contract without an owner, thereby removing any functionality that is only available to the owner."
      },
      "safeBatchTransferFrom(address,address,uint256[],uint256[],bytes)": {
        "details": "See {IERC1155-safeBatchTransferFrom}."
      },
      "safeTransferFrom(address,address,uint256,uint256,bytes)": {
        "details": "See {IERC1155-safeTransferFrom}."
      },
      "setApprovalForAll(address,bool)": {
        "details": "See {IERC1155-setApprovalForAll}."
      },
      "setUri(string)": {
        "params": {
          "_newUri": "the new URI to fetch NFTs info from"
        }
      },
      "supportsInterface(bytes4)": {
        "details": "See {IERC165-supportsInterface}."
      },
      "transferOwnership(address)": {
        "details": "Transfers ownership of the contract to a new account (`newOwner`). Can only be called by the current owner."
      },
      "uri(uint256)": {
        "details": "See {IERC1155MetadataURI-uri}. This implementation returns the same URI for *all* token types. It relies on the token type ID substitution mechanism https://eips.ethereum.org/EIPS/eip-1155#metadata[defined in the EIP]. Clients calling this function must replace the `\\{id\\}` substring with the actual token type ID."
      }
    },
    "version": 1
  },
  "userdoc": {
    "kind": "user",
    "methods": {
      "getMemesCount()": {
        "notice": "Returns the number of minted memes"
      },
      "getTokenID(string)": {
        "notice": "Returns the TokenID of meme"
      },
      "mint(string,int256)": {
        "notice": "Mints a new meme NFT"
      },
      "setUri(string)": {
        "notice": "Changes the URI to fetch NFTs info from"
      }
    },
    "version": 1
  }
}