{
  "contractName": "MOTDSaleParametersProviderV4Pause",
  "abi": [
    {
      "anonymous": false,
      "inputs": [
        {
          "indexed": true,
          "internalType": "address",
          "name": "previousOwner",
          "type": "address"
        },
        {
          "indexed": true,
          "internalType": "address",
          "name": "newOwner",
          "type": "address"
        }
      ],
      "name": "OwnershipTransferred",
      "type": "event"
    },
    {
      "anonymous": false,
      "inputs": [
        {
          "indexed": false,
          "internalType": "address",
          "name": "account",
          "type": "address"
        }
      ],
      "name": "Paused",
      "type": "event"
    },
    {
      "anonymous": false,
      "inputs": [
        {
          "indexed": false,
          "internalType": "address",
          "name": "account",
          "type": "address"
        }
      ],
      "name": "Unpaused",
      "type": "event"
    },
    {
      "inputs": [],
      "name": "DEFAULT_CREATOR_FEE_PERCENT_INDEX",
      "outputs": [
        {
          "internalType": "uint256",
          "name": "",
          "type": "uint256"
        }
      ],
      "stateMutability": "view",
      "type": "function"
    },
    {
      "inputs": [],
      "name": "PLATFORM_FEE_PERCENT_INDEX",
      "outputs": [
        {
          "internalType": "uint256",
          "name": "",
          "type": "uint256"
        }
      ],
      "stateMutability": "view",
      "type": "function"
    },
    {
      "inputs": [],
      "name": "TOTAL_FEES_PERCENT_INDEX",
      "outputs": [
        {
          "internalType": "uint256",
          "name": "",
          "type": "uint256"
        }
      ],
      "stateMutability": "view",
      "type": "function"
    },
    {
      "inputs": [],
      "name": "VOTERS_FEE_PERCENT_INDEX",
      "outputs": [
        {
          "internalType": "uint256",
          "name": "",
          "type": "uint256"
        }
      ],
      "stateMutability": "view",
      "type": "function"
    },
    {
      "inputs": [],
      "name": "owner",
      "outputs": [
        {
          "internalType": "address",
          "name": "",
          "type": "address"
        }
      ],
      "stateMutability": "view",
      "type": "function"
    },
    {
      "inputs": [
        {
          "internalType": "uint256",
          "name": "",
          "type": "uint256"
        }
      ],
      "name": "parameters",
      "outputs": [
        {
          "internalType": "uint256",
          "name": "",
          "type": "uint256"
        }
      ],
      "stateMutability": "view",
      "type": "function"
    },
    {
      "inputs": [],
      "name": "paused",
      "outputs": [
        {
          "internalType": "bool",
          "name": "",
          "type": "bool"
        }
      ],
      "stateMutability": "view",
      "type": "function"
    },
    {
      "inputs": [],
      "name": "renounceOwnership",
      "outputs": [],
      "stateMutability": "nonpayable",
      "type": "function"
    },
    {
      "inputs": [
        {
          "internalType": "address",
          "name": "newOwner",
          "type": "address"
        }
      ],
      "name": "transferOwnership",
      "outputs": [],
      "stateMutability": "nonpayable",
      "type": "function"
    },
    {
      "inputs": [],
      "name": "initialize",
      "outputs": [],
      "stateMutability": "nonpayable",
      "type": "function"
    },
    {
      "inputs": [
        {
          "internalType": "uint256",
          "name": "paramIndex",
          "type": "uint256"
        },
        {
          "internalType": "uint256",
          "name": "paramValue",
          "type": "uint256"
        }
      ],
      "name": "changeParameter",
      "outputs": [],
      "stateMutability": "nonpayable",
      "type": "function"
    },
    {
      "inputs": [],
      "name": "pause",
      "outputs": [],
      "stateMutability": "nonpayable",
      "type": "function"
    },
    {
      "inputs": [],
      "name": "unpause",
      "outputs": [],
      "stateMutability": "nonpayable",
      "type": "function"
    },
    {
      "inputs": [],
      "name": "sayHello",
      "outputs": [
        {
          "internalType": "string",
          "name": "",
          "type": "string"
        }
      ],
      "stateMutability": "pure",
      "type": "function"
    }
  ],
  "bytecode": "0x608060405234801561001057600080fd5b506116dd806100206000396000f3fe608060405234801561001057600080fd5b50600436106100ea5760003560e01c8063715018a61161008c5780638da5cb5b116100665780638da5cb5b146101dd578063ef5fb05b146101fb578063f07237e014610219578063f2fde38b14610235576100ea565b8063715018a6146101bf5780638129fc1c146101c95780638456cb59146101d3576100ea565b80633f4ba83a116100c85780633f4ba83a1461015b578063443139f1146101655780634eda8114146101835780635c975abb146101a1576100ea565b80632648cd80146100ef5780632a4a9dd11461010d5780633e2dce1e1461013d575b600080fd5b6100f7610251565b60405161010491906114ff565b60405180910390f35b6101276004803603810190610122919061112a565b610256565b60405161013491906114ff565b60405180910390f35b61014561026e565b60405161015291906114ff565b60405180910390f35b610163610273565b005b61016d610340565b60405161017a91906114ff565b60405180910390f35b61018b610345565b60405161019891906114ff565b60405180910390f35b6101a961034a565b6040516101b69190611402565b60405180910390f35b6101c7610361565b005b6101d161049e565b005b6101db610620565b005b6101e56106ee565b6040516101f291906113e7565b60405180910390f35b610203610718565b604051610210919061141d565b60405180910390f35b610233600480360381019061022e9190611153565b610738565b005b61024f600480360381019061024a9190611101565b6108bd565b005b600281565b60976020528060005260406000206000915090505481565b600181565b61027b61034a565b6102ba576040517f08c379a00000000000000000000000000000000000000000000000000000000081526004016102b19061143f565b60405180910390fd5b6102c2610a69565b73ffffffffffffffffffffffffffffffffffffffff166102e06106ee565b73ffffffffffffffffffffffffffffffffffffffff1614610336576040517f08c379a000000000000000000000000000000000000000000000000000000000815260040161032d906114bf565b60405180910390fd5b61033e610a71565b565b600081565b600381565b6000606560009054906101000a900460ff16905090565b610369610a69565b73ffffffffffffffffffffffffffffffffffffffff166103876106ee565b73ffffffffffffffffffffffffffffffffffffffff16146103dd576040517f08c379a00000000000000000000000000000000000000000000000000000000081526004016103d4906114bf565b60405180910390fd5b600073ffffffffffffffffffffffffffffffffffffffff16603360009054906101000a900473ffffffffffffffffffffffffffffffffffffffff1673ffffffffffffffffffffffffffffffffffffffff167f8be0079c531659141344cd1fd0a4f28419497f9722a3daafe3b4186f6b6457e060405160405180910390a36000603360006101000a81548173ffffffffffffffffffffffffffffffffffffffff021916908373ffffffffffffffffffffffffffffffffffffffff160217905550565b600060019054906101000a900460ff16806104c4575060008054906101000a900460ff16155b610503576040517f08c379a00000000000000000000000000000000000000000000000000000000081526004016104fa9061149f565b60405180910390fd5b60008060019054906101000a900460ff161590508015610553576001600060016101000a81548160ff02191690831515021790555060016000806101000a81548160ff0219169083151502179055505b61055b610b13565b610563610bfc565b60646097600080815260200190815260200160002081905550600560976000600181526020019081526020016000208190555060136097600060028152602001908152602001600020819055506097600060028152602001908152602001600020546097600060018152602001908152602001600020546105e49190611536565b609760006003815260200190815260200160002081905550801561061d5760008060016101000a81548160ff0219169083151502179055505b50565b61062861034a565b15610668576040517f08c379a000000000000000000000000000000000000000000000000000000000815260040161065f9061147f565b60405180910390fd5b610670610a69565b73ffffffffffffffffffffffffffffffffffffffff1661068e6106ee565b73ffffffffffffffffffffffffffffffffffffffff16146106e4576040517f08c379a00000000000000000000000000000000000000000000000000000000081526004016106db906114bf565b60405180910390fd5b6106ec610ce5565b565b6000603360009054906101000a900473ffffffffffffffffffffffffffffffffffffffff16905090565b606060405180606001604052806032815260200161167660329139905090565b610740610a69565b73ffffffffffffffffffffffffffffffffffffffff1661075e6106ee565b73ffffffffffffffffffffffffffffffffffffffff16146107b4576040517f08c379a00000000000000000000000000000000000000000000000000000000081526004016107ab906114bf565b60405180910390fd5b6107bc61034a565b156107fc576040517f08c379a00000000000000000000000000000000000000000000000000000000081526004016107f39061147f565b60405180910390fd5b6002821115610840576040517f08c379a0000000000000000000000000000000000000000000000000000000008152600401610837906114df565b60405180910390fd5b80609760008481526020019081526020016000208190555060018214806108675750600282145b156108b9576097600060028152602001908152602001600020546097600060018152602001908152602001600020546108a09190611536565b6097600060038152602001908152602001600020819055505b5050565b6108c5610a69565b73ffffffffffffffffffffffffffffffffffffffff166108e36106ee565b73ffffffffffffffffffffffffffffffffffffffff1614610939576040517f08c379a0000000000000000000000000000000000000000000000000000000008152600401610930906114bf565b60405180910390fd5b600073ffffffffffffffffffffffffffffffffffffffff168173ffffffffffffffffffffffffffffffffffffffff1614156109a9576040517f08c379a00000000000000000000000000000000000000000000000000000000081526004016109a09061145f565b60405180910390fd5b8073ffffffffffffffffffffffffffffffffffffffff16603360009054906101000a900473ffffffffffffffffffffffffffffffffffffffff1673ffffffffffffffffffffffffffffffffffffffff167f8be0079c531659141344cd1fd0a4f28419497f9722a3daafe3b4186f6b6457e060405160405180910390a380603360006101000a81548173ffffffffffffffffffffffffffffffffffffffff021916908373ffffffffffffffffffffffffffffffffffffffff16021790555050565b600033905090565b610a7961034a565b610ab8576040517f08c379a0000000000000000000000000000000000000000000000000000000008152600401610aaf9061143f565b60405180910390fd5b6000606560006101000a81548160ff0219169083151502179055507f5db9ee0a495bf2e6ff9c91a7834c1ba4fdd244a5e8aa4e537bd38aeae4b073aa610afc610a69565b604051610b0991906113e7565b60405180910390a1565b600060019054906101000a900460ff1680610b39575060008054906101000a900460ff16155b610b78576040517f08c379a0000000000000000000000000000000000000000000000000000000008152600401610b6f9061149f565b60405180910390fd5b60008060019054906101000a900460ff161590508015610bc8576001600060016101000a81548160ff02191690831515021790555060016000806101000a81548160ff0219169083151502179055505b610bd0610d88565b610bd8610e61565b8015610bf95760008060016101000a81548160ff0219169083151502179055505b50565b600060019054906101000a900460ff1680610c22575060008054906101000a900460ff16155b610c61576040517f08c379a0000000000000000000000000000000000000000000000000000000008152600401610c589061149f565b60405180910390fd5b60008060019054906101000a900460ff161590508015610cb1576001600060016101000a81548160ff02191690831515021790555060016000806101000a81548160ff0219169083151502179055505b610cb9610d88565b610cc1610fe3565b8015610ce25760008060016101000a81548160ff0219169083151502179055505b50565b610ced61034a565b15610d2d576040517f08c379a0000000000000000000000000000000000000000000000000000000008152600401610d249061147f565b60405180910390fd5b6001606560006101000a81548160ff0219169083151502179055507f62e78cea01bee320cd4e420270b5ea74000d11b0c9f74754ebdbfc544b05a258610d71610a69565b604051610d7e91906113e7565b60405180910390a1565b600060019054906101000a900460ff1680610dae575060008054906101000a900460ff16155b610ded576040517f08c379a0000000000000000000000000000000000000000000000000000000008152600401610de49061149f565b60405180910390fd5b60008060019054906101000a900460ff161590508015610e3d576001600060016101000a81548160ff02191690831515021790555060016000806101000a81548160ff0219169083151502179055505b8015610e5e5760008060016101000a81548160ff0219169083151502179055505b50565b600060019054906101000a900460ff1680610e87575060008054906101000a900460ff16155b610ec6576040517f08c379a0000000000000000000000000000000000000000000000000000000008152600401610ebd9061149f565b60405180910390fd5b60008060019054906101000a900460ff161590508015610f16576001600060016101000a81548160ff02191690831515021790555060016000806101000a81548160ff0219169083151502179055505b6000610f20610a69565b905080603360006101000a81548173ffffffffffffffffffffffffffffffffffffffff021916908373ffffffffffffffffffffffffffffffffffffffff1602179055508073ffffffffffffffffffffffffffffffffffffffff16600073ffffffffffffffffffffffffffffffffffffffff167f8be0079c531659141344cd1fd0a4f28419497f9722a3daafe3b4186f6b6457e060405160405180910390a3508015610fe05760008060016101000a81548160ff0219169083151502179055505b50565b600060019054906101000a900460ff1680611009575060008054906101000a900460ff16155b611048576040517f08c379a000000000000000000000000000000000000000000000000000000000815260040161103f9061149f565b60405180910390fd5b60008060019054906101000a900460ff161590508015611098576001600060016101000a81548160ff02191690831515021790555060016000806101000a81548160ff0219169083151502179055505b6000606560006101000a81548160ff02191690831515021790555080156110d45760008060016101000a81548160ff0219169083151502179055505b50565b6000813590506110e681611647565b92915050565b6000813590506110fb8161165e565b92915050565b60006020828403121561111357600080fd5b6000611121848285016110d7565b91505092915050565b60006020828403121561113c57600080fd5b600061114a848285016110ec565b91505092915050565b6000806040838503121561116657600080fd5b6000611174858286016110ec565b9250506020611185858286016110ec565b9150509250929050565b6111988161158c565b82525050565b6111a78161159e565b82525050565b60006111b88261151a565b6111c28185611525565b93506111d28185602086016115d4565b6111db81611636565b840191505092915050565b60006111f3601483611525565b91507f5061757361626c653a206e6f74207061757365640000000000000000000000006000830152602082019050919050565b6000611233602683611525565b91507f4f776e61626c653a206e6577206f776e657220697320746865207a65726f206160008301527f64647265737300000000000000000000000000000000000000000000000000006020830152604082019050919050565b6000611299601083611525565b91507f5061757361626c653a20706175736564000000000000000000000000000000006000830152602082019050919050565b60006112d9602e83611525565b91507f496e697469616c697a61626c653a20636f6e747261637420697320616c72656160008301527f647920696e697469616c697a65640000000000000000000000000000000000006020830152604082019050919050565b600061133f602083611525565b91507f4f776e61626c653a2063616c6c6572206973206e6f7420746865206f776e65726000830152602082019050919050565b600061137f603383611525565b91507f496e76616c696420706172616d6574657220696e6465783a206d75737420626560008301527f206c657373206f7220657175616c20746f2032000000000000000000000000006020830152604082019050919050565b6113e1816115ca565b82525050565b60006020820190506113fc600083018461118f565b92915050565b6000602082019050611417600083018461119e565b92915050565b6000602082019050818103600083015261143781846111ad565b905092915050565b60006020820190508181036000830152611458816111e6565b9050919050565b6000602082019050818103600083015261147881611226565b9050919050565b600060208201905081810360008301526114988161128c565b9050919050565b600060208201905081810360008301526114b8816112cc565b9050919050565b600060208201905081810360008301526114d881611332565b9050919050565b600060208201905081810360008301526114f881611372565b9050919050565b600060208201905061151460008301846113d8565b92915050565b600081519050919050565b600082825260208201905092915050565b6000611541826115ca565b915061154c836115ca565b9250827fffffffffffffffffffffffffffffffffffffffffffffffffffffffffffffffff0382111561158157611580611607565b5b828201905092915050565b6000611597826115aa565b9050919050565b60008115159050919050565b600073ffffffffffffffffffffffffffffffffffffffff82169050919050565b6000819050919050565b60005b838110156115f25780820151818401526020810190506115d7565b83811115611601576000848401525b50505050565b7f4e487b7100000000000000000000000000000000000000000000000000000000600052601160045260246000fd5b6000601f19601f8301169050919050565b6116508161158c565b811461165b57600080fd5b50565b611667816115ca565b811461167257600080fd5b5056fe48656c6c6f2066726f6d20616674657220746865207570677261646521204920616d2061206e65772066756e6374696f6e21a26469706673582212203a40a8cf23be5d61f98c0a1e8724cdb952288f7eac925054aae3a8a45fdcd59664736f6c63430008000033",
  "immutableReferences": {},
  "source": "// SPDX-License-Identifier: MIT\r\npragma solidity ^0.8.0;\r\n\r\nimport \"../../../node_modules/@openzeppelin/contracts-upgradeable/access/OwnableUpgradeable.sol\";\r\nimport \"../../../node_modules/@openzeppelin/contracts-upgradeable/proxy/utils/Initializable.sol\";\r\nimport \"../../../node_modules/@openzeppelin/contracts-upgradeable/security/PausableUpgradeable.sol\";\r\n/**\r\n * @title MOTDSaleParametersProvider\r\n * @notice A contract which holds all parameters necessary to calculate fees during sale\r\n * @author MemeOfTheDay\r\n */\r\ncontract MOTDSaleParametersProviderV4Pause is OwnableUpgradeable, PausableUpgradeable {\r\n\r\n    uint256 public constant DEFAULT_CREATOR_FEE_PERCENT_INDEX = 0;\r\n    uint256 public constant VOTERS_FEE_PERCENT_INDEX = 1;\r\n    uint256 public constant PLATFORM_FEE_PERCENT_INDEX = 2;\r\n    uint256 public constant TOTAL_FEES_PERCENT_INDEX = 3;\r\n\r\n    mapping(uint256 => uint256) public parameters;\r\n\r\n    //Due to UPGRADEABILITY, Initializer is used! NO CONSTRUCTOR Can be used anymore!\r\n    function initialize() public initializer{\r\n        __Ownable_init();\r\n        __Pausable_init();\r\n    \r\n        \r\n        parameters[DEFAULT_CREATOR_FEE_PERCENT_INDEX] = 100; // 10% (default) or custom% set by creator when minting\r\n        parameters[VOTERS_FEE_PERCENT_INDEX] = 5; // 0.5%\r\n        parameters[PLATFORM_FEE_PERCENT_INDEX] = 19; // 1.9%\r\n        parameters[TOTAL_FEES_PERCENT_INDEX] =\r\n        parameters[VOTERS_FEE_PERCENT_INDEX] +\r\n        parameters[PLATFORM_FEE_PERCENT_INDEX];\r\n    }\r\n    // Here percents are expressed as perthousands, since in Solidity float numbers don't exist\r\n    // constructor() public {\r\n    //     parameters[DEFAULT_CREATOR_FEE_PERCENT_INDEX] = 100; // 10% (default) or custom% set by creator when minting\r\n    //     parameters[VOTERS_FEE_PERCENT_INDEX] = 5; // 0.5%\r\n    //     parameters[PLATFORM_FEE_PERCENT_INDEX] = 19; // 1.9%\r\n    //     parameters[TOTAL_FEES_PERCENT_INDEX] =\r\n    //         parameters[VOTERS_FEE_PERCENT_INDEX] +\r\n    //         parameters[PLATFORM_FEE_PERCENT_INDEX];\r\n    // }\r\n\r\n    /**\r\n     * @notice Changes one of the parameters with the given value\r\n     * @param paramIndex the index of the parameter in the mapping\r\n     * @param paramValue the new value to set to that parameter\r\n     */\r\n    function changeParameter(uint256 paramIndex, uint256 paramValue)\r\n        external\r\n        onlyOwner\r\n        whenNotPaused\r\n    {\r\n        require(\r\n            paramIndex <= 2,\r\n            \"Invalid parameter index: must be less or equal to 2\" // must be less than 3 because TOTAL_FEES_PERCENT is always derived, can't be set directly\r\n        );\r\n        parameters[paramIndex] = paramValue;\r\n\r\n        if (\r\n            paramIndex == VOTERS_FEE_PERCENT_INDEX ||\r\n            paramIndex == PLATFORM_FEE_PERCENT_INDEX\r\n        ) {\r\n            parameters[TOTAL_FEES_PERCENT_INDEX] =\r\n                parameters[VOTERS_FEE_PERCENT_INDEX] +\r\n                parameters[PLATFORM_FEE_PERCENT_INDEX];\r\n        }\r\n    }\r\n    \r\n    //USED TO PAUSE THIS CONTRACT, ONLY POSSIBLE WHEN NOT PAUSED!\r\n\r\n      function pause() public whenNotPaused onlyOwner {\r\n        _pause();\r\n    }\r\n\r\n    //USED TO UNPAUSE THIS CONTRACT, ONLY POSSIBLE WHEN PAUSED!\r\n    function unpause() public whenPaused onlyOwner {\r\n        _unpause();\r\n    }\r\n\r\n    function sayHello() public pure returns(string memory){\r\n        return \"Hello from after the upgrade! I am a new function!\";\r\n    }\r\n\r\n}",
  "sourcePath": "C:/Users/sound/Desktop/MOTD/meme-repo-copy/src/contracts/src/MOTDSaleParametersProviderV4Pause.sol",
  "compiler": {
    "name": "solc",
    "version": "0.8.0+commit.c7dfd78e.Emscripten.clang"
  },
  "schemaVersion": "3.3.4",
  "updatedAt": "2021-04-28T13:37:50.149Z",
  "devdoc": {
    "author": "MemeOfTheDay",
    "kind": "dev",
    "methods": {
      "changeParameter(uint256,uint256)": {
        "params": {
          "paramIndex": "the index of the parameter in the mapping",
          "paramValue": "the new value to set to that parameter"
        }
      },
      "owner()": {
        "details": "Returns the address of the current owner."
      },
      "paused()": {
        "details": "Returns true if the contract is paused, and false otherwise."
      },
      "renounceOwnership()": {
        "details": "Leaves the contract without owner. It will not be possible to call `onlyOwner` functions anymore. Can only be called by the current owner. NOTE: Renouncing ownership will leave the contract without an owner, thereby removing any functionality that is only available to the owner."
      },
      "transferOwnership(address)": {
        "details": "Transfers ownership of the contract to a new account (`newOwner`). Can only be called by the current owner."
      }
    },
    "title": "MOTDSaleParametersProvider",
    "version": 1
  },
  "userdoc": {
    "kind": "user",
    "methods": {
      "changeParameter(uint256,uint256)": {
        "notice": "Changes one of the parameters with the given value"
      }
    },
    "notice": "A contract which holds all parameters necessary to calculate fees during sale",
    "version": 1
  }
}