{
  "contractName": "MOTDTreasuryV3Pause",
  "abi": [
    {
      "anonymous": false,
      "inputs": [
        {
          "indexed": true,
          "internalType": "address",
          "name": "previousOwner",
          "type": "address"
        },
        {
          "indexed": true,
          "internalType": "address",
          "name": "newOwner",
          "type": "address"
        }
      ],
      "name": "OwnershipTransferred",
      "type": "event"
    },
    {
      "anonymous": false,
      "inputs": [
        {
          "indexed": false,
          "internalType": "address",
          "name": "from",
          "type": "address"
        },
        {
          "indexed": false,
          "internalType": "uint256",
          "name": "amount",
          "type": "uint256"
        }
      ],
      "name": "Paid",
      "type": "event"
    },
    {
      "anonymous": false,
      "inputs": [
        {
          "indexed": false,
          "internalType": "address",
          "name": "account",
          "type": "address"
        }
      ],
      "name": "Paused",
      "type": "event"
    },
    {
      "anonymous": false,
      "inputs": [
        {
          "indexed": false,
          "internalType": "address",
          "name": "account",
          "type": "address"
        }
      ],
      "name": "Unpaused",
      "type": "event"
    },
    {
      "anonymous": false,
      "inputs": [
        {
          "indexed": false,
          "internalType": "address",
          "name": "by",
          "type": "address"
        },
        {
          "indexed": false,
          "internalType": "uint256",
          "name": "amount",
          "type": "uint256"
        }
      ],
      "name": "Withdrawn",
      "type": "event"
    },
    {
      "inputs": [],
      "name": "owner",
      "outputs": [
        {
          "internalType": "address",
          "name": "",
          "type": "address"
        }
      ],
      "stateMutability": "view",
      "type": "function",
      "constant": true
    },
    {
      "inputs": [],
      "name": "paused",
      "outputs": [
        {
          "internalType": "bool",
          "name": "",
          "type": "bool"
        }
      ],
      "stateMutability": "view",
      "type": "function",
      "constant": true
    },
    {
      "inputs": [],
      "name": "renounceOwnership",
      "outputs": [],
      "stateMutability": "nonpayable",
      "type": "function"
    },
    {
      "inputs": [
        {
          "internalType": "address",
          "name": "newOwner",
          "type": "address"
        }
      ],
      "name": "transferOwnership",
      "outputs": [],
      "stateMutability": "nonpayable",
      "type": "function"
    },
    {
      "stateMutability": "payable",
      "type": "receive",
      "payable": true
    },
    {
      "inputs": [],
      "name": "initialize",
      "outputs": [],
      "stateMutability": "nonpayable",
      "type": "function"
    },
    {
      "inputs": [
        {
          "internalType": "uint256",
          "name": "amount",
          "type": "uint256"
        }
      ],
      "name": "withdraw",
      "outputs": [],
      "stateMutability": "nonpayable",
      "type": "function"
    },
    {
      "inputs": [],
      "name": "pause",
      "outputs": [],
      "stateMutability": "nonpayable",
      "type": "function"
    },
    {
      "inputs": [],
      "name": "unpause",
      "outputs": [],
      "stateMutability": "nonpayable",
      "type": "function"
    }
  ],
  "bytecode": "0x608060405234801561001057600080fd5b506114e5806100206000396000f3fe60806040526004361061007f5760003560e01c80638129fc1c1161004e5780638129fc1c146101465780638456cb591461015d5780638da5cb5b14610174578063f2fde38b1461019f576100bf565b80632e1a7d4d146100c45780633f4ba83a146100ed5780635c975abb14610104578063715018a61461012f576100bf565b366100bf577f737c69225d647e5994eab1a6c301bf6d9232beb2759ae1e27a8966b4732bc48933346040516100b59291906112f9565b60405180910390a1005b600080fd5b3480156100d057600080fd5b506100eb60048036038101906100e69190611027565b6101c8565b005b3480156100f957600080fd5b506101026103b8565b005b34801561011057600080fd5b50610119610485565b6040516101269190611322565b60405180910390f35b34801561013b57600080fd5b5061014461049c565b005b34801561015257600080fd5b5061015b6105d9565b005b34801561016957600080fd5b506101726106c2565b005b34801561018057600080fd5b50610189610790565b60405161019691906112de565b60405180910390f35b3480156101ab57600080fd5b506101c660048036038101906101c19190610ffe565b6107ba565b005b6101d0610966565b73ffffffffffffffffffffffffffffffffffffffff166101ee610790565b73ffffffffffffffffffffffffffffffffffffffff1614610244576040517f08c379a000000000000000000000000000000000000000000000000000000000815260040161023b906113bd565b60405180910390fd5b61024c610485565b1561028c576040517f08c379a00000000000000000000000000000000000000000000000000000000081526004016102839061137d565b60405180910390fd5b478111156102cf576040517f08c379a00000000000000000000000000000000000000000000000000000000081526004016102c6906113fd565b60405180910390fd5b60003373ffffffffffffffffffffffffffffffffffffffff16826040516102f5906112c9565b60006040518083038185875af1925050503d8060008114610332576040519150601f19603f3d011682016040523d82523d6000602084013e610337565b606091505b505090508061037b576040517f08c379a0000000000000000000000000000000000000000000000000000000008152600401610372906113dd565b60405180910390fd5b7f7084f5476618d8e60b11ef0d7d3f06914655adb8793e28ff7f018d4c76d505d533836040516103ac9291906112f9565b60405180910390a15050565b6103c0610485565b6103ff576040517f08c379a00000000000000000000000000000000000000000000000000000000081526004016103f69061133d565b60405180910390fd5b610407610966565b73ffffffffffffffffffffffffffffffffffffffff16610425610790565b73ffffffffffffffffffffffffffffffffffffffff161461047b576040517f08c379a0000000000000000000000000000000000000000000000000000000008152600401610472906113bd565b60405180910390fd5b61048361096e565b565b6000606560009054906101000a900460ff16905090565b6104a4610966565b73ffffffffffffffffffffffffffffffffffffffff166104c2610790565b73ffffffffffffffffffffffffffffffffffffffff1614610518576040517f08c379a000000000000000000000000000000000000000000000000000000000815260040161050f906113bd565b60405180910390fd5b600073ffffffffffffffffffffffffffffffffffffffff16603360009054906101000a900473ffffffffffffffffffffffffffffffffffffffff1673ffffffffffffffffffffffffffffffffffffffff167f8be0079c531659141344cd1fd0a4f28419497f9722a3daafe3b4186f6b6457e060405160405180910390a36000603360006101000a81548173ffffffffffffffffffffffffffffffffffffffff021916908373ffffffffffffffffffffffffffffffffffffffff160217905550565b600060019054906101000a900460ff16806105ff575060008054906101000a900460ff16155b61063e576040517f08c379a00000000000000000000000000000000000000000000000000000000081526004016106359061139d565b60405180910390fd5b60008060019054906101000a900460ff16159050801561068e576001600060016101000a81548160ff02191690831515021790555060016000806101000a81548160ff0219169083151502179055505b610696610a10565b61069e610af9565b80156106bf5760008060016101000a81548160ff0219169083151502179055505b50565b6106ca610485565b1561070a576040517f08c379a00000000000000000000000000000000000000000000000000000000081526004016107019061137d565b60405180910390fd5b610712610966565b73ffffffffffffffffffffffffffffffffffffffff16610730610790565b73ffffffffffffffffffffffffffffffffffffffff1614610786576040517f08c379a000000000000000000000000000000000000000000000000000000000815260040161077d906113bd565b60405180910390fd5b61078e610be2565b565b6000603360009054906101000a900473ffffffffffffffffffffffffffffffffffffffff16905090565b6107c2610966565b73ffffffffffffffffffffffffffffffffffffffff166107e0610790565b73ffffffffffffffffffffffffffffffffffffffff1614610836576040517f08c379a000000000000000000000000000000000000000000000000000000000815260040161082d906113bd565b60405180910390fd5b600073ffffffffffffffffffffffffffffffffffffffff168173ffffffffffffffffffffffffffffffffffffffff1614156108a6576040517f08c379a000000000000000000000000000000000000000000000000000000000815260040161089d9061135d565b60405180910390fd5b8073ffffffffffffffffffffffffffffffffffffffff16603360009054906101000a900473ffffffffffffffffffffffffffffffffffffffff1673ffffffffffffffffffffffffffffffffffffffff167f8be0079c531659141344cd1fd0a4f28419497f9722a3daafe3b4186f6b6457e060405160405180910390a380603360006101000a81548173ffffffffffffffffffffffffffffffffffffffff021916908373ffffffffffffffffffffffffffffffffffffffff16021790555050565b600033905090565b610976610485565b6109b5576040517f08c379a00000000000000000000000000000000000000000000000000000000081526004016109ac9061133d565b60405180910390fd5b6000606560006101000a81548160ff0219169083151502179055507f5db9ee0a495bf2e6ff9c91a7834c1ba4fdd244a5e8aa4e537bd38aeae4b073aa6109f9610966565b604051610a0691906112de565b60405180910390a1565b600060019054906101000a900460ff1680610a36575060008054906101000a900460ff16155b610a75576040517f08c379a0000000000000000000000000000000000000000000000000000000008152600401610a6c9061139d565b60405180910390fd5b60008060019054906101000a900460ff161590508015610ac5576001600060016101000a81548160ff02191690831515021790555060016000806101000a81548160ff0219169083151502179055505b610acd610c85565b610ad5610d5e565b8015610af65760008060016101000a81548160ff0219169083151502179055505b50565b600060019054906101000a900460ff1680610b1f575060008054906101000a900460ff16155b610b5e576040517f08c379a0000000000000000000000000000000000000000000000000000000008152600401610b559061139d565b60405180910390fd5b60008060019054906101000a900460ff161590508015610bae576001600060016101000a81548160ff02191690831515021790555060016000806101000a81548160ff0219169083151502179055505b610bb6610c85565b610bbe610ee0565b8015610bdf5760008060016101000a81548160ff0219169083151502179055505b50565b610bea610485565b15610c2a576040517f08c379a0000000000000000000000000000000000000000000000000000000008152600401610c219061137d565b60405180910390fd5b6001606560006101000a81548160ff0219169083151502179055507f62e78cea01bee320cd4e420270b5ea74000d11b0c9f74754ebdbfc544b05a258610c6e610966565b604051610c7b91906112de565b60405180910390a1565b600060019054906101000a900460ff1680610cab575060008054906101000a900460ff16155b610cea576040517f08c379a0000000000000000000000000000000000000000000000000000000008152600401610ce19061139d565b60405180910390fd5b60008060019054906101000a900460ff161590508015610d3a576001600060016101000a81548160ff02191690831515021790555060016000806101000a81548160ff0219169083151502179055505b8015610d5b5760008060016101000a81548160ff0219169083151502179055505b50565b600060019054906101000a900460ff1680610d84575060008054906101000a900460ff16155b610dc3576040517f08c379a0000000000000000000000000000000000000000000000000000000008152600401610dba9061139d565b60405180910390fd5b60008060019054906101000a900460ff161590508015610e13576001600060016101000a81548160ff02191690831515021790555060016000806101000a81548160ff0219169083151502179055505b6000610e1d610966565b905080603360006101000a81548173ffffffffffffffffffffffffffffffffffffffff021916908373ffffffffffffffffffffffffffffffffffffffff1602179055508073ffffffffffffffffffffffffffffffffffffffff16600073ffffffffffffffffffffffffffffffffffffffff167f8be0079c531659141344cd1fd0a4f28419497f9722a3daafe3b4186f6b6457e060405160405180910390a3508015610edd5760008060016101000a81548160ff0219169083151502179055505b50565b600060019054906101000a900460ff1680610f06575060008054906101000a900460ff16155b610f45576040517f08c379a0000000000000000000000000000000000000000000000000000000008152600401610f3c9061139d565b60405180910390fd5b60008060019054906101000a900460ff161590508015610f95576001600060016101000a81548160ff02191690831515021790555060016000806101000a81548160ff0219169083151502179055505b6000606560006101000a81548160ff0219169083151502179055508015610fd15760008060016101000a81548160ff0219169083151502179055505b50565b600081359050610fe381611481565b92915050565b600081359050610ff881611498565b92915050565b60006020828403121561101057600080fd5b600061101e84828501610fd4565b91505092915050565b60006020828403121561103957600080fd5b600061104784828501610fe9565b91505092915050565b61105981611439565b82525050565b6110688161144b565b82525050565b600061107b601483611428565b91507f5061757361626c653a206e6f74207061757365640000000000000000000000006000830152602082019050919050565b60006110bb602683611428565b91507f4f776e61626c653a206e6577206f776e657220697320746865207a65726f206160008301527f64647265737300000000000000000000000000000000000000000000000000006020830152604082019050919050565b6000611121601083611428565b91507f5061757361626c653a20706175736564000000000000000000000000000000006000830152602082019050919050565b6000611161602e83611428565b91507f496e697469616c697a61626c653a20636f6e747261637420697320616c72656160008301527f647920696e697469616c697a65640000000000000000000000000000000000006020830152604082019050919050565b60006111c7602083611428565b91507f4f776e61626c653a2063616c6c6572206973206e6f7420746865206f776e65726000830152602082019050919050565b600061120760008361141d565b9150600082019050919050565b6000611221601083611428565b91507f5472616e73666572206661696c65642e000000000000000000000000000000006000830152602082019050919050565b6000611261603983611428565b91507f52657175657374656420616d6f756e7420697320686967686572207468616e2060008301527f63757272656e746c79206465706f73697465642076616c7565000000000000006020830152604082019050919050565b6112c381611477565b82525050565b60006112d4826111fa565b9150819050919050565b60006020820190506112f36000830184611050565b92915050565b600060408201905061130e6000830185611050565b61131b60208301846112ba565b9392505050565b6000602082019050611337600083018461105f565b92915050565b600060208201905081810360008301526113568161106e565b9050919050565b60006020820190508181036000830152611376816110ae565b9050919050565b6000602082019050818103600083015261139681611114565b9050919050565b600060208201905081810360008301526113b681611154565b9050919050565b600060208201905081810360008301526113d6816111ba565b9050919050565b600060208201905081810360008301526113f681611214565b9050919050565b6000602082019050818103600083015261141681611254565b9050919050565b600081905092915050565b600082825260208201905092915050565b600061144482611457565b9050919050565b60008115159050919050565b600073ffffffffffffffffffffffffffffffffffffffff82169050919050565b6000819050919050565b61148a81611439565b811461149557600080fd5b50565b6114a181611477565b81146114ac57600080fd5b5056fea264697066735822122001f77444b54f9ac212a58a086adbc2a6b92d16f93342ace76697a96b6b09772864736f6c63430008000033",
  "immutableReferences": {},
  "source": "// SPDX-License-Identifier: MIT\r\npragma solidity ^0.8.0;\r\n\r\nimport \"../../../node_modules/@openzeppelin/contracts-upgradeable/access/OwnableUpgradeable.sol\";\r\nimport \"../../../node_modules/@openzeppelin/contracts-upgradeable/proxy/utils/Initializable.sol\";\r\nimport \"../../../node_modules/@openzeppelin/contracts-upgradeable/security/PausableUpgradeable.sol\";\r\n\r\n\r\n/**\r\n * @title MOTDTreasury\r\n * @notice A contract which holds the platform fees coming from meme sales\r\n * @author MemeOfTheDay\r\n */\r\ncontract MOTDTreasuryV3Pause is OwnableUpgradeable, PausableUpgradeable {\r\n\r\n    \r\n    event Paid(address from, uint256 amount);\r\n    event Withdrawn(address by, uint256 amount);\r\n    \r\n    \r\n\r\n    //Due to UPGRADEABILITY, Initializer is used!\r\n    function initialize() public initializer {\r\n        __Ownable_init();\r\n        __Pausable_init();\r\n    }\r\n\r\n    receive() external payable {\r\n        emit Paid(msg.sender, msg.value);\r\n    }\r\n\r\n    /**\r\n     * @notice Withdraws some funds from this contract\r\n     * @param amount the amount of funds to winthdraw\r\n     */\r\n    function withdraw(uint256 amount) external onlyOwner whenNotPaused {\r\n        require(\r\n            amount <= address(this).balance,\r\n            \"Requested amount is higher than currently deposited value\"\r\n        );\r\n       \r\n        (bool success, ) = msg.sender.call{value: amount}(\"\");\r\n        require(success, \"Transfer failed.\");\r\n        \r\n        emit Withdrawn(msg.sender, amount);\r\n    }\r\n\r\n    //USED TO PAUSE THIS CONTRACT, ONLY POSSIBLE WHEN NOT PAUSED!\r\n    function pause() public whenNotPaused onlyOwner {\r\n        _pause();\r\n    }\r\n\r\n    //USED TO UNPAUSE THIS CONTRACT, ONLY POSSIBLE WHEN PAUSED!\r\n    function unpause() public whenPaused onlyOwner {\r\n        _unpause();\r\n    }\r\n \r\n}",
  "sourcePath": "C:\\Users\\sound\\Desktop\\MOTD\\meme-repo-copy\\src\\contracts\\src\\MOTDTreasuryV3Pause.sol",
  "compiler": {
    "name": "solc",
    "version": "0.8.0+commit.c7dfd78e.Emscripten.clang"
  },
  "schemaVersion": "3.3.4",
  "updatedAt": "2021-04-28T13:38:00.390Z",
  "networkType": "ethereum",
  "devdoc": {
    "author": "MemeOfTheDay",
    "kind": "dev",
    "methods": {
      "owner()": {
        "details": "Returns the address of the current owner."
      },
      "paused()": {
        "details": "Returns true if the contract is paused, and false otherwise."
      },
      "renounceOwnership()": {
        "details": "Leaves the contract without owner. It will not be possible to call `onlyOwner` functions anymore. Can only be called by the current owner. NOTE: Renouncing ownership will leave the contract without an owner, thereby removing any functionality that is only available to the owner."
      },
      "transferOwnership(address)": {
        "details": "Transfers ownership of the contract to a new account (`newOwner`). Can only be called by the current owner."
      },
      "withdraw(uint256)": {
        "params": {
          "amount": "the amount of funds to winthdraw"
        }
      }
    },
    "title": "MOTDTreasury",
    "version": 1
  },
  "userdoc": {
    "kind": "user",
    "methods": {
      "withdraw(uint256)": {
        "notice": "Withdraws some funds from this contract"
      }
    },
    "notice": "A contract which holds the platform fees coming from meme sales",
    "version": 1
  }
}