{
  "contractName": "MOTDSaleParametersProviderV3Pause",
  "abi": [
    {
      "anonymous": false,
      "inputs": [
        {
          "indexed": true,
          "internalType": "address",
          "name": "previousOwner",
          "type": "address"
        },
        {
          "indexed": true,
          "internalType": "address",
          "name": "newOwner",
          "type": "address"
        }
      ],
      "name": "OwnershipTransferred",
      "type": "event"
    },
    {
      "anonymous": false,
      "inputs": [
        {
          "indexed": false,
          "internalType": "address",
          "name": "account",
          "type": "address"
        }
      ],
      "name": "Paused",
      "type": "event"
    },
    {
      "anonymous": false,
      "inputs": [
        {
          "indexed": false,
          "internalType": "address",
          "name": "account",
          "type": "address"
        }
      ],
      "name": "Unpaused",
      "type": "event"
    },
    {
      "inputs": [],
      "name": "DEFAULT_CREATOR_FEE_PERCENT_INDEX",
      "outputs": [
        {
          "internalType": "uint256",
          "name": "",
          "type": "uint256"
        }
      ],
      "stateMutability": "view",
      "type": "function"
    },
    {
      "inputs": [],
      "name": "PLATFORM_FEE_PERCENT_INDEX",
      "outputs": [
        {
          "internalType": "uint256",
          "name": "",
          "type": "uint256"
        }
      ],
      "stateMutability": "view",
      "type": "function"
    },
    {
      "inputs": [],
      "name": "TOTAL_FEES_PERCENT_INDEX",
      "outputs": [
        {
          "internalType": "uint256",
          "name": "",
          "type": "uint256"
        }
      ],
      "stateMutability": "view",
      "type": "function"
    },
    {
      "inputs": [],
      "name": "VOTERS_FEE_PERCENT_INDEX",
      "outputs": [
        {
          "internalType": "uint256",
          "name": "",
          "type": "uint256"
        }
      ],
      "stateMutability": "view",
      "type": "function"
    },
    {
      "inputs": [],
      "name": "owner",
      "outputs": [
        {
          "internalType": "address",
          "name": "",
          "type": "address"
        }
      ],
      "stateMutability": "view",
      "type": "function"
    },
    {
      "inputs": [
        {
          "internalType": "uint256",
          "name": "",
          "type": "uint256"
        }
      ],
      "name": "parameters",
      "outputs": [
        {
          "internalType": "uint256",
          "name": "",
          "type": "uint256"
        }
      ],
      "stateMutability": "view",
      "type": "function"
    },
    {
      "inputs": [],
      "name": "paused",
      "outputs": [
        {
          "internalType": "bool",
          "name": "",
          "type": "bool"
        }
      ],
      "stateMutability": "view",
      "type": "function"
    },
    {
      "inputs": [],
      "name": "renounceOwnership",
      "outputs": [],
      "stateMutability": "nonpayable",
      "type": "function"
    },
    {
      "inputs": [
        {
          "internalType": "address",
          "name": "newOwner",
          "type": "address"
        }
      ],
      "name": "transferOwnership",
      "outputs": [],
      "stateMutability": "nonpayable",
      "type": "function"
    },
    {
      "inputs": [],
      "name": "initialize",
      "outputs": [],
      "stateMutability": "nonpayable",
      "type": "function"
    },
    {
      "inputs": [
        {
          "internalType": "uint256",
          "name": "paramIndex",
          "type": "uint256"
        },
        {
          "internalType": "uint256",
          "name": "paramValue",
          "type": "uint256"
        }
      ],
      "name": "changeParameter",
      "outputs": [],
      "stateMutability": "nonpayable",
      "type": "function"
    },
    {
      "inputs": [],
      "name": "pause",
      "outputs": [],
      "stateMutability": "nonpayable",
      "type": "function"
    },
    {
      "inputs": [],
      "name": "unpause",
      "outputs": [],
      "stateMutability": "nonpayable",
      "type": "function"
    }
  ],
  "bytecode": "0x608060405234801561001057600080fd5b506115a8806100206000396000f3fe608060405234801561001057600080fd5b50600436106100cf5760003560e01c80635c975abb1161008c5780638456cb59116100665780638456cb59146101b85780638da5cb5b146101c2578063f07237e0146101e0578063f2fde38b146101fc576100cf565b80635c975abb14610186578063715018a6146101a45780638129fc1c146101ae576100cf565b80632648cd80146100d45780632a4a9dd1146100f25780633e2dce1e146101225780633f4ba83a14610140578063443139f11461014a5780634eda811414610168575b600080fd5b6100dc610218565b6040516100e9919061144b565b60405180910390f35b61010c600480360381019061010791906110d1565b61021d565b604051610119919061144b565b60405180910390f35b61012a610235565b604051610137919061144b565b60405180910390f35b61014861023a565b005b610152610307565b60405161015f919061144b565b60405180910390f35b61017061030c565b60405161017d919061144b565b60405180910390f35b61018e610311565b60405161019b9190611370565b60405180910390f35b6101ac610328565b005b6101b6610465565b005b6101c06105e7565b005b6101ca6106b5565b6040516101d79190611355565b60405180910390f35b6101fa60048036038101906101f591906110fa565b6106df565b005b610216600480360381019061021191906110a8565b610864565b005b600281565b60976020528060005260406000206000915090505481565b600181565b610242610311565b610281576040517f08c379a00000000000000000000000000000000000000000000000000000000081526004016102789061138b565b60405180910390fd5b610289610a10565b73ffffffffffffffffffffffffffffffffffffffff166102a76106b5565b73ffffffffffffffffffffffffffffffffffffffff16146102fd576040517f08c379a00000000000000000000000000000000000000000000000000000000081526004016102f49061140b565b60405180910390fd5b610305610a18565b565b600081565b600381565b6000606560009054906101000a900460ff16905090565b610330610a10565b73ffffffffffffffffffffffffffffffffffffffff1661034e6106b5565b73ffffffffffffffffffffffffffffffffffffffff16146103a4576040517f08c379a000000000000000000000000000000000000000000000000000000000815260040161039b9061140b565b60405180910390fd5b600073ffffffffffffffffffffffffffffffffffffffff16603360009054906101000a900473ffffffffffffffffffffffffffffffffffffffff1673ffffffffffffffffffffffffffffffffffffffff167f8be0079c531659141344cd1fd0a4f28419497f9722a3daafe3b4186f6b6457e060405160405180910390a36000603360006101000a81548173ffffffffffffffffffffffffffffffffffffffff021916908373ffffffffffffffffffffffffffffffffffffffff160217905550565b600060019054906101000a900460ff168061048b575060008054906101000a900460ff16155b6104ca576040517f08c379a00000000000000000000000000000000000000000000000000000000081526004016104c1906113eb565b60405180910390fd5b60008060019054906101000a900460ff16159050801561051a576001600060016101000a81548160ff02191690831515021790555060016000806101000a81548160ff0219169083151502179055505b610522610aba565b61052a610ba3565b60646097600080815260200190815260200160002081905550600560976000600181526020019081526020016000208190555060136097600060028152602001908152602001600020819055506097600060028152602001908152602001600020546097600060018152602001908152602001600020546105ab9190611477565b60976000600381526020019081526020016000208190555080156105e45760008060016101000a81548160ff0219169083151502179055505b50565b6105ef610311565b1561062f576040517f08c379a0000000000000000000000000000000000000000000000000000000008152600401610626906113cb565b60405180910390fd5b610637610a10565b73ffffffffffffffffffffffffffffffffffffffff166106556106b5565b73ffffffffffffffffffffffffffffffffffffffff16146106ab576040517f08c379a00000000000000000000000000000000000000000000000000000000081526004016106a29061140b565b60405180910390fd5b6106b3610c8c565b565b6000603360009054906101000a900473ffffffffffffffffffffffffffffffffffffffff16905090565b6106e7610a10565b73ffffffffffffffffffffffffffffffffffffffff166107056106b5565b73ffffffffffffffffffffffffffffffffffffffff161461075b576040517f08c379a00000000000000000000000000000000000000000000000000000000081526004016107529061140b565b60405180910390fd5b610763610311565b156107a3576040517f08c379a000000000000000000000000000000000000000000000000000000000815260040161079a906113cb565b60405180910390fd5b60028211156107e7576040517f08c379a00000000000000000000000000000000000000000000000000000000081526004016107de9061142b565b60405180910390fd5b806097600084815260200190815260200160002081905550600182148061080e5750600282145b15610860576097600060028152602001908152602001600020546097600060018152602001908152602001600020546108479190611477565b6097600060038152602001908152602001600020819055505b5050565b61086c610a10565b73ffffffffffffffffffffffffffffffffffffffff1661088a6106b5565b73ffffffffffffffffffffffffffffffffffffffff16146108e0576040517f08c379a00000000000000000000000000000000000000000000000000000000081526004016108d79061140b565b60405180910390fd5b600073ffffffffffffffffffffffffffffffffffffffff168173ffffffffffffffffffffffffffffffffffffffff161415610950576040517f08c379a0000000000000000000000000000000000000000000000000000000008152600401610947906113ab565b60405180910390fd5b8073ffffffffffffffffffffffffffffffffffffffff16603360009054906101000a900473ffffffffffffffffffffffffffffffffffffffff1673ffffffffffffffffffffffffffffffffffffffff167f8be0079c531659141344cd1fd0a4f28419497f9722a3daafe3b4186f6b6457e060405160405180910390a380603360006101000a81548173ffffffffffffffffffffffffffffffffffffffff021916908373ffffffffffffffffffffffffffffffffffffffff16021790555050565b600033905090565b610a20610311565b610a5f576040517f08c379a0000000000000000000000000000000000000000000000000000000008152600401610a569061138b565b60405180910390fd5b6000606560006101000a81548160ff0219169083151502179055507f5db9ee0a495bf2e6ff9c91a7834c1ba4fdd244a5e8aa4e537bd38aeae4b073aa610aa3610a10565b604051610ab09190611355565b60405180910390a1565b600060019054906101000a900460ff1680610ae0575060008054906101000a900460ff16155b610b1f576040517f08c379a0000000000000000000000000000000000000000000000000000000008152600401610b16906113eb565b60405180910390fd5b60008060019054906101000a900460ff161590508015610b6f576001600060016101000a81548160ff02191690831515021790555060016000806101000a81548160ff0219169083151502179055505b610b77610d2f565b610b7f610e08565b8015610ba05760008060016101000a81548160ff0219169083151502179055505b50565b600060019054906101000a900460ff1680610bc9575060008054906101000a900460ff16155b610c08576040517f08c379a0000000000000000000000000000000000000000000000000000000008152600401610bff906113eb565b60405180910390fd5b60008060019054906101000a900460ff161590508015610c58576001600060016101000a81548160ff02191690831515021790555060016000806101000a81548160ff0219169083151502179055505b610c60610d2f565b610c68610f8a565b8015610c895760008060016101000a81548160ff0219169083151502179055505b50565b610c94610311565b15610cd4576040517f08c379a0000000000000000000000000000000000000000000000000000000008152600401610ccb906113cb565b60405180910390fd5b6001606560006101000a81548160ff0219169083151502179055507f62e78cea01bee320cd4e420270b5ea74000d11b0c9f74754ebdbfc544b05a258610d18610a10565b604051610d259190611355565b60405180910390a1565b600060019054906101000a900460ff1680610d55575060008054906101000a900460ff16155b610d94576040517f08c379a0000000000000000000000000000000000000000000000000000000008152600401610d8b906113eb565b60405180910390fd5b60008060019054906101000a900460ff161590508015610de4576001600060016101000a81548160ff02191690831515021790555060016000806101000a81548160ff0219169083151502179055505b8015610e055760008060016101000a81548160ff0219169083151502179055505b50565b600060019054906101000a900460ff1680610e2e575060008054906101000a900460ff16155b610e6d576040517f08c379a0000000000000000000000000000000000000000000000000000000008152600401610e64906113eb565b60405180910390fd5b60008060019054906101000a900460ff161590508015610ebd576001600060016101000a81548160ff02191690831515021790555060016000806101000a81548160ff0219169083151502179055505b6000610ec7610a10565b905080603360006101000a81548173ffffffffffffffffffffffffffffffffffffffff021916908373ffffffffffffffffffffffffffffffffffffffff1602179055508073ffffffffffffffffffffffffffffffffffffffff16600073ffffffffffffffffffffffffffffffffffffffff167f8be0079c531659141344cd1fd0a4f28419497f9722a3daafe3b4186f6b6457e060405160405180910390a3508015610f875760008060016101000a81548160ff0219169083151502179055505b50565b600060019054906101000a900460ff1680610fb0575060008054906101000a900460ff16155b610fef576040517f08c379a0000000000000000000000000000000000000000000000000000000008152600401610fe6906113eb565b60405180910390fd5b60008060019054906101000a900460ff16159050801561103f576001600060016101000a81548160ff02191690831515021790555060016000806101000a81548160ff0219169083151502179055505b6000606560006101000a81548160ff021916908315150217905550801561107b5760008060016101000a81548160ff0219169083151502179055505b50565b60008135905061108d81611544565b92915050565b6000813590506110a28161155b565b92915050565b6000602082840312156110ba57600080fd5b60006110c88482850161107e565b91505092915050565b6000602082840312156110e357600080fd5b60006110f184828501611093565b91505092915050565b6000806040838503121561110d57600080fd5b600061111b85828601611093565b925050602061112c85828601611093565b9150509250929050565b61113f816114cd565b82525050565b61114e816114df565b82525050565b6000611161601483611466565b91507f5061757361626c653a206e6f74207061757365640000000000000000000000006000830152602082019050919050565b60006111a1602683611466565b91507f4f776e61626c653a206e6577206f776e657220697320746865207a65726f206160008301527f64647265737300000000000000000000000000000000000000000000000000006020830152604082019050919050565b6000611207601083611466565b91507f5061757361626c653a20706175736564000000000000000000000000000000006000830152602082019050919050565b6000611247602e83611466565b91507f496e697469616c697a61626c653a20636f6e747261637420697320616c72656160008301527f647920696e697469616c697a65640000000000000000000000000000000000006020830152604082019050919050565b60006112ad602083611466565b91507f4f776e61626c653a2063616c6c6572206973206e6f7420746865206f776e65726000830152602082019050919050565b60006112ed603383611466565b91507f496e76616c696420706172616d6574657220696e6465783a206d75737420626560008301527f206c657373206f7220657175616c20746f2032000000000000000000000000006020830152604082019050919050565b61134f8161150b565b82525050565b600060208201905061136a6000830184611136565b92915050565b60006020820190506113856000830184611145565b92915050565b600060208201905081810360008301526113a481611154565b9050919050565b600060208201905081810360008301526113c481611194565b9050919050565b600060208201905081810360008301526113e4816111fa565b9050919050565b600060208201905081810360008301526114048161123a565b9050919050565b60006020820190508181036000830152611424816112a0565b9050919050565b60006020820190508181036000830152611444816112e0565b9050919050565b60006020820190506114606000830184611346565b92915050565b600082825260208201905092915050565b60006114828261150b565b915061148d8361150b565b9250827fffffffffffffffffffffffffffffffffffffffffffffffffffffffffffffffff038211156114c2576114c1611515565b5b828201905092915050565b60006114d8826114eb565b9050919050565b60008115159050919050565b600073ffffffffffffffffffffffffffffffffffffffff82169050919050565b6000819050919050565b7f4e487b7100000000000000000000000000000000000000000000000000000000600052601160045260246000fd5b61154d816114cd565b811461155857600080fd5b50565b6115648161150b565b811461156f57600080fd5b5056fea26469706673582212206af298198c30ccb53ac96bcfc23b0c7e8569ddc2ddffc522e1e84937c71e85bb64736f6c63430008000033",
  "immutableReferences": {},
  "source": "// SPDX-License-Identifier: MIT\r\npragma solidity ^0.8.0;\r\n\r\nimport \"../../../node_modules/@openzeppelin/contracts-upgradeable/access/OwnableUpgradeable.sol\";\r\nimport \"../../../node_modules/@openzeppelin/contracts-upgradeable/proxy/utils/Initializable.sol\";\r\nimport \"../../../node_modules/@openzeppelin/contracts-upgradeable/security/PausableUpgradeable.sol\";\r\n/**\r\n * @title MOTDSaleParametersProvider\r\n * @notice A contract which holds all parameters necessary to calculate fees during sale\r\n * @author MemeOfTheDay\r\n */\r\ncontract MOTDSaleParametersProviderV3Pause is OwnableUpgradeable, PausableUpgradeable {\r\n    uint256 public constant DEFAULT_CREATOR_FEE_PERCENT_INDEX = 0;\r\n    uint256 public constant VOTERS_FEE_PERCENT_INDEX = 1;\r\n    uint256 public constant PLATFORM_FEE_PERCENT_INDEX = 2;\r\n    uint256 public constant TOTAL_FEES_PERCENT_INDEX = 3;\r\n\r\n    mapping(uint256 => uint256) public parameters;\r\n\r\n    //Due to UPGRADEABILITY, Initializer is used! NO CONSTRUCTOR Can be used anymore!\r\n    function initialize() public initializer{\r\n        __Ownable_init();\r\n        __Pausable_init();\r\n    \r\n        \r\n        parameters[DEFAULT_CREATOR_FEE_PERCENT_INDEX] = 100; // 10% (default) or custom% set by creator when minting\r\n        parameters[VOTERS_FEE_PERCENT_INDEX] = 5; // 0.5%\r\n        parameters[PLATFORM_FEE_PERCENT_INDEX] = 19; // 1.9%\r\n        parameters[TOTAL_FEES_PERCENT_INDEX] =\r\n        parameters[VOTERS_FEE_PERCENT_INDEX] +\r\n        parameters[PLATFORM_FEE_PERCENT_INDEX];\r\n    }\r\n    // Here percents are expressed as perthousands, since in Solidity float numbers don't exist\r\n    // constructor() public {\r\n    //     parameters[DEFAULT_CREATOR_FEE_PERCENT_INDEX] = 100; // 10% (default) or custom% set by creator when minting\r\n    //     parameters[VOTERS_FEE_PERCENT_INDEX] = 5; // 0.5%\r\n    //     parameters[PLATFORM_FEE_PERCENT_INDEX] = 19; // 1.9%\r\n    //     parameters[TOTAL_FEES_PERCENT_INDEX] =\r\n    //         parameters[VOTERS_FEE_PERCENT_INDEX] +\r\n    //         parameters[PLATFORM_FEE_PERCENT_INDEX];\r\n    // }\r\n\r\n    /**\r\n     * @notice Changes one of the parameters with the given value\r\n     * @param paramIndex the index of the parameter in the mapping\r\n     * @param paramValue the new value to set to that parameter\r\n     */\r\n    function changeParameter(uint256 paramIndex, uint256 paramValue)\r\n        external\r\n        onlyOwner\r\n        whenNotPaused\r\n    {\r\n        require(\r\n            paramIndex <= 2,\r\n            \"Invalid parameter index: must be less or equal to 2\" // must be less than 3 because TOTAL_FEES_PERCENT is always derived, can't be set directly\r\n        );\r\n        parameters[paramIndex] = paramValue;\r\n\r\n        if (\r\n            paramIndex == VOTERS_FEE_PERCENT_INDEX ||\r\n            paramIndex == PLATFORM_FEE_PERCENT_INDEX\r\n        ) {\r\n            parameters[TOTAL_FEES_PERCENT_INDEX] =\r\n                parameters[VOTERS_FEE_PERCENT_INDEX] +\r\n                parameters[PLATFORM_FEE_PERCENT_INDEX];\r\n        }\r\n    }\r\n    \r\n    //USED TO PAUSE THIS CONTRACT, ONLY POSSIBLE WHEN NOT PAUSED!\r\n\r\n      function pause() public whenNotPaused onlyOwner {\r\n        _pause();\r\n    }\r\n\r\n    //USED TO UNPAUSE THIS CONTRACT, ONLY POSSIBLE WHEN PAUSED!\r\n    function unpause() public whenPaused onlyOwner {\r\n        _unpause();\r\n    }\r\n\r\n}",
  "sourcePath": "C:\\Users\\sound\\Desktop\\MOTD\\meme-repo-copy\\src\\contracts\\src\\MOTDSaleParametersProviderV3Pause.sol",
  "compiler": {
    "name": "solc",
    "version": "0.8.0+commit.c7dfd78e.Emscripten.clang"
  },
  "schemaVersion": "3.3.4",
  "updatedAt": "2021-04-29T09:32:45.260Z",
  "devdoc": {
    "author": "MemeOfTheDay",
    "kind": "dev",
    "methods": {
      "changeParameter(uint256,uint256)": {
        "params": {
          "paramIndex": "the index of the parameter in the mapping",
          "paramValue": "the new value to set to that parameter"
        }
      },
      "owner()": {
        "details": "Returns the address of the current owner."
      },
      "paused()": {
        "details": "Returns true if the contract is paused, and false otherwise."
      },
      "renounceOwnership()": {
        "details": "Leaves the contract without owner. It will not be possible to call `onlyOwner` functions anymore. Can only be called by the current owner. NOTE: Renouncing ownership will leave the contract without an owner, thereby removing any functionality that is only available to the owner."
      },
      "transferOwnership(address)": {
        "details": "Transfers ownership of the contract to a new account (`newOwner`). Can only be called by the current owner."
      }
    },
    "title": "MOTDSaleParametersProvider",
    "version": 1
  },
  "userdoc": {
    "kind": "user",
    "methods": {
      "changeParameter(uint256,uint256)": {
        "notice": "Changes one of the parameters with the given value"
      }
    },
    "notice": "A contract which holds all parameters necessary to calculate fees during sale",
    "version": 1
  }
}