{
  "contractName": "MOTDSaleParametersProvider",
  "abi": [
    {
      "inputs": [],
      "stateMutability": "nonpayable",
      "type": "constructor"
    },
    {
      "anonymous": false,
      "inputs": [
        {
          "indexed": true,
          "internalType": "address",
          "name": "previousOwner",
          "type": "address"
        },
        {
          "indexed": true,
          "internalType": "address",
          "name": "newOwner",
          "type": "address"
        }
      ],
      "name": "OwnershipTransferred",
      "type": "event"
    },
    {
      "inputs": [],
      "name": "DEFAULT_CREATOR_FEE_PERCENT_INDEX",
      "outputs": [
        {
          "internalType": "uint256",
          "name": "",
          "type": "uint256"
        }
      ],
      "stateMutability": "view",
      "type": "function",
      "constant": true
    },
    {
      "inputs": [],
      "name": "PLATFORM_FEE_PERCENT_INDEX",
      "outputs": [
        {
          "internalType": "uint256",
          "name": "",
          "type": "uint256"
        }
      ],
      "stateMutability": "view",
      "type": "function",
      "constant": true
    },
    {
      "inputs": [],
      "name": "TOTAL_FEES_PERCENT",
      "outputs": [
        {
          "internalType": "uint256",
          "name": "",
          "type": "uint256"
        }
      ],
      "stateMutability": "view",
      "type": "function",
      "constant": true
    },
    {
      "inputs": [],
      "name": "VOTERS_FEE_PERCENT_INDEX",
      "outputs": [
        {
          "internalType": "uint256",
          "name": "",
          "type": "uint256"
        }
      ],
      "stateMutability": "view",
      "type": "function",
      "constant": true
    },
    {
      "inputs": [],
      "name": "owner",
      "outputs": [
        {
          "internalType": "address",
          "name": "",
          "type": "address"
        }
      ],
      "stateMutability": "view",
      "type": "function",
      "constant": true
    },
    {
      "inputs": [
        {
          "internalType": "uint256",
          "name": "",
          "type": "uint256"
        }
      ],
      "name": "parameters",
      "outputs": [
        {
          "internalType": "uint256",
          "name": "",
          "type": "uint256"
        }
      ],
      "stateMutability": "view",
      "type": "function",
      "constant": true
    },
    {
      "inputs": [],
      "name": "renounceOwnership",
      "outputs": [],
      "stateMutability": "nonpayable",
      "type": "function"
    },
    {
      "inputs": [
        {
          "internalType": "address",
          "name": "newOwner",
          "type": "address"
        }
      ],
      "name": "transferOwnership",
      "outputs": [],
      "stateMutability": "nonpayable",
      "type": "function"
    },
    {
      "inputs": [
        {
          "internalType": "uint256",
          "name": "paramIndex",
          "type": "uint256"
        },
        {
          "internalType": "uint256",
          "name": "paramValue",
          "type": "uint256"
        }
      ],
      "name": "changeParam",
      "outputs": [],
      "stateMutability": "nonpayable",
      "type": "function"
    }
  ],
  "bytecode": "0x608060405234801561001057600080fd5b50600061002161015460201b60201c565b9050806000806101000a81548173ffffffffffffffffffffffffffffffffffffffff021916908373ffffffffffffffffffffffffffffffffffffffff1602179055508073ffffffffffffffffffffffffffffffffffffffff16600073ffffffffffffffffffffffffffffffffffffffff167f8be0079c531659141344cd1fd0a4f28419497f9722a3daafe3b4186f6b6457e060405160405180910390a35060646001600080815260200190815260200160002081905550600560016000600181526020019081526020016000208190555060136001600060028152602001908152602001600020819055506001600060028152602001908152602001600020546001600060018152602001908152602001600020540160016000600381526020019081526020016000208190555061015c565b600033905090565b61081f8061016b6000396000f3fe608060405234801561001057600080fd5b50600436106100935760003560e01c8063443139f111610066578063443139f11461014e578063715018a61461016c5780638da5cb5b14610176578063f2fde38b146101aa578063fd6bac98146101ee57610093565b80632648cd80146100985780632a4a9dd1146100b657806331690a5a146100f85780633e2dce1e14610130575b600080fd5b6100a061020c565b6040518082815260200191505060405180910390f35b6100e2600480360360208110156100cc57600080fd5b8101908080359060200190929190505050610211565b6040518082815260200191505060405180910390f35b61012e6004803603604081101561010e57600080fd5b810190808035906020019092919080359060200190929190505050610229565b005b6101386103bf565b6040518082815260200191505060405180910390f35b6101566103c4565b6040518082815260200191505060405180910390f35b6101746103c9565b005b61017e61054f565b604051808273ffffffffffffffffffffffffffffffffffffffff16815260200191505060405180910390f35b6101ec600480360360208110156101c057600080fd5b81019080803573ffffffffffffffffffffffffffffffffffffffff169060200190929190505050610578565b005b6101f6610783565b6040518082815260200191505060405180910390f35b600281565b60016020528060005260406000206000915090505481565b610231610788565b73ffffffffffffffffffffffffffffffffffffffff1660008054906101000a900473ffffffffffffffffffffffffffffffffffffffff1673ffffffffffffffffffffffffffffffffffffffff16146102f1576040517f08c379a00000000000000000000000000000000000000000000000000000000081526004018080602001828103825260208152602001807f4f776e61626c653a2063616c6c6572206973206e6f7420746865206f776e657281525060200191505060405180910390fd5b600282111561034b576040517f08c379a00000000000000000000000000000000000000000000000000000000081526004018080602001828103825260338152602001806107b76033913960400191505060405180910390fd5b80600160008481526020019081526020016000208190555060018214806103725750600282145b156103bb57600160006002815260200190815260200160002054600160006001815260200190815260200160002054016001600060038152602001908152602001600020819055505b5050565b600181565b600081565b6103d1610788565b73ffffffffffffffffffffffffffffffffffffffff1660008054906101000a900473ffffffffffffffffffffffffffffffffffffffff1673ffffffffffffffffffffffffffffffffffffffff1614610491576040517f08c379a00000000000000000000000000000000000000000000000000000000081526004018080602001828103825260208152602001807f4f776e61626c653a2063616c6c6572206973206e6f7420746865206f776e657281525060200191505060405180910390fd5b600073ffffffffffffffffffffffffffffffffffffffff1660008054906101000a900473ffffffffffffffffffffffffffffffffffffffff1673ffffffffffffffffffffffffffffffffffffffff167f8be0079c531659141344cd1fd0a4f28419497f9722a3daafe3b4186f6b6457e060405160405180910390a360008060006101000a81548173ffffffffffffffffffffffffffffffffffffffff021916908373ffffffffffffffffffffffffffffffffffffffff160217905550565b60008060009054906101000a900473ffffffffffffffffffffffffffffffffffffffff16905090565b610580610788565b73ffffffffffffffffffffffffffffffffffffffff1660008054906101000a900473ffffffffffffffffffffffffffffffffffffffff1673ffffffffffffffffffffffffffffffffffffffff1614610640576040517f08c379a00000000000000000000000000000000000000000000000000000000081526004018080602001828103825260208152602001807f4f776e61626c653a2063616c6c6572206973206e6f7420746865206f776e657281525060200191505060405180910390fd5b600073ffffffffffffffffffffffffffffffffffffffff168173ffffffffffffffffffffffffffffffffffffffff1614156106c6576040517f08c379a00000000000000000000000000000000000000000000000000000000081526004018080602001828103825260268152602001806107916026913960400191505060405180910390fd5b8073ffffffffffffffffffffffffffffffffffffffff1660008054906101000a900473ffffffffffffffffffffffffffffffffffffffff1673ffffffffffffffffffffffffffffffffffffffff167f8be0079c531659141344cd1fd0a4f28419497f9722a3daafe3b4186f6b6457e060405160405180910390a3806000806101000a81548173ffffffffffffffffffffffffffffffffffffffff021916908373ffffffffffffffffffffffffffffffffffffffff16021790555050565b600381565b60003390509056fe4f776e61626c653a206e6577206f776e657220697320746865207a65726f2061646472657373496e76616c696420706172616d6574657220696e6465783a206d757374206265206c657373206f7220657175616c20746f2032a2646970667358221220255e1ba4086455348db4cf344def1f667618fe5b192a5567a638570c54ba7cf964736f6c634300060c0033",
  "immutableReferences": {},
  "source": "// SPDX-License-Identifier: MIT\r\npragma solidity ^0.6.12;\r\n\r\nimport \"@openzeppelin/contracts/access/Ownable.sol\";\r\n\r\ncontract MOTDSaleParametersProvider is Ownable {\r\n    uint256 public constant DEFAULT_CREATOR_FEE_PERCENT_INDEX = 0;\r\n    uint256 public constant VOTERS_FEE_PERCENT_INDEX = 1;\r\n    uint256 public constant PLATFORM_FEE_PERCENT_INDEX = 2;\r\n    uint256 public constant TOTAL_FEES_PERCENT = 3;\r\n\r\n    mapping(uint256 => uint256) public parameters;\r\n\r\n    constructor() public {\r\n        parameters[DEFAULT_CREATOR_FEE_PERCENT_INDEX] = 100; // (default) or custom% set by creator when minting\r\n        parameters[VOTERS_FEE_PERCENT_INDEX] = 5;\r\n        parameters[PLATFORM_FEE_PERCENT_INDEX] = 19;\r\n        parameters[TOTAL_FEES_PERCENT] =\r\n            parameters[VOTERS_FEE_PERCENT_INDEX] +\r\n            parameters[PLATFORM_FEE_PERCENT_INDEX];\r\n    }\r\n\r\n    function changeParam(uint256 paramIndex, uint256 paramValue)\r\n        external\r\n        onlyOwner\r\n    {\r\n        require(\r\n            paramIndex <= 2,\r\n            \"Invalid parameter index: must be less or equal to 2\" // must be less than 3 because TOTAL_FEES_PERCENT is always derived, can't be set directly\r\n        );\r\n        parameters[paramIndex] = paramValue;\r\n\r\n        if (\r\n            paramIndex == VOTERS_FEE_PERCENT_INDEX ||\r\n            paramIndex == PLATFORM_FEE_PERCENT_INDEX\r\n        ) {\r\n            parameters[TOTAL_FEES_PERCENT] =\r\n                parameters[VOTERS_FEE_PERCENT_INDEX] +\r\n                parameters[PLATFORM_FEE_PERCENT_INDEX];\r\n        }\r\n    }\r\n}\r\n",
  "sourcePath": "/mnt/c/Users/lorenzo/Desktop/Personale/meme-of-the-day-ipfs/src/contracts/src/MOTDSaleParametersProvider.sol",
  "compiler": {
    "name": "solc",
    "version": "0.6.12+commit.27d51765.Emscripten.clang"
  },
  "schemaVersion": "3.3.1",
  "updatedAt": "2020-12-03T15:22:44.816Z",
  "networkType": "ethereum",
  "devdoc": {
    "kind": "dev",
    "methods": {
      "owner()": {
        "details": "Returns the address of the current owner."
      },
      "renounceOwnership()": {
        "details": "Leaves the contract without owner. It will not be possible to call `onlyOwner` functions anymore. Can only be called by the current owner. NOTE: Renouncing ownership will leave the contract without an owner, thereby removing any functionality that is only available to the owner."
      },
      "transferOwnership(address)": {
        "details": "Transfers ownership of the contract to a new account (`newOwner`). Can only be called by the current owner."
      }
    },
    "version": 1
  },
  "userdoc": {
    "kind": "user",
    "methods": {},
    "version": 1
  }
}