{
  "contractName": "MOTDSaleParametersProviderV2",
  "abi": [
    {
      "anonymous": false,
      "inputs": [
        {
          "indexed": true,
          "internalType": "address",
          "name": "previousOwner",
          "type": "address"
        },
        {
          "indexed": true,
          "internalType": "address",
          "name": "newOwner",
          "type": "address"
        }
      ],
      "name": "OwnershipTransferred",
      "type": "event"
    },
    {
      "inputs": [],
      "name": "DEFAULT_CREATOR_FEE_PERCENT_INDEX",
      "outputs": [
        {
          "internalType": "uint256",
          "name": "",
          "type": "uint256"
        }
      ],
      "stateMutability": "view",
      "type": "function"
    },
    {
      "inputs": [],
      "name": "PLATFORM_FEE_PERCENT_INDEX",
      "outputs": [
        {
          "internalType": "uint256",
          "name": "",
          "type": "uint256"
        }
      ],
      "stateMutability": "view",
      "type": "function"
    },
    {
      "inputs": [],
      "name": "TOTAL_FEES_PERCENT_INDEX",
      "outputs": [
        {
          "internalType": "uint256",
          "name": "",
          "type": "uint256"
        }
      ],
      "stateMutability": "view",
      "type": "function"
    },
    {
      "inputs": [],
      "name": "VOTERS_FEE_PERCENT_INDEX",
      "outputs": [
        {
          "internalType": "uint256",
          "name": "",
          "type": "uint256"
        }
      ],
      "stateMutability": "view",
      "type": "function"
    },
    {
      "inputs": [],
      "name": "owner",
      "outputs": [
        {
          "internalType": "address",
          "name": "",
          "type": "address"
        }
      ],
      "stateMutability": "view",
      "type": "function"
    },
    {
      "inputs": [
        {
          "internalType": "uint256",
          "name": "",
          "type": "uint256"
        }
      ],
      "name": "parameters",
      "outputs": [
        {
          "internalType": "uint256",
          "name": "",
          "type": "uint256"
        }
      ],
      "stateMutability": "view",
      "type": "function"
    },
    {
      "inputs": [],
      "name": "renounceOwnership",
      "outputs": [],
      "stateMutability": "nonpayable",
      "type": "function"
    },
    {
      "inputs": [
        {
          "internalType": "address",
          "name": "newOwner",
          "type": "address"
        }
      ],
      "name": "transferOwnership",
      "outputs": [],
      "stateMutability": "nonpayable",
      "type": "function"
    },
    {
      "inputs": [],
      "name": "initialize",
      "outputs": [],
      "stateMutability": "nonpayable",
      "type": "function"
    },
    {
      "inputs": [
        {
          "internalType": "uint256",
          "name": "paramIndex",
          "type": "uint256"
        },
        {
          "internalType": "uint256",
          "name": "paramValue",
          "type": "uint256"
        }
      ],
      "name": "changeParameter",
      "outputs": [],
      "stateMutability": "nonpayable",
      "type": "function"
    },
    {
      "inputs": [],
      "name": "sayHello",
      "outputs": [
        {
          "internalType": "string",
          "name": "",
          "type": "string"
        }
      ],
      "stateMutability": "pure",
      "type": "function"
    }
  ],
  "bytecode": "0x608060405234801561001057600080fd5b5061103b806100206000396000f3fe608060405234801561001057600080fd5b50600436106100a95760003560e01c8063715018a611610071578063715018a6146101565780638129fc1c146101605780638da5cb5b1461016a578063ef5fb05b14610188578063f07237e0146101a6578063f2fde38b146101c2576100a9565b80632648cd80146100ae5780632a4a9dd1146100cc5780633e2dce1e146100fc578063443139f11461011a5780634eda811414610138575b600080fd5b6100b66101de565b6040516100c39190610e9b565b60405180910390f35b6100e660048036038101906100e19190610bb0565b6101e3565b6040516100f39190610e9b565b60405180910390f35b6101046101fb565b6040516101119190610e9b565b60405180910390f35b610122610200565b60405161012f9190610e9b565b60405180910390f35b610140610205565b60405161014d9190610e9b565b60405180910390f35b61015e61020a565b005b610168610347565b005b6101726104c1565b60405161017f9190610dde565b60405180910390f35b6101906104eb565b60405161019d9190610df9565b60405180910390f35b6101c060048036038101906101bb9190610bd9565b610528565b005b6101dc60048036038101906101d79190610b87565b610665565b005b600281565b60656020528060005260406000206000915090505481565b600181565b600081565b600381565b610212610811565b73ffffffffffffffffffffffffffffffffffffffff166102306104c1565b73ffffffffffffffffffffffffffffffffffffffff1614610286576040517f08c379a000000000000000000000000000000000000000000000000000000000815260040161027d90610e5b565b60405180910390fd5b600073ffffffffffffffffffffffffffffffffffffffff16603360009054906101000a900473ffffffffffffffffffffffffffffffffffffffff1673ffffffffffffffffffffffffffffffffffffffff167f8be0079c531659141344cd1fd0a4f28419497f9722a3daafe3b4186f6b6457e060405160405180910390a36000603360006101000a81548173ffffffffffffffffffffffffffffffffffffffff021916908373ffffffffffffffffffffffffffffffffffffffff160217905550565b600060019054906101000a900460ff168061036d575060008054906101000a900460ff16155b6103ac576040517f08c379a00000000000000000000000000000000000000000000000000000000081526004016103a390610e3b565b60405180910390fd5b60008060019054906101000a900460ff1615905080156103fc576001600060016101000a81548160ff02191690831515021790555060016000806101000a81548160ff0219169083151502179055505b610404610819565b60646065600080815260200190815260200160002081905550600560656000600181526020019081526020016000208190555060136065600060028152602001908152602001600020819055506065600060028152602001908152602001600020546065600060018152602001908152602001600020546104859190610ed2565b60656000600381526020019081526020016000208190555080156104be5760008060016101000a81548160ff0219169083151502179055505b50565b6000603360009054906101000a900473ffffffffffffffffffffffffffffffffffffffff16905090565b60606040518060400160405280601d81526020017f48656c6c6f2066726f6d20616674657220746865207570677261646521000000815250905090565b610530610811565b73ffffffffffffffffffffffffffffffffffffffff1661054e6104c1565b73ffffffffffffffffffffffffffffffffffffffff16146105a4576040517f08c379a000000000000000000000000000000000000000000000000000000000815260040161059b90610e5b565b60405180910390fd5b60028211156105e8576040517f08c379a00000000000000000000000000000000000000000000000000000000081526004016105df90610e7b565b60405180910390fd5b806065600084815260200190815260200160002081905550600182148061060f5750600282145b15610661576065600060028152602001908152602001600020546065600060018152602001908152602001600020546106489190610ed2565b6065600060038152602001908152602001600020819055505b5050565b61066d610811565b73ffffffffffffffffffffffffffffffffffffffff1661068b6104c1565b73ffffffffffffffffffffffffffffffffffffffff16146106e1576040517f08c379a00000000000000000000000000000000000000000000000000000000081526004016106d890610e5b565b60405180910390fd5b600073ffffffffffffffffffffffffffffffffffffffff168173ffffffffffffffffffffffffffffffffffffffff161415610751576040517f08c379a000000000000000000000000000000000000000000000000000000000815260040161074890610e1b565b60405180910390fd5b8073ffffffffffffffffffffffffffffffffffffffff16603360009054906101000a900473ffffffffffffffffffffffffffffffffffffffff1673ffffffffffffffffffffffffffffffffffffffff167f8be0079c531659141344cd1fd0a4f28419497f9722a3daafe3b4186f6b6457e060405160405180910390a380603360006101000a81548173ffffffffffffffffffffffffffffffffffffffff021916908373ffffffffffffffffffffffffffffffffffffffff16021790555050565b600033905090565b600060019054906101000a900460ff168061083f575060008054906101000a900460ff16155b61087e576040517f08c379a000000000000000000000000000000000000000000000000000000000815260040161087590610e3b565b60405180910390fd5b60008060019054906101000a900460ff1615905080156108ce576001600060016101000a81548160ff02191690831515021790555060016000806101000a81548160ff0219169083151502179055505b6108d6610902565b6108de6109db565b80156108ff5760008060016101000a81548160ff0219169083151502179055505b50565b600060019054906101000a900460ff1680610928575060008054906101000a900460ff16155b610967576040517f08c379a000000000000000000000000000000000000000000000000000000000815260040161095e90610e3b565b60405180910390fd5b60008060019054906101000a900460ff1615905080156109b7576001600060016101000a81548160ff02191690831515021790555060016000806101000a81548160ff0219169083151502179055505b80156109d85760008060016101000a81548160ff0219169083151502179055505b50565b600060019054906101000a900460ff1680610a01575060008054906101000a900460ff16155b610a40576040517f08c379a0000000000000000000000000000000000000000000000000000000008152600401610a3790610e3b565b60405180910390fd5b60008060019054906101000a900460ff161590508015610a90576001600060016101000a81548160ff02191690831515021790555060016000806101000a81548160ff0219169083151502179055505b6000610a9a610811565b905080603360006101000a81548173ffffffffffffffffffffffffffffffffffffffff021916908373ffffffffffffffffffffffffffffffffffffffff1602179055508073ffffffffffffffffffffffffffffffffffffffff16600073ffffffffffffffffffffffffffffffffffffffff167f8be0079c531659141344cd1fd0a4f28419497f9722a3daafe3b4186f6b6457e060405160405180910390a3508015610b5a5760008060016101000a81548160ff0219169083151502179055505b50565b600081359050610b6c81610fd7565b92915050565b600081359050610b8181610fee565b92915050565b600060208284031215610b9957600080fd5b6000610ba784828501610b5d565b91505092915050565b600060208284031215610bc257600080fd5b6000610bd084828501610b72565b91505092915050565b60008060408385031215610bec57600080fd5b6000610bfa85828601610b72565b9250506020610c0b85828601610b72565b9150509250929050565b610c1e81610f28565b82525050565b6000610c2f82610eb6565b610c398185610ec1565b9350610c49818560208601610f64565b610c5281610fc6565b840191505092915050565b6000610c6a602683610ec1565b91507f4f776e61626c653a206e6577206f776e657220697320746865207a65726f206160008301527f64647265737300000000000000000000000000000000000000000000000000006020830152604082019050919050565b6000610cd0602e83610ec1565b91507f496e697469616c697a61626c653a20636f6e747261637420697320616c72656160008301527f647920696e697469616c697a65640000000000000000000000000000000000006020830152604082019050919050565b6000610d36602083610ec1565b91507f4f776e61626c653a2063616c6c6572206973206e6f7420746865206f776e65726000830152602082019050919050565b6000610d76603383610ec1565b91507f496e76616c696420706172616d6574657220696e6465783a206d75737420626560008301527f206c657373206f7220657175616c20746f2032000000000000000000000000006020830152604082019050919050565b610dd881610f5a565b82525050565b6000602082019050610df36000830184610c15565b92915050565b60006020820190508181036000830152610e138184610c24565b905092915050565b60006020820190508181036000830152610e3481610c5d565b9050919050565b60006020820190508181036000830152610e5481610cc3565b9050919050565b60006020820190508181036000830152610e7481610d29565b9050919050565b60006020820190508181036000830152610e9481610d69565b9050919050565b6000602082019050610eb06000830184610dcf565b92915050565b600081519050919050565b600082825260208201905092915050565b6000610edd82610f5a565b9150610ee883610f5a565b9250827fffffffffffffffffffffffffffffffffffffffffffffffffffffffffffffffff03821115610f1d57610f1c610f97565b5b828201905092915050565b6000610f3382610f3a565b9050919050565b600073ffffffffffffffffffffffffffffffffffffffff82169050919050565b6000819050919050565b60005b83811015610f82578082015181840152602081019050610f67565b83811115610f91576000848401525b50505050565b7f4e487b7100000000000000000000000000000000000000000000000000000000600052601160045260246000fd5b6000601f19601f8301169050919050565b610fe081610f28565b8114610feb57600080fd5b50565b610ff781610f5a565b811461100257600080fd5b5056fea2646970667358221220c4a9818dc3f5d81b9f83369c0b9ae51512514769218493331cddb6d5f169c63564736f6c63430008000033",
  "immutableReferences": {},
  "source": "// SPDX-License-Identifier: MIT\r\npragma solidity ^0.8.0;\r\n\r\nimport \"../../../node_modules/@openzeppelin/contracts-upgradeable/access/OwnableUpgradeable.sol\";\r\nimport \"../../../node_modules/@openzeppelin/contracts-upgradeable/proxy/utils/Initializable.sol\";\r\n/**\r\n * @title MOTDSaleParametersProvider\r\n * @notice A contract which holds all parameters necessary to calculate fees during sale\r\n * @author MemeOfTheDay\r\n */\r\ncontract MOTDSaleParametersProviderV2 is OwnableUpgradeable {\r\n    uint256 public constant DEFAULT_CREATOR_FEE_PERCENT_INDEX = 0;\r\n    uint256 public constant VOTERS_FEE_PERCENT_INDEX = 1;\r\n    uint256 public constant PLATFORM_FEE_PERCENT_INDEX = 2;\r\n    uint256 public constant TOTAL_FEES_PERCENT_INDEX = 3;\r\n\r\n    mapping(uint256 => uint256) public parameters;\r\n\r\n    function initialize() public initializer{\r\n        __Ownable_init();\r\n        \r\n          parameters[DEFAULT_CREATOR_FEE_PERCENT_INDEX] = 100; // 10% (default) or custom% set by creator when minting\r\n        parameters[VOTERS_FEE_PERCENT_INDEX] = 5; // 0.5%\r\n        parameters[PLATFORM_FEE_PERCENT_INDEX] = 19; // 1.9%\r\n        parameters[TOTAL_FEES_PERCENT_INDEX] =\r\n            parameters[VOTERS_FEE_PERCENT_INDEX] +\r\n            parameters[PLATFORM_FEE_PERCENT_INDEX];\r\n    }\r\n    // Here percents are expressed as perthousands, since in Solidity float numbers don't exist\r\n    // constructor() public {\r\n    //     parameters[DEFAULT_CREATOR_FEE_PERCENT_INDEX] = 100; // 10% (default) or custom% set by creator when minting\r\n    //     parameters[VOTERS_FEE_PERCENT_INDEX] = 5; // 0.5%\r\n    //     parameters[PLATFORM_FEE_PERCENT_INDEX] = 19; // 1.9%\r\n    //     parameters[TOTAL_FEES_PERCENT_INDEX] =\r\n    //         parameters[VOTERS_FEE_PERCENT_INDEX] +\r\n    //         parameters[PLATFORM_FEE_PERCENT_INDEX];\r\n    // }\r\n\r\n    /**\r\n     * @notice Changes one of the parameters with the given value\r\n     * @param paramIndex the index of the parameter in the mapping\r\n     * @param paramValue the new value to set to that parameter\r\n     */\r\n    function changeParameter(uint256 paramIndex, uint256 paramValue)\r\n        external\r\n        onlyOwner\r\n    {\r\n        require(\r\n            paramIndex <= 2,\r\n            \"Invalid parameter index: must be less or equal to 2\" // must be less than 3 because TOTAL_FEES_PERCENT is always derived, can't be set directly\r\n        );\r\n        parameters[paramIndex] = paramValue;\r\n\r\n        if (\r\n            paramIndex == VOTERS_FEE_PERCENT_INDEX ||\r\n            paramIndex == PLATFORM_FEE_PERCENT_INDEX\r\n        ) {\r\n            parameters[TOTAL_FEES_PERCENT_INDEX] =\r\n                parameters[VOTERS_FEE_PERCENT_INDEX] +\r\n                parameters[PLATFORM_FEE_PERCENT_INDEX];\r\n        }\r\n    }\r\n\r\n    function sayHello() public pure returns(string memory){\r\n        return \"Hello from after the upgrade!\";\r\n    }\r\n\r\n}",
  "sourcePath": "C:\\Users\\sound\\Desktop\\MOTD\\meme-repo-copy\\src\\contracts\\src\\MOTDSaleParametersProviderV2.sol",
  "compiler": {
    "name": "solc",
    "version": "0.8.0+commit.c7dfd78e.Emscripten.clang"
  },
  "schemaVersion": "3.3.4",
  "updatedAt": "2021-04-28T13:37:50.131Z",
  "devdoc": {
    "author": "MemeOfTheDay",
    "kind": "dev",
    "methods": {
      "changeParameter(uint256,uint256)": {
        "params": {
          "paramIndex": "the index of the parameter in the mapping",
          "paramValue": "the new value to set to that parameter"
        }
      },
      "owner()": {
        "details": "Returns the address of the current owner."
      },
      "renounceOwnership()": {
        "details": "Leaves the contract without owner. It will not be possible to call `onlyOwner` functions anymore. Can only be called by the current owner. NOTE: Renouncing ownership will leave the contract without an owner, thereby removing any functionality that is only available to the owner."
      },
      "transferOwnership(address)": {
        "details": "Transfers ownership of the contract to a new account (`newOwner`). Can only be called by the current owner."
      }
    },
    "title": "MOTDSaleParametersProvider",
    "version": 1
  },
  "userdoc": {
    "kind": "user",
    "methods": {
      "changeParameter(uint256,uint256)": {
        "notice": "Changes one of the parameters with the given value"
      }
    },
    "notice": "A contract which holds all parameters necessary to calculate fees during sale",
    "version": 1
  }
}