{
  "contractName": "MOTDTreasuryV2",
  "abi": [
    {
      "anonymous": false,
      "inputs": [
        {
          "indexed": true,
          "internalType": "address",
          "name": "previousOwner",
          "type": "address"
        },
        {
          "indexed": true,
          "internalType": "address",
          "name": "newOwner",
          "type": "address"
        }
      ],
      "name": "OwnershipTransferred",
      "type": "event"
    },
    {
      "anonymous": false,
      "inputs": [
        {
          "indexed": false,
          "internalType": "address",
          "name": "from",
          "type": "address"
        },
        {
          "indexed": false,
          "internalType": "uint256",
          "name": "amount",
          "type": "uint256"
        }
      ],
      "name": "Paid",
      "type": "event"
    },
    {
      "anonymous": false,
      "inputs": [
        {
          "indexed": false,
          "internalType": "address",
          "name": "by",
          "type": "address"
        },
        {
          "indexed": false,
          "internalType": "uint256",
          "name": "amount",
          "type": "uint256"
        }
      ],
      "name": "Withdrawn",
      "type": "event"
    },
    {
      "inputs": [],
      "name": "owner",
      "outputs": [
        {
          "internalType": "address",
          "name": "",
          "type": "address"
        }
      ],
      "stateMutability": "view",
      "type": "function"
    },
    {
      "inputs": [],
      "name": "renounceOwnership",
      "outputs": [],
      "stateMutability": "nonpayable",
      "type": "function"
    },
    {
      "inputs": [
        {
          "internalType": "address",
          "name": "newOwner",
          "type": "address"
        }
      ],
      "name": "transferOwnership",
      "outputs": [],
      "stateMutability": "nonpayable",
      "type": "function"
    },
    {
      "stateMutability": "payable",
      "type": "receive"
    },
    {
      "inputs": [],
      "name": "initialize",
      "outputs": [],
      "stateMutability": "nonpayable",
      "type": "function"
    },
    {
      "inputs": [
        {
          "internalType": "uint256",
          "name": "amount",
          "type": "uint256"
        }
      ],
      "name": "withdraw",
      "outputs": [],
      "stateMutability": "nonpayable",
      "type": "function"
    },
    {
      "inputs": [],
      "name": "sayHello",
      "outputs": [
        {
          "internalType": "string",
          "name": "",
          "type": "string"
        }
      ],
      "stateMutability": "pure",
      "type": "function"
    }
  ],
  "bytecode": "0x608060405234801561001057600080fd5b50610f5e806100206000396000f3fe6080604052600436106100595760003560e01c80632e1a7d4d1461009e578063715018a6146100c75780638129fc1c146100de5780638da5cb5b146100f5578063ef5fb05b14610120578063f2fde38b1461014b57610099565b36610099577f737c69225d647e5994eab1a6c301bf6d9232beb2759ae1e27a8966b4732bc489333460405161008f929190610d68565b60405180910390a1005b600080fd5b3480156100aa57600080fd5b506100c560048036038101906100c09190610aec565b610174565b005b3480156100d357600080fd5b506100dc61031c565b005b3480156100ea57600080fd5b506100f3610459565b005b34801561010157600080fd5b5061010a61053a565b6040516101179190610d4d565b60405180910390f35b34801561012c57600080fd5b50610135610564565b6040516101429190610d91565b60405180910390f35b34801561015757600080fd5b50610172600480360381019061016d9190610ac3565b6105a1565b005b61017c61074d565b73ffffffffffffffffffffffffffffffffffffffff1661019a61053a565b73ffffffffffffffffffffffffffffffffffffffff16146101f0576040517f08c379a00000000000000000000000000000000000000000000000000000000081526004016101e790610df3565b60405180910390fd5b47811115610233576040517f08c379a000000000000000000000000000000000000000000000000000000000815260040161022a90610e33565b60405180910390fd5b60003373ffffffffffffffffffffffffffffffffffffffff168260405161025990610d38565b60006040518083038185875af1925050503d8060008114610296576040519150601f19603f3d011682016040523d82523d6000602084013e61029b565b606091505b50509050806102df576040517f08c379a00000000000000000000000000000000000000000000000000000000081526004016102d690610e13565b60405180910390fd5b7f7084f5476618d8e60b11ef0d7d3f06914655adb8793e28ff7f018d4c76d505d53383604051610310929190610d68565b60405180910390a15050565b61032461074d565b73ffffffffffffffffffffffffffffffffffffffff1661034261053a565b73ffffffffffffffffffffffffffffffffffffffff1614610398576040517f08c379a000000000000000000000000000000000000000000000000000000000815260040161038f90610df3565b60405180910390fd5b600073ffffffffffffffffffffffffffffffffffffffff16603360009054906101000a900473ffffffffffffffffffffffffffffffffffffffff1673ffffffffffffffffffffffffffffffffffffffff167f8be0079c531659141344cd1fd0a4f28419497f9722a3daafe3b4186f6b6457e060405160405180910390a36000603360006101000a81548173ffffffffffffffffffffffffffffffffffffffff021916908373ffffffffffffffffffffffffffffffffffffffff160217905550565b600060019054906101000a900460ff168061047f575060008054906101000a900460ff16155b6104be576040517f08c379a00000000000000000000000000000000000000000000000000000000081526004016104b590610dd3565b60405180910390fd5b60008060019054906101000a900460ff16159050801561050e576001600060016101000a81548160ff02191690831515021790555060016000806101000a81548160ff0219169083151502179055505b610516610755565b80156105375760008060016101000a81548160ff0219169083151502179055505b50565b6000603360009054906101000a900473ffffffffffffffffffffffffffffffffffffffff16905090565b60606040518060400160405280601d81526020017f48656c6c6f2066726f6d20616674657220746865207570677261646521000000815250905090565b6105a961074d565b73ffffffffffffffffffffffffffffffffffffffff166105c761053a565b73ffffffffffffffffffffffffffffffffffffffff161461061d576040517f08c379a000000000000000000000000000000000000000000000000000000000815260040161061490610df3565b60405180910390fd5b600073ffffffffffffffffffffffffffffffffffffffff168173ffffffffffffffffffffffffffffffffffffffff16141561068d576040517f08c379a000000000000000000000000000000000000000000000000000000000815260040161068490610db3565b60405180910390fd5b8073ffffffffffffffffffffffffffffffffffffffff16603360009054906101000a900473ffffffffffffffffffffffffffffffffffffffff1673ffffffffffffffffffffffffffffffffffffffff167f8be0079c531659141344cd1fd0a4f28419497f9722a3daafe3b4186f6b6457e060405160405180910390a380603360006101000a81548173ffffffffffffffffffffffffffffffffffffffff021916908373ffffffffffffffffffffffffffffffffffffffff16021790555050565b600033905090565b600060019054906101000a900460ff168061077b575060008054906101000a900460ff16155b6107ba576040517f08c379a00000000000000000000000000000000000000000000000000000000081526004016107b190610dd3565b60405180910390fd5b60008060019054906101000a900460ff16159050801561080a576001600060016101000a81548160ff02191690831515021790555060016000806101000a81548160ff0219169083151502179055505b61081261083e565b61081a610917565b801561083b5760008060016101000a81548160ff0219169083151502179055505b50565b600060019054906101000a900460ff1680610864575060008054906101000a900460ff16155b6108a3576040517f08c379a000000000000000000000000000000000000000000000000000000000815260040161089a90610dd3565b60405180910390fd5b60008060019054906101000a900460ff1615905080156108f3576001600060016101000a81548160ff02191690831515021790555060016000806101000a81548160ff0219169083151502179055505b80156109145760008060016101000a81548160ff0219169083151502179055505b50565b600060019054906101000a900460ff168061093d575060008054906101000a900460ff16155b61097c576040517f08c379a000000000000000000000000000000000000000000000000000000000815260040161097390610dd3565b60405180910390fd5b60008060019054906101000a900460ff1615905080156109cc576001600060016101000a81548160ff02191690831515021790555060016000806101000a81548160ff0219169083151502179055505b60006109d661074d565b905080603360006101000a81548173ffffffffffffffffffffffffffffffffffffffff021916908373ffffffffffffffffffffffffffffffffffffffff1602179055508073ffffffffffffffffffffffffffffffffffffffff16600073ffffffffffffffffffffffffffffffffffffffff167f8be0079c531659141344cd1fd0a4f28419497f9722a3daafe3b4186f6b6457e060405160405180910390a3508015610a965760008060016101000a81548160ff0219169083151502179055505b50565b600081359050610aa881610efa565b92915050565b600081359050610abd81610f11565b92915050565b600060208284031215610ad557600080fd5b6000610ae384828501610a99565b91505092915050565b600060208284031215610afe57600080fd5b6000610b0c84828501610aae565b91505092915050565b610b1e81610e7a565b82525050565b6000610b2f82610e53565b610b398185610e69565b9350610b49818560208601610eb6565b610b5281610ee9565b840191505092915050565b6000610b6a602683610e69565b91507f4f776e61626c653a206e6577206f776e657220697320746865207a65726f206160008301527f64647265737300000000000000000000000000000000000000000000000000006020830152604082019050919050565b6000610bd0602e83610e69565b91507f496e697469616c697a61626c653a20636f6e747261637420697320616c72656160008301527f647920696e697469616c697a65640000000000000000000000000000000000006020830152604082019050919050565b6000610c36602083610e69565b91507f4f776e61626c653a2063616c6c6572206973206e6f7420746865206f776e65726000830152602082019050919050565b6000610c76600083610e5e565b9150600082019050919050565b6000610c90601083610e69565b91507f5472616e73666572206661696c65642e000000000000000000000000000000006000830152602082019050919050565b6000610cd0603983610e69565b91507f52657175657374656420616d6f756e7420697320686967686572207468616e2060008301527f63757272656e746c79206465706f73697465642076616c7565000000000000006020830152604082019050919050565b610d3281610eac565b82525050565b6000610d4382610c69565b9150819050919050565b6000602082019050610d626000830184610b15565b92915050565b6000604082019050610d7d6000830185610b15565b610d8a6020830184610d29565b9392505050565b60006020820190508181036000830152610dab8184610b24565b905092915050565b60006020820190508181036000830152610dcc81610b5d565b9050919050565b60006020820190508181036000830152610dec81610bc3565b9050919050565b60006020820190508181036000830152610e0c81610c29565b9050919050565b60006020820190508181036000830152610e2c81610c83565b9050919050565b60006020820190508181036000830152610e4c81610cc3565b9050919050565b600081519050919050565b600081905092915050565b600082825260208201905092915050565b6000610e8582610e8c565b9050919050565b600073ffffffffffffffffffffffffffffffffffffffff82169050919050565b6000819050919050565b60005b83811015610ed4578082015181840152602081019050610eb9565b83811115610ee3576000848401525b50505050565b6000601f19601f8301169050919050565b610f0381610e7a565b8114610f0e57600080fd5b50565b610f1a81610eac565b8114610f2557600080fd5b5056fea26469706673582212201e59b0d1dcf00dc8baad78c342a22099727b688034545b08438bbd8fdf135ba564736f6c63430008000033",
  "immutableReferences": {},
  "source": "// SPDX-License-Identifier: MIT\r\npragma solidity ^0.8.0;\r\n\r\nimport \"../../../node_modules/@openzeppelin/contracts-upgradeable/access/OwnableUpgradeable.sol\";\r\nimport \"../../../node_modules/@openzeppelin/contracts-upgradeable/proxy/utils/Initializable.sol\";\r\n\r\n\r\n/**\r\n * @title MOTDTreasury\r\n * @notice A contract which holds the platform fees coming from meme sales\r\n * @author MemeOfTheDay\r\n */\r\ncontract MOTDTreasuryV2 is OwnableUpgradeable {\r\n\r\n    \r\n    event Paid(address from, uint256 amount);\r\n    event Withdrawn(address by, uint256 amount);\r\n    \r\n    \r\n\r\n\r\n    function initialize() public initializer {\r\n        __Ownable_init();\r\n    }\r\n\r\n    receive() external payable {\r\n        emit Paid(msg.sender, msg.value);\r\n    }\r\n\r\n    /**\r\n     * @notice Withdraws some funds from this contracy\r\n     * @param amount the amount of funds to winthdraw\r\n     */\r\n    function withdraw(uint256 amount) external onlyOwner {\r\n        require(\r\n            amount <= address(this).balance,\r\n            \"Requested amount is higher than currently deposited value\"\r\n        );\r\n       \r\n        (bool success, ) = msg.sender.call{value: amount}(\"\");\r\n        require(success, \"Transfer failed.\");\r\n        \r\n        emit Withdrawn(msg.sender, amount);\r\n    }\r\n\r\n    function sayHello() public pure returns(string memory){\r\n        return \"Hello from after the upgrade!\";\r\n    }\r\n \r\n}",
  "sourcePath": "C:\\Users\\sound\\Desktop\\MOTD\\meme-repo-copy\\src\\contracts\\src\\MOTDTreasuryV2.sol",
  "compiler": {
    "name": "solc",
    "version": "0.8.0+commit.c7dfd78e.Emscripten.clang"
  },
  "schemaVersion": "3.3.4",
  "updatedAt": "2021-04-28T13:37:50.171Z",
  "devdoc": {
    "author": "MemeOfTheDay",
    "kind": "dev",
    "methods": {
      "owner()": {
        "details": "Returns the address of the current owner."
      },
      "renounceOwnership()": {
        "details": "Leaves the contract without owner. It will not be possible to call `onlyOwner` functions anymore. Can only be called by the current owner. NOTE: Renouncing ownership will leave the contract without an owner, thereby removing any functionality that is only available to the owner."
      },
      "transferOwnership(address)": {
        "details": "Transfers ownership of the contract to a new account (`newOwner`). Can only be called by the current owner."
      },
      "withdraw(uint256)": {
        "params": {
          "amount": "the amount of funds to winthdraw"
        }
      }
    },
    "title": "MOTDTreasury",
    "version": 1
  },
  "userdoc": {
    "kind": "user",
    "methods": {
      "withdraw(uint256)": {
        "notice": "Withdraws some funds from this contracy"
      }
    },
    "notice": "A contract which holds the platform fees coming from meme sales",
    "version": 1
  }
}