{
  "contractName": "MOTDTreasury",
  "abi": [
    {
      "anonymous": false,
      "inputs": [
        {
          "indexed": true,
          "internalType": "address",
          "name": "previousOwner",
          "type": "address"
        },
        {
          "indexed": true,
          "internalType": "address",
          "name": "newOwner",
          "type": "address"
        }
      ],
      "name": "OwnershipTransferred",
      "type": "event"
    },
    {
      "anonymous": false,
      "inputs": [
        {
          "indexed": false,
          "internalType": "address",
          "name": "from",
          "type": "address"
        },
        {
          "indexed": false,
          "internalType": "uint256",
          "name": "amount",
          "type": "uint256"
        }
      ],
      "name": "Paid",
      "type": "event"
    },
    {
      "anonymous": false,
      "inputs": [
        {
          "indexed": false,
          "internalType": "address",
          "name": "by",
          "type": "address"
        },
        {
          "indexed": false,
          "internalType": "uint256",
          "name": "amount",
          "type": "uint256"
        }
      ],
      "name": "Withdrawn",
      "type": "event"
    },
    {
      "inputs": [],
      "name": "owner",
      "outputs": [
        {
          "internalType": "address",
          "name": "",
          "type": "address"
        }
      ],
      "stateMutability": "view",
      "type": "function"
    },
    {
      "inputs": [],
      "name": "renounceOwnership",
      "outputs": [],
      "stateMutability": "nonpayable",
      "type": "function"
    },
    {
      "inputs": [
        {
          "internalType": "address",
          "name": "newOwner",
          "type": "address"
        }
      ],
      "name": "transferOwnership",
      "outputs": [],
      "stateMutability": "nonpayable",
      "type": "function"
    },
    {
      "stateMutability": "payable",
      "type": "receive"
    },
    {
      "inputs": [],
      "name": "initialize",
      "outputs": [],
      "stateMutability": "nonpayable",
      "type": "function"
    },
    {
      "inputs": [
        {
          "internalType": "uint256",
          "name": "amount",
          "type": "uint256"
        }
      ],
      "name": "withdraw",
      "outputs": [],
      "stateMutability": "nonpayable",
      "type": "function"
    }
  ],
  "bytecode": "0x608060405234801561001057600080fd5b50610e41806100206000396000f3fe60806040526004361061004e5760003560e01c80632e1a7d4d14610093578063715018a6146100bc5780638129fc1c146100d35780638da5cb5b146100ea578063f2fde38b146101155761008e565b3661008e577f737c69225d647e5994eab1a6c301bf6d9232beb2759ae1e27a8966b4732bc4893334604051610084929190610cbc565b60405180910390a1005b600080fd5b34801561009f57600080fd5b506100ba60048036038101906100b59190610a79565b61013e565b005b3480156100c857600080fd5b506100d16102e6565b005b3480156100df57600080fd5b506100e8610423565b005b3480156100f657600080fd5b506100ff610504565b60405161010c9190610ca1565b60405180910390f35b34801561012157600080fd5b5061013c60048036038101906101379190610a50565b61052e565b005b6101466106da565b73ffffffffffffffffffffffffffffffffffffffff16610164610504565b73ffffffffffffffffffffffffffffffffffffffff16146101ba576040517f08c379a00000000000000000000000000000000000000000000000000000000081526004016101b190610d25565b60405180910390fd5b478111156101fd576040517f08c379a00000000000000000000000000000000000000000000000000000000081526004016101f490610d65565b60405180910390fd5b60003373ffffffffffffffffffffffffffffffffffffffff168260405161022390610c8c565b60006040518083038185875af1925050503d8060008114610260576040519150601f19603f3d011682016040523d82523d6000602084013e610265565b606091505b50509050806102a9576040517f08c379a00000000000000000000000000000000000000000000000000000000081526004016102a090610d45565b60405180910390fd5b7f7084f5476618d8e60b11ef0d7d3f06914655adb8793e28ff7f018d4c76d505d533836040516102da929190610cbc565b60405180910390a15050565b6102ee6106da565b73ffffffffffffffffffffffffffffffffffffffff1661030c610504565b73ffffffffffffffffffffffffffffffffffffffff1614610362576040517f08c379a000000000000000000000000000000000000000000000000000000000815260040161035990610d25565b60405180910390fd5b600073ffffffffffffffffffffffffffffffffffffffff16603360009054906101000a900473ffffffffffffffffffffffffffffffffffffffff1673ffffffffffffffffffffffffffffffffffffffff167f8be0079c531659141344cd1fd0a4f28419497f9722a3daafe3b4186f6b6457e060405160405180910390a36000603360006101000a81548173ffffffffffffffffffffffffffffffffffffffff021916908373ffffffffffffffffffffffffffffffffffffffff160217905550565b600060019054906101000a900460ff1680610449575060008054906101000a900460ff16155b610488576040517f08c379a000000000000000000000000000000000000000000000000000000000815260040161047f90610d05565b60405180910390fd5b60008060019054906101000a900460ff1615905080156104d8576001600060016101000a81548160ff02191690831515021790555060016000806101000a81548160ff0219169083151502179055505b6104e06106e2565b80156105015760008060016101000a81548160ff0219169083151502179055505b50565b6000603360009054906101000a900473ffffffffffffffffffffffffffffffffffffffff16905090565b6105366106da565b73ffffffffffffffffffffffffffffffffffffffff16610554610504565b73ffffffffffffffffffffffffffffffffffffffff16146105aa576040517f08c379a00000000000000000000000000000000000000000000000000000000081526004016105a190610d25565b60405180910390fd5b600073ffffffffffffffffffffffffffffffffffffffff168173ffffffffffffffffffffffffffffffffffffffff16141561061a576040517f08c379a000000000000000000000000000000000000000000000000000000000815260040161061190610ce5565b60405180910390fd5b8073ffffffffffffffffffffffffffffffffffffffff16603360009054906101000a900473ffffffffffffffffffffffffffffffffffffffff1673ffffffffffffffffffffffffffffffffffffffff167f8be0079c531659141344cd1fd0a4f28419497f9722a3daafe3b4186f6b6457e060405160405180910390a380603360006101000a81548173ffffffffffffffffffffffffffffffffffffffff021916908373ffffffffffffffffffffffffffffffffffffffff16021790555050565b600033905090565b600060019054906101000a900460ff1680610708575060008054906101000a900460ff16155b610747576040517f08c379a000000000000000000000000000000000000000000000000000000000815260040161073e90610d05565b60405180910390fd5b60008060019054906101000a900460ff161590508015610797576001600060016101000a81548160ff02191690831515021790555060016000806101000a81548160ff0219169083151502179055505b61079f6107cb565b6107a76108a4565b80156107c85760008060016101000a81548160ff0219169083151502179055505b50565b600060019054906101000a900460ff16806107f1575060008054906101000a900460ff16155b610830576040517f08c379a000000000000000000000000000000000000000000000000000000000815260040161082790610d05565b60405180910390fd5b60008060019054906101000a900460ff161590508015610880576001600060016101000a81548160ff02191690831515021790555060016000806101000a81548160ff0219169083151502179055505b80156108a15760008060016101000a81548160ff0219169083151502179055505b50565b600060019054906101000a900460ff16806108ca575060008054906101000a900460ff16155b610909576040517f08c379a000000000000000000000000000000000000000000000000000000000815260040161090090610d05565b60405180910390fd5b60008060019054906101000a900460ff161590508015610959576001600060016101000a81548160ff02191690831515021790555060016000806101000a81548160ff0219169083151502179055505b60006109636106da565b905080603360006101000a81548173ffffffffffffffffffffffffffffffffffffffff021916908373ffffffffffffffffffffffffffffffffffffffff1602179055508073ffffffffffffffffffffffffffffffffffffffff16600073ffffffffffffffffffffffffffffffffffffffff167f8be0079c531659141344cd1fd0a4f28419497f9722a3daafe3b4186f6b6457e060405160405180910390a3508015610a235760008060016101000a81548160ff0219169083151502179055505b50565b600081359050610a3581610ddd565b92915050565b600081359050610a4a81610df4565b92915050565b600060208284031215610a6257600080fd5b6000610a7084828501610a26565b91505092915050565b600060208284031215610a8b57600080fd5b6000610a9984828501610a3b565b91505092915050565b610aab81610da1565b82525050565b6000610abe602683610d90565b91507f4f776e61626c653a206e6577206f776e657220697320746865207a65726f206160008301527f64647265737300000000000000000000000000000000000000000000000000006020830152604082019050919050565b6000610b24602e83610d90565b91507f496e697469616c697a61626c653a20636f6e747261637420697320616c72656160008301527f647920696e697469616c697a65640000000000000000000000000000000000006020830152604082019050919050565b6000610b8a602083610d90565b91507f4f776e61626c653a2063616c6c6572206973206e6f7420746865206f776e65726000830152602082019050919050565b6000610bca600083610d85565b9150600082019050919050565b6000610be4601083610d90565b91507f5472616e73666572206661696c65642e000000000000000000000000000000006000830152602082019050919050565b6000610c24603983610d90565b91507f52657175657374656420616d6f756e7420697320686967686572207468616e2060008301527f63757272656e746c79206465706f73697465642076616c7565000000000000006020830152604082019050919050565b610c8681610dd3565b82525050565b6000610c9782610bbd565b9150819050919050565b6000602082019050610cb66000830184610aa2565b92915050565b6000604082019050610cd16000830185610aa2565b610cde6020830184610c7d565b9392505050565b60006020820190508181036000830152610cfe81610ab1565b9050919050565b60006020820190508181036000830152610d1e81610b17565b9050919050565b60006020820190508181036000830152610d3e81610b7d565b9050919050565b60006020820190508181036000830152610d5e81610bd7565b9050919050565b60006020820190508181036000830152610d7e81610c17565b9050919050565b600081905092915050565b600082825260208201905092915050565b6000610dac82610db3565b9050919050565b600073ffffffffffffffffffffffffffffffffffffffff82169050919050565b6000819050919050565b610de681610da1565b8114610df157600080fd5b50565b610dfd81610dd3565b8114610e0857600080fd5b5056fea264697066735822122089b9e2f518ef406f02a036413724f76f4f06cec79bdc09946c46d41d0754142964736f6c63430008000033",
  "immutableReferences": {},
  "source": "// SPDX-License-Identifier: MIT\r\npragma solidity ^0.8.0;\r\n\r\nimport \"../../../node_modules/@openzeppelin/contracts-upgradeable/access/OwnableUpgradeable.sol\";\r\nimport \"../../../node_modules/@openzeppelin/contracts-upgradeable/proxy/utils/Initializable.sol\";\r\n\r\n\r\n/**\r\n * @title MOTDTreasury\r\n * @notice A contract which holds the platform fees coming from meme sales\r\n * @author MemeOfTheDay\r\n */\r\ncontract MOTDTreasury is OwnableUpgradeable{\r\n\r\n    \r\n    event Paid(address from, uint256 amount);\r\n    event Withdrawn(address by, uint256 amount);\r\n    \r\n    \r\n\r\n\r\n    function initialize() public initializer {\r\n        __Ownable_init();\r\n    }\r\n\r\n    /**\r\n     * @notice Withdraws some funds from this contracy\r\n     * @param amount the amount of funds to winthdraw\r\n     */\r\n    function withdraw(uint256 amount) external onlyOwner {\r\n        require(\r\n            amount <= address(this).balance,\r\n            \"Requested amount is higher than currently deposited value\"\r\n        );\r\n       \r\n        (bool success, ) = msg.sender.call{value: amount}(\"\");\r\n        require(success, \"Transfer failed.\");\r\n        \r\n\r\n        emit Withdrawn(msg.sender, amount);\r\n    }\r\n \r\n      receive() external payable {\r\n        emit Paid(msg.sender, msg.value);\r\n    }\r\n\r\n}",
  "sourcePath": "C:\\Users\\sound\\Desktop\\MOTD\\meme-repo-copy\\src\\contracts\\src\\MOTDTreasury.sol",
  "compiler": {
    "name": "solc",
    "version": "0.8.0+commit.c7dfd78e.Emscripten.clang"
  },
  "schemaVersion": "3.3.4",
  "updatedAt": "2021-05-01T15:31:20.855Z",
  "devdoc": {
    "author": "MemeOfTheDay",
    "kind": "dev",
    "methods": {
      "owner()": {
        "details": "Returns the address of the current owner."
      },
      "renounceOwnership()": {
        "details": "Leaves the contract without owner. It will not be possible to call `onlyOwner` functions anymore. Can only be called by the current owner. NOTE: Renouncing ownership will leave the contract without an owner, thereby removing any functionality that is only available to the owner."
      },
      "transferOwnership(address)": {
        "details": "Transfers ownership of the contract to a new account (`newOwner`). Can only be called by the current owner."
      },
      "withdraw(uint256)": {
        "params": {
          "amount": "the amount of funds to winthdraw"
        }
      }
    },
    "title": "MOTDTreasury",
    "version": 1
  },
  "userdoc": {
    "kind": "user",
    "methods": {
      "withdraw(uint256)": {
        "notice": "Withdraws some funds from this contracy"
      }
    },
    "notice": "A contract which holds the platform fees coming from meme sales",
    "version": 1
  }
}