{
  "contractName": "MOTDTreasuryV4Pause",
  "abi": [
    {
      "anonymous": false,
      "inputs": [
        {
          "indexed": true,
          "internalType": "address",
          "name": "previousOwner",
          "type": "address"
        },
        {
          "indexed": true,
          "internalType": "address",
          "name": "newOwner",
          "type": "address"
        }
      ],
      "name": "OwnershipTransferred",
      "type": "event"
    },
    {
      "anonymous": false,
      "inputs": [
        {
          "indexed": false,
          "internalType": "address",
          "name": "from",
          "type": "address"
        },
        {
          "indexed": false,
          "internalType": "uint256",
          "name": "amount",
          "type": "uint256"
        }
      ],
      "name": "Paid",
      "type": "event"
    },
    {
      "anonymous": false,
      "inputs": [
        {
          "indexed": false,
          "internalType": "address",
          "name": "account",
          "type": "address"
        }
      ],
      "name": "Paused",
      "type": "event"
    },
    {
      "anonymous": false,
      "inputs": [
        {
          "indexed": false,
          "internalType": "address",
          "name": "account",
          "type": "address"
        }
      ],
      "name": "Unpaused",
      "type": "event"
    },
    {
      "anonymous": false,
      "inputs": [
        {
          "indexed": false,
          "internalType": "address",
          "name": "by",
          "type": "address"
        },
        {
          "indexed": false,
          "internalType": "uint256",
          "name": "amount",
          "type": "uint256"
        }
      ],
      "name": "Withdrawn",
      "type": "event"
    },
    {
      "inputs": [],
      "name": "owner",
      "outputs": [
        {
          "internalType": "address",
          "name": "",
          "type": "address"
        }
      ],
      "stateMutability": "view",
      "type": "function",
      "constant": true
    },
    {
      "inputs": [],
      "name": "paused",
      "outputs": [
        {
          "internalType": "bool",
          "name": "",
          "type": "bool"
        }
      ],
      "stateMutability": "view",
      "type": "function",
      "constant": true
    },
    {
      "inputs": [],
      "name": "renounceOwnership",
      "outputs": [],
      "stateMutability": "nonpayable",
      "type": "function"
    },
    {
      "inputs": [
        {
          "internalType": "address",
          "name": "newOwner",
          "type": "address"
        }
      ],
      "name": "transferOwnership",
      "outputs": [],
      "stateMutability": "nonpayable",
      "type": "function"
    },
    {
      "stateMutability": "payable",
      "type": "receive",
      "payable": true
    },
    {
      "inputs": [],
      "name": "initialize",
      "outputs": [],
      "stateMutability": "nonpayable",
      "type": "function"
    },
    {
      "inputs": [
        {
          "internalType": "uint256",
          "name": "amount",
          "type": "uint256"
        }
      ],
      "name": "withdraw",
      "outputs": [],
      "stateMutability": "nonpayable",
      "type": "function"
    },
    {
      "inputs": [],
      "name": "pause",
      "outputs": [],
      "stateMutability": "nonpayable",
      "type": "function"
    },
    {
      "inputs": [],
      "name": "unpause",
      "outputs": [],
      "stateMutability": "nonpayable",
      "type": "function"
    },
    {
      "inputs": [],
      "name": "sayHello",
      "outputs": [
        {
          "internalType": "string",
          "name": "",
          "type": "string"
        }
      ],
      "stateMutability": "pure",
      "type": "function",
      "constant": true
    }
  ],
  "bytecode": "0x608060405234801561001057600080fd5b50611620806100206000396000f3fe60806040526004361061008a5760003560e01c80638129fc1c116100595780638129fc1c146101515780638456cb59146101685780638da5cb5b1461017f578063ef5fb05b146101aa578063f2fde38b146101d5576100ca565b80632e1a7d4d146100cf5780633f4ba83a146100f85780635c975abb1461010f578063715018a61461013a576100ca565b366100ca577f737c69225d647e5994eab1a6c301bf6d9232beb2759ae1e27a8966b4732bc48933346040516100c0929190611388565b60405180910390a1005b600080fd5b3480156100db57600080fd5b506100f660048036038101906100f1919061107d565b6101fe565b005b34801561010457600080fd5b5061010d6103ee565b005b34801561011b57600080fd5b506101246104bb565b60405161013191906113b1565b60405180910390f35b34801561014657600080fd5b5061014f6104d2565b005b34801561015d57600080fd5b5061016661060f565b005b34801561017457600080fd5b5061017d6106f8565b005b34801561018b57600080fd5b506101946107c6565b6040516101a1919061136d565b60405180910390f35b3480156101b657600080fd5b506101bf6107f0565b6040516101cc91906113cc565b60405180910390f35b3480156101e157600080fd5b506101fc60048036038101906101f79190611054565b610810565b005b6102066109bc565b73ffffffffffffffffffffffffffffffffffffffff166102246107c6565b73ffffffffffffffffffffffffffffffffffffffff161461027a576040517f08c379a00000000000000000000000000000000000000000000000000000000081526004016102719061146e565b60405180910390fd5b6102826104bb565b156102c2576040517f08c379a00000000000000000000000000000000000000000000000000000000081526004016102b99061142e565b60405180910390fd5b47811115610305576040517f08c379a00000000000000000000000000000000000000000000000000000000081526004016102fc906114ae565b60405180910390fd5b60003373ffffffffffffffffffffffffffffffffffffffff168260405161032b90611358565b60006040518083038185875af1925050503d8060008114610368576040519150601f19603f3d011682016040523d82523d6000602084013e61036d565b606091505b50509050806103b1576040517f08c379a00000000000000000000000000000000000000000000000000000000081526004016103a89061148e565b60405180910390fd5b7f7084f5476618d8e60b11ef0d7d3f06914655adb8793e28ff7f018d4c76d505d533836040516103e2929190611388565b60405180910390a15050565b6103f66104bb565b610435576040517f08c379a000000000000000000000000000000000000000000000000000000000815260040161042c906113ee565b60405180910390fd5b61043d6109bc565b73ffffffffffffffffffffffffffffffffffffffff1661045b6107c6565b73ffffffffffffffffffffffffffffffffffffffff16146104b1576040517f08c379a00000000000000000000000000000000000000000000000000000000081526004016104a89061146e565b60405180910390fd5b6104b96109c4565b565b6000606560009054906101000a900460ff16905090565b6104da6109bc565b73ffffffffffffffffffffffffffffffffffffffff166104f86107c6565b73ffffffffffffffffffffffffffffffffffffffff161461054e576040517f08c379a00000000000000000000000000000000000000000000000000000000081526004016105459061146e565b60405180910390fd5b600073ffffffffffffffffffffffffffffffffffffffff16603360009054906101000a900473ffffffffffffffffffffffffffffffffffffffff1673ffffffffffffffffffffffffffffffffffffffff167f8be0079c531659141344cd1fd0a4f28419497f9722a3daafe3b4186f6b6457e060405160405180910390a36000603360006101000a81548173ffffffffffffffffffffffffffffffffffffffff021916908373ffffffffffffffffffffffffffffffffffffffff160217905550565b600060019054906101000a900460ff1680610635575060008054906101000a900460ff16155b610674576040517f08c379a000000000000000000000000000000000000000000000000000000000815260040161066b9061144e565b60405180910390fd5b60008060019054906101000a900460ff1615905080156106c4576001600060016101000a81548160ff02191690831515021790555060016000806101000a81548160ff0219169083151502179055505b6106cc610a66565b6106d4610b4f565b80156106f55760008060016101000a81548160ff0219169083151502179055505b50565b6107006104bb565b15610740576040517f08c379a00000000000000000000000000000000000000000000000000000000081526004016107379061142e565b60405180910390fd5b6107486109bc565b73ffffffffffffffffffffffffffffffffffffffff166107666107c6565b73ffffffffffffffffffffffffffffffffffffffff16146107bc576040517f08c379a00000000000000000000000000000000000000000000000000000000081526004016107b39061146e565b60405180910390fd5b6107c4610c38565b565b6000603360009054906101000a900473ffffffffffffffffffffffffffffffffffffffff16905090565b60606040518060600160405280603b81526020016115b0603b9139905090565b6108186109bc565b73ffffffffffffffffffffffffffffffffffffffff166108366107c6565b73ffffffffffffffffffffffffffffffffffffffff161461088c576040517f08c379a00000000000000000000000000000000000000000000000000000000081526004016108839061146e565b60405180910390fd5b600073ffffffffffffffffffffffffffffffffffffffff168173ffffffffffffffffffffffffffffffffffffffff1614156108fc576040517f08c379a00000000000000000000000000000000000000000000000000000000081526004016108f39061140e565b60405180910390fd5b8073ffffffffffffffffffffffffffffffffffffffff16603360009054906101000a900473ffffffffffffffffffffffffffffffffffffffff1673ffffffffffffffffffffffffffffffffffffffff167f8be0079c531659141344cd1fd0a4f28419497f9722a3daafe3b4186f6b6457e060405160405180910390a380603360006101000a81548173ffffffffffffffffffffffffffffffffffffffff021916908373ffffffffffffffffffffffffffffffffffffffff16021790555050565b600033905090565b6109cc6104bb565b610a0b576040517f08c379a0000000000000000000000000000000000000000000000000000000008152600401610a02906113ee565b60405180910390fd5b6000606560006101000a81548160ff0219169083151502179055507f5db9ee0a495bf2e6ff9c91a7834c1ba4fdd244a5e8aa4e537bd38aeae4b073aa610a4f6109bc565b604051610a5c919061136d565b60405180910390a1565b600060019054906101000a900460ff1680610a8c575060008054906101000a900460ff16155b610acb576040517f08c379a0000000000000000000000000000000000000000000000000000000008152600401610ac29061144e565b60405180910390fd5b60008060019054906101000a900460ff161590508015610b1b576001600060016101000a81548160ff02191690831515021790555060016000806101000a81548160ff0219169083151502179055505b610b23610cdb565b610b2b610db4565b8015610b4c5760008060016101000a81548160ff0219169083151502179055505b50565b600060019054906101000a900460ff1680610b75575060008054906101000a900460ff16155b610bb4576040517f08c379a0000000000000000000000000000000000000000000000000000000008152600401610bab9061144e565b60405180910390fd5b60008060019054906101000a900460ff161590508015610c04576001600060016101000a81548160ff02191690831515021790555060016000806101000a81548160ff0219169083151502179055505b610c0c610cdb565b610c14610f36565b8015610c355760008060016101000a81548160ff0219169083151502179055505b50565b610c406104bb565b15610c80576040517f08c379a0000000000000000000000000000000000000000000000000000000008152600401610c779061142e565b60405180910390fd5b6001606560006101000a81548160ff0219169083151502179055507f62e78cea01bee320cd4e420270b5ea74000d11b0c9f74754ebdbfc544b05a258610cc46109bc565b604051610cd1919061136d565b60405180910390a1565b600060019054906101000a900460ff1680610d01575060008054906101000a900460ff16155b610d40576040517f08c379a0000000000000000000000000000000000000000000000000000000008152600401610d379061144e565b60405180910390fd5b60008060019054906101000a900460ff161590508015610d90576001600060016101000a81548160ff02191690831515021790555060016000806101000a81548160ff0219169083151502179055505b8015610db15760008060016101000a81548160ff0219169083151502179055505b50565b600060019054906101000a900460ff1680610dda575060008054906101000a900460ff16155b610e19576040517f08c379a0000000000000000000000000000000000000000000000000000000008152600401610e109061144e565b60405180910390fd5b60008060019054906101000a900460ff161590508015610e69576001600060016101000a81548160ff02191690831515021790555060016000806101000a81548160ff0219169083151502179055505b6000610e736109bc565b905080603360006101000a81548173ffffffffffffffffffffffffffffffffffffffff021916908373ffffffffffffffffffffffffffffffffffffffff1602179055508073ffffffffffffffffffffffffffffffffffffffff16600073ffffffffffffffffffffffffffffffffffffffff167f8be0079c531659141344cd1fd0a4f28419497f9722a3daafe3b4186f6b6457e060405160405180910390a3508015610f335760008060016101000a81548160ff0219169083151502179055505b50565b600060019054906101000a900460ff1680610f5c575060008054906101000a900460ff16155b610f9b576040517f08c379a0000000000000000000000000000000000000000000000000000000008152600401610f929061144e565b60405180910390fd5b60008060019054906101000a900460ff161590508015610feb576001600060016101000a81548160ff02191690831515021790555060016000806101000a81548160ff0219169083151502179055505b6000606560006101000a81548160ff02191690831515021790555080156110275760008060016101000a81548160ff0219169083151502179055505b50565b60008135905061103981611581565b92915050565b60008135905061104e81611598565b92915050565b60006020828403121561106657600080fd5b60006110748482850161102a565b91505092915050565b60006020828403121561108f57600080fd5b600061109d8482850161103f565b91505092915050565b6110af816114f5565b82525050565b6110be81611507565b82525050565b60006110cf826114ce565b6110d981856114e4565b93506110e981856020860161153d565b6110f281611570565b840191505092915050565b600061110a6014836114e4565b91507f5061757361626c653a206e6f74207061757365640000000000000000000000006000830152602082019050919050565b600061114a6026836114e4565b91507f4f776e61626c653a206e6577206f776e657220697320746865207a65726f206160008301527f64647265737300000000000000000000000000000000000000000000000000006020830152604082019050919050565b60006111b06010836114e4565b91507f5061757361626c653a20706175736564000000000000000000000000000000006000830152602082019050919050565b60006111f0602e836114e4565b91507f496e697469616c697a61626c653a20636f6e747261637420697320616c72656160008301527f647920696e697469616c697a65640000000000000000000000000000000000006020830152604082019050919050565b60006112566020836114e4565b91507f4f776e61626c653a2063616c6c6572206973206e6f7420746865206f776e65726000830152602082019050919050565b60006112966000836114d9565b9150600082019050919050565b60006112b06010836114e4565b91507f5472616e73666572206661696c65642e000000000000000000000000000000006000830152602082019050919050565b60006112f06039836114e4565b91507f52657175657374656420616d6f756e7420697320686967686572207468616e2060008301527f63757272656e746c79206465706f73697465642076616c7565000000000000006020830152604082019050919050565b61135281611533565b82525050565b600061136382611289565b9150819050919050565b600060208201905061138260008301846110a6565b92915050565b600060408201905061139d60008301856110a6565b6113aa6020830184611349565b9392505050565b60006020820190506113c660008301846110b5565b92915050565b600060208201905081810360008301526113e681846110c4565b905092915050565b60006020820190508181036000830152611407816110fd565b9050919050565b600060208201905081810360008301526114278161113d565b9050919050565b60006020820190508181036000830152611447816111a3565b9050919050565b60006020820190508181036000830152611467816111e3565b9050919050565b6000602082019050818103600083015261148781611249565b9050919050565b600060208201905081810360008301526114a7816112a3565b9050919050565b600060208201905081810360008301526114c7816112e3565b9050919050565b600081519050919050565b600081905092915050565b600082825260208201905092915050565b600061150082611513565b9050919050565b60008115159050919050565b600073ffffffffffffffffffffffffffffffffffffffff82169050919050565b6000819050919050565b60005b8381101561155b578082015181840152602081019050611540565b8381111561156a576000848401525b50505050565b6000601f19601f8301169050919050565b61158a816114f5565b811461159557600080fd5b50565b6115a181611533565b81146115ac57600080fd5b5056fe48656c6c6f2066726f6d206166746572207468652050726f787920557067726164652121204920616d20746865206e65772066756e6374696f6e21a2646970667358221220909d80435c85fe7bc5ddc775d48b17e5bac3105527b36136c38eb8b8161128df64736f6c63430008000033",
  "immutableReferences": {},
  "source": "// SPDX-License-Identifier: MIT\r\npragma solidity ^0.8.0;\r\n\r\nimport \"../../../node_modules/@openzeppelin/contracts-upgradeable/access/OwnableUpgradeable.sol\";\r\nimport \"../../../node_modules/@openzeppelin/contracts-upgradeable/proxy/utils/Initializable.sol\";\r\nimport \"../../../node_modules/@openzeppelin/contracts-upgradeable/security/PausableUpgradeable.sol\";\r\n\r\n\r\n/**\r\n * @title MOTDTreasury\r\n * @notice A contract which holds the platform fees coming from meme sales\r\n * @author MemeOfTheDay\r\n */\r\ncontract MOTDTreasuryV4Pause is OwnableUpgradeable, PausableUpgradeable {\r\n\r\n    \r\n    event Paid(address from, uint256 amount);\r\n    event Withdrawn(address by, uint256 amount);\r\n    \r\n    \r\n\r\n    //Due to UPGRADEABILITY, Initializer is used!\r\n    function initialize() public initializer {\r\n        __Ownable_init();\r\n        __Pausable_init();\r\n    }\r\n\r\n    receive() external payable {\r\n        emit Paid(msg.sender, msg.value);\r\n    }\r\n\r\n    /**\r\n     * @notice Withdraws some funds from this contract\r\n     * @param amount the amount of funds to winthdraw\r\n     */\r\n    function withdraw(uint256 amount) external onlyOwner whenNotPaused {\r\n        require(\r\n            amount <= address(this).balance,\r\n            \"Requested amount is higher than currently deposited value\"\r\n        );\r\n       \r\n        (bool success, ) = msg.sender.call{value: amount}(\"\");\r\n        require(success, \"Transfer failed.\");\r\n        \r\n        emit Withdrawn(msg.sender, amount);\r\n    }\r\n\r\n    //USED TO PAUSE THIS CONTRACT, ONLY POSSIBLE WHEN NOT PAUSED!\r\n    function pause() public whenNotPaused onlyOwner {\r\n        _pause();\r\n    }\r\n\r\n    //USED TO UNPAUSE THIS CONTRACT, ONLY POSSIBLE WHEN PAUSED!\r\n    function unpause() public whenPaused onlyOwner {\r\n        _unpause();\r\n    }\r\n\r\n    function sayHello() public pure returns(string memory){\r\n        return \"Hello from after the Proxy Upgrade!! I am the new function!\";\r\n    }\r\n     \r\n}",
  "sourcePath": "C:\\Users\\sound\\Desktop\\MOTD\\meme-repo-copy\\src\\contracts\\src\\MOTDTreasuryV4Pause.sol",
  "compiler": {
    "name": "solc",
    "version": "0.8.0+commit.c7dfd78e.Emscripten.clang"
  },
  "schemaVersion": "3.3.4",
  "updatedAt": "2021-05-01T15:33:14.240Z",
  "networkType": "ethereum",
  "devdoc": {
    "author": "MemeOfTheDay",
    "kind": "dev",
    "methods": {
      "owner()": {
        "details": "Returns the address of the current owner."
      },
      "paused()": {
        "details": "Returns true if the contract is paused, and false otherwise."
      },
      "renounceOwnership()": {
        "details": "Leaves the contract without owner. It will not be possible to call `onlyOwner` functions anymore. Can only be called by the current owner. NOTE: Renouncing ownership will leave the contract without an owner, thereby removing any functionality that is only available to the owner."
      },
      "transferOwnership(address)": {
        "details": "Transfers ownership of the contract to a new account (`newOwner`). Can only be called by the current owner."
      },
      "withdraw(uint256)": {
        "params": {
          "amount": "the amount of funds to winthdraw"
        }
      }
    },
    "title": "MOTDTreasury",
    "version": 1
  },
  "userdoc": {
    "kind": "user",
    "methods": {
      "withdraw(uint256)": {
        "notice": "Withdraws some funds from this contract"
      }
    },
    "notice": "A contract which holds the platform fees coming from meme sales",
    "version": 1
  }
}