{
  "contractName": "MOTDSaleParametersProvider",
  "abi": [
    {
      "anonymous": false,
      "inputs": [
        {
          "indexed": true,
          "internalType": "address",
          "name": "previousOwner",
          "type": "address"
        },
        {
          "indexed": true,
          "internalType": "address",
          "name": "newOwner",
          "type": "address"
        }
      ],
      "name": "OwnershipTransferred",
      "type": "event"
    },
    {
      "inputs": [],
      "name": "DEFAULT_CREATOR_FEE_PERCENT_INDEX",
      "outputs": [
        {
          "internalType": "uint256",
          "name": "",
          "type": "uint256"
        }
      ],
      "stateMutability": "view",
      "type": "function"
    },
    {
      "inputs": [],
      "name": "PLATFORM_FEE_PERCENT_INDEX",
      "outputs": [
        {
          "internalType": "uint256",
          "name": "",
          "type": "uint256"
        }
      ],
      "stateMutability": "view",
      "type": "function"
    },
    {
      "inputs": [],
      "name": "TOTAL_FEES_PERCENT_INDEX",
      "outputs": [
        {
          "internalType": "uint256",
          "name": "",
          "type": "uint256"
        }
      ],
      "stateMutability": "view",
      "type": "function"
    },
    {
      "inputs": [],
      "name": "VOTERS_FEE_PERCENT_INDEX",
      "outputs": [
        {
          "internalType": "uint256",
          "name": "",
          "type": "uint256"
        }
      ],
      "stateMutability": "view",
      "type": "function"
    },
    {
      "inputs": [],
      "name": "owner",
      "outputs": [
        {
          "internalType": "address",
          "name": "",
          "type": "address"
        }
      ],
      "stateMutability": "view",
      "type": "function"
    },
    {
      "inputs": [
        {
          "internalType": "uint256",
          "name": "",
          "type": "uint256"
        }
      ],
      "name": "parameters",
      "outputs": [
        {
          "internalType": "uint256",
          "name": "",
          "type": "uint256"
        }
      ],
      "stateMutability": "view",
      "type": "function"
    },
    {
      "inputs": [],
      "name": "renounceOwnership",
      "outputs": [],
      "stateMutability": "nonpayable",
      "type": "function"
    },
    {
      "inputs": [
        {
          "internalType": "address",
          "name": "newOwner",
          "type": "address"
        }
      ],
      "name": "transferOwnership",
      "outputs": [],
      "stateMutability": "nonpayable",
      "type": "function"
    },
    {
      "inputs": [],
      "name": "initialize",
      "outputs": [],
      "stateMutability": "nonpayable",
      "type": "function"
    },
    {
      "inputs": [
        {
          "internalType": "uint256",
          "name": "paramIndex",
          "type": "uint256"
        },
        {
          "internalType": "uint256",
          "name": "paramValue",
          "type": "uint256"
        }
      ],
      "name": "changeParameter",
      "outputs": [],
      "stateMutability": "nonpayable",
      "type": "function"
    }
  ],
  "bytecode": "0x608060405234801561001057600080fd5b50610f2b806100206000396000f3fe608060405234801561001057600080fd5b506004361061009e5760003560e01c8063715018a611610066578063715018a61461014b5780638129fc1c146101555780638da5cb5b1461015f578063f07237e01461017d578063f2fde38b146101995761009e565b80632648cd80146100a35780632a4a9dd1146100c15780633e2dce1e146100f1578063443139f11461010f5780634eda81141461012d575b600080fd5b6100ab6101b5565b6040516100b89190610dda565b60405180910390f35b6100db60048036038101906100d69190610b4a565b6101ba565b6040516100e89190610dda565b60405180910390f35b6100f96101d2565b6040516101069190610dda565b60405180910390f35b6101176101d7565b6040516101249190610dda565b60405180910390f35b6101356101dc565b6040516101429190610dda565b60405180910390f35b6101536101e1565b005b61015d61031e565b005b610167610498565b6040516101749190610d3f565b60405180910390f35b61019760048036038101906101929190610b73565b6104c2565b005b6101b360048036038101906101ae9190610b21565b6105ff565b005b600281565b60656020528060005260406000206000915090505481565b600181565b600081565b600381565b6101e96107ab565b73ffffffffffffffffffffffffffffffffffffffff16610207610498565b73ffffffffffffffffffffffffffffffffffffffff161461025d576040517f08c379a000000000000000000000000000000000000000000000000000000000815260040161025490610d9a565b60405180910390fd5b600073ffffffffffffffffffffffffffffffffffffffff16603360009054906101000a900473ffffffffffffffffffffffffffffffffffffffff1673ffffffffffffffffffffffffffffffffffffffff167f8be0079c531659141344cd1fd0a4f28419497f9722a3daafe3b4186f6b6457e060405160405180910390a36000603360006101000a81548173ffffffffffffffffffffffffffffffffffffffff021916908373ffffffffffffffffffffffffffffffffffffffff160217905550565b600060019054906101000a900460ff1680610344575060008054906101000a900460ff16155b610383576040517f08c379a000000000000000000000000000000000000000000000000000000000815260040161037a90610d7a565b60405180910390fd5b60008060019054906101000a900460ff1615905080156103d3576001600060016101000a81548160ff02191690831515021790555060016000806101000a81548160ff0219169083151502179055505b6103db6107b3565b606460656000808152602001908152602001600020819055506005606560006001815260200190815260200160002081905550601360656000600281526020019081526020016000208190555060656000600281526020019081526020016000205460656000600181526020019081526020016000205461045c9190610e06565b60656000600381526020019081526020016000208190555080156104955760008060016101000a81548160ff0219169083151502179055505b50565b6000603360009054906101000a900473ffffffffffffffffffffffffffffffffffffffff16905090565b6104ca6107ab565b73ffffffffffffffffffffffffffffffffffffffff166104e8610498565b73ffffffffffffffffffffffffffffffffffffffff161461053e576040517f08c379a000000000000000000000000000000000000000000000000000000000815260040161053590610d9a565b60405180910390fd5b6002821115610582576040517f08c379a000000000000000000000000000000000000000000000000000000000815260040161057990610dba565b60405180910390fd5b80606560008481526020019081526020016000208190555060018214806105a95750600282145b156105fb576065600060028152602001908152602001600020546065600060018152602001908152602001600020546105e29190610e06565b6065600060038152602001908152602001600020819055505b5050565b6106076107ab565b73ffffffffffffffffffffffffffffffffffffffff16610625610498565b73ffffffffffffffffffffffffffffffffffffffff161461067b576040517f08c379a000000000000000000000000000000000000000000000000000000000815260040161067290610d9a565b60405180910390fd5b600073ffffffffffffffffffffffffffffffffffffffff168173ffffffffffffffffffffffffffffffffffffffff1614156106eb576040517f08c379a00000000000000000000000000000000000000000000000000000000081526004016106e290610d5a565b60405180910390fd5b8073ffffffffffffffffffffffffffffffffffffffff16603360009054906101000a900473ffffffffffffffffffffffffffffffffffffffff1673ffffffffffffffffffffffffffffffffffffffff167f8be0079c531659141344cd1fd0a4f28419497f9722a3daafe3b4186f6b6457e060405160405180910390a380603360006101000a81548173ffffffffffffffffffffffffffffffffffffffff021916908373ffffffffffffffffffffffffffffffffffffffff16021790555050565b600033905090565b600060019054906101000a900460ff16806107d9575060008054906101000a900460ff16155b610818576040517f08c379a000000000000000000000000000000000000000000000000000000000815260040161080f90610d7a565b60405180910390fd5b60008060019054906101000a900460ff161590508015610868576001600060016101000a81548160ff02191690831515021790555060016000806101000a81548160ff0219169083151502179055505b61087061089c565b610878610975565b80156108995760008060016101000a81548160ff0219169083151502179055505b50565b600060019054906101000a900460ff16806108c2575060008054906101000a900460ff16155b610901576040517f08c379a00000000000000000000000000000000000000000000000000000000081526004016108f890610d7a565b60405180910390fd5b60008060019054906101000a900460ff161590508015610951576001600060016101000a81548160ff02191690831515021790555060016000806101000a81548160ff0219169083151502179055505b80156109725760008060016101000a81548160ff0219169083151502179055505b50565b600060019054906101000a900460ff168061099b575060008054906101000a900460ff16155b6109da576040517f08c379a00000000000000000000000000000000000000000000000000000000081526004016109d190610d7a565b60405180910390fd5b60008060019054906101000a900460ff161590508015610a2a576001600060016101000a81548160ff02191690831515021790555060016000806101000a81548160ff0219169083151502179055505b6000610a346107ab565b905080603360006101000a81548173ffffffffffffffffffffffffffffffffffffffff021916908373ffffffffffffffffffffffffffffffffffffffff1602179055508073ffffffffffffffffffffffffffffffffffffffff16600073ffffffffffffffffffffffffffffffffffffffff167f8be0079c531659141344cd1fd0a4f28419497f9722a3daafe3b4186f6b6457e060405160405180910390a3508015610af45760008060016101000a81548160ff0219169083151502179055505b50565b600081359050610b0681610ec7565b92915050565b600081359050610b1b81610ede565b92915050565b600060208284031215610b3357600080fd5b6000610b4184828501610af7565b91505092915050565b600060208284031215610b5c57600080fd5b6000610b6a84828501610b0c565b91505092915050565b60008060408385031215610b8657600080fd5b6000610b9485828601610b0c565b9250506020610ba585828601610b0c565b9150509250929050565b610bb881610e5c565b82525050565b6000610bcb602683610df5565b91507f4f776e61626c653a206e6577206f776e657220697320746865207a65726f206160008301527f64647265737300000000000000000000000000000000000000000000000000006020830152604082019050919050565b6000610c31602e83610df5565b91507f496e697469616c697a61626c653a20636f6e747261637420697320616c72656160008301527f647920696e697469616c697a65640000000000000000000000000000000000006020830152604082019050919050565b6000610c97602083610df5565b91507f4f776e61626c653a2063616c6c6572206973206e6f7420746865206f776e65726000830152602082019050919050565b6000610cd7603383610df5565b91507f496e76616c696420706172616d6574657220696e6465783a206d75737420626560008301527f206c657373206f7220657175616c20746f2032000000000000000000000000006020830152604082019050919050565b610d3981610e8e565b82525050565b6000602082019050610d546000830184610baf565b92915050565b60006020820190508181036000830152610d7381610bbe565b9050919050565b60006020820190508181036000830152610d9381610c24565b9050919050565b60006020820190508181036000830152610db381610c8a565b9050919050565b60006020820190508181036000830152610dd381610cca565b9050919050565b6000602082019050610def6000830184610d30565b92915050565b600082825260208201905092915050565b6000610e1182610e8e565b9150610e1c83610e8e565b9250827fffffffffffffffffffffffffffffffffffffffffffffffffffffffffffffffff03821115610e5157610e50610e98565b5b828201905092915050565b6000610e6782610e6e565b9050919050565b600073ffffffffffffffffffffffffffffffffffffffff82169050919050565b6000819050919050565b7f4e487b7100000000000000000000000000000000000000000000000000000000600052601160045260246000fd5b610ed081610e5c565b8114610edb57600080fd5b50565b610ee781610e8e565b8114610ef257600080fd5b5056fea2646970667358221220ac9a7550f73c8126758aa1e8ca06c7f2db693f67469dbc1d730c59f68c7d2c4264736f6c63430008000033",
  "immutableReferences": {},
  "source": "// SPDX-License-Identifier: MIT\r\npragma solidity ^0.8.0;\r\n\r\nimport \"../../../node_modules/@openzeppelin/contracts-upgradeable/access/OwnableUpgradeable.sol\";\r\nimport \"../../../node_modules/@openzeppelin/contracts-upgradeable/proxy/utils/Initializable.sol\";\r\n/**\r\n * @title MOTDSaleParametersProvider\r\n * @notice A contract which holds all parameters necessary to calculate fees during sale\r\n * @author MemeOfTheDay\r\n */\r\ncontract MOTDSaleParametersProvider is OwnableUpgradeable {\r\n    uint256 public constant DEFAULT_CREATOR_FEE_PERCENT_INDEX = 0;\r\n    uint256 public constant VOTERS_FEE_PERCENT_INDEX = 1;\r\n    uint256 public constant PLATFORM_FEE_PERCENT_INDEX = 2;\r\n    uint256 public constant TOTAL_FEES_PERCENT_INDEX = 3;\r\n\r\n    mapping(uint256 => uint256) public parameters;\r\n\r\n    function initialize() public initializer{\r\n        __Ownable_init();\r\n        \r\n          parameters[DEFAULT_CREATOR_FEE_PERCENT_INDEX] = 100; // 10% (default) or custom% set by creator when minting\r\n        parameters[VOTERS_FEE_PERCENT_INDEX] = 5; // 0.5%\r\n        parameters[PLATFORM_FEE_PERCENT_INDEX] = 19; // 1.9%\r\n        parameters[TOTAL_FEES_PERCENT_INDEX] =\r\n            parameters[VOTERS_FEE_PERCENT_INDEX] +\r\n            parameters[PLATFORM_FEE_PERCENT_INDEX];\r\n    }\r\n    // Here percents are expressed as perthousands, since in Solidity float numbers don't exist\r\n    // constructor() public {\r\n    //     parameters[DEFAULT_CREATOR_FEE_PERCENT_INDEX] = 100; // 10% (default) or custom% set by creator when minting\r\n    //     parameters[VOTERS_FEE_PERCENT_INDEX] = 5; // 0.5%\r\n    //     parameters[PLATFORM_FEE_PERCENT_INDEX] = 19; // 1.9%\r\n    //     parameters[TOTAL_FEES_PERCENT_INDEX] =\r\n    //         parameters[VOTERS_FEE_PERCENT_INDEX] +\r\n    //         parameters[PLATFORM_FEE_PERCENT_INDEX];\r\n    // }\r\n\r\n    /**\r\n     * @notice Changes one of the parameters with the given value\r\n     * @param paramIndex the index of the parameter in the mapping\r\n     * @param paramValue the new value to set to that parameter\r\n     */\r\n    function changeParameter(uint256 paramIndex, uint256 paramValue)\r\n        external\r\n        onlyOwner\r\n    {\r\n        require(\r\n            paramIndex <= 2,\r\n            \"Invalid parameter index: must be less or equal to 2\" // must be less than 3 because TOTAL_FEES_PERCENT is always derived, can't be set directly\r\n        );\r\n        parameters[paramIndex] = paramValue;\r\n\r\n        if (\r\n            paramIndex == VOTERS_FEE_PERCENT_INDEX ||\r\n            paramIndex == PLATFORM_FEE_PERCENT_INDEX\r\n        ) {\r\n            parameters[TOTAL_FEES_PERCENT_INDEX] =\r\n                parameters[VOTERS_FEE_PERCENT_INDEX] +\r\n                parameters[PLATFORM_FEE_PERCENT_INDEX];\r\n        }\r\n    }\r\n}",
  "sourcePath": "C:\\Users\\sound\\Desktop\\MOTD\\meme-repo-copy\\src\\contracts\\src\\MOTDSaleParametersProvider.sol",
  "compiler": {
    "name": "solc",
    "version": "0.8.0+commit.c7dfd78e.Emscripten.clang"
  },
  "schemaVersion": "3.3.4",
  "updatedAt": "2021-04-28T13:37:50.121Z",
  "devdoc": {
    "author": "MemeOfTheDay",
    "kind": "dev",
    "methods": {
      "changeParameter(uint256,uint256)": {
        "params": {
          "paramIndex": "the index of the parameter in the mapping",
          "paramValue": "the new value to set to that parameter"
        }
      },
      "owner()": {
        "details": "Returns the address of the current owner."
      },
      "renounceOwnership()": {
        "details": "Leaves the contract without owner. It will not be possible to call `onlyOwner` functions anymore. Can only be called by the current owner. NOTE: Renouncing ownership will leave the contract without an owner, thereby removing any functionality that is only available to the owner."
      },
      "transferOwnership(address)": {
        "details": "Transfers ownership of the contract to a new account (`newOwner`). Can only be called by the current owner."
      }
    },
    "title": "MOTDSaleParametersProvider",
    "version": 1
  },
  "userdoc": {
    "kind": "user",
    "methods": {
      "changeParameter(uint256,uint256)": {
        "notice": "Changes one of the parameters with the given value"
      }
    },
    "notice": "A contract which holds all parameters necessary to calculate fees during sale",
    "version": 1
  }
}